{
  "address": "0x4128c865c6AF7Ff72963E258A9aDe750AE0d0386",
  "abi": [
    {
      "inputs": [
        {
          "internalType": "address",
          "name": "_rrCoordinator",
          "type": "address"
        },
        {
          "internalType": "address",
          "name": "_vrfCoordinator",
          "type": "address"
        }
      ],
      "stateMutability": "nonpayable",
      "type": "constructor"
    },
    {
      "inputs": [
        {
          "internalType": "address",
          "name": "have",
          "type": "address"
        },
        {
          "internalType": "address",
          "name": "want",
          "type": "address"
        }
      ],
      "name": "OnlyCoordinatorCanFulfill",
      "type": "error"
    },
    {
      "inputs": [
        {
          "internalType": "address",
          "name": "notOwner",
          "type": "address"
        }
      ],
      "name": "OnlyOwner",
      "type": "error"
    },
    {
      "inputs": [
        {
          "internalType": "uint256",
          "name": "requestId",
          "type": "uint256"
        }
      ],
      "name": "cancelRequest",
      "outputs": [],
      "stateMutability": "nonpayable",
      "type": "function"
    },
    {
      "inputs": [
        {
          "internalType": "uint256",
          "name": "requestId",
          "type": "uint256"
        },
        {
          "internalType": "uint128",
          "name": "response",
          "type": "uint128"
        }
      ],
      "name": "rawFulfillDataRequest",
      "outputs": [],
      "stateMutability": "nonpayable",
      "type": "function"
    },
    {
      "inputs": [
        {
          "internalType": "uint256",
          "name": "requestId",
          "type": "uint256"
        },
        {
          "internalType": "uint256[]",
          "name": "randomWords",
          "type": "uint256[]"
        }
      ],
      "name": "rawFulfillRandomWords",
      "outputs": [],
      "stateMutability": "nonpayable",
      "type": "function"
    },
    {
      "inputs": [
        {
          "internalType": "uint64",
          "name": "accId",
          "type": "uint64"
        },
        {
          "internalType": "uint32",
          "name": "callbackGasLimit",
          "type": "uint32"
        }
      ],
      "name": "requestRR",
      "outputs": [
        {
          "internalType": "uint256",
          "name": "requestId",
          "type": "uint256"
        }
      ],
      "stateMutability": "nonpayable",
      "type": "function"
    },
    {
      "inputs": [
        {
          "internalType": "bytes32",
          "name": "keyHash",
          "type": "bytes32"
        },
        {
          "internalType": "uint64",
          "name": "accId",
          "type": "uint64"
        },
        {
          "internalType": "uint32",
          "name": "callbackGasLimit",
          "type": "uint32"
        },
        {
          "internalType": "uint32",
          "name": "numWords",
          "type": "uint32"
        }
      ],
      "name": "requestVRF",
      "outputs": [
        {
          "internalType": "uint256",
          "name": "requestId",
          "type": "uint256"
        }
      ],
      "stateMutability": "nonpayable",
      "type": "function"
    },
    {
      "inputs": [],
      "name": "rrCoordinator",
      "outputs": [
        {
          "internalType": "contract IRequestResponseCoordinator",
          "name": "",
          "type": "address"
        }
      ],
      "stateMutability": "view",
      "type": "function"
    },
    {
      "inputs": [],
      "name": "sRandomWord",
      "outputs": [
        {
          "internalType": "uint256",
          "name": "",
          "type": "uint256"
        }
      ],
      "stateMutability": "view",
      "type": "function"
    },
    {
      "inputs": [],
      "name": "sResponse",
      "outputs": [
        {
          "internalType": "uint128",
          "name": "",
          "type": "uint128"
        }
      ],
      "stateMutability": "view",
      "type": "function"
    },
    {
      "inputs": [],
      "name": "vrfCoordinator",
      "outputs": [
        {
          "internalType": "contract IVRFCoordinator",
          "name": "",
          "type": "address"
        }
      ],
      "stateMutability": "view",
      "type": "function"
    },
    {
      "stateMutability": "payable",
      "type": "receive"
    }
  ],
  "transactionHash": "0xc17678aefd45f299c63adde2c2960c07f8562dfbe3b1cfc23e4386d17ba2abc0",
  "args": [
    "0x159F3BB6609B4C709F15823F3544032942106042",
    "0x3F247f70DC083A2907B8E76635986fd09AA80EFb"
  ],
  "numDeployments": 2,
  "solcInputHash": "044c0e83d261c38585253a92c7840633",
  "bytecode": "0x60c060405234801561001057600080fd5b5060405161145e38038061145e83398101604081905261002f916101e5565b6001600160a01b039081166080521660a05260408051660ead2dce86264760cb1b602080830191909152825180830360070181526027830184528051908201206000908152808252838120805463ffffffff1990811663a185c35f179091556534b73a191a9b60d11b60478501528451808503602d018152604d8501865280519084012082528183528482208054821663d1bf555c17905563189bdbdb60e21b606d85015284518085036051018152607185018652805190840120825281835284822080548216637961841717905565737472696e6760d01b60918501528451808503607701815260978501865280519084012082528183528482208054821663f30be55117905566313cba32b9999960c91b60b78501528451808503609e01815260be8501865280519084012082528183528482208054821663bf8542a917905564627974657360d81b60de850152845180850360c301815260e3909401855283519383019390932081529081905291909120805463c6f340139216919091179055600380546001600160a01b03191633179055610218565b80516001600160a01b03811681146101e057600080fd5b919050565b600080604083850312156101f857600080fd5b610201836101c9565b915061020f602084016101c9565b90509250929050565b60805160a0516111f7610267600039600081816101f9015281816103060152818161036f0152818161071a01526108320152600081816101ad0152818161023d015261048c01526111f76000f3fe60806040526004361061009a5760003560e01c80634d04f5fd11610069578063a3e56fa81161004e578063a3e56fa81461019b578063a56d1c73146101e7578063af8764b31461021b57600080fd5b80634d04f5fd146101315780636d7973711461015157600080fd5b80630e5ff996146100a65780631fe543e3146100cf5780633015394c146100f157806345b9b6fb1461011157600080fd5b366100a157005b600080fd5b3480156100b257600080fd5b506100bc60015481565b6040519081526020015b60405180910390f35b3480156100db57600080fd5b506100ef6100ea366004610d25565b61023b565b005b3480156100fd57600080fd5b506100ef61010c366004610def565b6102aa565b34801561011d57600080fd5b506100ef61012c366004610e08565b61036d565b34801561013d57600080fd5b506100bc61014c366004610e7e565b610409565b34801561015d57600080fd5b5060025461017a906fffffffffffffffffffffffffffffffff1681565b6040516fffffffffffffffffffffffffffffffff90911681526020016100c6565b3480156101a757600080fd5b506101cf7f000000000000000000000000000000000000000000000000000000000000000081565b6040516001600160a01b0390911681526020016100c6565b3480156101f357600080fd5b506101cf7f000000000000000000000000000000000000000000000000000000000000000081565b34801561022757600080fd5b506100bc610236366004610ecb565b61050a565b7f0000000000000000000000000000000000000000000000000000000000000000336001600160a01b0382161461029b5760405163073e64fd60e21b81523360048201526001600160a01b03821660248201526044015b60405180910390fd5b6102a583836107a2565b505050565b6003546001600160a01b031633146102d757604051630543601560e11b8152336004820152602401610292565b6040517f3015394c000000000000000000000000000000000000000000000000000000008152600481018290527f00000000000000000000000000000000000000000000000000000000000000006001600160a01b031690633015394c90602401600060405180830381600087803b15801561035257600080fd5b505af1158015610366573d6000803e3d6000fd5b5050505050565b7f0000000000000000000000000000000000000000000000000000000000000000336001600160a01b038216146103c85760405163073e64fd60e21b81523360048201526001600160a01b0382166024820152604401610292565b600280547fffffffffffffffffffffffffffffffff00000000000000000000000000000000166fffffffffffffffffffffffffffffffff8416179055505050565b6003546000906001600160a01b0316331461043957604051630543601560e11b8152336004820152602401610292565b6040517f2f34077b0000000000000000000000000000000000000000000000000000000081526004810186905267ffffffffffffffff8516602482015263ffffffff8085166044830152831660648201527f00000000000000000000000000000000000000000000000000000000000000006001600160a01b031690632f34077b906084016020604051808303816000875af11580156104dd573d6000803e3d6000fd5b505050506040513d601f19601f820116820180604052508101906105019190610efe565b95945050505050565b6003546000906001600160a01b0316331461053a57604051630543601560e11b8152336004820152602401610292565b6040517f75696e7431323800000000000000000000000000000000000000000000000000602082015260009060270160408051601f198184030181529190528051602090910120905060016000610590836107db565b90506105ec6040518060400160405280600381526020017f676574000000000000000000000000000000000000000000000000000000000081525060405180606001604052806037815260200161118b60379139839190610860565b61066b6040518060400160405280600481526020017f70617468000000000000000000000000000000000000000000000000000000008152506040518060400160405280600f81526020017f646174612c72617465732c555344540000000000000000000000000000000000815250836108609092919063ffffffff16565b6106ea6040518060400160405280600581526020017f706f7731300000000000000000000000000000000000000000000000000000008152506040518060400160405280600181526020017f3800000000000000000000000000000000000000000000000000000000000000815250836108609092919063ffffffff16565b6040517f752f8c140000000000000000000000000000000000000000000000000000000081526001600160a01b037f0000000000000000000000000000000000000000000000000000000000000000169063752f8c149061075590849089908b908890600401610f17565b6020604051808303816000875af1158015610774573d6000803e3d6000fd5b505050506040513d601f19601f820116820180604052508101906107989190610efe565b9695505050505050565b6032816000815181106107b7576107b7611007565b60200260200101516107c9919061101d565b6107d4906001611055565b6001555050565b6108196040805160a0810182526000808252602080830182905282840182905260608084018390528451808601909552845283015290608082015290565b60008281526020819052604090205461085a90829084907f00000000000000000000000000000000000000000000000000000000000000009060e01b61087e565b92915050565b608083015161086f9083610909565b60808301516102a59082610909565b6108bc6040805160a0810182526000808252602080830182905282840182905260608084018390528451808601909552845283015290608082015290565b6108cc8560800151610100610920565b50509183526001600160a01b031660208301527fffffffff0000000000000000000000000000000000000000000000000000000016604082015290565b6109168260038351610985565b6102a58282610a9a565b60408051808201909152606081526000602082015261094060208361101d565b156109685761095060208361101d565b61095b906020611068565b6109659083611055565b91505b506020828101829052604080518085526000815290920101905290565b60178167ffffffffffffffff16116109b0576109aa8360e0600585901b168317610ac8565b50505050565b60ff8167ffffffffffffffff16116109ee576109d7836018611fe0600586901b1617610ac8565b506109aa8367ffffffffffffffff83166001610aed565b61ffff8167ffffffffffffffff1611610a2d57610a16836019611fe0600586901b1617610ac8565b506109aa8367ffffffffffffffff83166002610aed565b63ffffffff8167ffffffffffffffff1611610a6e57610a5783601a611fe0600586901b1617610ac8565b506109aa8367ffffffffffffffff83166004610aed565b610a8383601b611fe0600586901b1617610ac8565b506109aa8367ffffffffffffffff83166008610aed565b604080518082019091526060815260006020820152610ac183846000015151848551610b1b565b9392505050565b604080518082019091526060815260006020820152610ac18384600001515184610c05565b604080518082019091526060815260006020820152610b13848560000151518585610c60565b949350505050565b6040805180820190915260608152600060208201528251821115610b3e57600080fd5b6020850151610b4d8386611055565b1115610b8057610b8085610b7087602001518786610b6b9190611055565b610ce1565b610b7b90600261107b565b610cf8565b600080865180518760208301019350808887011115610b9f5787860182525b505050602084015b60208410610bdf5780518252610bbe602083611055565b9150610bcb602082611055565b9050610bd8602085611068565b9350610ba7565b51815160001960208690036101000a019081169019919091161790525083949350505050565b60408051808201909152606081526000602082015283602001518310610c3a57610c3a8485602001516002610b7b919061107b565b8351805160208583010184815350808503610c56576001810182525b5093949350505050565b6040805180820190915260608152600060208201526020850151610c848584611055565b1115610c9857610c9885610b708685611055565b60006001610ca88461010061117e565b610cb29190611068565b9050855183868201018583198251161781525080518487011115610cd65783860181525b509495945050505050565b600081831115610cf257508161085a565b50919050565b8151610d048383610920565b506109aa8382610a9a565b634e487b7160e01b600052604160045260246000fd5b60008060408385031215610d3857600080fd5b8235915060208084013567ffffffffffffffff80821115610d5857600080fd5b818601915086601f830112610d6c57600080fd5b813581811115610d7e57610d7e610d0f565b8060051b604051601f19603f83011681018181108582111715610da357610da3610d0f565b604052918252848201925083810185019189831115610dc157600080fd5b938501935b82851015610ddf57843584529385019392850192610dc6565b8096505050505050509250929050565b600060208284031215610e0157600080fd5b5035919050565b60008060408385031215610e1b57600080fd5b8235915060208301356fffffffffffffffffffffffffffffffff81168114610e4257600080fd5b809150509250929050565b803567ffffffffffffffff81168114610e6557600080fd5b919050565b803563ffffffff81168114610e6557600080fd5b60008060008060808587031215610e9457600080fd5b84359350610ea460208601610e4d565b9250610eb260408601610e6a565b9150610ec060608601610e6a565b905092959194509250565b60008060408385031215610ede57600080fd5b610ee783610e4d565b9150610ef560208401610e6a565b90509250929050565b600060208284031215610f1057600080fd5b5051919050565b6080815284516080820152600060206001600160a01b03818801511660a08401527fffffffff0000000000000000000000000000000000000000000000000000000060408801511660c0840152606087015160e0840152608087015160a06101008501528051604061012086015280518061016087015260005b81811015610fae5782810185015187820161018001528401610f91565b506000868201610180908101919091529284015161014087015263ffffffff891684870152601f01601f191685019091019250610fe89050565b5067ffffffffffffffff8416604083015260ff83166060830152610501565b634e487b7160e01b600052603260045260246000fd5b60008261103a57634e487b7160e01b600052601260045260246000fd5b500690565b634e487b7160e01b600052601160045260246000fd5b8082018082111561085a5761085a61103f565b8181038181111561085a5761085a61103f565b60008160001904831182151516156110955761109561103f565b500290565b600181815b808511156110d55781600019048211156110bb576110bb61103f565b808516156110c857918102915b93841c939080029061109f565b509250929050565b6000826110ec5750600161085a565b816110f95750600061085a565b816001811461110f576002811461111957611135565b600191505061085a565b60ff84111561112a5761112a61103f565b50506001821b61085a565b5060208310610133831016604e8410600b8410161715611158575081810a61085a565b611162838361109a565b80600019048211156111765761117661103f565b029392505050565b6000610ac183836110dd56fe68747470733a2f2f6170692e636f696e626173652e636f6d2f76322f65786368616e67652d72617465733f63757272656e63793d425443a26469706673582212202087ca73d51f5bb289996fec8cf3f7dc5f913a3c2bf8454603f9a280c042f6e364736f6c63430008100033",
  "devdoc": {
    "kind": "dev",
    "methods": {},
    "version": 1
  },
  "userdoc": {
    "kind": "user",
    "methods": {},
    "version": 1
  },
  "storageLayout": {
    "storage": [
      {
        "astId": 1723,
        "contract": "contracts/InspectorConsumer.sol:InspectorConsumer",
        "label": "sJobIdToFunctionSelector",
        "offset": 0,
        "slot": "0",
        "type": "t_mapping(t_bytes32,t_bytes4)"
      },
      {
        "astId": 1511,
        "contract": "contracts/InspectorConsumer.sol:InspectorConsumer",
        "label": "sRandomWord",
        "offset": 0,
        "slot": "1",
        "type": "t_uint256"
      },
      {
        "astId": 1513,
        "contract": "contracts/InspectorConsumer.sol:InspectorConsumer",
        "label": "sResponse",
        "offset": 0,
        "slot": "2",
        "type": "t_uint128"
      },
      {
        "astId": 1515,
        "contract": "contracts/InspectorConsumer.sol:InspectorConsumer",
        "label": "sOwner",
        "offset": 0,
        "slot": "3",
        "type": "t_address"
      }
    ],
    "types": {
      "t_address": {
        "encoding": "inplace",
        "label": "address",
        "numberOfBytes": "20"
      },
      "t_bytes32": {
        "encoding": "inplace",
        "label": "bytes32",
        "numberOfBytes": "32"
      },
      "t_bytes4": {
        "encoding": "inplace",
        "label": "bytes4",
        "numberOfBytes": "4"
      },
      "t_mapping(t_bytes32,t_bytes4)": {
        "encoding": "mapping",
        "key": "t_bytes32",
        "label": "mapping(bytes32 => bytes4)",
        "numberOfBytes": "32",
        "value": "t_bytes4"
      },
      "t_uint128": {
        "encoding": "inplace",
        "label": "uint128",
        "numberOfBytes": "16"
      },
      "t_uint256": {
        "encoding": "inplace",
        "label": "uint256",
        "numberOfBytes": "32"
      }
    }
  }
}