{
  "address": "0xb76a7B28dEDcF082859026FB7493b8A51535B544",
  "abi": [
    {
      "inputs": [
        {
          "internalType": "address",
          "name": "_rrCoordinator",
          "type": "address"
        },
        {
          "internalType": "address",
          "name": "_vrfCoordinator",
          "type": "address"
        }
      ],
      "stateMutability": "nonpayable",
      "type": "constructor"
    },
    {
      "inputs": [
        {
          "internalType": "address",
          "name": "have",
          "type": "address"
        },
        {
          "internalType": "address",
          "name": "want",
          "type": "address"
        }
      ],
      "name": "OnlyCoordinatorCanFulfill",
      "type": "error"
    },
    {
      "inputs": [
        {
          "internalType": "address",
          "name": "notOwner",
          "type": "address"
        }
      ],
      "name": "OnlyOwner",
      "type": "error"
    },
    {
      "inputs": [
        {
          "internalType": "uint256",
          "name": "requestId",
          "type": "uint256"
        }
      ],
      "name": "cancelRequest",
      "outputs": [],
      "stateMutability": "nonpayable",
      "type": "function"
    },
    {
      "inputs": [
        {
          "internalType": "uint256",
          "name": "requestId",
          "type": "uint256"
        },
        {
          "internalType": "uint128",
          "name": "response",
          "type": "uint128"
        }
      ],
      "name": "rawFulfillDataRequest",
      "outputs": [],
      "stateMutability": "nonpayable",
      "type": "function"
    },
    {
      "inputs": [
        {
          "internalType": "uint256",
          "name": "requestId",
          "type": "uint256"
        },
        {
          "internalType": "uint256[]",
          "name": "randomWords",
          "type": "uint256[]"
        }
      ],
      "name": "rawFulfillRandomWords",
      "outputs": [],
      "stateMutability": "nonpayable",
      "type": "function"
    },
    {
      "inputs": [
        {
          "internalType": "uint64",
          "name": "accId",
          "type": "uint64"
        },
        {
          "internalType": "uint32",
          "name": "callbackGasLimit",
          "type": "uint32"
        }
      ],
      "name": "requestRR",
      "outputs": [
        {
          "internalType": "uint256",
          "name": "requestId",
          "type": "uint256"
        }
      ],
      "stateMutability": "nonpayable",
      "type": "function"
    },
    {
      "inputs": [
        {
          "internalType": "bytes32",
          "name": "keyHash",
          "type": "bytes32"
        },
        {
          "internalType": "uint64",
          "name": "accId",
          "type": "uint64"
        },
        {
          "internalType": "uint32",
          "name": "callbackGasLimit",
          "type": "uint32"
        },
        {
          "internalType": "uint32",
          "name": "numWords",
          "type": "uint32"
        }
      ],
      "name": "requestVRF",
      "outputs": [
        {
          "internalType": "uint256",
          "name": "requestId",
          "type": "uint256"
        }
      ],
      "stateMutability": "nonpayable",
      "type": "function"
    },
    {
      "inputs": [],
      "name": "rrCoordinator",
      "outputs": [
        {
          "internalType": "contract IRequestResponseCoordinator",
          "name": "",
          "type": "address"
        }
      ],
      "stateMutability": "view",
      "type": "function"
    },
    {
      "inputs": [],
      "name": "rrRequestId",
      "outputs": [
        {
          "internalType": "uint256",
          "name": "",
          "type": "uint256"
        }
      ],
      "stateMutability": "view",
      "type": "function"
    },
    {
      "inputs": [],
      "name": "sRandomWord",
      "outputs": [
        {
          "internalType": "uint256",
          "name": "",
          "type": "uint256"
        }
      ],
      "stateMutability": "view",
      "type": "function"
    },
    {
      "inputs": [],
      "name": "sResponse",
      "outputs": [
        {
          "internalType": "uint128",
          "name": "",
          "type": "uint128"
        }
      ],
      "stateMutability": "view",
      "type": "function"
    },
    {
      "inputs": [],
      "name": "vrfCoordinator",
      "outputs": [
        {
          "internalType": "contract IVRFCoordinator",
          "name": "",
          "type": "address"
        }
      ],
      "stateMutability": "view",
      "type": "function"
    },
    {
      "inputs": [],
      "name": "vrfRequestId",
      "outputs": [
        {
          "internalType": "uint256",
          "name": "",
          "type": "uint256"
        }
      ],
      "stateMutability": "view",
      "type": "function"
    },
    {
      "stateMutability": "payable",
      "type": "receive"
    }
  ],
  "transactionHash": "0xf37857985f4be192e75e87efbb19a1bddbd9f00cdf794d40dc765100f12c6080",
  "args": [
    "0x159F3BB6609B4C709F15823F3544032942106042",
    "0x3F247f70DC083A2907B8E76635986fd09AA80EFb"
  ],
  "numDeployments": 3,
  "solcInputHash": "57d66d6c20b0d6621833b789dcb0503d",
  "bytecode": "0x60c060405234801561001057600080fd5b506040516114a73803806114a783398101604081905261002f916101e6565b6001600160a01b039081166080521660a05260408051660ead2dce86264760cb1b6020808301919091528251808303600701815260278301845280519082012060009081526002808352848220805463ffffffff1990811663a185c35f179091556534b73a191a9b60d11b60478601528551808603602d018152604d8601875280519085012083528184528583208054821663d1bf555c17905563189bdbdb60e21b606d86015285518086036051018152607186018752805190850120835281845285832080548216637961841717905565737472696e6760d01b60918601528551808603607701815260978601875280519085012083528184528583208054821663f30be55117905566313cba32b9999960c91b60b78601528551808603609e01815260be8601875280519085012083528184528583208054821663bf8542a917905564627974657360d81b60de860152855180860360c301815260e39095018652845194840194909420825290915291909120805463c6f340139216919091179055600580546001600160a01b03191633179055610219565b80516001600160a01b03811681146101e157600080fd5b919050565b600080604083850312156101f957600080fd5b610202836101ca565b9150610210602084016101ca565b90509250929050565b60805160a05161123f6102686000396000818161024b0152818161035d015281816103cb01528181610776015261087a0152600081816101ff0152818161029401526104e8015261123f6000f3fe6080604052600436106100c05760003560e01c806345b9b6fb11610074578063a3e56fa81161004e578063a3e56fa8146101ed578063a56d1c7314610239578063af8764b31461026d57600080fd5b806345b9b6fb146101635780634d04f5fd146101835780636d797371146101a357600080fd5b806318a7ea5f116100a557806318a7ea5f1461010b5780631fe543e3146101215780633015394c1461014357600080fd5b8063022f4594146100cc5780630e5ff996146100f557600080fd5b366100c757005b600080fd5b3480156100d857600080fd5b506100e260015481565b6040519081526020015b60405180910390f35b34801561010157600080fd5b506100e260035481565b34801561011757600080fd5b506100e260005481565b34801561012d57600080fd5b5061014161013c366004610d6d565b61028d565b005b34801561014f57600080fd5b5061014161015e366004610e37565b610301565b34801561016f57600080fd5b5061014161017e366004610e50565b6103c4565b34801561018f57600080fd5b506100e261019e366004610ec6565b610465565b3480156101af57600080fd5b506004546101cc906fffffffffffffffffffffffffffffffff1681565b6040516fffffffffffffffffffffffffffffffff90911681526020016100ec565b3480156101f957600080fd5b506102217f000000000000000000000000000000000000000000000000000000000000000081565b6040516001600160a01b0390911681526020016100ec565b34801561024557600080fd5b506102217f000000000000000000000000000000000000000000000000000000000000000081565b34801561027957600080fd5b506100e2610288366004610f13565b610566565b60008290557f0000000000000000000000000000000000000000000000000000000000000000336001600160a01b038216146102f25760405163073e64fd60e21b81523360048201526001600160a01b03821660248201526044015b60405180910390fd5b6102fc83836107fe565b505050565b6005546001600160a01b0316331461032e57604051630543601560e11b81523360048201526024016102e9565b6040517f3015394c000000000000000000000000000000000000000000000000000000008152600481018290527f00000000000000000000000000000000000000000000000000000000000000006001600160a01b031690633015394c90602401600060405180830381600087803b1580156103a957600080fd5b505af11580156103bd573d6000803e3d6000fd5b5050505050565b60018290557f0000000000000000000000000000000000000000000000000000000000000000336001600160a01b038216146104245760405163073e64fd60e21b81523360048201526001600160a01b03821660248201526044016102e9565b600480547fffffffffffffffffffffffffffffffff00000000000000000000000000000000166fffffffffffffffffffffffffffffffff8416179055505050565b6005546000906001600160a01b0316331461049557604051630543601560e11b81523360048201526024016102e9565b6040517f2f34077b0000000000000000000000000000000000000000000000000000000081526004810186905267ffffffffffffffff8516602482015263ffffffff8085166044830152831660648201527f00000000000000000000000000000000000000000000000000000000000000006001600160a01b031690632f34077b906084016020604051808303816000875af1158015610539573d6000803e3d6000fd5b505050506040513d601f19601f8201168201806040525081019061055d9190610f46565b95945050505050565b6005546000906001600160a01b0316331461059657604051630543601560e11b81523360048201526024016102e9565b6040517f75696e7431323800000000000000000000000000000000000000000000000000602082015260009060270160408051601f1981840301815291905280516020909101209050600160006105ec83610823565b90506106486040518060400160405280600381526020017f67657400000000000000000000000000000000000000000000000000000000008152506040518060600160405280603781526020016111d3603791398391906108a8565b6106c76040518060400160405280600481526020017f70617468000000000000000000000000000000000000000000000000000000008152506040518060400160405280600f81526020017f646174612c72617465732c555344540000000000000000000000000000000000815250836108a89092919063ffffffff16565b6107466040518060400160405280600581526020017f706f7731300000000000000000000000000000000000000000000000000000008152506040518060400160405280600181526020017f3800000000000000000000000000000000000000000000000000000000000000815250836108a89092919063ffffffff16565b6040517f752f8c140000000000000000000000000000000000000000000000000000000081526001600160a01b037f0000000000000000000000000000000000000000000000000000000000000000169063752f8c14906107b190849089908b908890600401610f5f565b6020604051808303816000875af11580156107d0573d6000803e3d6000fd5b505050506040513d601f19601f820116820180604052508101906107f49190610f46565b9695505050505050565b806000815181106108115761081161104f565b60200260200101516003819055505050565b6108616040805160a0810182526000808252602080830182905282840182905260608084018390528451808601909552845283015290608082015290565b6000828152600260205260409020546108a290829084907f00000000000000000000000000000000000000000000000000000000000000009060e01b6108c6565b92915050565b60808301516108b79083610951565b60808301516102fc9082610951565b6109046040805160a0810182526000808252602080830182905282840182905260608084018390528451808601909552845283015290608082015290565b6109148560800151610100610968565b50509183526001600160a01b031660208301527fffffffff0000000000000000000000000000000000000000000000000000000016604082015290565b61095e82600383516109cd565b6102fc8282610ae2565b604080518082019091526060815260006020820152610988602083611065565b156109b057610998602083611065565b6109a390602061109d565b6109ad90836110b0565b91505b506020828101829052604080518085526000815290920101905290565b60178167ffffffffffffffff16116109f8576109f28360e0600585901b168317610b10565b50505050565b60ff8167ffffffffffffffff1611610a3657610a1f836018611fe0600586901b1617610b10565b506109f28367ffffffffffffffff83166001610b35565b61ffff8167ffffffffffffffff1611610a7557610a5e836019611fe0600586901b1617610b10565b506109f28367ffffffffffffffff83166002610b35565b63ffffffff8167ffffffffffffffff1611610ab657610a9f83601a611fe0600586901b1617610b10565b506109f28367ffffffffffffffff83166004610b35565b610acb83601b611fe0600586901b1617610b10565b506109f28367ffffffffffffffff83166008610b35565b604080518082019091526060815260006020820152610b0983846000015151848551610b63565b9392505050565b604080518082019091526060815260006020820152610b098384600001515184610c4d565b604080518082019091526060815260006020820152610b5b848560000151518585610ca8565b949350505050565b6040805180820190915260608152600060208201528251821115610b8657600080fd5b6020850151610b9583866110b0565b1115610bc857610bc885610bb887602001518786610bb391906110b0565b610d29565b610bc39060026110c3565b610d40565b600080865180518760208301019350808887011115610be75787860182525b505050602084015b60208410610c275780518252610c066020836110b0565b9150610c136020826110b0565b9050610c2060208561109d565b9350610bef565b51815160001960208690036101000a019081169019919091161790525083949350505050565b60408051808201909152606081526000602082015283602001518310610c8257610c828485602001516002610bc391906110c3565b8351805160208583010184815350808503610c9e576001810182525b5093949350505050565b6040805180820190915260608152600060208201526020850151610ccc85846110b0565b1115610ce057610ce085610bb886856110b0565b60006001610cf0846101006111c6565b610cfa919061109d565b9050855183868201018583198251161781525080518487011115610d1e5783860181525b509495945050505050565b600081831115610d3a5750816108a2565b50919050565b8151610d4c8383610968565b506109f28382610ae2565b634e487b7160e01b600052604160045260246000fd5b60008060408385031215610d8057600080fd5b8235915060208084013567ffffffffffffffff80821115610da057600080fd5b818601915086601f830112610db457600080fd5b813581811115610dc657610dc6610d57565b8060051b604051601f19603f83011681018181108582111715610deb57610deb610d57565b604052918252848201925083810185019189831115610e0957600080fd5b938501935b82851015610e2757843584529385019392850192610e0e565b8096505050505050509250929050565b600060208284031215610e4957600080fd5b5035919050565b60008060408385031215610e6357600080fd5b8235915060208301356fffffffffffffffffffffffffffffffff81168114610e8a57600080fd5b809150509250929050565b803567ffffffffffffffff81168114610ead57600080fd5b919050565b803563ffffffff81168114610ead57600080fd5b60008060008060808587031215610edc57600080fd5b84359350610eec60208601610e95565b9250610efa60408601610eb2565b9150610f0860608601610eb2565b905092959194509250565b60008060408385031215610f2657600080fd5b610f2f83610e95565b9150610f3d60208401610eb2565b90509250929050565b600060208284031215610f5857600080fd5b5051919050565b6080815284516080820152600060206001600160a01b03818801511660a08401527fffffffff0000000000000000000000000000000000000000000000000000000060408801511660c0840152606087015160e0840152608087015160a06101008501528051604061012086015280518061016087015260005b81811015610ff65782810185015187820161018001528401610fd9565b506000868201610180908101919091529284015161014087015263ffffffff891684870152601f01601f1916850190910192506110309050565b5067ffffffffffffffff8416604083015260ff8316606083015261055d565b634e487b7160e01b600052603260045260246000fd5b60008261108257634e487b7160e01b600052601260045260246000fd5b500690565b634e487b7160e01b600052601160045260246000fd5b818103818111156108a2576108a2611087565b808201808211156108a2576108a2611087565b60008160001904831182151516156110dd576110dd611087565b500290565b600181815b8085111561111d57816000190482111561110357611103611087565b8085161561111057918102915b93841c93908002906110e7565b509250929050565b600082611134575060016108a2565b81611141575060006108a2565b816001811461115757600281146111615761117d565b60019150506108a2565b60ff84111561117257611172611087565b50506001821b6108a2565b5060208310610133831016604e8410600b84101617156111a0575081810a6108a2565b6111aa83836110e2565b80600019048211156111be576111be611087565b029392505050565b6000610b09838361112556fe68747470733a2f2f6170692e636f696e626173652e636f6d2f76322f65786368616e67652d72617465733f63757272656e63793d425443a2646970667358221220347ea5a62d173b90fe148553ca2d2611fd4b61eefd33d9bc753e8fde8b0fbe1064736f6c63430008100033",
  "devdoc": {
    "kind": "dev",
    "methods": {},
    "version": 1
  },
  "userdoc": {
    "kind": "user",
    "methods": {},
    "version": 1
  },
  "storageLayout": {
    "storage": [
      {
        "astId": 1716,
        "contract": "contracts/InspectorConsumer.sol:InspectorConsumer",
        "label": "vrfRequestId",
        "offset": 0,
        "slot": "0",
        "type": "t_uint256"
      },
      {
        "astId": 1718,
        "contract": "contracts/InspectorConsumer.sol:InspectorConsumer",
        "label": "rrRequestId",
        "offset": 0,
        "slot": "1",
        "type": "t_uint256"
      },
      {
        "astId": 1722,
        "contract": "contracts/InspectorConsumer.sol:InspectorConsumer",
        "label": "sJobIdToFunctionSelector",
        "offset": 0,
        "slot": "2",
        "type": "t_mapping(t_bytes32,t_bytes4)"
      },
      {
        "astId": 1511,
        "contract": "contracts/InspectorConsumer.sol:InspectorConsumer",
        "label": "sRandomWord",
        "offset": 0,
        "slot": "3",
        "type": "t_uint256"
      },
      {
        "astId": 1513,
        "contract": "contracts/InspectorConsumer.sol:InspectorConsumer",
        "label": "sResponse",
        "offset": 0,
        "slot": "4",
        "type": "t_uint128"
      },
      {
        "astId": 1515,
        "contract": "contracts/InspectorConsumer.sol:InspectorConsumer",
        "label": "sOwner",
        "offset": 0,
        "slot": "5",
        "type": "t_address"
      }
    ],
    "types": {
      "t_address": {
        "encoding": "inplace",
        "label": "address",
        "numberOfBytes": "20"
      },
      "t_bytes32": {
        "encoding": "inplace",
        "label": "bytes32",
        "numberOfBytes": "32"
      },
      "t_bytes4": {
        "encoding": "inplace",
        "label": "bytes4",
        "numberOfBytes": "4"
      },
      "t_mapping(t_bytes32,t_bytes4)": {
        "encoding": "mapping",
        "key": "t_bytes32",
        "label": "mapping(bytes32 => bytes4)",
        "numberOfBytes": "32",
        "value": "t_bytes4"
      },
      "t_uint128": {
        "encoding": "inplace",
        "label": "uint128",
        "numberOfBytes": "16"
      },
      "t_uint256": {
        "encoding": "inplace",
        "label": "uint256",
        "numberOfBytes": "32"
      }
    }
  }
}