{
  "address": "0x6492009c469373972710744eD34725D96D8c07B3",
  "abi": [
    {
      "inputs": [
        {
          "internalType": "address",
          "name": "l2Endpoint",
          "type": "address"
        }
      ],
      "stateMutability": "nonpayable",
      "type": "constructor"
    },
    {
      "inputs": [
        {
          "internalType": "address",
          "name": "have",
          "type": "address"
        },
        {
          "internalType": "address",
          "name": "want",
          "type": "address"
        }
      ],
      "name": "OnlyCoordinatorCanFulfill",
      "type": "error"
    },
    {
      "inputs": [
        {
          "internalType": "address",
          "name": "notOwner",
          "type": "address"
        }
      ],
      "name": "OnlyOwner",
      "type": "error"
    },
    {
      "inputs": [],
      "name": "COORDINATOR",
      "outputs": [
        {
          "internalType": "contract IRequestResponseCoordinator",
          "name": "",
          "type": "address"
        }
      ],
      "stateMutability": "view",
      "type": "function"
    },
    {
      "inputs": [
        {
          "internalType": "uint256",
          "name": "requestId",
          "type": "uint256"
        },
        {
          "internalType": "bytes",
          "name": "response",
          "type": "bytes"
        }
      ],
      "name": "rawFulfillDataRequest",
      "outputs": [],
      "stateMutability": "nonpayable",
      "type": "function"
    },
    {
      "inputs": [
        {
          "internalType": "uint256",
          "name": "requestId",
          "type": "uint256"
        },
        {
          "internalType": "uint128",
          "name": "response",
          "type": "uint128"
        }
      ],
      "name": "rawFulfillDataRequest",
      "outputs": [],
      "stateMutability": "nonpayable",
      "type": "function"
    },
    {
      "inputs": [
        {
          "internalType": "uint256",
          "name": "requestId",
          "type": "uint256"
        },
        {
          "internalType": "int256",
          "name": "response",
          "type": "int256"
        }
      ],
      "name": "rawFulfillDataRequest",
      "outputs": [],
      "stateMutability": "nonpayable",
      "type": "function"
    },
    {
      "inputs": [
        {
          "internalType": "uint256",
          "name": "requestId",
          "type": "uint256"
        },
        {
          "internalType": "string",
          "name": "response",
          "type": "string"
        }
      ],
      "name": "rawFulfillDataRequest",
      "outputs": [],
      "stateMutability": "nonpayable",
      "type": "function"
    },
    {
      "inputs": [
        {
          "internalType": "uint256",
          "name": "requestId",
          "type": "uint256"
        },
        {
          "internalType": "bool",
          "name": "response",
          "type": "bool"
        }
      ],
      "name": "rawFulfillDataRequest",
      "outputs": [],
      "stateMutability": "nonpayable",
      "type": "function"
    },
    {
      "inputs": [
        {
          "internalType": "uint256",
          "name": "requestId",
          "type": "uint256"
        },
        {
          "internalType": "bytes32",
          "name": "response",
          "type": "bytes32"
        }
      ],
      "name": "rawFulfillDataRequest",
      "outputs": [],
      "stateMutability": "nonpayable",
      "type": "function"
    },
    {
      "inputs": [
        {
          "internalType": "uint64",
          "name": "accId",
          "type": "uint64"
        },
        {
          "internalType": "uint32",
          "name": "callbackGasLimit",
          "type": "uint32"
        },
        {
          "internalType": "uint8",
          "name": "numSubmission",
          "type": "uint8"
        }
      ],
      "name": "requestDataBool",
      "outputs": [
        {
          "internalType": "uint256",
          "name": "requestId",
          "type": "uint256"
        }
      ],
      "stateMutability": "nonpayable",
      "type": "function"
    },
    {
      "inputs": [
        {
          "internalType": "uint64",
          "name": "accId",
          "type": "uint64"
        },
        {
          "internalType": "uint32",
          "name": "callbackGasLimit",
          "type": "uint32"
        },
        {
          "internalType": "uint8",
          "name": "numSubmission",
          "type": "uint8"
        }
      ],
      "name": "requestDataBytes",
      "outputs": [
        {
          "internalType": "uint256",
          "name": "requestId",
          "type": "uint256"
        }
      ],
      "stateMutability": "nonpayable",
      "type": "function"
    },
    {
      "inputs": [
        {
          "internalType": "uint64",
          "name": "accId",
          "type": "uint64"
        },
        {
          "internalType": "uint32",
          "name": "callbackGasLimit",
          "type": "uint32"
        },
        {
          "internalType": "uint8",
          "name": "numSubmission",
          "type": "uint8"
        }
      ],
      "name": "requestDataBytes32",
      "outputs": [
        {
          "internalType": "uint256",
          "name": "requestId",
          "type": "uint256"
        }
      ],
      "stateMutability": "nonpayable",
      "type": "function"
    },
    {
      "inputs": [
        {
          "internalType": "uint64",
          "name": "accId",
          "type": "uint64"
        },
        {
          "internalType": "uint32",
          "name": "callbackGasLimit",
          "type": "uint32"
        },
        {
          "internalType": "uint8",
          "name": "numSubmission",
          "type": "uint8"
        }
      ],
      "name": "requestDataInt256",
      "outputs": [
        {
          "internalType": "uint256",
          "name": "requestId",
          "type": "uint256"
        }
      ],
      "stateMutability": "nonpayable",
      "type": "function"
    },
    {
      "inputs": [
        {
          "internalType": "uint64",
          "name": "accId",
          "type": "uint64"
        },
        {
          "internalType": "uint32",
          "name": "callbackGasLimit",
          "type": "uint32"
        },
        {
          "internalType": "uint8",
          "name": "numSubmission",
          "type": "uint8"
        }
      ],
      "name": "requestDataString",
      "outputs": [
        {
          "internalType": "uint256",
          "name": "requestId",
          "type": "uint256"
        }
      ],
      "stateMutability": "nonpayable",
      "type": "function"
    },
    {
      "inputs": [
        {
          "internalType": "uint64",
          "name": "accId",
          "type": "uint64"
        },
        {
          "internalType": "uint32",
          "name": "callbackGasLimit",
          "type": "uint32"
        },
        {
          "internalType": "uint8",
          "name": "numSubmission",
          "type": "uint8"
        }
      ],
      "name": "requestDataUint128",
      "outputs": [
        {
          "internalType": "uint256",
          "name": "requestId",
          "type": "uint256"
        }
      ],
      "stateMutability": "nonpayable",
      "type": "function"
    },
    {
      "inputs": [],
      "name": "sResponseBool",
      "outputs": [
        {
          "internalType": "bool",
          "name": "",
          "type": "bool"
        }
      ],
      "stateMutability": "view",
      "type": "function"
    },
    {
      "inputs": [],
      "name": "sResponseBytes",
      "outputs": [
        {
          "internalType": "bytes",
          "name": "",
          "type": "bytes"
        }
      ],
      "stateMutability": "view",
      "type": "function"
    },
    {
      "inputs": [],
      "name": "sResponseBytes32",
      "outputs": [
        {
          "internalType": "bytes32",
          "name": "",
          "type": "bytes32"
        }
      ],
      "stateMutability": "view",
      "type": "function"
    },
    {
      "inputs": [],
      "name": "sResponseInt256",
      "outputs": [
        {
          "internalType": "int256",
          "name": "",
          "type": "int256"
        }
      ],
      "stateMutability": "view",
      "type": "function"
    },
    {
      "inputs": [],
      "name": "sResponseString",
      "outputs": [
        {
          "internalType": "string",
          "name": "",
          "type": "string"
        }
      ],
      "stateMutability": "view",
      "type": "function"
    },
    {
      "inputs": [],
      "name": "sResponseUint128",
      "outputs": [
        {
          "internalType": "uint128",
          "name": "",
          "type": "uint128"
        }
      ],
      "stateMutability": "view",
      "type": "function"
    },
    {
      "stateMutability": "payable",
      "type": "receive"
    }
  ],
  "transactionHash": "0x854300f129f97c44dff576575969e147a1b019f1293e283b85ac28cc1ba3c0d1",
  "args": [
    "0xE01d4D702B2326be0ACbAB90faA540e2DBCe3705"
  ],
  "numDeployments": 1,
  "solcInputHash": "b94241e4d3eb269d71a378a8da8748f4",
  "bytecode": "0x60a060405234801561001057600080fd5b50604051611b92380380611b9283398101604081905261002f916101d4565b6001600160a01b0316608081905260408051660ead2dce86264760cb1b6020808301919091528251808303600790810182526027840185528151918301919091206000908152808352848120805463ffffffff1990811663a185c35f179091556534b73a191a9b60d11b60478601528551808603602d018152604d8601875280519085012082528184528582208054821663d1bf555c17905563189bdbdb60e21b606d86015285518086036051018152607186018752805190850120825281845285822080548216637961841717905565737472696e6760d01b60918601528551808603607701815260978601875280519085012082528184528582208054821663f30be55117905566313cba32b9999960c91b60b78601528551808603609e01815260be8601875280519085012082528184528582208054821663bf8542a917905564627974657360d81b60de860152855180860360c301815260e39095018652845194840194909420815291829052929020805490911663c6f340131790558054336001600160a01b031991821617909155600880549091169091179055610204565b6000602082840312156101e657600080fd5b81516001600160a01b03811681146101fd57600080fd5b9392505050565b60805161194261025060003960008181610217015281816106eb015281816107c6015281816109b101528181610a1301528181610c0001528181610cd20152610d8901526119426000f3fe6080604052600436106101485760003560e01c80635215b9d8116100c05780638708211111610074578063cd9a4e2911610059578063cd9a4e2914610386578063efcb1e79146103a6578063f40b4def146103f057600080fd5b8063870821111461034657806390d95efc1461036657600080fd5b806379b15008116100a557806379b15008146102f05780637b3d2ce91461031057806386314c7a1461033057600080fd5b80635215b9d8146102b05780636e2acda0146102d057600080fd5b806334ed9593116101175780633b68dad0116100fc5780633b68dad01461025157806343ff5be11461026657806345b9b6fb1461029057600080fd5b806334ed9593146101e55780633b2bcbf11461020557600080fd5b8063144eb1e81461015457806314f5c3831461017f5780631569e5d6146101a357806319e2cd2f146101c357600080fd5b3661014f57005b600080fd5b34801561016057600080fd5b50610169610410565b60405161017691906112c4565b60405180910390f35b34801561018b57600080fd5b5061019560025481565b604051908152602001610176565b3480156101af57600080fd5b506101956101be3660046112d7565b61049e565b3480156101cf57600080fd5b506101e36101de3660046113ca565b6106e9565b005b3480156101f157600080fd5b506101956102003660046112d7565b610753565b34801561021157600080fd5b506102397f000000000000000000000000000000000000000000000000000000000000000081565b6040516001600160a01b039091168152602001610176565b34801561025d57600080fd5b506101696107b7565b34801561027257600080fd5b506003546102809060ff1681565b6040519015158152602001610176565b34801561029c57600080fd5b506101e36102ab366004611425565b6107c4565b3480156102bc57600080fd5b506101956102cb3660046112d7565b610860565b3480156102dc57600080fd5b506101e36102eb36600461146a565b6109af565b3480156102fc57600080fd5b506101e361030b3660046113ca565b610a11565b34801561031c57600080fd5b5061019561032b3660046112d7565b610a76565b34801561033c57600080fd5b5061019560055481565b34801561035257600080fd5b506101956103613660046112d7565b610b3a565b34801561037257600080fd5b506101e361038136600461148c565b610bfe565b34801561039257600080fd5b506101956103a13660046112d7565b610c6c565b3480156103b257600080fd5b506001546103cf906fffffffffffffffffffffffffffffffff1681565b6040516fffffffffffffffffffffffffffffffff9091168152602001610176565b3480156103fc57600080fd5b506101e361040b36600461146a565b610cd0565b6006805461041d906114b6565b80601f0160208091040260200160405190810160405280929190818152602001828054610449906114b6565b80156104965780601f1061046b57610100808354040283529160200191610496565b820191906000526020600020905b81548152906001019060200180831161047957829003601f168201915b505050505081565b6007546000906001600160a01b031633146104d357604051630543601560e11b81523360048201526024015b60405180910390fd5b6040517f696e74323536000000000000000000000000000000000000000000000000000060208201526000906026015b604051602081830303815290604052805190602001209050600061052682610d32565b90506105686040518060400160405280600381526020016219d95d60ea1b8152506040518060800160405280604a815260200161189b604a9139839190610db7565b6105ce604051806040016040528060048152602001630e0c2e8d60e31b8152506040518060400160405280601281526020017f5241572c4b4c41592c5553442c5052494345000000000000000000000000000081525083610db79092919063ffffffff16565b61064d6040518060400160405280600581526020017f706f7731300000000000000000000000000000000000000000000000000000008152506040518060400160405280600181526020017f380000000000000000000000000000000000000000000000000000000000000081525083610db79092919063ffffffff16565b6008546040517f752f8c140000000000000000000000000000000000000000000000000000000081526001600160a01b039091169063752f8c149061069c90849089908b908a906004016114ea565b6020604051808303816000875af11580156106bb573d6000803e3d6000fd5b505050506040513d601f19601f820116820180604052508101906106df91906115a8565b9695505050505050565b7f0000000000000000000000000000000000000000000000000000000000000000336001600160a01b038216146107445760405163073e64fd60e21b81523360048201526001600160a01b03821660248201526044016104ca565b61074e8383610dd5565b505050565b6007546000906001600160a01b0316331461078357604051630543601560e11b81523360048201526024016104ca565b6040517f75696e74313238000000000000000000000000000000000000000000000000006020820152600090602701610503565b6004805461041d906114b6565b7f0000000000000000000000000000000000000000000000000000000000000000336001600160a01b0382161461081f5760405163073e64fd60e21b81523360048201526001600160a01b03821660248201526044016104ca565b600180547fffffffffffffffffffffffffffffffff00000000000000000000000000000000166fffffffffffffffffffffffffffffffff8416179055505050565b6007546000906001600160a01b0316331461089057604051630543601560e11b81523360048201526024016104ca565b6040517f626f6f6c00000000000000000000000000000000000000000000000000000000602082015260009060240160405160208183030381529060405280519060200120905060006108e282610d32565b90506109496040518060400160405280600381526020016219d95d60ea1b8152506040518060400160405280602081526020017f68747470733a2f2f6d6f636b6170692e696d70657475732e66756e2f7472756581525083610db79092919063ffffffff16565b61064d604051806040016040528060048152602001630e0c2e8d60e31b8152506040518060400160405280600481526020017f646174610000000000000000000000000000000000000000000000000000000081525083610db79092919063ffffffff16565b7f0000000000000000000000000000000000000000000000000000000000000000336001600160a01b03821614610a0a5760405163073e64fd60e21b81523360048201526001600160a01b03821660248201526044016104ca565b5060025550565b7f0000000000000000000000000000000000000000000000000000000000000000336001600160a01b03821614610a6c5760405163073e64fd60e21b81523360048201526001600160a01b03821660248201526044016104ca565b61074e8383610de1565b6007546000906001600160a01b03163314610aa657604051630543601560e11b81523360048201526024016104ca565b6040517f627974657300000000000000000000000000000000000000000000000000000060208201526000906025016040516020818303038152906040528051906020012090506000610af882610d32565b90506109496040518060400160405280600381526020016219d95d60ea1b8152506040518060600160405280602881526020016118e560289139839190610db7565b6007546000906001600160a01b03163314610b6a57604051630543601560e11b81523360048201526024016104ca565b6040517f627974657333320000000000000000000000000000000000000000000000000060208201526000906027016040516020818303038152906040528051906020012090506000610bbc82610d32565b90506109496040518060400160405280600381526020016219d95d60ea1b8152506040518060800160405280605e815260200161183d605e9139839190610db7565b7f0000000000000000000000000000000000000000000000000000000000000000336001600160a01b03821614610c595760405163073e64fd60e21b81523360048201526001600160a01b03821660248201526044016104ca565b6003805460ff1916831515179055505050565b6007546000906001600160a01b03163314610c9c57604051630543601560e11b81523360048201526024016104ca565b6040517f737472696e6700000000000000000000000000000000000000000000000000006020820152600090602601610503565b7f0000000000000000000000000000000000000000000000000000000000000000336001600160a01b03821614610d2b5760405163073e64fd60e21b81523360048201526001600160a01b03821660248201526044016104ca565b5060055550565b610d706040805160a0810182526000808252602080830182905282840182905260608084018390528451808601909552845283015290608082015290565b600082815260208190526040902054610db190829084907f00000000000000000000000000000000000000000000000000000000000000009060e01b610ded565b92915050565b6080830151610dc69083610e78565b608083015161074e9082610e78565b600661074e828261160f565b600461074e828261160f565b610e2b6040805160a0810182526000808252602080830182905282840182905260608084018390528451808601909552845283015290608082015290565b610e3b8560800151610100610e8f565b50509183526001600160a01b031660208301527fffffffff0000000000000000000000000000000000000000000000000000000016604082015290565b610e858260038351610ef4565b61074e8282611009565b604080518082019091526060815260006020820152610eaf6020836116cf565b15610ed757610ebf6020836116cf565b610eca906020611707565b610ed4908361171a565b91505b506020828101829052604080518085526000815290920101905290565b60178167ffffffffffffffff1611610f1f57610f198360e0600585901b168317611037565b50505050565b60ff8167ffffffffffffffff1611610f5d57610f46836018611fe0600586901b1617611037565b50610f198367ffffffffffffffff8316600161105c565b61ffff8167ffffffffffffffff1611610f9c57610f85836019611fe0600586901b1617611037565b50610f198367ffffffffffffffff8316600261105c565b63ffffffff8167ffffffffffffffff1611610fdd57610fc683601a611fe0600586901b1617611037565b50610f198367ffffffffffffffff8316600461105c565b610ff283601b611fe0600586901b1617611037565b50610f198367ffffffffffffffff8316600861105c565b6040805180820190915260608152600060208201526110308384600001515184855161108a565b9392505050565b6040805180820190915260608152600060208201526110308384600001515184611174565b6040805180820190915260608152600060208201526110828485600001515185856111cf565b949350505050565b60408051808201909152606081526000602082015282518211156110ad57600080fd5b60208501516110bc838661171a565b11156110ef576110ef856110df876020015187866110da919061171a565b611250565b6110ea90600261172d565b611267565b60008086518051876020830101935080888701111561110e5787860182525b505050602084015b6020841061114e578051825261112d60208361171a565b915061113a60208261171a565b9050611147602085611707565b9350611116565b51815160001960208690036101000a019081169019919091161790525083949350505050565b604080518082019091526060815260006020820152836020015183106111a9576111a984856020015160026110ea919061172d565b83518051602085830101848153508085036111c5576001810182525b5093949350505050565b60408051808201909152606081526000602082015260208501516111f3858461171a565b111561120757611207856110df868561171a565b6000600161121784610100611830565b6112219190611707565b90508551838682010185831982511617815250805184870111156112455783860181525b509495945050505050565b600081831115611261575081610db1565b50919050565b81516112738383610e8f565b50610f198382611009565b6000815180845260005b818110156112a457602081850181015186830182015201611288565b506000602082860101526020601f19601f83011685010191505092915050565b602081526000611030602083018461127e565b6000806000606084860312156112ec57600080fd5b833567ffffffffffffffff8116811461130457600080fd5b9250602084013563ffffffff8116811461131d57600080fd5b9150604084013560ff8116811461133357600080fd5b809150509250925092565b634e487b7160e01b600052604160045260246000fd5b600067ffffffffffffffff8084111561136f5761136f61133e565b604051601f8501601f19908116603f011681019082821181831017156113975761139761133e565b816040528093508581528686860111156113b057600080fd5b858560208301376000602087830101525050509392505050565b600080604083850312156113dd57600080fd5b82359150602083013567ffffffffffffffff8111156113fb57600080fd5b8301601f8101851361140c57600080fd5b61141b85823560208401611354565b9150509250929050565b6000806040838503121561143857600080fd5b8235915060208301356fffffffffffffffffffffffffffffffff8116811461145f57600080fd5b809150509250929050565b6000806040838503121561147d57600080fd5b50508035926020909101359150565b6000806040838503121561149f57600080fd5b823591506020830135801515811461145f57600080fd5b600181811c908216806114ca57607f821691505b60208210810361126157634e487b7160e01b600052602260045260246000fd5b60808152845160808201526001600160a01b0360208601511660a08201527fffffffff0000000000000000000000000000000000000000000000000000000060408601511660c0820152606085015160e08201526000608086015160a06101008401528051604061012085015261156561016085018261127e565b602092830151610140860152925061158691840190508663ffffffff169052565b67ffffffffffffffff8416604083015260ff8316606083015295945050505050565b6000602082840312156115ba57600080fd5b5051919050565b601f82111561074e57600081815260208120601f850160051c810160208610156115e85750805b601f850160051c820191505b81811015611607578281556001016115f4565b505050505050565b815167ffffffffffffffff8111156116295761162961133e565b61163d8161163784546114b6565b846115c1565b602080601f831160018114611672576000841561165a5750858301515b600019600386901b1c1916600185901b178555611607565b600085815260208120601f198616915b828110156116a157888601518255948401946001909101908401611682565b50858210156116bf5787850151600019600388901b60f8161c191681555b5050505050600190811b01905550565b6000826116ec57634e487b7160e01b600052601260045260246000fd5b500690565b634e487b7160e01b600052601160045260246000fd5b81810381811115610db157610db16116f1565b80820180821115610db157610db16116f1565b6000816000190483118215151615611747576117476116f1565b500290565b600181815b8085111561178757816000190482111561176d5761176d6116f1565b8085161561177a57918102915b93841c9390800290611751565b509250929050565b60008261179e57506001610db1565b816117ab57506000610db1565b81600181146117c157600281146117cb576117e7565b6001915050610db1565b60ff8411156117dc576117dc6116f1565b50506001821b610db1565b5060208310610133831016604e8410600b841016171561180a575081810a610db1565b611814838361174c565b8060001904821115611828576118286116f1565b029392505050565b6000611030838361178f56fe68747470733a2f2f6d6f636b6170692e696d70657475732e66756e2f30783638363536633663366630303030303030303030303030303030303030303030303030303030303030303030303030303030303030303030303030303030303068747470733a2f2f6d696e2d6170692e63727970746f636f6d706172652e636f6d2f646174612f70726963656d756c746966756c6c3f6673796d733d4b4c4159267473796d733d55534468747470733a2f2f6d6f636b6170692e696d70657475732e66756e2f307836383635366336633666a26469706673582212209423b8fbb6ead0b54017ea65aed982664a1fc3a8c5f3e0ec2a10dd2b148e153c64736f6c63430008100033",
  "devdoc": {
    "kind": "dev",
    "methods": {},
    "version": 1
  },
  "userdoc": {
    "kind": "user",
    "methods": {},
    "version": 1
  },
  "storageLayout": {
    "storage": [
      {
        "astId": 8897,
        "contract": "src/v0.1/mocks/L2RequestResponseConsumerMock.sol:L2RequestResponseConsumerMock",
        "label": "sJobIdToFunctionSelector",
        "offset": 0,
        "slot": "0",
        "type": "t_mapping(t_bytes32,t_bytes4)"
      },
      {
        "astId": 18727,
        "contract": "src/v0.1/mocks/L2RequestResponseConsumerMock.sol:L2RequestResponseConsumerMock",
        "label": "sResponseUint128",
        "offset": 0,
        "slot": "1",
        "type": "t_uint128"
      },
      {
        "astId": 18729,
        "contract": "src/v0.1/mocks/L2RequestResponseConsumerMock.sol:L2RequestResponseConsumerMock",
        "label": "sResponseInt256",
        "offset": 0,
        "slot": "2",
        "type": "t_int256"
      },
      {
        "astId": 18731,
        "contract": "src/v0.1/mocks/L2RequestResponseConsumerMock.sol:L2RequestResponseConsumerMock",
        "label": "sResponseBool",
        "offset": 0,
        "slot": "3",
        "type": "t_bool"
      },
      {
        "astId": 18733,
        "contract": "src/v0.1/mocks/L2RequestResponseConsumerMock.sol:L2RequestResponseConsumerMock",
        "label": "sResponseString",
        "offset": 0,
        "slot": "4",
        "type": "t_string_storage"
      },
      {
        "astId": 18735,
        "contract": "src/v0.1/mocks/L2RequestResponseConsumerMock.sol:L2RequestResponseConsumerMock",
        "label": "sResponseBytes32",
        "offset": 0,
        "slot": "5",
        "type": "t_bytes32"
      },
      {
        "astId": 18737,
        "contract": "src/v0.1/mocks/L2RequestResponseConsumerMock.sol:L2RequestResponseConsumerMock",
        "label": "sResponseBytes",
        "offset": 0,
        "slot": "6",
        "type": "t_bytes_storage"
      },
      {
        "astId": 18739,
        "contract": "src/v0.1/mocks/L2RequestResponseConsumerMock.sol:L2RequestResponseConsumerMock",
        "label": "sOwner",
        "offset": 0,
        "slot": "7",
        "type": "t_address"
      },
      {
        "astId": 18742,
        "contract": "src/v0.1/mocks/L2RequestResponseConsumerMock.sol:L2RequestResponseConsumerMock",
        "label": "L2ENDPOINT",
        "offset": 0,
        "slot": "8",
        "type": "t_contract(IL2Endpoint)12966"
      }
    ],
    "types": {
      "t_address": {
        "encoding": "inplace",
        "label": "address",
        "numberOfBytes": "20"
      },
      "t_bool": {
        "encoding": "inplace",
        "label": "bool",
        "numberOfBytes": "1"
      },
      "t_bytes32": {
        "encoding": "inplace",
        "label": "bytes32",
        "numberOfBytes": "32"
      },
      "t_bytes4": {
        "encoding": "inplace",
        "label": "bytes4",
        "numberOfBytes": "4"
      },
      "t_bytes_storage": {
        "encoding": "bytes",
        "label": "bytes",
        "numberOfBytes": "32"
      },
      "t_contract(IL2Endpoint)12966": {
        "encoding": "inplace",
        "label": "contract IL2Endpoint",
        "numberOfBytes": "20"
      },
      "t_int256": {
        "encoding": "inplace",
        "label": "int256",
        "numberOfBytes": "32"
      },
      "t_mapping(t_bytes32,t_bytes4)": {
        "encoding": "mapping",
        "key": "t_bytes32",
        "label": "mapping(bytes32 => bytes4)",
        "numberOfBytes": "32",
        "value": "t_bytes4"
      },
      "t_string_storage": {
        "encoding": "bytes",
        "label": "string",
        "numberOfBytes": "32"
      },
      "t_uint128": {
        "encoding": "inplace",
        "label": "uint128",
        "numberOfBytes": "16"
      }
    }
  }
}