{
  "address": "0xC3400fcac90F5095984335c2b1Af6E3b24E2DdD1",
  "abi": [
    {
      "inputs": [
        {
          "internalType": "address",
          "name": "aggregatorRouter",
          "type": "address"
        },
        {
          "internalType": "address",
          "name": "_rrCoordinator",
          "type": "address"
        },
        {
          "internalType": "address",
          "name": "_vrfCoordinator",
          "type": "address"
        }
      ],
      "stateMutability": "nonpayable",
      "type": "constructor"
    },
    {
      "inputs": [
        {
          "internalType": "address",
          "name": "have",
          "type": "address"
        },
        {
          "internalType": "address",
          "name": "want",
          "type": "address"
        }
      ],
      "name": "OnlyCoordinatorCanFulfill",
      "type": "error"
    },
    {
      "inputs": [
        {
          "internalType": "address",
          "name": "notOwner",
          "type": "address"
        }
      ],
      "name": "OnlyOwner",
      "type": "error"
    },
    {
      "inputs": [
        {
          "internalType": "uint256",
          "name": "requestId",
          "type": "uint256"
        }
      ],
      "name": "cancelRequest",
      "outputs": [],
      "stateMutability": "nonpayable",
      "type": "function"
    },
    {
      "inputs": [
        {
          "internalType": "string",
          "name": "pair",
          "type": "string"
        }
      ],
      "name": "decimals",
      "outputs": [
        {
          "internalType": "uint8",
          "name": "",
          "type": "uint8"
        }
      ],
      "stateMutability": "view",
      "type": "function"
    },
    {
      "inputs": [
        {
          "internalType": "uint256",
          "name": "requestId",
          "type": "uint256"
        },
        {
          "internalType": "uint128",
          "name": "response",
          "type": "uint128"
        }
      ],
      "name": "rawFulfillDataRequest",
      "outputs": [],
      "stateMutability": "nonpayable",
      "type": "function"
    },
    {
      "inputs": [
        {
          "internalType": "uint256",
          "name": "requestId",
          "type": "uint256"
        },
        {
          "internalType": "uint256[]",
          "name": "randomWords",
          "type": "uint256[]"
        }
      ],
      "name": "rawFulfillRandomWords",
      "outputs": [],
      "stateMutability": "nonpayable",
      "type": "function"
    },
    {
      "inputs": [
        {
          "internalType": "string",
          "name": "pair",
          "type": "string"
        }
      ],
      "name": "requestDataFeed",
      "outputs": [
        {
          "internalType": "uint80",
          "name": "",
          "type": "uint80"
        },
        {
          "internalType": "int256",
          "name": "",
          "type": "int256"
        }
      ],
      "stateMutability": "view",
      "type": "function"
    },
    {
      "inputs": [
        {
          "internalType": "uint64",
          "name": "accId",
          "type": "uint64"
        },
        {
          "internalType": "uint32",
          "name": "callbackGasLimit",
          "type": "uint32"
        }
      ],
      "name": "requestRR",
      "outputs": [
        {
          "internalType": "uint256",
          "name": "requestId",
          "type": "uint256"
        }
      ],
      "stateMutability": "nonpayable",
      "type": "function"
    },
    {
      "inputs": [
        {
          "internalType": "uint32",
          "name": "callbackGasLimit",
          "type": "uint32"
        }
      ],
      "name": "requestRRDirect",
      "outputs": [
        {
          "internalType": "uint256",
          "name": "requestId",
          "type": "uint256"
        }
      ],
      "stateMutability": "payable",
      "type": "function"
    },
    {
      "inputs": [
        {
          "internalType": "bytes32",
          "name": "keyHash",
          "type": "bytes32"
        },
        {
          "internalType": "uint64",
          "name": "accId",
          "type": "uint64"
        },
        {
          "internalType": "uint32",
          "name": "callbackGasLimit",
          "type": "uint32"
        },
        {
          "internalType": "uint32",
          "name": "numWords",
          "type": "uint32"
        }
      ],
      "name": "requestVRF",
      "outputs": [
        {
          "internalType": "uint256",
          "name": "requestId",
          "type": "uint256"
        }
      ],
      "stateMutability": "nonpayable",
      "type": "function"
    },
    {
      "inputs": [
        {
          "internalType": "bytes32",
          "name": "keyHash",
          "type": "bytes32"
        },
        {
          "internalType": "uint32",
          "name": "callbackGasLimit",
          "type": "uint32"
        },
        {
          "internalType": "uint32",
          "name": "numWords",
          "type": "uint32"
        },
        {
          "internalType": "address",
          "name": "refundRecipient",
          "type": "address"
        }
      ],
      "name": "requestVRFDirect",
      "outputs": [
        {
          "internalType": "uint256",
          "name": "requestId",
          "type": "uint256"
        }
      ],
      "stateMutability": "payable",
      "type": "function"
    },
    {
      "inputs": [],
      "name": "rrCoordinator",
      "outputs": [
        {
          "internalType": "contract IRequestResponseCoordinator",
          "name": "",
          "type": "address"
        }
      ],
      "stateMutability": "view",
      "type": "function"
    },
    {
      "inputs": [],
      "name": "sRandomWord",
      "outputs": [
        {
          "internalType": "uint256",
          "name": "",
          "type": "uint256"
        }
      ],
      "stateMutability": "view",
      "type": "function"
    },
    {
      "inputs": [],
      "name": "sResponse",
      "outputs": [
        {
          "internalType": "uint128",
          "name": "",
          "type": "uint128"
        }
      ],
      "stateMutability": "view",
      "type": "function"
    },
    {
      "stateMutability": "payable",
      "type": "receive"
    }
  ],
  "transactionHash": "0x5fa346c018434f79a0600d5710022b5b4776a4782ac9de469cb4441d72b6ba35",
  "args": [
    "0xAF821aaaEdeF65b3bC1668c0b910c5b763dF6354",
    "0x5fe8a7445bFDB2Cd6d9f1DcfB3B33D8c365FFdB0",
    "0xDA8c0A00A372503aa6EC80f9b29Cc97C454bE499"
  ],
  "numDeployments": 2,
  "solcInputHash": "f1fc31a091d75ac093f0a30432332167",
  "bytecode": "0x60c06040523480156200001157600080fd5b5060405162001a8c38038062001a8c83398101604081905262000034916200020b565b6001600160a01b03908116608081905291811660a05260408051660ead2dce86264760cb1b602080830191909152825180830360070181526027830184528051908201206000908152808252838120805463ffffffff1990811663a185c35f179091556534b73a191a9b60d11b60478501528451808503602d018152604d8501865280519084012082528183528482208054821663d1bf555c17905563189bdbdb60e21b606d85015284518085036051018152607185018652805190840120825281835284822080548216637961841717905565737472696e6760d01b60918501528451808503607701815260978501865280519084012082528183528482208054821663f30be55117905566313cba32b9999960c91b60b78501528451808503609e01815260be8501865280519084012082528183528482208054821663bf8542a917905564627974657360d81b60de850152845180850360c301815260e3909401855283519383019390932081529081905291909120805490911663c6f3401317905560038054336001600160a01b031991821617909155600580548216949092169390931790556004805490921617905562000255565b80516001600160a01b03811681146200020657600080fd5b919050565b6000806000606084860312156200022157600080fd5b6200022c84620001ee565b92506200023c60208501620001ee565b91506200024c60408501620001ee565b90509250925092565b60805160a0516117e7620002a56000396000818161025201528181610461015281816105600152818161087501528181610a900152610c3601526000818161038301526103c501526117e76000f3fe6080604052600436106100cb5760003560e01c80634d04f5fd11610074578063af8764b31161004e578063af8764b31461028c578063ca81b344146102ac578063d7b6f084146102bf57600080fd5b80634d04f5fd146101d65780636d797371146101f6578063a56d1c731461024057600080fd5b80633015394c116100a55780633015394c146101645780633b2b32041461018457806345b9b6fb146101b657600080fd5b80630d495985146100d75780630e5ff9961461011e5780631fe543e31461014257600080fd5b366100d257005b600080fd5b3480156100e357600080fd5b506100f76100f2366004611106565b6102d2565b6040805169ffffffffffffffffffff90931683526020830191909152015b60405180910390f35b34801561012a57600080fd5b5061013460015481565b604051908152602001610115565b34801561014e57600080fd5b5061016261015d36600461118e565b610378565b005b34801561017057600080fd5b5061016261017f366004611258565b610405565b34801561019057600080fd5b506101a461019f366004611106565b6104c8565b60405160ff9091168152602001610115565b3480156101c257600080fd5b506101626101d1366004611271565b61055e565b3480156101e257600080fd5b506101346101f13660046112e7565b6105ff565b34801561020257600080fd5b5060025461021f906fffffffffffffffffffffffffffffffff1681565b6040516fffffffffffffffffffffffffffffffff9091168152602001610115565b34801561024c57600080fd5b506102747f000000000000000000000000000000000000000000000000000000000000000081565b6040516001600160a01b039091168152602001610115565b34801561029857600080fd5b506101346102a7366004611334565b6106e2565b6101346102ba366004611367565b6108fd565b6101346102cd366004611382565b610b10565b6005546040517f33f98c770000000000000000000000000000000000000000000000000000000081526000918291829182916001600160a01b03909116906333f98c779061032690899089906004016113dd565b60a060405180830381865afa158015610343573d6000803e3d6000fd5b505050506040513d601f19601f820116820180604052508101906103679190611426565b509299919850909650505050505050565b336001600160a01b037f000000000000000000000000000000000000000000000000000000000000000016146103f75760405163073e64fd60e21b81523360048201526001600160a01b037f00000000000000000000000000000000000000000000000000000000000000001660248201526044015b60405180910390fd5b6104018282610ba6565b5050565b6003546001600160a01b0316331461043257604051630543601560e11b81523360048201526024016103ee565b6040517f3015394c000000000000000000000000000000000000000000000000000000008152600481018290527f00000000000000000000000000000000000000000000000000000000000000006001600160a01b031690633015394c90602401600060405180830381600087803b1580156104ad57600080fd5b505af11580156104c1573d6000803e3d6000fd5b5050505050565b6005546040517f3b2b32040000000000000000000000000000000000000000000000000000000081526000916001600160a01b031690633b2b32049061051490869086906004016113dd565b602060405180830381865afa158015610531573d6000803e3d6000fd5b505050506040513d601f19601f820116820180604052508101906105559190611476565b90505b92915050565b7f0000000000000000000000000000000000000000000000000000000000000000336001600160a01b038216146105b95760405163073e64fd60e21b81523360048201526001600160a01b03821660248201526044016103ee565b600280547fffffffffffffffffffffffffffffffff00000000000000000000000000000000166fffffffffffffffffffffffffffffffff8416179055505050565b505050565b6003546000906001600160a01b0316331461062f57604051630543601560e11b81523360048201526024016103ee565b600480546040517f2f34077b00000000000000000000000000000000000000000000000000000000815291820187905267ffffffffffffffff8616602483015263ffffffff8086166044840152841660648301526001600160a01b031690632f34077b906084016020604051808303816000875af11580156106b5573d6000803e3d6000fd5b505050506040513d601f19601f820116820180604052508101906106d991906114a0565b95945050505050565b6003546000906001600160a01b0316331461071257604051630543601560e11b81523360048201526024016103ee565b604051660ead2dce86264760cb1b602082015260009060270160408051601f19818403018152919052805160209091012090506001600061075283610bdf565b90506107946040518060400160405280600381526020016219d95d60ea1b81525060405180606001604052806037815260200161177b60379139839190610c5e565b6107fa604051806040016040528060048152602001630e0c2e8d60e31b8152506040518060400160405280600f81526020017f646174612c72617465732c55534454000000000000000000000000000000000081525083610c5e9092919063ffffffff16565b610845604051806040016040528060058152602001640706f7731360dc1b815250604051806040016040528060018152602001600760fb1b81525083610c5e9092919063ffffffff16565b6040517f752f8c140000000000000000000000000000000000000000000000000000000081526001600160a01b037f0000000000000000000000000000000000000000000000000000000000000000169063752f8c14906108b090849089908b908890600401611574565b6020604051808303816000875af11580156108cf573d6000803e3d6000fd5b505050506040513d601f19601f820116820180604052508101906108f391906114a0565b9695505050505050565b6003546000906001600160a01b0316331461092d57604051630543601560e11b81523360048201526024016103ee565b604051660ead2dce86264760cb1b602082015260009060270160408051601f19818403018152919052805160209091012090506001600061096d83610bdf565b90506109af6040518060400160405280600381526020016219d95d60ea1b81525060405180606001604052806037815260200161177b60379139839190610c5e565b610a15604051806040016040528060048152602001630e0c2e8d60e31b8152506040518060400160405280600f81526020017f646174612c72617465732c55534454000000000000000000000000000000000081525083610c5e9092919063ffffffff16565b610a60604051806040016040528060058152602001640706f7731360dc1b815250604051806040016040528060018152602001600760fb1b81525083610c5e9092919063ffffffff16565b6040517fa4dfe92f0000000000000000000000000000000000000000000000000000000081526001600160a01b037f0000000000000000000000000000000000000000000000000000000000000000169063a4dfe92f903490610acd9085908a90889030906004016115b6565b60206040518083038185885af1158015610aeb573d6000803e3d6000fd5b50505050506040513d601f19601f820116820180604052508101906106d991906114a0565b6003546000906001600160a01b03163314610b4057604051630543601560e11b81523360048201526024016103ee565b600480546040517f0f52ffc600000000000000000000000000000000000000000000000000000000815291820187905263ffffffff8087166024840152851660448301526001600160a01b0384811660648401521690630f52ffc6903490608401610acd565b603281600081518110610bbb57610bbb6115f7565b6020026020010151610bcd919061160d565b610bd8906001611645565b6001555050565b610c1d6040805160a0810182526000808252602080830182905282840182905260608084018390528451808601909552845283015290608082015290565b60008281526020819052604090205461055890829084907f00000000000000000000000000000000000000000000000000000000000000009060e01b610c7c565b6080830151610c6d9083610d07565b60808301516105fa9082610d07565b610cba6040805160a0810182526000808252602080830182905282840182905260608084018390528451808601909552845283015290608082015290565b610cca8560800151610100610d1e565b50509183526001600160a01b031660208301527fffffffff0000000000000000000000000000000000000000000000000000000016604082015290565b610d148260038351610d83565b6105fa8282610e98565b604080518082019091526060815260006020820152610d3e60208361160d565b15610d6657610d4e60208361160d565b610d59906020611658565b610d639083611645565b91505b506020828101829052604080518085526000815290920101905290565b60178167ffffffffffffffff1611610dae57610da88360e0600585901b168317610ebf565b50505050565b60ff8167ffffffffffffffff1611610dec57610dd5836018611fe0600586901b1617610ebf565b50610da88367ffffffffffffffff83166001610ee4565b61ffff8167ffffffffffffffff1611610e2b57610e14836019611fe0600586901b1617610ebf565b50610da88367ffffffffffffffff83166002610ee4565b63ffffffff8167ffffffffffffffff1611610e6c57610e5583601a611fe0600586901b1617610ebf565b50610da88367ffffffffffffffff83166004610ee4565b610e8183601b611fe0600586901b1617610ebf565b50610da88367ffffffffffffffff83166008610ee4565b60408051808201909152606081526000602082015261055583846000015151848551610f12565b6040805180820190915260608152600060208201526105558384600001515184610ffc565b604080518082019091526060815260006020820152610f0a848560000151518585611057565b949350505050565b6040805180820190915260608152600060208201528251821115610f3557600080fd5b6020850151610f448386611645565b1115610f7757610f7785610f6787602001518786610f629190611645565b6110d8565b610f7290600261166b565b6110ef565b600080865180518760208301019350808887011115610f965787860182525b505050602084015b60208410610fd65780518252610fb5602083611645565b9150610fc2602082611645565b9050610fcf602085611658565b9350610f9e565b51815160001960208690036101000a019081169019919091161790525083949350505050565b60408051808201909152606081526000602082015283602001518310611031576110318485602001516002610f72919061166b565b835180516020858301018481535080850361104d576001810182525b5093949350505050565b604080518082019091526060815260006020820152602085015161107b8584611645565b111561108f5761108f85610f678685611645565b6000600161109f8461010061176e565b6110a99190611658565b90508551838682010185831982511617815250805184870111156110cd5783860181525b509495945050505050565b6000818311156110e9575081610558565b50919050565b81516110fb8383610d1e565b50610da88382610e98565b6000806020838503121561111957600080fd5b823567ffffffffffffffff8082111561113157600080fd5b818501915085601f83011261114557600080fd5b81358181111561115457600080fd5b86602082850101111561116657600080fd5b60209290920196919550909350505050565b634e487b7160e01b600052604160045260246000fd5b600080604083850312156111a157600080fd5b8235915060208084013567ffffffffffffffff808211156111c157600080fd5b818601915086601f8301126111d557600080fd5b8135818111156111e7576111e7611178565b8060051b604051601f19603f8301168101818110858211171561120c5761120c611178565b60405291825284820192508381018501918983111561122a57600080fd5b938501935b828510156112485784358452938501939285019261122f565b8096505050505050509250929050565b60006020828403121561126a57600080fd5b5035919050565b6000806040838503121561128457600080fd5b8235915060208301356fffffffffffffffffffffffffffffffff811681146112ab57600080fd5b809150509250929050565b803567ffffffffffffffff811681146112ce57600080fd5b919050565b803563ffffffff811681146112ce57600080fd5b600080600080608085870312156112fd57600080fd5b8435935061130d602086016112b6565b925061131b604086016112d3565b9150611329606086016112d3565b905092959194509250565b6000806040838503121561134757600080fd5b611350836112b6565b915061135e602084016112d3565b90509250929050565b60006020828403121561137957600080fd5b610555826112d3565b6000806000806080858703121561139857600080fd5b843593506113a8602086016112d3565b92506113b6604086016112d3565b915060608501356001600160a01b03811681146113d257600080fd5b939692955090935050565b60208152816020820152818360408301376000818301604090810191909152601f909201601f19160101919050565b805169ffffffffffffffffffff811681146112ce57600080fd5b600080600080600060a0868803121561143e57600080fd5b6114478661140c565b945060208601519350604086015192506060860151915061146a6080870161140c565b90509295509295909350565b60006020828403121561148857600080fd5b815160ff8116811461149957600080fd5b9392505050565b6000602082840312156114b257600080fd5b5051919050565b80518252600060206001600160a01b038184015116818501527fffffffff00000000000000000000000000000000000000000000000000000000604084015116604085015260608301516060850152608083015160a060808601528051604060a087015280518060e088015260005b818110156115455782810185015188820161010001528401611528565b50610100915060008282890101528383015160c088015281601f19601f83011688010194505050505092915050565b60808152600061158760808301876114b9565b63ffffffff9590951660208301525067ffffffffffffffff92909216604083015260ff16606090910152919050565b6080815260006115c960808301876114b9565b63ffffffff9590951660208301525060ff9290921660408301526001600160a01b0316606090910152919050565b634e487b7160e01b600052603260045260246000fd5b60008261162a57634e487b7160e01b600052601260045260246000fd5b500690565b634e487b7160e01b600052601160045260246000fd5b808201808211156105585761055861162f565b818103818111156105585761055861162f565b60008160001904831182151516156116855761168561162f565b500290565b600181815b808511156116c55781600019048211156116ab576116ab61162f565b808516156116b857918102915b93841c939080029061168f565b509250929050565b6000826116dc57506001610558565b816116e957506000610558565b81600181146116ff576002811461170957611725565b6001915050610558565b60ff84111561171a5761171a61162f565b50506001821b610558565b5060208310610133831016604e8410600b8410161715611748575081810a610558565b611752838361168a565b80600019048211156117665761176661162f565b029392505050565b600061055583836116cd56fe68747470733a2f2f6170692e636f696e626173652e636f6d2f76322f65786368616e67652d72617465733f63757272656e63793d425443a26469706673582212204c11eb92fe55e1d0932194789f2dfb03f85fed76da8a4df642f213b5bf718ceb64736f6c63430008100033",
  "devdoc": {
    "kind": "dev",
    "methods": {},
    "version": 1
  },
  "userdoc": {
    "kind": "user",
    "methods": {},
    "version": 1
  },
  "storageLayout": {
    "storage": [
      {
        "astId": 2019,
        "contract": "contracts/InspectorConsumer.sol:InspectorConsumer",
        "label": "sJobIdToFunctionSelector",
        "offset": 0,
        "slot": "0",
        "type": "t_mapping(t_bytes32,t_bytes4)"
      },
      {
        "astId": 1656,
        "contract": "contracts/InspectorConsumer.sol:InspectorConsumer",
        "label": "sRandomWord",
        "offset": 0,
        "slot": "1",
        "type": "t_uint256"
      },
      {
        "astId": 1658,
        "contract": "contracts/InspectorConsumer.sol:InspectorConsumer",
        "label": "sResponse",
        "offset": 0,
        "slot": "2",
        "type": "t_uint128"
      },
      {
        "astId": 1660,
        "contract": "contracts/InspectorConsumer.sol:InspectorConsumer",
        "label": "sOwner",
        "offset": 0,
        "slot": "3",
        "type": "t_address"
      },
      {
        "astId": 1663,
        "contract": "contracts/InspectorConsumer.sol:InspectorConsumer",
        "label": "vrfCoordinator",
        "offset": 0,
        "slot": "4",
        "type": "t_contract(IVRFCoordinator)351"
      },
      {
        "astId": 1666,
        "contract": "contracts/InspectorConsumer.sol:InspectorConsumer",
        "label": "router",
        "offset": 0,
        "slot": "5",
        "type": "t_contract(IAggregatorRouter)140"
      }
    ],
    "types": {
      "t_address": {
        "encoding": "inplace",
        "label": "address",
        "numberOfBytes": "20"
      },
      "t_bytes32": {
        "encoding": "inplace",
        "label": "bytes32",
        "numberOfBytes": "32"
      },
      "t_bytes4": {
        "encoding": "inplace",
        "label": "bytes4",
        "numberOfBytes": "4"
      },
      "t_contract(IAggregatorRouter)140": {
        "encoding": "inplace",
        "label": "contract IAggregatorRouter",
        "numberOfBytes": "20"
      },
      "t_contract(IVRFCoordinator)351": {
        "encoding": "inplace",
        "label": "contract IVRFCoordinator",
        "numberOfBytes": "20"
      },
      "t_mapping(t_bytes32,t_bytes4)": {
        "encoding": "mapping",
        "key": "t_bytes32",
        "label": "mapping(bytes32 => bytes4)",
        "numberOfBytes": "32",
        "value": "t_bytes4"
      },
      "t_uint128": {
        "encoding": "inplace",
        "label": "uint128",
        "numberOfBytes": "16"
      },
      "t_uint256": {
        "encoding": "inplace",
        "label": "uint256",
        "numberOfBytes": "32"
      }
    }
  }
}