{
  "address": "0xE0063a8B184fA65dF04376eaC479AC34d41786CE",
  "abi": [
    {
      "inputs": [
        {
          "internalType": "address",
          "name": "aggregatorAddress",
          "type": "address"
        }
      ],
      "stateMutability": "nonpayable",
      "type": "constructor"
    },
    {
      "inputs": [],
      "name": "InvalidProposedAggregator",
      "type": "error"
    },
    {
      "anonymous": false,
      "inputs": [
        {
          "indexed": true,
          "internalType": "address",
          "name": "previous",
          "type": "address"
        },
        {
          "indexed": true,
          "internalType": "address",
          "name": "latest",
          "type": "address"
        }
      ],
      "name": "AggregatorConfirmed",
      "type": "event"
    },
    {
      "anonymous": false,
      "inputs": [
        {
          "indexed": true,
          "internalType": "address",
          "name": "current",
          "type": "address"
        },
        {
          "indexed": true,
          "internalType": "address",
          "name": "proposed",
          "type": "address"
        }
      ],
      "name": "AggregatorProposed",
      "type": "event"
    },
    {
      "anonymous": false,
      "inputs": [
        {
          "indexed": true,
          "internalType": "int256",
          "name": "current",
          "type": "int256"
        },
        {
          "indexed": true,
          "internalType": "uint256",
          "name": "roundId",
          "type": "uint256"
        },
        {
          "indexed": false,
          "internalType": "uint256",
          "name": "updatedAt",
          "type": "uint256"
        }
      ],
      "name": "AnswerUpdated",
      "type": "event"
    },
    {
      "anonymous": false,
      "inputs": [
        {
          "indexed": true,
          "internalType": "uint256",
          "name": "roundId",
          "type": "uint256"
        },
        {
          "indexed": true,
          "internalType": "address",
          "name": "startedBy",
          "type": "address"
        },
        {
          "indexed": false,
          "internalType": "uint256",
          "name": "startedAt",
          "type": "uint256"
        }
      ],
      "name": "NewRound",
      "type": "event"
    },
    {
      "anonymous": false,
      "inputs": [
        {
          "indexed": true,
          "internalType": "address",
          "name": "previousOwner",
          "type": "address"
        },
        {
          "indexed": true,
          "internalType": "address",
          "name": "newOwner",
          "type": "address"
        }
      ],
      "name": "OwnershipTransferred",
      "type": "event"
    },
    {
      "inputs": [],
      "name": "aggregator",
      "outputs": [
        {
          "internalType": "address",
          "name": "",
          "type": "address"
        }
      ],
      "stateMutability": "view",
      "type": "function"
    },
    {
      "inputs": [
        {
          "internalType": "address",
          "name": "aggregatorAddress",
          "type": "address"
        }
      ],
      "name": "confirmAggregator",
      "outputs": [],
      "stateMutability": "nonpayable",
      "type": "function"
    },
    {
      "inputs": [],
      "name": "decimals",
      "outputs": [
        {
          "internalType": "uint8",
          "name": "",
          "type": "uint8"
        }
      ],
      "stateMutability": "view",
      "type": "function"
    },
    {
      "inputs": [],
      "name": "description",
      "outputs": [
        {
          "internalType": "string",
          "name": "",
          "type": "string"
        }
      ],
      "stateMutability": "view",
      "type": "function"
    },
    {
      "inputs": [
        {
          "internalType": "uint80",
          "name": "roundId",
          "type": "uint80"
        }
      ],
      "name": "getRoundData",
      "outputs": [
        {
          "internalType": "uint80",
          "name": "id",
          "type": "uint80"
        },
        {
          "internalType": "int256",
          "name": "answer",
          "type": "int256"
        },
        {
          "internalType": "uint256",
          "name": "startedAt",
          "type": "uint256"
        },
        {
          "internalType": "uint256",
          "name": "updatedAt",
          "type": "uint256"
        },
        {
          "internalType": "uint80",
          "name": "answeredInRound",
          "type": "uint80"
        }
      ],
      "stateMutability": "view",
      "type": "function"
    },
    {
      "inputs": [],
      "name": "latestRoundData",
      "outputs": [
        {
          "internalType": "uint80",
          "name": "id",
          "type": "uint80"
        },
        {
          "internalType": "int256",
          "name": "answer",
          "type": "int256"
        },
        {
          "internalType": "uint256",
          "name": "startedAt",
          "type": "uint256"
        },
        {
          "internalType": "uint256",
          "name": "updatedAt",
          "type": "uint256"
        },
        {
          "internalType": "uint80",
          "name": "answeredInRound",
          "type": "uint80"
        }
      ],
      "stateMutability": "view",
      "type": "function"
    },
    {
      "inputs": [],
      "name": "owner",
      "outputs": [
        {
          "internalType": "address",
          "name": "",
          "type": "address"
        }
      ],
      "stateMutability": "view",
      "type": "function"
    },
    {
      "inputs": [
        {
          "internalType": "uint16",
          "name": "phaseId_",
          "type": "uint16"
        }
      ],
      "name": "phaseAggregators",
      "outputs": [
        {
          "internalType": "address",
          "name": "",
          "type": "address"
        }
      ],
      "stateMutability": "view",
      "type": "function"
    },
    {
      "inputs": [],
      "name": "phaseId",
      "outputs": [
        {
          "internalType": "uint16",
          "name": "",
          "type": "uint16"
        }
      ],
      "stateMutability": "view",
      "type": "function"
    },
    {
      "inputs": [
        {
          "internalType": "address",
          "name": "aggregatorAddress",
          "type": "address"
        }
      ],
      "name": "proposeAggregator",
      "outputs": [],
      "stateMutability": "nonpayable",
      "type": "function"
    },
    {
      "inputs": [],
      "name": "proposedAggregator",
      "outputs": [
        {
          "internalType": "address",
          "name": "",
          "type": "address"
        }
      ],
      "stateMutability": "view",
      "type": "function"
    },
    {
      "inputs": [
        {
          "internalType": "uint80",
          "name": "roundId",
          "type": "uint80"
        }
      ],
      "name": "proposedGetRoundData",
      "outputs": [
        {
          "internalType": "uint80",
          "name": "id",
          "type": "uint80"
        },
        {
          "internalType": "int256",
          "name": "answer",
          "type": "int256"
        },
        {
          "internalType": "uint256",
          "name": "startedAt",
          "type": "uint256"
        },
        {
          "internalType": "uint256",
          "name": "updatedAt",
          "type": "uint256"
        },
        {
          "internalType": "uint80",
          "name": "answeredInRound",
          "type": "uint80"
        }
      ],
      "stateMutability": "view",
      "type": "function"
    },
    {
      "inputs": [],
      "name": "proposedLatestRoundData",
      "outputs": [
        {
          "internalType": "uint80",
          "name": "id",
          "type": "uint80"
        },
        {
          "internalType": "int256",
          "name": "answer",
          "type": "int256"
        },
        {
          "internalType": "uint256",
          "name": "startedAt",
          "type": "uint256"
        },
        {
          "internalType": "uint256",
          "name": "updatedAt",
          "type": "uint256"
        },
        {
          "internalType": "uint80",
          "name": "answeredInRound",
          "type": "uint80"
        }
      ],
      "stateMutability": "view",
      "type": "function"
    },
    {
      "inputs": [],
      "name": "renounceOwnership",
      "outputs": [],
      "stateMutability": "nonpayable",
      "type": "function"
    },
    {
      "inputs": [
        {
          "internalType": "address",
          "name": "newOwner",
          "type": "address"
        }
      ],
      "name": "transferOwnership",
      "outputs": [],
      "stateMutability": "nonpayable",
      "type": "function"
    },
    {
      "inputs": [],
      "name": "typeAndVersion",
      "outputs": [
        {
          "internalType": "string",
          "name": "",
          "type": "string"
        }
      ],
      "stateMutability": "view",
      "type": "function"
    }
  ],
  "transactionHash": "0xabe79bdb0252b4abbd3d88a38f7e4d9d0d315d566d46c1de3b98804c1bf1653b",
  "args": [
    "0x86366EE15af225bcb8238266387424d7a9957E5F"
  ],
  "numDeployments": 1,
  "solcInputHash": "60ea5a4040b01d2b56ffbce9a999b2ba",
  "bytecode": "0x608060405234801561001057600080fd5b50604051610eb4380380610eb483398101604081905261002f9161010e565b61003833610047565b61004181610097565b5061016e565b600080546001600160a01b038381166001600160a01b0319831681178455604051919092169283917f8be0079c531659141344cd1fd0a4f28419497f9722a3daafe3b4186f6b6457e09190a35050565b6003546000906100ac9061ffff16600161013e565b60408051808201825261ffff9092168083526001600160a01b039094166020928301819052600380546201000083026001600160b01b031990911687171790556000948552600290925290922080546001600160a01b03191690921790915550565b60006020828403121561012057600080fd5b81516001600160a01b038116811461013757600080fd5b9392505050565b61ffff81811683821601908082111561016757634e487b7160e01b600052601160045260246000fd5b5092915050565b610d378061017d6000396000f3fe608060405234801561001057600080fd5b50600436106101005760003560e01c80638f6b4d9111610097578063e8c4be3011610066578063e8c4be3014610246578063f2fde38b14610257578063f8a2abd31461026a578063feaf968c1461027d57600080fd5b80638f6b4d91146101eb5780639a6fc8f5146101f3578063a928c09614610206578063c15973041461021957600080fd5b80636001ac53116100d35780636001ac531461017e578063715018a6146101c85780637284e416146101d25780638da5cb5b146101da57600080fd5b8063181f5a7714610105578063245a7bfc14610123578063313ce5671461014e57806358303b1014610168575b600080fd5b61010d610285565b60405161011a9190610ad7565b60405180910390f35b6003546201000090046001600160a01b03165b6040516001600160a01b03909116815260200161011a565b61015661030a565b60405160ff909116815260200161011a565b60035460405161ffff909116815260200161011a565b61019161018c366004610b22565b610386565b6040805169ffffffffffffffffffff968716815260208101959095528401929092526060830152909116608082015260a00161011a565b6101d0610478565b005b61010d61048c565b6000546001600160a01b0316610136565b6101916104e4565b610191610201366004610b22565b6105cf565b6101d0610214366004610b46565b6106b8565b610136610227366004610b6f565b61ffff166000908152600260205260409020546001600160a01b031690565b6001546001600160a01b0316610136565b6101d0610265366004610b46565b610783565b6101d0610278366004610b46565b610813565b610191610881565b6060600360000160029054906101000a90046001600160a01b03166001600160a01b031663181f5a776040518163ffffffff1660e01b8152600401600060405180830381865afa1580156102dd573d6000803e3d6000fd5b505050506040513d6000823e601f3d908101601f191682016040526103059190810190610ba9565b905090565b6000600360000160029054906101000a90046001600160a01b03166001600160a01b031663313ce5676040518163ffffffff1660e01b8152600401602060405180830381865afa158015610362573d6000803e3d6000fd5b505050506040513d601f19601f820116820180604052508101906103059190610c56565b60015460009081908190819081906001600160a01b03166103ee5760405162461bcd60e51b815260206004820152601e60248201527f4e6f2070726f706f7365642061676772656761746f722070726573656e74000060448201526064015b60405180910390fd5b600154604051639a6fc8f560e01b815269ffffffffffffffffffff881660048201526001600160a01b0390911690639a6fc8f59060240160a060405180830381865afa158015610442573d6000803e3d6000fd5b505050506040513d601f19601f820116820180604052508101906104669190610c79565b939a9299509097509550909350915050565b610480610960565b61048a60006109ba565b565b6060600360000160029054906101000a90046001600160a01b03166001600160a01b0316637284e4166040518163ffffffff1660e01b8152600401600060405180830381865afa1580156102dd573d6000803e3d6000fd5b60015460009081908190819081906001600160a01b03166105475760405162461bcd60e51b815260206004820152601e60248201527f4e6f2070726f706f7365642061676772656761746f722070726573656e74000060448201526064016103e5565b600160009054906101000a90046001600160a01b03166001600160a01b031663feaf968c6040518163ffffffff1660e01b815260040160a060405180830381865afa15801561059a573d6000803e3d6000fd5b505050506040513d601f19601f820116820180604052508101906105be9190610c79565b945094509450945094509091929394565b60008060008060008060006105f28869ffffffffffffffffffff16604081901c91565b61ffff821660009081526002602052604090819020549051639a6fc8f560e01b815267ffffffffffffffff831660048201529294509092506001600160a01b031690639a6fc8f59060240160a060405180830381865afa15801561065a573d6000803e3d6000fd5b505050506040513d601f19601f8201168201806040525081019061067e9190610c79565b67ffffffffffffffff94851660409790971b69ffff0000000000000000169687179d939c50919a5098509190911690921794509092505050565b6106c0610960565b6001546001600160a01b03828116911614610707576040517f7751b62300000000000000000000000000000000000000000000000000000000815260040160405180910390fd5b6003546001805473ffffffffffffffffffffffffffffffffffffffff191690556201000090046001600160a01b031661073f82610a17565b816001600160a01b0316816001600160a01b03167f33745f67a407dcb785417f9c123dd3641479a102674b6e35c1f10975625b90e960405160405180910390a35050565b61078b610960565b6001600160a01b0381166108075760405162461bcd60e51b815260206004820152602660248201527f4f776e61626c653a206e6577206f776e657220697320746865207a65726f206160448201527f646472657373000000000000000000000000000000000000000000000000000060648201526084016103e5565b610810816109ba565b50565b61081b610960565b6001805473ffffffffffffffffffffffffffffffffffffffff19166001600160a01b0383811691821790925560035460405191926201000090910416907fc0f151710f03d713b71d9970cee0d5b11ddc9a7552abaa3f6ee818010f21600d90600090a350565b60408051808201825260035461ffff811682526201000090046001600160a01b03166020820181905282517ffeaf968c0000000000000000000000000000000000000000000000000000000081529251600093849384938493849363feaf968c9160048083019260a09291908290030181865afa158015610906573d6000803e3d6000fd5b505050506040513d601f19601f8201168201806040525081019061092a9190610c79565b945169ffff000000000000000060409190911b1667ffffffffffffffff94851681179b939a509198509650919092161792509050565b6000546001600160a01b0316331461048a5760405162461bcd60e51b815260206004820181905260248201527f4f776e61626c653a2063616c6c6572206973206e6f7420746865206f776e657260448201526064016103e5565b600080546001600160a01b0383811673ffffffffffffffffffffffffffffffffffffffff19831681178455604051919092169283917f8be0079c531659141344cd1fd0a4f28419497f9722a3daafe3b4186f6b6457e09190a35050565b600354600090610a2c9061ffff166001610cd1565b60408051808201825261ffff9092168083526001600160a01b039094166020928301819052600380546201000083027fffffffffffffffffffff00000000000000000000000000000000000000000000909116871717905560009485526002909252909220805473ffffffffffffffffffffffffffffffffffffffff191690921790915550565b60005b83811015610ace578181015183820152602001610ab6565b50506000910152565b6020815260008251806020840152610af6816040850160208701610ab3565b601f01601f19169190910160400192915050565b69ffffffffffffffffffff8116811461081057600080fd5b600060208284031215610b3457600080fd5b8135610b3f81610b0a565b9392505050565b600060208284031215610b5857600080fd5b81356001600160a01b0381168114610b3f57600080fd5b600060208284031215610b8157600080fd5b813561ffff81168114610b3f57600080fd5b634e487b7160e01b600052604160045260246000fd5b600060208284031215610bbb57600080fd5b815167ffffffffffffffff80821115610bd357600080fd5b818401915084601f830112610be757600080fd5b815181811115610bf957610bf9610b93565b604051601f8201601f19908116603f01168101908382118183101715610c2157610c21610b93565b81604052828152876020848701011115610c3a57600080fd5b610c4b836020830160208801610ab3565b979650505050505050565b600060208284031215610c6857600080fd5b815160ff81168114610b3f57600080fd5b600080600080600060a08688031215610c9157600080fd5b8551610c9c81610b0a565b809550506020860151935060408601519250606086015191506080860151610cc381610b0a565b809150509295509295909350565b61ffff818116838216019080821115610cfa57634e487b7160e01b600052601160045260246000fd5b509291505056fea2646970667358221220d6ff583af1cd6c04f69bcc5e6d17cdc1f3cf983afbc59934bd035630e119c69764736f6c63430008100033",
  "devdoc": {
    "kind": "dev",
    "methods": {
      "confirmAggregator(address)": {
        "details": "Reverts if the given address doesn't match what was previously proposed",
        "params": {
          "aggregatorAddress": "The new address for the aggregator contract"
        }
      },
      "getRoundData(uint80)": {
        "details": "Note that answer and updatedAt may change between queries.",
        "params": {
          "roundId": "the requested round ID as presented through the proxy, this is made up of the aggregator's round ID with the phase ID encoded in the two highest order bytes"
        },
        "returns": {
          "answer": "is the answer for the given round",
          "answeredInRound": "is the round ID of the round in which the answer was computed. (Only some AggregatorV3Interface implementations return meaningful values)",
          "id": "is the round ID from the aggregator for which the data was retrieved combined with an phase to ensure that round IDs get larger as time moves forward.",
          "startedAt": "is the timestamp when the round was started. (Only some AggregatorV3Interface implementations return meaningful values)",
          "updatedAt": "is the timestamp when the round last was updated (i.e. answer was last computed)"
        }
      },
      "latestRoundData()": {
        "details": "Note that answer and updatedAt may change between queries.",
        "returns": {
          "answer": "is the answer for the given round",
          "answeredInRound": "is the round ID of the round in which the answer was computed. (Only some AggregatorV3Interface implementations return meaningful values)",
          "id": "is the round ID from the aggregator for which the data was retrieved combined with an phase to ensure that round IDs get larger as time moves forward.",
          "startedAt": "is the timestamp when the round was started. (Only some AggregatorV3Interface implementations return meaningful values)",
          "updatedAt": "is the timestamp when the round last was updated (i.e. answer was last computed)"
        }
      },
      "owner()": {
        "details": "Returns the address of the current owner."
      },
      "phaseAggregators(uint16)": {
        "params": {
          "phaseId_": "uint16"
        }
      },
      "proposeAggregator(address)": {
        "params": {
          "aggregatorAddress": "The new address for the aggregator contract"
        }
      },
      "proposedGetRoundData(uint80)": {
        "params": {
          "roundId": "the round ID to retrieve the round data for"
        },
        "returns": {
          "answer": "is the answer for the given round",
          "answeredInRound": "is the round ID of the round in which the answer was computed.",
          "id": "is the round ID for which data was retrieved",
          "startedAt": "is the timestamp when the round was started. (Only some AggregatorV3Interface implementations return meaningful values)",
          "updatedAt": "is the timestamp when the round last was updated (i.e. answer was last computed)"
        }
      },
      "proposedLatestRoundData()": {
        "returns": {
          "answer": "is the answer for the given round",
          "answeredInRound": "is the round ID of the round in which the answer was computed.",
          "id": "is the round ID for which data was retrieved",
          "startedAt": "is the timestamp when the round was started. (Only some AggregatorV3Interface implementations return meaningful values)",
          "updatedAt": "is the timestamp when the round last was updated (i.e. answer was last computed)"
        }
      },
      "renounceOwnership()": {
        "details": "Leaves the contract without owner. It will not be possible to call `onlyOwner` functions. Can only be called by the current owner. NOTE: Renouncing ownership will leave the contract without an owner, thereby disabling any functionality that is only available to the owner."
      },
      "transferOwnership(address)": {
        "details": "Transfers ownership of the contract to a new account (`newOwner`). Can only be called by the current owner."
      }
    },
    "title": "A trusted proxy for updating where current answers are read from",
    "version": 1
  },
  "userdoc": {
    "kind": "user",
    "methods": {
      "aggregator()": {
        "notice": "returns the current phase's aggregator address."
      },
      "confirmAggregator(address)": {
        "notice": "Allows the owner to confirm and change the address to the proposed aggregator"
      },
      "decimals()": {
        "notice": "represents the number of decimals the aggregator responses represent."
      },
      "description()": {
        "notice": "returns the description of the aggregator the proxy points to."
      },
      "getRoundData(uint80)": {
        "notice": "get data about a round. Consumers are encouraged to check that they're receiving fresh data by inspecting the updatedAt and answeredInRound return values. Note that different underlying implementations of AggregatorV3Interface have slightly different semantics for some of the return values. Consumers should determine what implementations they expect to receive data from and validate that they can properly handle return data from all of them."
      },
      "latestRoundData()": {
        "notice": "get data about the latest round. Consumers are encouraged to check that they're receiving fresh data by inspecting the updatedAt and answeredInRound return values. Note that different underlying implementations of AggregatorV3Interface have slightly different semantics for some of the return values. Consumers should determine what implementations they expect to receive data from and validate that they can properly handle return data from all of them."
      },
      "phaseAggregators(uint16)": {
        "notice": "return a phase aggregator using the phaseId"
      },
      "phaseId()": {
        "notice": "returns the current phase's ID."
      },
      "proposeAggregator(address)": {
        "notice": "Allows the owner to propose a new address for the aggregator"
      },
      "proposedAggregator()": {
        "notice": "returns the current proposed aggregator"
      },
      "proposedGetRoundData(uint80)": {
        "notice": "Used if an aggregator contract has been proposed."
      },
      "proposedLatestRoundData()": {
        "notice": "Used if an aggregator contract has been proposed."
      },
      "typeAndVersion()": {
        "notice": "the type and version of aggregator to which proxy points to."
      }
    },
    "notice": "This contract provides a consistent address for the CurrentAnswerInterface but delegates where it reads from to the owner, who is trusted to update it.",
    "version": 1
  },
  "storageLayout": {
    "storage": [
      {
        "astId": 7,
        "contract": "src/AggregatorProxy.sol:AggregatorProxy",
        "label": "_owner",
        "offset": 0,
        "slot": "0",
        "type": "t_address"
      },
      {
        "astId": 2677,
        "contract": "src/AggregatorProxy.sol:AggregatorProxy",
        "label": "sProposedAggregator",
        "offset": 0,
        "slot": "1",
        "type": "t_contract(IAggregatorProxy)13164"
      },
      {
        "astId": 2682,
        "contract": "src/AggregatorProxy.sol:AggregatorProxy",
        "label": "sPhaseAggregators",
        "offset": 0,
        "slot": "2",
        "type": "t_mapping(t_uint16,t_contract(IAggregatorProxy)13164)"
      },
      {
        "astId": 2685,
        "contract": "src/AggregatorProxy.sol:AggregatorProxy",
        "label": "sCurrentPhase",
        "offset": 0,
        "slot": "3",
        "type": "t_struct(Phase)2674_storage"
      }
    ],
    "types": {
      "t_address": {
        "encoding": "inplace",
        "label": "address",
        "numberOfBytes": "20"
      },
      "t_contract(IAggregatorProxy)13164": {
        "encoding": "inplace",
        "label": "contract IAggregatorProxy",
        "numberOfBytes": "20"
      },
      "t_mapping(t_uint16,t_contract(IAggregatorProxy)13164)": {
        "encoding": "mapping",
        "key": "t_uint16",
        "label": "mapping(uint16 => contract IAggregatorProxy)",
        "numberOfBytes": "32",
        "value": "t_contract(IAggregatorProxy)13164"
      },
      "t_struct(Phase)2674_storage": {
        "encoding": "inplace",
        "label": "struct AggregatorProxy.Phase",
        "members": [
          {
            "astId": 2670,
            "contract": "src/AggregatorProxy.sol:AggregatorProxy",
            "label": "id",
            "offset": 0,
            "slot": "0",
            "type": "t_uint16"
          },
          {
            "astId": 2673,
            "contract": "src/AggregatorProxy.sol:AggregatorProxy",
            "label": "aggregator",
            "offset": 2,
            "slot": "0",
            "type": "t_contract(IAggregatorProxy)13164"
          }
        ],
        "numberOfBytes": "32"
      },
      "t_uint16": {
        "encoding": "inplace",
        "label": "uint16",
        "numberOfBytes": "2"
      }
    }
  }
}