{
  "address": "0x8d3A1663d10eEb0bC9C9e537e1BBeA69383194e7",
  "abi": [
    {
      "inputs": [
        {
          "internalType": "address",
          "name": "protocolFeeRecipient",
          "type": "address"
        }
      ],
      "stateMutability": "nonpayable",
      "type": "constructor"
    },
    {
      "inputs": [],
      "name": "BurnFeeFailed",
      "type": "error"
    },
    {
      "inputs": [],
      "name": "CoordinatorExists",
      "type": "error"
    },
    {
      "inputs": [],
      "name": "FailedToDeposit",
      "type": "error"
    },
    {
      "inputs": [
        {
          "internalType": "uint64",
          "name": "accId",
          "type": "uint64"
        }
      ],
      "name": "FailedToWithdraw",
      "type": "error"
    },
    {
      "inputs": [
        {
          "internalType": "uint64",
          "name": "accId",
          "type": "uint64"
        }
      ],
      "name": "FailedToWithdrawFromTemporaryAccount",
      "type": "error"
    },
    {
      "inputs": [],
      "name": "InsufficientBalance",
      "type": "error"
    },
    {
      "inputs": [],
      "name": "InvalidAccount",
      "type": "error"
    },
    {
      "inputs": [],
      "name": "InvalidCoordinator",
      "type": "error"
    },
    {
      "inputs": [],
      "name": "MustBeAccountOwner",
      "type": "error"
    },
    {
      "inputs": [],
      "name": "OperatorFeeFailed",
      "type": "error"
    },
    {
      "inputs": [],
      "name": "PendingRequestExists",
      "type": "error"
    },
    {
      "inputs": [],
      "name": "ProtocolFeeFailed",
      "type": "error"
    },
    {
      "inputs": [],
      "name": "RatioOutOfBounds",
      "type": "error"
    },
    {
      "inputs": [],
      "name": "TooHighFeeRatio",
      "type": "error"
    },
    {
      "anonymous": false,
      "inputs": [
        {
          "indexed": true,
          "internalType": "uint64",
          "name": "accId",
          "type": "uint64"
        },
        {
          "indexed": false,
          "internalType": "uint256",
          "name": "oldBalance",
          "type": "uint256"
        },
        {
          "indexed": false,
          "internalType": "uint256",
          "name": "newBalance",
          "type": "uint256"
        }
      ],
      "name": "AccountBalanceDecreased",
      "type": "event"
    },
    {
      "anonymous": false,
      "inputs": [
        {
          "indexed": true,
          "internalType": "uint64",
          "name": "accId",
          "type": "uint64"
        },
        {
          "indexed": false,
          "internalType": "uint256",
          "name": "oldBalance",
          "type": "uint256"
        },
        {
          "indexed": false,
          "internalType": "uint256",
          "name": "newBalance",
          "type": "uint256"
        }
      ],
      "name": "AccountBalanceIncreased",
      "type": "event"
    },
    {
      "anonymous": false,
      "inputs": [
        {
          "indexed": true,
          "internalType": "uint64",
          "name": "accId",
          "type": "uint64"
        },
        {
          "indexed": false,
          "internalType": "address",
          "name": "to",
          "type": "address"
        },
        {
          "indexed": false,
          "internalType": "uint256",
          "name": "amount",
          "type": "uint256"
        }
      ],
      "name": "AccountCanceled",
      "type": "event"
    },
    {
      "anonymous": false,
      "inputs": [
        {
          "indexed": true,
          "internalType": "uint64",
          "name": "accId",
          "type": "uint64"
        },
        {
          "indexed": false,
          "internalType": "address",
          "name": "consumer",
          "type": "address"
        }
      ],
      "name": "AccountConsumerAdded",
      "type": "event"
    },
    {
      "anonymous": false,
      "inputs": [
        {
          "indexed": true,
          "internalType": "uint64",
          "name": "accId",
          "type": "uint64"
        },
        {
          "indexed": false,
          "internalType": "address",
          "name": "consumer",
          "type": "address"
        }
      ],
      "name": "AccountConsumerRemoved",
      "type": "event"
    },
    {
      "anonymous": false,
      "inputs": [
        {
          "indexed": true,
          "internalType": "uint64",
          "name": "accId",
          "type": "uint64"
        },
        {
          "indexed": false,
          "internalType": "address",
          "name": "account",
          "type": "address"
        },
        {
          "indexed": false,
          "internalType": "address",
          "name": "owner",
          "type": "address"
        },
        {
          "indexed": false,
          "internalType": "enum IAccount.AccountType",
          "name": "accType",
          "type": "uint8"
        }
      ],
      "name": "AccountCreated",
      "type": "event"
    },
    {
      "anonymous": false,
      "inputs": [
        {
          "indexed": true,
          "internalType": "uint64",
          "name": "accId",
          "type": "uint64"
        },
        {
          "indexed": false,
          "internalType": "uint256",
          "name": "startDate",
          "type": "uint256"
        },
        {
          "indexed": false,
          "internalType": "uint256",
          "name": "period",
          "type": "uint256"
        },
        {
          "indexed": false,
          "internalType": "uint256",
          "name": "reqPeriodCount",
          "type": "uint256"
        }
      ],
      "name": "AccountDetailUpdated",
      "type": "event"
    },
    {
      "anonymous": false,
      "inputs": [
        {
          "indexed": true,
          "internalType": "uint64",
          "name": "accId",
          "type": "uint64"
        },
        {
          "indexed": false,
          "internalType": "uint256",
          "name": "discount",
          "type": "uint256"
        }
      ],
      "name": "AccountFeeRatioSet",
      "type": "event"
    },
    {
      "anonymous": false,
      "inputs": [
        {
          "indexed": true,
          "internalType": "uint64",
          "name": "accId",
          "type": "uint64"
        },
        {
          "indexed": false,
          "internalType": "address",
          "name": "from",
          "type": "address"
        },
        {
          "indexed": false,
          "internalType": "address",
          "name": "to",
          "type": "address"
        }
      ],
      "name": "AccountOwnerTransferRequested",
      "type": "event"
    },
    {
      "anonymous": false,
      "inputs": [
        {
          "indexed": true,
          "internalType": "uint64",
          "name": "accId",
          "type": "uint64"
        },
        {
          "indexed": false,
          "internalType": "address",
          "name": "from",
          "type": "address"
        },
        {
          "indexed": false,
          "internalType": "address",
          "name": "to",
          "type": "address"
        }
      ],
      "name": "AccountOwnerTransferred",
      "type": "event"
    },
    {
      "anonymous": false,
      "inputs": [
        {
          "indexed": true,
          "internalType": "uint64",
          "name": "accId",
          "type": "uint64"
        }
      ],
      "name": "AccountPeriodReqIncreased",
      "type": "event"
    },
    {
      "anonymous": false,
      "inputs": [
        {
          "indexed": false,
          "internalType": "uint256",
          "name": "accId",
          "type": "uint256"
        }
      ],
      "name": "AccountSubscriptionPaidSet",
      "type": "event"
    },
    {
      "anonymous": false,
      "inputs": [
        {
          "indexed": false,
          "internalType": "uint8",
          "name": "ratio",
          "type": "uint8"
        }
      ],
      "name": "BurnRatioSet",
      "type": "event"
    },
    {
      "anonymous": false,
      "inputs": [
        {
          "indexed": true,
          "internalType": "uint64",
          "name": "accId",
          "type": "uint64"
        },
        {
          "indexed": false,
          "internalType": "uint256",
          "name": "amount",
          "type": "uint256"
        }
      ],
      "name": "BurnedFee",
      "type": "event"
    },
    {
      "anonymous": false,
      "inputs": [
        {
          "indexed": false,
          "internalType": "address",
          "name": "coordinator",
          "type": "address"
        }
      ],
      "name": "CoordinatorAdded",
      "type": "event"
    },
    {
      "anonymous": false,
      "inputs": [
        {
          "indexed": false,
          "internalType": "address",
          "name": "coordinator",
          "type": "address"
        }
      ],
      "name": "CoordinatorRemoved",
      "type": "event"
    },
    {
      "anonymous": false,
      "inputs": [
        {
          "indexed": true,
          "internalType": "address",
          "name": "previousOwner",
          "type": "address"
        },
        {
          "indexed": true,
          "internalType": "address",
          "name": "newOwner",
          "type": "address"
        }
      ],
      "name": "OwnershipTransferred",
      "type": "event"
    },
    {
      "anonymous": false,
      "inputs": [
        {
          "indexed": false,
          "internalType": "uint8",
          "name": "ratio",
          "type": "uint8"
        }
      ],
      "name": "ProtocolFeeRatioSet",
      "type": "event"
    },
    {
      "anonymous": false,
      "inputs": [
        {
          "indexed": true,
          "internalType": "uint64",
          "name": "accId",
          "type": "uint64"
        },
        {
          "indexed": false,
          "internalType": "address",
          "name": "owner",
          "type": "address"
        }
      ],
      "name": "TemporaryAccountCreated",
      "type": "event"
    },
    {
      "inputs": [],
      "name": "MAX_RATIO",
      "outputs": [
        {
          "internalType": "uint8",
          "name": "",
          "type": "uint8"
        }
      ],
      "stateMutability": "view",
      "type": "function"
    },
    {
      "inputs": [],
      "name": "MIN_RATIO",
      "outputs": [
        {
          "internalType": "uint8",
          "name": "",
          "type": "uint8"
        }
      ],
      "stateMutability": "view",
      "type": "function"
    },
    {
      "inputs": [
        {
          "internalType": "uint64",
          "name": "accId",
          "type": "uint64"
        }
      ],
      "name": "acceptAccountOwnerTransfer",
      "outputs": [],
      "stateMutability": "nonpayable",
      "type": "function"
    },
    {
      "inputs": [
        {
          "internalType": "uint64",
          "name": "accId",
          "type": "uint64"
        },
        {
          "internalType": "address",
          "name": "consumer",
          "type": "address"
        }
      ],
      "name": "addConsumer",
      "outputs": [],
      "stateMutability": "nonpayable",
      "type": "function"
    },
    {
      "inputs": [
        {
          "internalType": "address",
          "name": "coordinator",
          "type": "address"
        }
      ],
      "name": "addCoordinator",
      "outputs": [],
      "stateMutability": "nonpayable",
      "type": "function"
    },
    {
      "inputs": [
        {
          "internalType": "uint64",
          "name": "accId",
          "type": "uint64"
        },
        {
          "internalType": "address",
          "name": "to",
          "type": "address"
        }
      ],
      "name": "cancelAccount",
      "outputs": [],
      "stateMutability": "nonpayable",
      "type": "function"
    },
    {
      "inputs": [
        {
          "internalType": "uint64",
          "name": "accId",
          "type": "uint64"
        },
        {
          "internalType": "uint256",
          "name": "amount",
          "type": "uint256"
        }
      ],
      "name": "chargeFee",
      "outputs": [
        {
          "internalType": "uint256",
          "name": "",
          "type": "uint256"
        }
      ],
      "stateMutability": "nonpayable",
      "type": "function"
    },
    {
      "inputs": [
        {
          "internalType": "uint64",
          "name": "accId",
          "type": "uint64"
        }
      ],
      "name": "chargeFeeTemporary",
      "outputs": [
        {
          "internalType": "uint256",
          "name": "totalAmount",
          "type": "uint256"
        },
        {
          "internalType": "uint256",
          "name": "operatorAmount",
          "type": "uint256"
        }
      ],
      "stateMutability": "nonpayable",
      "type": "function"
    },
    {
      "inputs": [
        {
          "internalType": "uint64",
          "name": "accId",
          "type": "uint64"
        },
        {
          "internalType": "uint256",
          "name": "operatorFee",
          "type": "uint256"
        },
        {
          "internalType": "address",
          "name": "operatorFeeRecipient",
          "type": "address"
        }
      ],
      "name": "chargeOperatorFee",
      "outputs": [],
      "stateMutability": "nonpayable",
      "type": "function"
    },
    {
      "inputs": [
        {
          "internalType": "uint256",
          "name": "operatorFee",
          "type": "uint256"
        },
        {
          "internalType": "address",
          "name": "operatorFeeRecipient",
          "type": "address"
        }
      ],
      "name": "chargeOperatorFeeTemporary",
      "outputs": [],
      "stateMutability": "nonpayable",
      "type": "function"
    },
    {
      "inputs": [],
      "name": "createAccount",
      "outputs": [
        {
          "internalType": "uint64",
          "name": "",
          "type": "uint64"
        }
      ],
      "stateMutability": "nonpayable",
      "type": "function"
    },
    {
      "inputs": [
        {
          "internalType": "uint256",
          "name": "startDate",
          "type": "uint256"
        },
        {
          "internalType": "uint256",
          "name": "period",
          "type": "uint256"
        },
        {
          "internalType": "uint256",
          "name": "reqPeriodCount",
          "type": "uint256"
        },
        {
          "internalType": "address",
          "name": "accOwner",
          "type": "address"
        }
      ],
      "name": "createFiatSubscriptionAccount",
      "outputs": [
        {
          "internalType": "uint64",
          "name": "",
          "type": "uint64"
        }
      ],
      "stateMutability": "nonpayable",
      "type": "function"
    },
    {
      "inputs": [
        {
          "internalType": "uint256",
          "name": "feeRatio",
          "type": "uint256"
        },
        {
          "internalType": "address",
          "name": "accOwner",
          "type": "address"
        }
      ],
      "name": "createKlayDiscountAccount",
      "outputs": [
        {
          "internalType": "uint64",
          "name": "",
          "type": "uint64"
        }
      ],
      "stateMutability": "nonpayable",
      "type": "function"
    },
    {
      "inputs": [
        {
          "internalType": "uint256",
          "name": "startDate",
          "type": "uint256"
        },
        {
          "internalType": "uint256",
          "name": "period",
          "type": "uint256"
        },
        {
          "internalType": "uint256",
          "name": "reqPeriodCount",
          "type": "uint256"
        },
        {
          "internalType": "uint256",
          "name": "subscriptionPrice",
          "type": "uint256"
        },
        {
          "internalType": "address",
          "name": "accOwner",
          "type": "address"
        }
      ],
      "name": "createKlaySubscriptionAccount",
      "outputs": [
        {
          "internalType": "uint64",
          "name": "",
          "type": "uint64"
        }
      ],
      "stateMutability": "nonpayable",
      "type": "function"
    },
    {
      "inputs": [
        {
          "internalType": "address",
          "name": "owner",
          "type": "address"
        }
      ],
      "name": "createTemporaryAccount",
      "outputs": [
        {
          "internalType": "uint64",
          "name": "",
          "type": "uint64"
        }
      ],
      "stateMutability": "nonpayable",
      "type": "function"
    },
    {
      "inputs": [
        {
          "internalType": "uint64",
          "name": "accId",
          "type": "uint64"
        }
      ],
      "name": "deposit",
      "outputs": [],
      "stateMutability": "payable",
      "type": "function"
    },
    {
      "inputs": [
        {
          "internalType": "uint64",
          "name": "accId",
          "type": "uint64"
        }
      ],
      "name": "depositTemporary",
      "outputs": [],
      "stateMutability": "payable",
      "type": "function"
    },
    {
      "inputs": [
        {
          "internalType": "uint64",
          "name": "accId",
          "type": "uint64"
        }
      ],
      "name": "getAccount",
      "outputs": [
        {
          "internalType": "uint256",
          "name": "balance",
          "type": "uint256"
        },
        {
          "internalType": "uint64",
          "name": "reqCount",
          "type": "uint64"
        },
        {
          "internalType": "address",
          "name": "owner",
          "type": "address"
        },
        {
          "internalType": "address[]",
          "name": "consumers",
          "type": "address[]"
        },
        {
          "internalType": "enum IAccount.AccountType",
          "name": "accType",
          "type": "uint8"
        }
      ],
      "stateMutability": "view",
      "type": "function"
    },
    {
      "inputs": [
        {
          "internalType": "uint64",
          "name": "accId",
          "type": "uint64"
        }
      ],
      "name": "getAccountDetail",
      "outputs": [
        {
          "internalType": "uint256",
          "name": "",
          "type": "uint256"
        },
        {
          "internalType": "uint256",
          "name": "",
          "type": "uint256"
        },
        {
          "internalType": "uint256",
          "name": "",
          "type": "uint256"
        },
        {
          "internalType": "uint256",
          "name": "",
          "type": "uint256"
        }
      ],
      "stateMutability": "view",
      "type": "function"
    },
    {
      "inputs": [
        {
          "internalType": "uint64",
          "name": "accId",
          "type": "uint64"
        }
      ],
      "name": "getAccountOwner",
      "outputs": [
        {
          "internalType": "address",
          "name": "",
          "type": "address"
        }
      ],
      "stateMutability": "view",
      "type": "function"
    },
    {
      "inputs": [
        {
          "internalType": "uint64",
          "name": "accId",
          "type": "uint64"
        }
      ],
      "name": "getBalance",
      "outputs": [
        {
          "internalType": "uint256",
          "name": "balance",
          "type": "uint256"
        }
      ],
      "stateMutability": "view",
      "type": "function"
    },
    {
      "inputs": [],
      "name": "getBurnFeeRatio",
      "outputs": [
        {
          "internalType": "uint8",
          "name": "",
          "type": "uint8"
        }
      ],
      "stateMutability": "view",
      "type": "function"
    },
    {
      "inputs": [],
      "name": "getCoordinators",
      "outputs": [
        {
          "internalType": "contract ICoordinatorBase[]",
          "name": "",
          "type": "address[]"
        }
      ],
      "stateMutability": "view",
      "type": "function"
    },
    {
      "inputs": [
        {
          "internalType": "uint64",
          "name": "accId",
          "type": "uint64"
        }
      ],
      "name": "getFeeRatio",
      "outputs": [
        {
          "internalType": "uint256",
          "name": "",
          "type": "uint256"
        }
      ],
      "stateMutability": "view",
      "type": "function"
    },
    {
      "inputs": [
        {
          "internalType": "uint64",
          "name": "accId",
          "type": "uint64"
        },
        {
          "internalType": "address",
          "name": "consumer",
          "type": "address"
        }
      ],
      "name": "getNonce",
      "outputs": [
        {
          "internalType": "uint64",
          "name": "",
          "type": "uint64"
        }
      ],
      "stateMutability": "view",
      "type": "function"
    },
    {
      "inputs": [],
      "name": "getProtocolFeeRatio",
      "outputs": [
        {
          "internalType": "uint8",
          "name": "",
          "type": "uint8"
        }
      ],
      "stateMutability": "view",
      "type": "function"
    },
    {
      "inputs": [],
      "name": "getProtocolFeeRecipient",
      "outputs": [
        {
          "internalType": "address",
          "name": "",
          "type": "address"
        }
      ],
      "stateMutability": "view",
      "type": "function"
    },
    {
      "inputs": [
        {
          "internalType": "uint64",
          "name": "accId",
          "type": "uint64"
        }
      ],
      "name": "getReqCount",
      "outputs": [
        {
          "internalType": "uint64",
          "name": "",
          "type": "uint64"
        }
      ],
      "stateMutability": "view",
      "type": "function"
    },
    {
      "inputs": [
        {
          "internalType": "uint64",
          "name": "accId",
          "type": "uint64"
        }
      ],
      "name": "getSubscriptionPaid",
      "outputs": [
        {
          "internalType": "bool",
          "name": "",
          "type": "bool"
        }
      ],
      "stateMutability": "view",
      "type": "function"
    },
    {
      "inputs": [
        {
          "internalType": "uint64",
          "name": "accId",
          "type": "uint64"
        },
        {
          "internalType": "address",
          "name": "consumer",
          "type": "address"
        }
      ],
      "name": "increaseNonce",
      "outputs": [
        {
          "internalType": "uint64",
          "name": "",
          "type": "uint64"
        }
      ],
      "stateMutability": "nonpayable",
      "type": "function"
    },
    {
      "inputs": [
        {
          "internalType": "uint64",
          "name": "accId",
          "type": "uint64"
        }
      ],
      "name": "increaseSubReqCount",
      "outputs": [],
      "stateMutability": "nonpayable",
      "type": "function"
    },
    {
      "inputs": [
        {
          "internalType": "uint64",
          "name": "accId",
          "type": "uint64"
        },
        {
          "internalType": "address",
          "name": "consumer",
          "type": "address"
        }
      ],
      "name": "isValidAccount",
      "outputs": [
        {
          "internalType": "bool",
          "name": "",
          "type": "bool"
        }
      ],
      "stateMutability": "view",
      "type": "function"
    },
    {
      "inputs": [
        {
          "internalType": "uint64",
          "name": "accId",
          "type": "uint64"
        }
      ],
      "name": "isValidReq",
      "outputs": [
        {
          "internalType": "bool",
          "name": "",
          "type": "bool"
        }
      ],
      "stateMutability": "view",
      "type": "function"
    },
    {
      "inputs": [],
      "name": "owner",
      "outputs": [
        {
          "internalType": "address",
          "name": "",
          "type": "address"
        }
      ],
      "stateMutability": "view",
      "type": "function"
    },
    {
      "inputs": [
        {
          "internalType": "uint64",
          "name": "accId",
          "type": "uint64"
        }
      ],
      "name": "pendingRequestExists",
      "outputs": [
        {
          "internalType": "bool",
          "name": "",
          "type": "bool"
        }
      ],
      "stateMutability": "view",
      "type": "function"
    },
    {
      "inputs": [
        {
          "internalType": "uint64",
          "name": "accId",
          "type": "uint64"
        }
      ],
      "name": "pendingRequestExistsTemporary",
      "outputs": [
        {
          "internalType": "bool",
          "name": "",
          "type": "bool"
        }
      ],
      "stateMutability": "view",
      "type": "function"
    },
    {
      "inputs": [
        {
          "internalType": "uint64",
          "name": "accId",
          "type": "uint64"
        },
        {
          "internalType": "address",
          "name": "consumer",
          "type": "address"
        }
      ],
      "name": "removeConsumer",
      "outputs": [],
      "stateMutability": "nonpayable",
      "type": "function"
    },
    {
      "inputs": [
        {
          "internalType": "address",
          "name": "coordinator",
          "type": "address"
        }
      ],
      "name": "removeCoordinator",
      "outputs": [],
      "stateMutability": "nonpayable",
      "type": "function"
    },
    {
      "inputs": [],
      "name": "renounceOwnership",
      "outputs": [],
      "stateMutability": "nonpayable",
      "type": "function"
    },
    {
      "inputs": [
        {
          "internalType": "uint64",
          "name": "accId",
          "type": "uint64"
        },
        {
          "internalType": "address",
          "name": "requestedOwner",
          "type": "address"
        }
      ],
      "name": "requestAccountOwnerTransfer",
      "outputs": [],
      "stateMutability": "nonpayable",
      "type": "function"
    },
    {
      "inputs": [
        {
          "internalType": "uint256",
          "name": "",
          "type": "uint256"
        }
      ],
      "name": "sCoordinators",
      "outputs": [
        {
          "internalType": "contract ICoordinatorBase",
          "name": "",
          "type": "address"
        }
      ],
      "stateMutability": "view",
      "type": "function"
    },
    {
      "inputs": [
        {
          "internalType": "uint8",
          "name": "ratio",
          "type": "uint8"
        }
      ],
      "name": "setBurnFeeRatio",
      "outputs": [],
      "stateMutability": "nonpayable",
      "type": "function"
    },
    {
      "inputs": [
        {
          "internalType": "uint64",
          "name": "accId",
          "type": "uint64"
        },
        {
          "internalType": "uint256",
          "name": "disCount",
          "type": "uint256"
        }
      ],
      "name": "setFeeRatio",
      "outputs": [],
      "stateMutability": "nonpayable",
      "type": "function"
    },
    {
      "inputs": [
        {
          "internalType": "uint8",
          "name": "ratio",
          "type": "uint8"
        }
      ],
      "name": "setProtocolFeeRatio",
      "outputs": [],
      "stateMutability": "nonpayable",
      "type": "function"
    },
    {
      "inputs": [
        {
          "internalType": "address",
          "name": "protocolFeeRecipient",
          "type": "address"
        }
      ],
      "name": "setProtocolFeeRecipient",
      "outputs": [],
      "stateMutability": "nonpayable",
      "type": "function"
    },
    {
      "inputs": [
        {
          "internalType": "uint64",
          "name": "accId",
          "type": "uint64"
        }
      ],
      "name": "setSubscriptionPaid",
      "outputs": [],
      "stateMutability": "nonpayable",
      "type": "function"
    },
    {
      "inputs": [
        {
          "internalType": "address",
          "name": "newOwner",
          "type": "address"
        }
      ],
      "name": "transferOwnership",
      "outputs": [],
      "stateMutability": "nonpayable",
      "type": "function"
    },
    {
      "inputs": [],
      "name": "typeAndVersion",
      "outputs": [
        {
          "internalType": "string",
          "name": "",
          "type": "string"
        }
      ],
      "stateMutability": "pure",
      "type": "function"
    },
    {
      "inputs": [
        {
          "internalType": "uint64",
          "name": "accId",
          "type": "uint64"
        },
        {
          "internalType": "uint256",
          "name": "startTime",
          "type": "uint256"
        },
        {
          "internalType": "uint256",
          "name": "period",
          "type": "uint256"
        },
        {
          "internalType": "uint256",
          "name": "periodReqCount",
          "type": "uint256"
        },
        {
          "internalType": "uint256",
          "name": "subscriptionPrice",
          "type": "uint256"
        }
      ],
      "name": "updateAccountDetail",
      "outputs": [],
      "stateMutability": "nonpayable",
      "type": "function"
    },
    {
      "inputs": [
        {
          "internalType": "uint64",
          "name": "accId",
          "type": "uint64"
        },
        {
          "internalType": "uint256",
          "name": "amount",
          "type": "uint256"
        }
      ],
      "name": "withdraw",
      "outputs": [],
      "stateMutability": "nonpayable",
      "type": "function"
    },
    {
      "inputs": [
        {
          "internalType": "uint64",
          "name": "accId",
          "type": "uint64"
        },
        {
          "internalType": "address payable",
          "name": "to",
          "type": "address"
        }
      ],
      "name": "withdrawTemporary",
      "outputs": [],
      "stateMutability": "nonpayable",
      "type": "function"
    }
  ],
  "transactionHash": "0x71e142c0695d95bc1e21303199eea30de3e711d0b0a2e77f34d03951649cacaf",
  "args": [
    "0xBcd4042DE499D14e55001CcbB24a551F3b954096"
  ],
  "numDeployments": 2,
  "solcInputHash": "d643dfb4fd9af2eba004075813929e9c",
  "bytecode": "0x60806040526000805461ffff60a01b191661029960a11b1790553480156200002657600080fd5b5060405162005d9838038062005d988339810160408190526200004991620000ca565b62000054336200007a565b600180546001600160a01b0319166001600160a01b0392909216919091179055620000fc565b600080546001600160a01b038381166001600160a01b0319831681178455604051919092169283917f8be0079c531659141344cd1fd0a4f28419497f9722a3daafe3b4186f6b6457e09190a35050565b600060208284031215620000dd57600080fd5b81516001600160a01b0381168114620000f557600080fd5b9392505050565b615c8c806200010c6000396000f3fe608060405260043610620003775760003560e01c8063731e92ae11620001d35780639dca362f11620000ff578063e521cb9211620000a1578063f026330a1162000078578063f026330a1462000ac4578063f1b04d2b1462000ae9578063f2fde38b1462000b0e578063fbd6d77e1462000b3357600080fd5b8063e521cb921462000a55578063e82ad7d41462000a7a578063ec8ea3c21462000a9f57600080fd5b8063bdde7f0011620000d6578063bdde7f0014620009de578063c49910e41462000a03578063c9d2d7bf1462000a1a57600080fd5b80639dca362f146200097c5780639f87fad71462000994578063a8329c0514620009b957600080fd5b80637f51282911620001755780638a522dbb116200014c5780638a522dbb14620008cc5780638cb5a0c014620009125780638da5cb5b146200093757806396ed7f43146200095757600080fd5b80637f512829146200085d57806382d87af3146200088257806382e7b38c14620008a757600080fd5b806377ae211a11620001aa57806377ae211a14620007db5780637b3d789514620008135780637c57492d146200083857600080fd5b8063731e92ae146200076c5780637341c10c1462000791578063734e892a14620007b657600080fd5b80633c98596e11620002b35780635d5d8d191162000255578063630eb8ab116200022c578063630eb8ab14620006f85780636b19a19d146200070f578063715018a6146200073457806372c8fc0e146200074c57600080fd5b80635d5d8d1914620006875780635e42205c14620006ae5780635fc9ce0b14620006d357600080fd5b80634a418973116200028a5780634a41897314620005ff5780634f8c2488146200063d57806357f2eda7146200066257600080fd5b80633c98596e14620005905780633e28f7c014620005b55780634338798314620005da57600080fd5b8063181f5a77116200031d57806326bb591b11620002f457806326bb591b1462000529578063284be215146200054a578063341b9e5a146200056b57600080fd5b8063181f5a771462000468578063190118b714620004b757806325ce800214620004f557600080fd5b806312207e6a116200035257806312207e6a14620003f657806313765838146200041b57806315693e0a146200043257600080fd5b8063048c8654146200037c578063080e221b14620003a35780630f0aeb8d14620003c8575b600080fd5b3480156200038957600080fd5b50620003a16200039b36600462003ded565b62000b58565b005b348015620003b057600080fd5b50620003a1620003c236600462003e3e565b62000c37565b348015620003d557600080fd5b50620003df600081565b60405160ff90911681526020015b60405180910390f35b3480156200040357600080fd5b50620003a16200041536600462003e7c565b62000e8a565b620003a16200042c36600462003e7c565b62000fe3565b3480156200043f57600080fd5b50620004576200045136600462003e7c565b62001170565b6040519015158152602001620003ed565b3480156200047557600080fd5b50604080518082018252600f81527f5072657061796d656e742076302e31000000000000000000000000000000000060208201529051620003ed919062003e9c565b348015620004c457600080fd5b50620004dc620004d636600462003eec565b6200127d565b6040516001600160401b039091168152602001620003ed565b3480156200050257600080fd5b506200051a6200051436600462003e7c565b620013c9565b604051908152602001620003ed565b3480156200053657600080fd5b50600054600160a01b900460ff16620003df565b3480156200055757600080fd5b50600054600160a81b900460ff16620003df565b3480156200057857600080fd5b506200051a6200058a36600462003e7c565b62001476565b3480156200059d57600080fd5b50620003a1620005af36600462003e7c565b620014fe565b348015620005c257600080fd5b50620004dc620005d436600462003f0c565b620015fd565b348015620005e757600080fd5b50620003a1620005f936600462003f34565b62001762565b3480156200060c57600080fd5b50620006246200061e36600462003e7c565b62001973565b6040516001600160a01b039091168152602001620003ed565b3480156200064a57600080fd5b50620004dc6200065c36600462003f63565b620019f6565b3480156200066f57600080fd5b506200051a6200068136600462003f34565b62001b73565b3480156200069457600080fd5b506200069f62001df4565b604051620003ed919062003fb3565b348015620006bb57600080fd5b5062000457620006cd36600462003e7c565b62001e58565b348015620006e057600080fd5b50620003a1620006f236600462004002565b62001efe565b3480156200070557600080fd5b50620003df606481565b3480156200071c57600080fd5b50620003a16200072e36600462003f0c565b6200200e565b3480156200074157600080fd5b50620003a1620020d4565b3480156200075957600080fd5b506001546001600160a01b031662000624565b3480156200077957600080fd5b50620004dc6200078b36600462004049565b620020ec565b3480156200079e57600080fd5b50620003a1620007b036600462003e3e565b62002269565b348015620007c357600080fd5b5062000457620007d536600462003e3e565b620023f6565b348015620007e857600080fd5b5062000800620007fa36600462003e7c565b620024de565b604051620003ed959493929190620040c6565b3480156200082057600080fd5b50620003a16200083236600462003e7c565b62002663565b3480156200084557600080fd5b50620003a16200085736600462003ded565b6200276c565b3480156200086a57600080fd5b50620004dc6200087c36600462003e3e565b62002845565b3480156200088f57600080fd5b50620003a1620008a136600462003e3e565b620028cc565b348015620008b457600080fd5b50620003a1620008c636600462004142565b62002a56565b348015620008d957600080fd5b50620008f1620008eb36600462003e7c565b62002be7565b604080519485526020850193909352918301526060820152608001620003ed565b3480156200091f57600080fd5b50620003a16200093136600462003eec565b62002ca3565b3480156200094457600080fd5b506000546001600160a01b031662000624565b3480156200096457600080fd5b50620004dc6200097636600462003e7c565b62002e58565b3480156200098957600080fd5b50620004dc62002ef4565b348015620009a157600080fd5b50620003a1620009b336600462003e3e565b62002fec565b348015620009c657600080fd5b50620004dc620009d836600462003e3e565b62003171565b348015620009eb57600080fd5b5062000624620009fd36600462004189565b6200326e565b620003a162000a1436600462003e7c565b62003299565b34801562000a2757600080fd5b5062000a3f62000a3936600462003e7c565b62003317565b60408051928352602083019190915201620003ed565b34801562000a6257600080fd5b50620003a162000a7436600462003eec565b620035bc565b34801562000a8757600080fd5b506200045762000a9936600462003e7c565b620035e8565b34801562000aac57600080fd5b50620003a162000abe36600462003f34565b6200383d565b34801562000ad157600080fd5b50620003a162000ae336600462003e3e565b62003920565b34801562000af657600080fd5b506200045762000b0836600462003e7c565b62003b2a565b34801562000b1b57600080fd5b50620003a162000b2d36600462003eec565b62003baa565b34801562000b4057600080fd5b50620003a162000b5236600462003eec565b62003c40565b62000b6262003d33565b606460ff8216111562000b8857604051634a580a4d60e01b815260040160405180910390fd5b60005460649062000ba490600160a01b900460ff1683620041b9565b60ff16111562000bc75760405163767eca5f60e11b815260040160405180910390fd5b600080547fffffffffffffffffffff00ffffffffffffffffffffffffffffffffffffffffff16600160a81b60ff8416908102919091179091556040519081527f3b08a23561e30127f3db6d96a3d1fe7b80940eb91ff73ce0b16faedbdade7f28906020015b60405180910390a150565b6001600160401b038216600090815260056020908152604091829020548251631127a41d60e31b81529251859333936001600160a01b039093169263893d20e8926004808401938290030181865afa15801562000c98573d6000803e3d6000fd5b505050506040513d601f19601f8201168201806040525081019062000cbe9190620041e7565b6001600160a01b03161462000ce657604051636074361360e01b815260040160405180910390fd5b62000cf183620035e8565b1562000d1057604051631685ecdd60e31b815260040160405180910390fd5b6001600160401b0383166000908152600560209081526040808320548151629032ff60e51b815291516001600160a01b03909116939284926312065fe092600480830193928290030181865afa15801562000d6f573d6000803e3d6000fd5b505050506040513d601f19601f8201168201806040525081019062000d95919062004207565b6001600160401b0386166000908152600560205260409081902080546001600160a01b0319169055517fcdbb962f0000000000000000000000000000000000000000000000000000000081526001600160a01b0386811660048301529192509083169063cdbb962f90602401600060405180830381600087803b15801562000e1c57600080fd5b505af115801562000e31573d6000803e3d6000fd5b5050604080516001600160a01b0388168152602081018590526001600160401b03891693507fa4b415eea92d547f572903f94d46c3f89d4accdd251f08b275660d0b2b8b9bb59250015b60405180910390a25050505050565b6001600160401b0381166000908152600560209081526040808320548151631127a41d60e31b815291516001600160a01b039091169333939092859263893d20e8926004808401939192918290030181865afa15801562000eef573d6000803e3d6000fd5b505050506040513d601f19601f8201168201806040525081019062000f159190620041e7565b6040517f05aa772e0000000000000000000000000000000000000000000000000000000081526001600160a01b038481166004830152919250908416906305aa772e90602401600060405180830381600087803b15801562000f7657600080fd5b505af115801562000f8b573d6000803e3d6000fd5b5050604080516001600160a01b038086168252861660208201526001600160401b03881693507f048b267147cb3de127974a8d4590e362caeaf224016765e6fa656d3b9d441fa692500160405180910390a250505050565b6001600160401b0381166000908152600560205260409020546001600160a01b0316806200102457604051630da30f6560e31b815260040160405180910390fd5b60003490506000826001600160a01b03166312065fe06040518163ffffffff1660e01b8152600401602060405180830381865afa1580156200106a573d6000803e3d6000fd5b505050506040513d601f19601f8201168201806040525081019062001090919062004207565b90506000836001600160a01b03163460405160006040518083038185875af1925050503d8060008114620010e1576040519150601f19603f3d011682016040523d82523d6000602084013e620010e6565b606091505b505090508062001122576040517fa4790ee300000000000000000000000000000000000000000000000000000000815260040160405180910390fd5b6001600160401b0385167faf3d9fb1c57e7b7764b81db151a26af4f4eb375e7e3c7ee23d8adc3f149f760b836200115a868262004221565b6040805192835260208301919091520162000e7b565b6001600160401b0381166000908152600760205260408120600101546002546001600160a01b0390911690825b81811015620012725760028181548110620011bc57620011bc62004237565b600091825260209091200154604051630d44941960e11b81526001600160a01b0385811660048301526001600160401b03881660248301526001604483015290911690631a89283290606401602060405180830381865afa15801562001226573d6000803e3d6000fd5b505050506040513d601f19601f820116820180604052508101906200124c91906200425e565b156200125d57506001949350505050565b8062001269816200427c565b9150506200119d565b506000949350505050565b60045460009081906200129b906001600160401b0316600162004298565b6004805467ffffffffffffffff19166001600160401b0383161790556040805160608101825260008082526001600160a01b038716602083015292935091908201526001600160401b03821660009081526007602090815260409182902083518155908301516001820180546001600160a01b039092166001600160a01b0319831681178255938501519293909174ffffffffffffffffffffffffffffffffffffffffff191617600160a01b8360048111156200135c576200135c6200408d565b021790555050506001600160401b038116600081815260066020908152604091829020805460ff1916600117905590516001600160a01b03861681527f584978095899ecb25b0c1fe61f8fa93cc9359c5c1fea5e1276528aeec4aaaf43910160405180910390a292915050565b6001600160401b0381166000908152600560205260408120546001600160a01b0316806200140a57604051630da30f6560e31b815260040160405180910390fd5b806001600160a01b03166359362b886040518163ffffffff1660e01b8152600401602060405180830381865afa15801562001449573d6000803e3d6000fd5b505050506040513d601f19601f820116820180604052508101906200146f919062004207565b9392505050565b6001600160401b0381166000908152600560209081526040808320548151629032ff60e51b815291516001600160a01b03909116926312065fe092600480820193918290030181865afa158015620014d2573d6000803e3d6000fd5b505050506040513d601f19601f82011682018060405250810190620014f8919062004207565b92915050565b3360009081526003602052604090205460ff166200152f57604051636188839760e01b815260040160405180910390fd5b6001600160401b0381166000908152600560205260409020546001600160a01b0316806200157057604051630da30f6560e31b815260040160405180910390fd5b806001600160a01b031663621665436040518163ffffffff1660e01b8152600401600060405180830381600087803b158015620015ac57600080fd5b505af1158015620015c1573d6000803e3d6000fd5b50506040516001600160401b03851692507fd579178fe5bf35dc490862897840a0e66bd7061cacba1256cbee93f46702b3f99150600090a25050565b60006200160962003d33565b60045460009062001625906001600160401b0316600162004298565b6004805467ffffffffffffffff19166001600160401b038316179055604051909150600090829085906003906200165c9062003ddf565b6200166a93929190620042bb565b604051809103906000f08015801562001687573d6000803e3d6000fd5b506001600160401b0383166000908152600560205260409081902080546001600160a01b0319166001600160a01b03841690811790915590516319f4ff2f60e01b815260048101889052919250906319f4ff2f90602401600060405180830381600087803b158015620016f957600080fd5b505af11580156200170e573d6000803e3d6000fd5b50505050816001600160401b03167f5b65de802e0d3a9e88f5376a68271db61a24e889c50f347239c4ae3b6a4c0c7d828660036040516200175293929190620042e9565b60405180910390a2509392505050565b6001600160401b038216600090815260056020908152604091829020548251631127a41d60e31b81529251859333936001600160a01b039093169263893d20e8926004808401938290030181865afa158015620017c3573d6000803e3d6000fd5b505050506040513d601f19601f82011682018060405250810190620017e99190620041e7565b6001600160a01b0316146200181157604051636074361360e01b815260040160405180910390fd5b6200181c83620035e8565b156200183b57604051631685ecdd60e31b815260040160405180910390fd5b6001600160401b0383166000908152600560205260408082205490517f2e1a7d4d0000000000000000000000000000000000000000000000000000000081526004810185905282916001600160a01b031690632e1a7d4d9060240160408051808303816000875af1158015620018b5573d6000803e3d6000fd5b505050506040513d601f19601f82011682018060405250810190620018db919062004310565b915091508162001927576040517f2aa6965e0000000000000000000000000000000000000000000000000000000081526001600160401b03861660048201526024015b60405180910390fd5b6001600160401b0385167f4c4d860a50e6fb83506f3f8c8a48b6430bf0725ab430db77c9fc0a6f4d19534c6200195e868462004221565b60408051918252602082018590520162000e7b565b6001600160401b0381166000908152600560209081526040808320548151631127a41d60e31b815291516001600160a01b039091169263893d20e892600480820193918290030181865afa158015620019d0573d6000803e3d6000fd5b505050506040513d601f19601f82011682018060405250810190620014f89190620041e7565b600062001a0262003d33565b60045460009062001a1e906001600160401b0316600162004298565b6004805467ffffffffffffffff19166001600160401b0383161790556040519091506000908290859060029062001a559062003ddf565b62001a6393929190620042bb565b604051809103906000f08015801562001a80573d6000803e3d6000fd5b506001600160401b0383166000908152600560205260409081902080546001600160a01b0319166001600160a01b03841690811790915590516346c23b5f60e11b8152600481018b9052602481018a9052604481018990526064810188905291925090638d8476be90608401600060405180830381600087803b15801562001b0757600080fd5b505af115801562001b1c573d6000803e3d6000fd5b50505050816001600160401b03167f5b65de802e0d3a9e88f5376a68271db61a24e889c50f347239c4ae3b6a4c0c7d8286600260405162001b6093929190620042e9565b60405180910390a2509695505050505050565b3360009081526003602052604081205460ff1662001ba457604051636188839760e01b815260040160405180910390fd5b6001600160401b0383166000908152600560209081526040808320548151629032ff60e51b815291516001600160a01b03909116939284926312065fe092600480830193928290030181865afa15801562001c03573d6000803e3d6000fd5b505050506040513d601f19601f8201168201806040525081019062001c29919062004207565b90508381101562001c4d57604051631e9acf1760e31b815260040160405180910390fd5b6000805460649062001c6a90600160a01b900460ff16876200433f565b62001c76919062004361565b600080549192509060649062001c9790600160a81b900460ff16886200433f565b62001ca3919062004361565b6001546040517f619eea0000000000000000000000000000000000000000000000000000000000815260048101859052602481018390526001600160a01b03918216604482015291925085169063619eea0090606401600060405180830381600087803b15801562001d1457600080fd5b505af115801562001d29573d6000803e3d6000fd5b50505050866001600160401b03167f4c4d860a50e6fb83506f3f8c8a48b6430bf0725ab430db77c9fc0a6f4d19534c8483858762001d68919062004384565b62001d74919062004384565b6040805192835260208301919091520160405180910390a2866001600160401b03167f5c99b84ba0f813bdfcfc063ad296c6cf2e5eb1e9ef2b4f323849b035f93da6168360405162001dc891815260200190565b60405180910390a28062001ddd838862004384565b62001de9919062004384565b979650505050505050565b6060600280548060200260200160405190810160405280929190818152602001828054801562001e4e57602002820191906000526020600020905b81546001600160a01b0316815260019091019060200180831162001e2f575b5050505050905090565b6001600160401b0381166000908152600560205260408120546001600160a01b03168062001e9957604051630da30f6560e31b815260040160405180910390fd5b806001600160a01b031663c77dafef6040518163ffffffff1660e01b8152600401602060405180830381865afa15801562001ed8573d6000803e3d6000fd5b505050506040513d601f19601f820116820180604052508101906200146f91906200425e565b62001f0862003d33565b6001600160401b0385166000908152600560205260409020546001600160a01b03168062001f4957604051630da30f6560e31b815260040160405180910390fd5b6040516346c23b5f60e11b8152600481018690526024810185905260448101849052606481018390526001600160a01b03821690638d8476be90608401600060405180830381600087803b15801562001fa157600080fd5b505af115801562001fb6573d6000803e3d6000fd5b505060408051888152602081018890529081018690526001600160401b03891692507f52416f4b848456e8a73e7a6dac1876d15f2dfd36ac78ec90c2c556d60341f2d5915060600160405180910390a2505050505050565b3360009081526003602052604090205460ff166200203f57604051636188839760e01b815260040160405180910390fd5b6000816001600160a01b03168360405160006040518083038185875af1925050503d80600081146200208e576040519150601f19603f3d011682016040523d82523d6000602084013e62002093565b606091505b5050905080620020cf576040517fb7c1cac700000000000000000000000000000000000000000000000000000000815260040160405180910390fd5b505050565b620020de62003d33565b620020ea600062003d8f565b565b6000620020f862003d33565b60045460009062002114906001600160401b0316600162004298565b6004805467ffffffffffffffff19166001600160401b038316179055604051909150600090829085906001906200214b9062003ddf565b6200215993929190620042bb565b604051809103906000f08015801562002176573d6000803e3d6000fd5b506001600160401b03831660009081526005602052604080822080546001600160a01b0319166001600160a01b03851690811790915590516346c23b5f60e11b8152600481018b9052602481018a9052604481018990526064810192909252919250638d8476be90608401600060405180830381600087803b158015620021fc57600080fd5b505af115801562002211573d6000803e3d6000fd5b50505050816001600160401b03167f5b65de802e0d3a9e88f5376a68271db61a24e889c50f347239c4ae3b6a4c0c7d828660016040516200225593929190620042e9565b60405180910390a25090505b949350505050565b6001600160401b038216600090815260056020908152604091829020548251631127a41d60e31b81529251859333936001600160a01b039093169263893d20e8926004808401938290030181865afa158015620022ca573d6000803e3d6000fd5b505050506040513d601f19601f82011682018060405250810190620022f09190620041e7565b6001600160a01b0316146200231857604051636074361360e01b815260040160405180910390fd5b6001600160401b038316600090815260056020526040908190205490517f112940f90000000000000000000000000000000000000000000000000000000081526001600160a01b0384811660048301529091169063112940f990602401600060405180830381600087803b1580156200239057600080fd5b505af1158015620023a5573d6000803e3d6000fd5b50506040516001600160a01b03851681526001600160401b03861692507f7894faa1f0036964938f730572ac59cb10a7300d75d21c8185b3331e563c1e0291506020015b60405180910390a2505050565b6001600160401b0382166000908152600560205260408120546001600160a01b03168181158015906200249d5750604051632d0335ab60e01b81526001600160a01b038581166004830152831690632d0335ab90602401602060405180830381865afa1580156200246b573d6000803e3d6000fd5b505050506040513d601f19601f820116820180604052508101906200249191906200439a565b6001600160401b031615155b6001600160401b0386166000908152600760205260409020600101549091506001600160a01b038581169116148180620024d45750805b9695505050505050565b6001600160401b0381166000908152600560205260408120548190819060609082906001600160a01b031680156200258a57806001600160a01b031663db613e816040518163ffffffff1660e01b8152600401600060405180830381865afa1580156200254f573d6000803e3d6000fd5b505050506040513d6000823e601f3d908101601f1916820160405262002579919081019062004472565b95509550955095509550506200265a565b6001600160401b03871660009081526006602052604090205460ff161562002641576001600160401b038716600090815260076020908152604080832081516060810183528154815260018201546001600160a01b03811694820194909452929091830190600160a01b900460ff1660048111156200260d576200260d6200408d565b60048111156200262157620026216200408d565b90525080516020909101519097506000965094508592506200265a915050565b604051630da30f6560e31b815260040160405180910390fd5b91939590929450565b3360009081526003602052604090205460ff166200269457604051636188839760e01b815260040160405180910390fd5b6001600160401b0381166000908152600560205260409020546001600160a01b031680620026d557604051630da30f6560e31b815260040160405180910390fd5b806001600160a01b031663533762e06040518163ffffffff1660e01b8152600401600060405180830381600087803b1580156200271157600080fd5b505af115801562002726573d6000803e3d6000fd5b50506040516001600160401b03851681527fc062bdf7d21c786798fc3a43ac69a1113b02f3f3adb06c0820aed9eb0cbff61b925060200190505b60405180910390a15050565b6200277662003d33565b606460ff821611156200279c57604051634a580a4d60e01b815260040160405180910390fd5b600054606490620027b890600160a81b900460ff1683620041b9565b60ff161115620027db5760405163767eca5f60e11b815260040160405180910390fd5b600080547fffffffffffffffffffffff00ffffffffffffffffffffffffffffffffffffffff16600160a01b60ff8416908102919091179091556040519081527fa88718c61da479d30fc74cc8fccfca36874ca55fd22e912db96d3e4f73da3f619060200162000c2c565b6001600160401b038216600090815260056020526040808220549051632d0335ab60e01b81526001600160a01b03848116600483015290911690632d0335ab90602401602060405180830381865afa158015620028a6573d6000803e3d6000fd5b505050506040513d601f19601f820116820180604052508101906200146f91906200439a565b6001600160401b038216600090815260056020908152604091829020548251631127a41d60e31b81529251859333936001600160a01b039093169263893d20e8926004808401938290030181865afa1580156200292d573d6000803e3d6000fd5b505050506040513d601f19601f82011682018060405250810190620029539190620041e7565b6001600160a01b0316146200297b57604051636074361360e01b815260040160405180910390fd5b6001600160401b038316600090815260056020526040908190205490517f9c076c110000000000000000000000000000000000000000000000000000000081526001600160a01b03848116600483015290911690639c076c1190602401600060405180830381600087803b158015620029f357600080fd5b505af115801562002a08573d6000803e3d6000fd5b5050604080513381526001600160a01b03861660208201526001600160401b03871693507f16af79d7ecfd9b6d6e5a0ddacdbcc62123ae4fb0ee026d1a4127e0bf60175021925001620023e9565b3360009081526003602052604090205460ff1662002a8757604051636188839760e01b815260040160405180910390fd5b6001600160401b0383166000908152600560209081526040808320548151629032ff60e51b815291516001600160a01b03909116939284926312065fe092600480830193928290030181865afa15801562002ae6573d6000803e3d6000fd5b505050506040513d601f19601f8201168201806040525081019062002b0c919062004207565b90508381101562002b3057604051631e9acf1760e31b815260040160405180910390fd5b6040517ff19bdf8b000000000000000000000000000000000000000000000000000000008152600481018590526001600160a01b03848116602483015283169063f19bdf8b90604401600060405180830381600087803b15801562002b9457600080fd5b505af115801562002ba9573d6000803e3d6000fd5b50505050846001600160401b03167f4c4d860a50e6fb83506f3f8c8a48b6430bf0725ab430db77c9fc0a6f4d19534c8286846200115a919062004384565b6001600160401b0381166000908152600560205260408120548190819081906001600160a01b03168062002c2e57604051630da30f6560e31b815260040160405180910390fd5b806001600160a01b0316635bdb3a416040518163ffffffff1660e01b8152600401608060405180830381865afa15801562002c6d573d6000803e3d6000fd5b505050506040513d601f19601f8201168201806040525081019062002c939190620044f3565b9450945094509450509193509193565b62002cad62003d33565b6001600160a01b03811660009081526003602052604090205460ff1662002ce757604051636188839760e01b815260040160405180910390fd5b60025460005b8181101562002e0557826001600160a01b03166002828154811062002d165762002d1662004237565b6000918252602090912001546001600160a01b03160362002df2576000600262002d4260018562004384565b8154811062002d555762002d5562004237565b600091825260209091200154600280546001600160a01b03909216925082918490811062002d875762002d8762004237565b9060005260206000200160006101000a8154816001600160a01b0302191690836001600160a01b03160217905550600280548062002dc95762002dc96200452a565b600082815260209020810160001990810180546001600160a01b03191690550190555062002e05565b62002dfd816200427c565b905062002ced565b506001600160a01b038216600081815260036020908152604091829020805460ff1916905590519182527fcf15831020102bbbe0547b0c3460aa49715f2646e0911760d2b069e0fb2f62a1910162002760565b6001600160401b03811660009081526005602090815260408083205481517f69ad397600000000000000000000000000000000000000000000000000000000815291516001600160a01b03909116926369ad397692600480820193918290030181865afa15801562002ece573d6000803e3d6000fd5b505050506040513d601f19601f82011682018060405250810190620014f891906200439a565b600454600090819062002f12906001600160401b0316600162004298565b6004805467ffffffffffffffff19166001600160401b0383161781556040519192506000918391339162002f469062003ddf565b62002f5493929190620042bb565b604051809103906000f08015801562002f71573d6000803e3d6000fd5b506001600160401b0383166000818152600560205260409081902080546001600160a01b0319166001600160a01b03851617905551919250907f5b65de802e0d3a9e88f5376a68271db61a24e889c50f347239c4ae3b6a4c0c7d9062002fde9084903390600490620042e9565b60405180910390a250919050565b6001600160401b038216600090815260056020908152604091829020548251631127a41d60e31b81529251859333936001600160a01b039093169263893d20e8926004808401938290030181865afa1580156200304d573d6000803e3d6000fd5b505050506040513d601f19601f82011682018060405250810190620030739190620041e7565b6001600160a01b0316146200309b57604051636074361360e01b815260040160405180910390fd5b6001600160401b038316600090815260056020526040908190205490517f0e27e3df0000000000000000000000000000000000000000000000000000000081526001600160a01b03848116600483015290911690630e27e3df90602401600060405180830381600087803b1580156200311357600080fd5b505af115801562003128573d6000803e3d6000fd5b50506040516001600160a01b03851681526001600160401b03861692507fa4be0a97eff918a7bcc570a09d2a8812983d49f7cd84d1f29a8148cf0ed401e69150602001620023e9565b3360009081526003602052604081205460ff16620031a257604051636188839760e01b815260040160405180910390fd5b6001600160401b0383166000908152600560205260409020546001600160a01b031680156200325c576040517f8247a97c0000000000000000000000000000000000000000000000000000000081526001600160a01b038481166004830152821690638247a97c906024016020604051808303816000875af11580156200322d573d6000803e3d6000fd5b505050506040513d601f19601f820116820180604052508101906200325391906200439a565b915050620014f8565b6001915050620014f8565b5092915050565b600281815481106200327f57600080fd5b6000918252602090912001546001600160a01b0316905081565b6001600160401b03811660009081526007602052604081205490620032bf348362004221565b6001600160401b038416600081815260076020908152604091829020849055815186815290810184905292935090917faf3d9fb1c57e7b7764b81db151a26af4f4eb375e7e3c7ee23d8adc3f149f760b9101620023e9565b33600090815260036020526040812054819060ff166200334a57604051636188839760e01b815260040160405180910390fd5b6001600160401b038316600090815260076020526040812080548282556001909101805474ffffffffffffffffffffffffffffffffffffffffff191690558154909190606490620033a690600160a01b900460ff16846200433f565b620033b2919062004361565b6000805491925090606490620033d390600160a81b900460ff16856200433f565b620033df919062004361565b9050600081620033f0848662004384565b620033fc919062004384565b905082156200348e5760405160009061dead9085908381818185875af1925050503d80600081146200344b576040519150601f19603f3d011682016040523d82523d6000602084013e62003450565b606091505b50509050806200348c576040517f0e27e65d00000000000000000000000000000000000000000000000000000000815260040160405180910390fd5b505b811562003527576001546040516000916001600160a01b03169084908381818185875af1925050503d8060008114620034e4576040519150601f19603f3d011682016040523d82523d6000602084013e620034e9565b606091505b505090508062003525576040517ff56213a300000000000000000000000000000000000000000000000000000000815260040160405180910390fd5b505b60408051858152600060208201526001600160401b038916917f4c4d860a50e6fb83506f3f8c8a48b6430bf0725ab430db77c9fc0a6f4d19534c910160405180910390a2866001600160401b03167f5c99b84ba0f813bdfcfc063ad296c6cf2e5eb1e9ef2b4f323849b035f93da61684604051620035a791815260200190565b60405180910390a29294509192505050915091565b620035c662003d33565b600180546001600160a01b0319166001600160a01b0392909216919091179055565b6001600160401b0381166000908152600560205260408082205481517f3b729b8600000000000000000000000000000000000000000000000000000000815291516001600160a01b039091169183918391633b729b8691600480830192869291908290030181865afa15801562003663573d6000803e3d6000fd5b505050506040513d6000823e601f3d908101601f191682016040526200368d919081019062004540565b80516002549192509060005b8281101562003830576000848281518110620036b957620036b962004237565b6020908102919091010151604051632d0335ab60e01b81526001600160a01b038083166004830152919250600091881690632d0335ab90602401602060405180830381865afa15801562003711573d6000803e3d6000fd5b505050506040513d601f19601f820116820180604052508101906200373791906200439a565b905060005b848110156200381757600281815481106200375b576200375b62004237565b600091825260209091200154604051630d44941960e11b81526001600160a01b0385811660048301526001600160401b03808e1660248401528516604483015290911690631a89283290606401602060405180830381865afa158015620037c6573d6000803e3d6000fd5b505050506040513d601f19601f82011682018060405250810190620037ec91906200425e565b1562003802575060019998505050505050505050565b806200380e816200427c565b9150506200373c565b505050808062003827906200427c565b91505062003699565b5060009695505050505050565b6200384762003d33565b6001600160401b0382166000908152600560205260409020546001600160a01b0316806200388857604051630da30f6560e31b815260040160405180910390fd5b6040516319f4ff2f60e01b8152600481018390526001600160a01b038216906319f4ff2f90602401600060405180830381600087803b158015620038cb57600080fd5b505af1158015620038e0573d6000803e3d6000fd5b50505050826001600160401b03167f76cffe6f2b6ee27a35c336dd1c49c5934e6e4e7d7bbeecca6dbe26d9e4ff068283604051620023e991815260200190565b6200392b8262001170565b156200394a57604051631685ecdd60e31b815260040160405180910390fd5b6001600160401b038216600090815260076020908152604080832081516060810183528154815260018201546001600160a01b03811694820194909452929091830190600160a01b900460ff166004811115620039ab57620039ab6200408d565b6004811115620039bf57620039bf6200408d565b90525060208101519091506001600160a01b03163314620039f357604051636074361360e01b815260040160405180910390fd5b8051600081900362003a1857604051631e9acf1760e31b815260040160405180910390fd5b6001600160401b038416600090815260076020526040808220828155600101805474ffffffffffffffffffffffffffffffffffffffffff19169055516001600160a01b0385169083908381818185875af1925050503d806000811462003a9b576040519150601f19603f3d011682016040523d82523d6000602084013e62003aa0565b606091505b505090508062003ae8576040517f4319610c0000000000000000000000000000000000000000000000000000000081526001600160401b03861660048201526024016200191e565b60408051838152600060208201526001600160401b038716917f4c4d860a50e6fb83506f3f8c8a48b6430bf0725ab430db77c9fc0a6f4d19534c910162000e7b565b6001600160401b0381166000908152600560205260408120546001600160a01b03168062003b6b57604051630da30f6560e31b815260040160405180910390fd5b806001600160a01b031663745bad096040518163ffffffff1660e01b8152600401602060405180830381865afa15801562001ed8573d6000803e3d6000fd5b62003bb462003d33565b6001600160a01b03811662003c325760405162461bcd60e51b815260206004820152602660248201527f4f776e61626c653a206e6577206f776e657220697320746865207a65726f206160448201527f646472657373000000000000000000000000000000000000000000000000000060648201526084016200191e565b62003c3d8162003d8f565b50565b62003c4a62003d33565b6001600160a01b03811660009081526003602052604090205460ff161562003c9e576040517f59f4e0cc00000000000000000000000000000000000000000000000000000000815260040160405180910390fd5b6002805460018082019092557f405787fa12a823e0f2b7631cc41b3ba8828b3321ca811111fa75cd3aa3bb5ace0180546001600160a01b0319166001600160a01b038416908117909155600081815260036020908152604091829020805460ff1916909417909355519081527f56e6c5206d2baab7a01569b19d84b5963ca9f96e10f55076b5e5987fbf780cf5910162000c2c565b6000546001600160a01b03163314620020ea5760405162461bcd60e51b815260206004820181905260248201527f4f776e61626c653a2063616c6c6572206973206e6f7420746865206f776e657260448201526064016200191e565b600080546001600160a01b038381166001600160a01b0319831681178455604051919092169283917f8be0079c531659141344cd1fd0a4f28419497f9722a3daafe3b4186f6b6457e09190a35050565b6116de806200457983390190565b60006020828403121562003e0057600080fd5b813560ff811681146200146f57600080fd5b6001600160401b038116811462003c3d57600080fd5b6001600160a01b038116811462003c3d57600080fd5b6000806040838503121562003e5257600080fd5b823562003e5f8162003e12565b9150602083013562003e718162003e28565b809150509250929050565b60006020828403121562003e8f57600080fd5b81356200146f8162003e12565b600060208083528351808285015260005b8181101562003ecb5785810183015185820160400152820162003ead565b506000604082860101526040601f19601f8301168501019250505092915050565b60006020828403121562003eff57600080fd5b81356200146f8162003e28565b6000806040838503121562003f2057600080fd5b82359150602083013562003e718162003e28565b6000806040838503121562003f4857600080fd5b823562003f558162003e12565b946020939093013593505050565b600080600080600060a0868803121562003f7c57600080fd5b85359450602086013593506040860135925060608601359150608086013562003fa58162003e28565b809150509295509295909350565b6020808252825182820181905260009190848201906040850190845b8181101562003ff65783516001600160a01b03168352928401929184019160010162003fcf565b50909695505050505050565b600080600080600060a086880312156200401b57600080fd5b8535620040288162003e12565b97602087013597506040870135966060810135965060800135945092505050565b600080600080608085870312156200406057600080fd5b8435935060208501359250604085013591506060850135620040828162003e28565b939692955090935050565b634e487b7160e01b600052602160045260246000fd5b60058110620040c257634e487b7160e01b600052602160045260246000fd5b9052565b600060a0820187835260206001600160401b038816818501526001600160a01b03808816604086015260a0606086015282875180855260c087019150838901945060005b818110156200412a5785518416835294840194918401916001016200410a565b505080945050505050620024d46080830184620040a3565b6000806000606084860312156200415857600080fd5b8335620041658162003e12565b92506020840135915060408401356200417e8162003e28565b809150509250925092565b6000602082840312156200419c57600080fd5b5035919050565b634e487b7160e01b600052601160045260246000fd5b60ff8181168382160190811115620014f857620014f8620041a3565b8051620041e28162003e28565b919050565b600060208284031215620041fa57600080fd5b81516200146f8162003e28565b6000602082840312156200421a57600080fd5b5051919050565b80820180821115620014f857620014f8620041a3565b634e487b7160e01b600052603260045260246000fd5b80518015158114620041e257600080fd5b6000602082840312156200427157600080fd5b6200146f826200424d565b600060018201620042915762004291620041a3565b5060010190565b6001600160401b03818116838216019080821115620032675762003267620041a3565b6001600160401b03841681526001600160a01b038316602082015260608101620022616040830184620040a3565b6001600160a01b0384811682528316602082015260608101620022616040830184620040a3565b600080604083850312156200432457600080fd5b6200432f836200424d565b9150602083015190509250929050565b60008160001904831182151516156200435c576200435c620041a3565b500290565b6000826200437f57634e487b7160e01b600052601260045260246000fd5b500490565b81810381811115620014f857620014f8620041a3565b600060208284031215620043ad57600080fd5b81516200146f8162003e12565b634e487b7160e01b600052604160045260246000fd5b600082601f830112620043e257600080fd5b815160206001600160401b0380831115620044015762004401620043ba565b8260051b604051601f19603f83011681018181108482111715620044295762004429620043ba565b6040529384528581018301938381019250878511156200444857600080fd5b83870191505b8482101562001de9576200446282620041d5565b835291830191908301906200444e565b600080600080600060a086880312156200448b57600080fd5b8551945060208601516200449f8162003e12565b6040870151909450620044b28162003e28565b60608701519093506001600160401b03811115620044cf57600080fd5b620044dd88828901620043d0565b92505060808601516005811062003fa557600080fd5b600080600080608085870312156200450a57600080fd5b505082516020840151604085015160609095015191969095509092509050565b634e487b7160e01b600052603160045260246000fd5b6000602082840312156200455357600080fd5b81516001600160401b038111156200456a57600080fd5b6200226184828501620043d056fe60806040523480156200001157600080fd5b50604051620016de380380620016de8339810160408190526200003491620000b2565b60008054600180546001600160a01b0386166001600160a01b0319918216179091556001600160401b038616600160a01b02166001600160e01b031990911617331790556004805482919060ff60401b1916680100000000000000008383811115620000a457620000a46200011f565b021790555050505062000135565b600080600060608486031215620000c857600080fd5b83516001600160401b0381168114620000e057600080fd5b60208501519093506001600160a01b0381168114620000fe57600080fd5b6040850151909250600581106200011457600080fd5b809150509250925092565b634e487b7160e01b600052602160045260246000fd5b61159980620001456000396000f3fe6080604052600436106101bb5760003560e01c806362166543116100ec5780638d8476be1161008a578063c77dafef11610064578063c77dafef1461058c578063cdbb962f146105a1578063db613e81146105c1578063f19bdf8b146105e757600080fd5b80638d8476be1461052e5780639c076c111461054e578063b7acf25a1461056e57600080fd5b80636d1dca0b116100c65780636d1dca0b14610494578063745bad09146104cb5780638247a97c146104f0578063893d20e81461051057600080fd5b8063621665431461043857806364d51a2a1461044d57806369ad39761461047557600080fd5b80632e1a7d4d11610159578063533762e011610133578063533762e0146103b557806359362b88146103ca5780635bdb3a41146103df578063619eea001461041857600080fd5b80632e1a7d4d1461032a5780632f048674146103615780633b729b861461039357600080fd5b806312065fe01161019557806312065fe014610241578063181f5a771461026557806319f4ff2f146102b15780632d0335ab146102d157600080fd5b806305aa772e146101df5780630e27e3df14610201578063112940f91461022157600080fd5b366101da5734600360008282546101d291906112a0565b925050819055005b600080fd5b3480156101eb57600080fd5b506101ff6101fa3660046112d0565b610607565b005b34801561020d57600080fd5b506101ff61021c3660046112d0565b6106d2565b34801561022d57600080fd5b506101ff61023c3660046112d0565b610905565b34801561024d57600080fd5b506003545b6040519081526020015b60405180910390f35b34801561027157600080fd5b50604080518082018252600c81527f4163636f756e742076302e3100000000000000000000000000000000000000006020820152905161025c91906112f2565b3480156102bd57600080fd5b506101ff6102cc366004611340565b610a1f565b3480156102dd57600080fd5b506103116102ec3660046112d0565b6001600160a01b03166000908152600b602052604090205467ffffffffffffffff1690565b60405167ffffffffffffffff909116815260200161025c565b34801561033657600080fd5b5061034a610345366004611340565b610a5e565b60408051921515835260208301919091520161025c565b34801561036d57600080fd5b506002546001600160a01b03165b6040516001600160a01b03909116815260200161025c565b34801561039f57600080fd5b506103a8610b4c565b60405161025c919061139d565b3480156103c157600080fd5b506101ff610bae565b3480156103d657600080fd5b50600854610252565b3480156103eb57600080fd5b5060055460065460075460095460408051948552602085019390935291830152606082015260800161025c565b34801561042457600080fd5b506101ff6104333660046113b0565b610c2a565b34801561044457600080fd5b506101ff610df2565b34801561045957600080fd5b50610462606481565b60405161ffff909116815260200161025c565b34801561048157600080fd5b5060045467ffffffffffffffff16610311565b3480156104a057600080fd5b5060005474010000000000000000000000000000000000000000900467ffffffffffffffff16610311565b3480156104d757600080fd5b506104e0610e71565b604051901515815260200161025c565b3480156104fc57600080fd5b5061031161050b3660046112d0565b610eab565b34801561051c57600080fd5b506001546001600160a01b031661037b565b34801561053a57600080fd5b506101ff6105493660046113e5565b610f50565b34801561055a57600080fd5b506101ff6105693660046112d0565b610f9e565b34801561057a57600080fd5b506000546001600160a01b031661037b565b34801561059857600080fd5b506104e061101a565b3480156105ad57600080fd5b506101ff6105bc3660046112d0565b6110bc565b3480156105cd57600080fd5b506105d6611102565b60405161025c95949392919061142d565b3480156105f357600080fd5b506101ff610602366004611495565b6111ae565b6000546001600160a01b03163314610646576000546040516357695ced60e01b81526001600160a01b0390911660048201526024015b60405180910390fd5b6002546001600160a01b0382811691161461069c576002546040517fd084e9750000000000000000000000000000000000000000000000000000000081526001600160a01b03909116600482015260240161063d565b600180546001600160a01b0390921673ffffffffffffffffffffffffffffffffffffffff19928316179055600280549091169055565b6000546001600160a01b0316331461070c576000546040516357695ced60e01b81526001600160a01b03909116600482015260240161063d565b6001600160a01b0381166000908152600b602052604081205467ffffffffffffffff169003610772576040517f728aeb5f0000000000000000000000000000000000000000000000000000000081526001600160a01b038216600482015260240161063d565b6000600a8054806020026020016040519081016040528092919081815260200182805480156107ca57602002820191906000526020600020905b81546001600160a01b031681526001909101906020018083116107ac575b50508351939450600092506107e4915060019050836114c1565b905060005b828110156108d957846001600160a01b031684828151811061080d5761080d6114d4565b60200260200101516001600160a01b0316036108c9576000848381518110610837576108376114d4565b6020026020010151905080600a8381548110610855576108556114d4565b9060005260206000200160006101000a8154816001600160a01b0302191690836001600160a01b03160217905550600a805480610894576108946114ea565b6000828152602090208101600019908101805473ffffffffffffffffffffffffffffffffffffffff19169055019055506108d9565b6108d281611500565b90506107e9565b505050506001600160a01b03166000908152600b60205260409020805467ffffffffffffffff19169055565b6000546001600160a01b0316331461093f576000546040516357695ced60e01b81526001600160a01b03909116600482015260240161063d565b600a5460641161097b576040517f05a48e0f00000000000000000000000000000000000000000000000000000000815260040160405180910390fd5b6001600160a01b0381166000908152600b602052604090205467ffffffffffffffff16610a1c576001600160a01b0381166000818152600b60205260408120805467ffffffffffffffff19166001908117909155600a805491820181559091527fc65a7bb8d6351c1cf70c95a316cc6a92839c986682d98bc35f958f4883f9d2a801805473ffffffffffffffffffffffffffffffffffffffff191690911790555b50565b6000546001600160a01b03163314610a59576000546040516357695ced60e01b81526001600160a01b03909116600482015260240161063d565b600855565b6000805481906001600160a01b03163314610a9b576000546040516357695ced60e01b81526001600160a01b03909116600482015260240161063d565b60035483811015610ad8576040517ff4d678b800000000000000000000000000000000000000000000000000000000815260040160405180910390fd5b610ae284826114c1565b60038190556001546040519192506000916001600160a01b039091169086908381818185875af1925050503d8060008114610b39576040519150601f19603f3d011682016040523d82523d6000602084013e610b3e565b606091505b509094509192505050915091565b6060600a805480602002602001604051908101604052809291908181526020018280548015610ba457602002820191906000526020600020905b81546001600160a01b03168152600190910190602001808311610b86575b5050505050905090565b6000546001600160a01b03163314610be8576000546040516357695ced60e01b81526001600160a01b03909116600482015260240161063d565b6001600d600060065460055442610bff91906114c1565b610c099190611519565b81526020810191909152604001600020805460ff1916911515919091179055565b6000546001600160a01b03163314610c64576000546040516357695ced60e01b81526001600160a01b03909116600482015260240161063d565b6004805460019190600090610c8490849067ffffffffffffffff1661153b565b92506101000a81548167ffffffffffffffff021916908367ffffffffffffffff1602179055508183610cb691906112a0565b60036000828254610cc791906114c1565b90915550508215610d585760405160009061dead9085908381818185875af1925050503d8060008114610d16576040519150601f19603f3d011682016040523d82523d6000602084013e610d1b565b606091505b5050905080610d56576040517f0e27e65d00000000000000000000000000000000000000000000000000000000815260040160405180910390fd5b505b8115610ded576000816001600160a01b03168360405160006040518083038185875af1925050503d8060008114610dab576040519150601f19603f3d011682016040523d82523d6000602084013e610db0565b606091505b5050905080610deb576040517ff56213a300000000000000000000000000000000000000000000000000000000815260040160405180910390fd5b505b505050565b6000546001600160a01b03163314610e2c576000546040516357695ced60e01b81526001600160a01b03909116600482015260240161063d565b6001600c600060065460055442610e4391906114c1565b610e4d9190611519565b81526020019081526020016000206000828254610e6a91906112a0565b9091555050565b6000600d600060065460055442610e8891906114c1565b610e929190611519565b815260208101919091526040016000205460ff16919050565b600080546001600160a01b03163314610ee6576000546040516357695ced60e01b81526001600160a01b03909116600482015260240161063d565b6001600160a01b0382166000908152600b6020526040812054610f149067ffffffffffffffff16600161153b565b6001600160a01b0384166000908152600b60205260409020805467ffffffffffffffff191667ffffffffffffffff83161790559150505b919050565b6000546001600160a01b03163314610f8a576000546040516357695ced60e01b81526001600160a01b03909116600482015260240161063d565b600593909355600691909155600755600955565b6000546001600160a01b03163314610fd8576000546040516357695ced60e01b81526001600160a01b03909116600482015260240161063d565b6002546001600160a01b03828116911614610a1c57600280546001600160a01b03831673ffffffffffffffffffffffffffffffffffffffff1990911617905550565b600060016004805468010000000000000000900460ff169081111561104157611041611417565b148061106f575060026004805468010000000000000000900460ff169081111561106d5761106d611417565b145b156110b657600754600c60006006546005544261108c91906114c1565b6110969190611519565b815260200190815260200160002054116110b05750600190565b50600090565b50600190565b6000546001600160a01b031633146110f6576000546040516357695ced60e01b81526001600160a01b03909116600482015260240161063d565b806001600160a01b0316ff5b600354600454600154600a805460408051602080840282018101909252828152600096879687966060968896939567ffffffffffffffff8416956001600160a01b0390931694919368010000000000000000900460ff169291849183018282801561119657602002820191906000526020600020905b81546001600160a01b03168152600190910190602001808311611178575b50505050509150945094509450945094509091929394565b6000546001600160a01b031633146111e8576000546040516357695ced60e01b81526001600160a01b03909116600482015260240161063d565b81600360008282546111fa91906114c1565b90915550506040516000906001600160a01b0383169084908381818185875af1925050503d806000811461124a576040519150601f19603f3d011682016040523d82523d6000602084013e61124f565b606091505b5050905080610ded576040517fb7c1cac700000000000000000000000000000000000000000000000000000000815260040160405180910390fd5b634e487b7160e01b600052601160045260246000fd5b808201808211156112b3576112b361128a565b92915050565b80356001600160a01b0381168114610f4b57600080fd5b6000602082840312156112e257600080fd5b6112eb826112b9565b9392505050565b600060208083528351808285015260005b8181101561131f57858101830151858201604001528201611303565b506000604082860101526040601f19601f8301168501019250505092915050565b60006020828403121561135257600080fd5b5035919050565b600081518084526020808501945080840160005b838110156113925781516001600160a01b03168752958201959082019060010161136d565b509495945050505050565b6020815260006112eb6020830184611359565b6000806000606084860312156113c557600080fd5b83359250602084013591506113dc604085016112b9565b90509250925092565b600080600080608085870312156113fb57600080fd5b5050823594602084013594506040840135936060013592509050565b634e487b7160e01b600052602160045260246000fd5b85815267ffffffffffffffff851660208201526001600160a01b038416604082015260a06060820152600061146560a0830185611359565b90506005831061148557634e487b7160e01b600052602160045260246000fd5b8260808301529695505050505050565b600080604083850312156114a857600080fd5b823591506114b8602084016112b9565b90509250929050565b818103818111156112b3576112b361128a565b634e487b7160e01b600052603260045260246000fd5b634e487b7160e01b600052603160045260246000fd5b6000600182016115125761151261128a565b5060010190565b60008261153657634e487b7160e01b600052601260045260246000fd5b500490565b67ffffffffffffffff81811683821601908082111561155c5761155c61128a565b509291505056fea26469706673582212201bf7b61ed442f8bbb4069b962a80518cd62d7ce94d22c44a8bea38069258f15b64736f6c63430008100033a2646970667358221220742be1af31d616115be3f7237f7df2d106d477c144ab1fcdadabb7991c47c79264736f6c63430008100033",
  "devdoc": {
    "author": "Bisonai",
    "kind": "dev",
    "methods": {
      "acceptAccountOwnerTransfer(uint64)": {
        "details": "The function will revert inside of the`Account.acceptAccountOwnerTransfer` if original owner of`accId` has not requested the `msg.sender` to become thenew owner.",
        "params": {
          "accId": "- ID of the account"
        }
      },
      "addConsumer(uint64,address)": {
        "details": "This function is meant to be used only for [regular]account. If called with [temporary] account, thetransaction will be reverted.",
        "params": {
          "accId": "- ID of the account",
          "consumer": "- New consumer which can use the account"
        }
      },
      "cancelAccount(uint64,address)": {
        "details": "This function is meant to be used only for [regular]account. If there is any pending request, the accountcannot be canceled.",
        "params": {
          "accId": "- ID of the account",
          "to": "- Where to send the remaining $KLAY to"
        }
      },
      "chargeFee(uint64,uint256)": {
        "params": {
          "accId": "- ID of the account",
          "amount": "- $KLAY amount to be charged"
        }
      },
      "chargeFeeTemporary(uint64)": {
        "details": "Temporary account is deleted because we do not expect to use it again.",
        "params": {
          "accId": "- ID of the account"
        }
      },
      "chargeOperatorFee(uint64,uint256,address)": {
        "params": {
          "accId": "- ID of the account",
          "operatorFee": "- amount of fee to be paid to operator fee recipient",
          "operatorFeeRecipient": "- address of operator fee recipient"
        }
      },
      "chargeOperatorFeeTemporary(uint256,address)": {
        "params": {
          "operatorFee": "- amount of fee to be paid to operator fee recipient",
          "operatorFeeRecipient": "- address of operator fee recipient"
        }
      },
      "createAccount()": {
        "details": "This function deploys a new `Account` contract (defined atAccount.sol) and connect it with the `Prepayment` contract.You can add or remove the consumer dynamically with`addConsumer` or `removeConsumer` functions,respectively. To fund the account, use deposit function.",
        "returns": {
          "_0": "accId - A unique account id"
        }
      },
      "createTemporaryAccount(address)": {
        "params": {
          "": "- account owner"
        },
        "returns": {
          "_0": "accId - A unique account id"
        }
      },
      "deposit(uint64)": {
        "params": {
          "accId": "- ID of the account"
        }
      },
      "depositTemporary(uint64)": {
        "params": {
          "accId": "- ID of the account"
        }
      },
      "getAccount(uint64)": {
        "details": "This function can be used for both [regular] and[temporary] account.",
        "params": {
          "accId": "- ID of the account"
        },
        "returns": {
          "balance": "- $KLAY balance of the account in juels.",
          "consumers": "- list of consumer address which are able to use this account.",
          "owner": "- owner of the account.",
          "reqCount": "- number of requests for this account, determines fee tier."
        }
      },
      "getAccountOwner(uint64)": {
        "details": "This function is meant to be used only for [regular]account.",
        "params": {
          "accId": "- ID of the account"
        }
      },
      "getBalance(uint64)": {
        "details": "This function is meant to be used only for [regular]account. If invalid `accId` (ID not assigned to anyaccount) is passed, zero balance will be always returned.",
        "params": {
          "accId": "- ID of the account"
        },
        "returns": {
          "balance": "of account"
        }
      },
      "getNonce(uint64,address)": {
        "details": "This function is meant to be used only for [regular]account. [temporary] account does not have a notion of a nonce.When an invalid `accId` is passed, transaction isreverted. When an invalid `consumer` is passed, 0 zerononce is returned that represents an unregistered consumer.",
        "params": {
          "accId": "- ID of the account",
          "consumer": "- consumer address"
        }
      },
      "getReqCount(uint64)": {
        "details": "This function is meant to be used only for [regular]account.",
        "params": {
          "accId": "- ID of the account"
        },
        "returns": {
          "_0": "number of requests"
        }
      },
      "increaseNonce(uint64,address)": {
        "params": {
          "accId": "- ID of the account",
          "consumer": "- Address of consumer registered under accId"
        }
      },
      "isValidAccount(uint64,address)": {
        "details": "This function can be used for checking validity of both[regular] and [temporary] account.",
        "params": {
          "accId": "- ID of the account"
        }
      },
      "owner()": {
        "details": "Returns the address of the current owner."
      },
      "removeConsumer(uint64,address)": {
        "details": "This function is meant to be used only for [regular]account. If called with [temporary] account, thetransaction will be reverted.",
        "params": {
          "accId": "- ID of the account",
          "consumer": "- Consumer to remove from the account"
        }
      },
      "renounceOwnership()": {
        "details": "Leaves the contract without owner. It will not be possible to call `onlyOwner` functions anymore. Can only be called by the current owner. NOTE: Renouncing ownership will leave the contract without an owner, thereby removing any functionality that is only available to the owner."
      },
      "requestAccountOwnerTransfer(uint64,address)": {
        "details": "Only [regular] account owner can be transferred.",
        "params": {
          "accId": "- ID of the account",
          "newOwner": "- proposed new owner of the account"
        }
      },
      "setBurnFeeRatio(uint8)": {
        "params": {
          "ratio": "in a range 0 - 100 % of a fee to be burnt"
        }
      },
      "setProtocolFeeRatio(uint8)": {
        "params": {
          "ratio": "in a range 0 - 100 % of a fee to be burnt"
        }
      },
      "setProtocolFeeRecipient(address)": {
        "params": {
          "protocolFeeRecipient": "- address of protocol fee recipient"
        }
      },
      "transferOwnership(address)": {
        "details": "Transfers ownership of the contract to a new account (`newOwner`). Can only be called by the current owner."
      },
      "typeAndVersion()": {
        "returns": {
          "_0": "Type and version string"
        }
      },
      "withdraw(uint64,uint256)": {
        "details": "Account owner can withdraw $KLAY only when there are nopending requests on any of associated consumers. If one triesto use it to withdraw $KLAY from [temporary] account,transaction will revert. Transaction reverts also on failure towithdraw tokens from account.",
        "params": {
          "accId": "- ID of the account",
          "amount": "- $KLAY amount to be withdrawn"
        }
      },
      "withdrawTemporary(uint64,address)": {
        "details": "Account owner can withdraw $KLAY only when there are nopending requests. Temporary account will be deleted uponsuccessful withdrawal. Transaction reverts also on failure towithdraw tokens from account.",
        "params": {
          "accId": "- ID of the account",
          "to": "- recipient address"
        }
      }
    },
    "title": "Orakl Network Prepayment",
    "version": 1
  },
  "userdoc": {
    "kind": "user",
    "methods": {
      "acceptAccountOwnerTransfer(uint64)": {
        "notice": "Accept account owner transfer."
      },
      "addConsumer(uint64,address)": {
        "notice": "Add a consumer to an account."
      },
      "cancelAccount(uint64,address)": {
        "notice": "Cancel account"
      },
      "chargeFee(uint64,uint256)": {
        "notice": "Burn part of fee and charge protocol fee for a service connected to [regular] account."
      },
      "chargeFeeTemporary(uint64)": {
        "notice": "Burn part of fee and charge protocol fee for a service connected to [temporary] account."
      },
      "chargeOperatorFee(uint64,uint256,address)": {
        "notice": "Charge operator fee for a service connected to [temporary] account."
      },
      "chargeOperatorFeeTemporary(uint256,address)": {
        "notice": "Charge operator fee for a service connected to [temporary] account."
      },
      "createAccount()": {
        "notice": "Create a [regular] account."
      },
      "createTemporaryAccount(address)": {
        "notice": "Create a temporary account to be used with a singleservice request."
      },
      "deposit(uint64)": {
        "notice": "Deposit $KLAY to [regular] account.Anybody can deposit $KLAY, there are no restrictions."
      },
      "depositTemporary(uint64)": {
        "notice": "Deposit $KLAY to [temporary] account.Anybody can deposit $KLAY, there are no restrictions."
      },
      "getAccount(uint64)": {
        "notice": "Get an account information."
      },
      "getAccountOwner(uint64)": {
        "notice": "Get address of account owner."
      },
      "getBalance(uint64)": {
        "notice": "Returns the balance of given account."
      },
      "getBurnFeeRatio()": {
        "notice": "Return the current burn ratio that represents thepercentage of $KLAY fee that is burnt during fulfillmentof every request."
      },
      "getCoordinators()": {
        "notice": "Get addresses of all registered coordinators in Prepayment."
      },
      "getNonce(uint64,address)": {
        "notice": "Get nonce for specified `consumer` in account denoted by `accId`."
      },
      "getProtocolFeeRatio()": {
        "notice": "Return the current protocol fee ratio that representsthe percentage of $KLAY fee that is charged for everyfinalizes fulfillment."
      },
      "getProtocolFeeRecipient()": {
        "notice": "Get address of protocol fee recipient."
      },
      "getReqCount(uint64)": {
        "notice": "Return the number of requests created through theaccount."
      },
      "increaseNonce(uint64,address)": {
        "notice": "Increase nonce for consumer registered under accId."
      },
      "isValidAccount(uint64,address)": {
        "notice": "Returns `true` when a `consumer` is registered under`accId`, otherwise returns `false`."
      },
      "removeConsumer(uint64,address)": {
        "notice": "Remove a consumer from a account."
      },
      "requestAccountOwnerTransfer(uint64,address)": {
        "notice": "Request account owner transfer."
      },
      "setBurnFeeRatio(uint8)": {
        "notice": "The function allows to update a \"burn ratio\" that represents apartial amount of payment for the Orakl Network service thatwill be burnt."
      },
      "setProtocolFeeRatio(uint8)": {
        "notice": "The function allows to update a protocol fee."
      },
      "setProtocolFeeRecipient(address)": {
        "notice": "Update address of protocol fee recipient that willreceive protocol fees."
      },
      "typeAndVersion()": {
        "notice": "The type and version of this contract"
      },
      "withdraw(uint64,uint256)": {
        "notice": "Withdraw $KLAY from [regular] account."
      },
      "withdrawTemporary(uint64,address)": {
        "notice": "Withdraw $KLAY from [temporary] account."
      }
    },
    "notice": "Prepayment is a type of prepaid payment solution whichallows to controls two types of accounts: regular andtemporary.@notice [regular] account is a separate smart contract(Account.sol) that is meant to be used long-term. User candeposit $KLAY to account and use it to pay for Orakl Networkservices. More details about [regular] account aredescribed at `Account` smart contract.@notice [temporary] account is created for one-time-use of OraklNetwork services. Consumer can send $KLAY together withrequest to Orakl Network to pay for the service. Alloperations related to [temporary] account are implementedin the Prepayment contract.",
    "version": 1
  },
  "storageLayout": {
    "storage": [
      {
        "astId": 7,
        "contract": "src/v0.1/Prepayment.sol:Prepayment",
        "label": "_owner",
        "offset": 0,
        "slot": "0",
        "type": "t_address"
      },
      {
        "astId": 1563,
        "contract": "src/v0.1/Prepayment.sol:Prepayment",
        "label": "sBurnFeeRatio",
        "offset": 20,
        "slot": "0",
        "type": "t_uint8"
      },
      {
        "astId": 1566,
        "contract": "src/v0.1/Prepayment.sol:Prepayment",
        "label": "sProtocolFeeRatio",
        "offset": 21,
        "slot": "0",
        "type": "t_uint8"
      },
      {
        "astId": 1568,
        "contract": "src/v0.1/Prepayment.sol:Prepayment",
        "label": "sProtocolFeeRecipient",
        "offset": 0,
        "slot": "1",
        "type": "t_address"
      },
      {
        "astId": 1572,
        "contract": "src/v0.1/Prepayment.sol:Prepayment",
        "label": "sCoordinators",
        "offset": 0,
        "slot": "2",
        "type": "t_array(t_contract(ICoordinatorBase)7502)dyn_storage"
      },
      {
        "astId": 1576,
        "contract": "src/v0.1/Prepayment.sol:Prepayment",
        "label": "sIsCoordinator",
        "offset": 0,
        "slot": "3",
        "type": "t_mapping(t_address,t_bool)"
      },
      {
        "astId": 1578,
        "contract": "src/v0.1/Prepayment.sol:Prepayment",
        "label": "sCurrentAccId",
        "offset": 0,
        "slot": "4",
        "type": "t_uint64"
      },
      {
        "astId": 1583,
        "contract": "src/v0.1/Prepayment.sol:Prepayment",
        "label": "sAccIdToAccount",
        "offset": 0,
        "slot": "5",
        "type": "t_mapping(t_uint64,t_contract(Account)896)"
      },
      {
        "astId": 1587,
        "contract": "src/v0.1/Prepayment.sol:Prepayment",
        "label": "sIsTemporaryAccount",
        "offset": 0,
        "slot": "6",
        "type": "t_mapping(t_uint64,t_bool)"
      },
      {
        "astId": 1600,
        "contract": "src/v0.1/Prepayment.sol:Prepayment",
        "label": "sAccIdToTmpAcc",
        "offset": 0,
        "slot": "7",
        "type": "t_mapping(t_uint64,t_struct(TemporaryAccount)1595_storage)"
      }
    ],
    "types": {
      "t_address": {
        "encoding": "inplace",
        "label": "address",
        "numberOfBytes": "20"
      },
      "t_array(t_contract(ICoordinatorBase)7502)dyn_storage": {
        "base": "t_contract(ICoordinatorBase)7502",
        "encoding": "dynamic_array",
        "label": "contract ICoordinatorBase[]",
        "numberOfBytes": "32"
      },
      "t_bool": {
        "encoding": "inplace",
        "label": "bool",
        "numberOfBytes": "1"
      },
      "t_contract(Account)896": {
        "encoding": "inplace",
        "label": "contract Account",
        "numberOfBytes": "20"
      },
      "t_contract(ICoordinatorBase)7502": {
        "encoding": "inplace",
        "label": "contract ICoordinatorBase",
        "numberOfBytes": "20"
      },
      "t_enum(AccountType)7255": {
        "encoding": "inplace",
        "label": "enum IAccount.AccountType",
        "numberOfBytes": "1"
      },
      "t_mapping(t_address,t_bool)": {
        "encoding": "mapping",
        "key": "t_address",
        "label": "mapping(address => bool)",
        "numberOfBytes": "32",
        "value": "t_bool"
      },
      "t_mapping(t_uint64,t_bool)": {
        "encoding": "mapping",
        "key": "t_uint64",
        "label": "mapping(uint64 => bool)",
        "numberOfBytes": "32",
        "value": "t_bool"
      },
      "t_mapping(t_uint64,t_contract(Account)896)": {
        "encoding": "mapping",
        "key": "t_uint64",
        "label": "mapping(uint64 => contract Account)",
        "numberOfBytes": "32",
        "value": "t_contract(Account)896"
      },
      "t_mapping(t_uint64,t_struct(TemporaryAccount)1595_storage)": {
        "encoding": "mapping",
        "key": "t_uint64",
        "label": "mapping(uint64 => struct Prepayment.TemporaryAccount)",
        "numberOfBytes": "32",
        "value": "t_struct(TemporaryAccount)1595_storage"
      },
      "t_struct(TemporaryAccount)1595_storage": {
        "encoding": "inplace",
        "label": "struct Prepayment.TemporaryAccount",
        "members": [
          {
            "astId": 1589,
            "contract": "src/v0.1/Prepayment.sol:Prepayment",
            "label": "balance",
            "offset": 0,
            "slot": "0",
            "type": "t_uint256"
          },
          {
            "astId": 1591,
            "contract": "src/v0.1/Prepayment.sol:Prepayment",
            "label": "owner",
            "offset": 0,
            "slot": "1",
            "type": "t_address"
          },
          {
            "astId": 1594,
            "contract": "src/v0.1/Prepayment.sol:Prepayment",
            "label": "accType",
            "offset": 20,
            "slot": "1",
            "type": "t_enum(AccountType)7255"
          }
        ],
        "numberOfBytes": "64"
      },
      "t_uint256": {
        "encoding": "inplace",
        "label": "uint256",
        "numberOfBytes": "32"
      },
      "t_uint64": {
        "encoding": "inplace",
        "label": "uint64",
        "numberOfBytes": "8"
      },
      "t_uint8": {
        "encoding": "inplace",
        "label": "uint8",
        "numberOfBytes": "1"
      }
    }
  }
}