{
  "address": "0x5fe8a7445bFDB2Cd6d9f1DcfB3B33D8c365FFdB0",
  "abi": [
    {
      "inputs": [
        {
          "internalType": "address",
          "name": "prepayment",
          "type": "address"
        }
      ],
      "stateMutability": "nonpayable",
      "type": "constructor"
    },
    {
      "inputs": [],
      "name": "EvenLengthList",
      "type": "error"
    },
    {
      "inputs": [
        {
          "internalType": "uint32",
          "name": "have",
          "type": "uint32"
        },
        {
          "internalType": "uint32",
          "name": "want",
          "type": "uint32"
        }
      ],
      "name": "GasLimitTooBig",
      "type": "error"
    },
    {
      "inputs": [],
      "name": "IncompatibleJobId",
      "type": "error"
    },
    {
      "inputs": [],
      "name": "IncorrectCommitment",
      "type": "error"
    },
    {
      "inputs": [
        {
          "internalType": "uint256",
          "name": "have",
          "type": "uint256"
        },
        {
          "internalType": "uint256",
          "name": "want",
          "type": "uint256"
        }
      ],
      "name": "InsufficientPayment",
      "type": "error"
    },
    {
      "inputs": [],
      "name": "InvalidAccRequest",
      "type": "error"
    },
    {
      "inputs": [
        {
          "internalType": "uint64",
          "name": "accId",
          "type": "uint64"
        },
        {
          "internalType": "address",
          "name": "consumer",
          "type": "address"
        }
      ],
      "name": "InvalidConsumer",
      "type": "error"
    },
    {
      "inputs": [],
      "name": "InvalidJobId",
      "type": "error"
    },
    {
      "inputs": [],
      "name": "InvalidNumSubmission",
      "type": "error"
    },
    {
      "inputs": [],
      "name": "NoCorrespondingRequest",
      "type": "error"
    },
    {
      "inputs": [
        {
          "internalType": "address",
          "name": "oracle",
          "type": "address"
        }
      ],
      "name": "NoSuchOracle",
      "type": "error"
    },
    {
      "inputs": [],
      "name": "NotRequestOwner",
      "type": "error"
    },
    {
      "inputs": [
        {
          "internalType": "address",
          "name": "oracle",
          "type": "address"
        }
      ],
      "name": "OracleAlreadyRegistered",
      "type": "error"
    },
    {
      "inputs": [],
      "name": "OracleAlreadySubmitted",
      "type": "error"
    },
    {
      "inputs": [],
      "name": "Reentrant",
      "type": "error"
    },
    {
      "inputs": [],
      "name": "RefundFailure",
      "type": "error"
    },
    {
      "inputs": [],
      "name": "TooManyOracles",
      "type": "error"
    },
    {
      "inputs": [
        {
          "internalType": "address",
          "name": "oracle",
          "type": "address"
        }
      ],
      "name": "UnregisteredOracleFulfillment",
      "type": "error"
    },
    {
      "anonymous": false,
      "inputs": [
        {
          "indexed": false,
          "internalType": "uint32",
          "name": "maxGasLimit",
          "type": "uint32"
        },
        {
          "indexed": false,
          "internalType": "uint32",
          "name": "gasAfterPaymentCalculation",
          "type": "uint32"
        },
        {
          "components": [
            {
              "internalType": "uint32",
              "name": "fulfillmentFlatFeeKlayPPMTier1",
              "type": "uint32"
            },
            {
              "internalType": "uint32",
              "name": "fulfillmentFlatFeeKlayPPMTier2",
              "type": "uint32"
            },
            {
              "internalType": "uint32",
              "name": "fulfillmentFlatFeeKlayPPMTier3",
              "type": "uint32"
            },
            {
              "internalType": "uint32",
              "name": "fulfillmentFlatFeeKlayPPMTier4",
              "type": "uint32"
            },
            {
              "internalType": "uint32",
              "name": "fulfillmentFlatFeeKlayPPMTier5",
              "type": "uint32"
            },
            {
              "internalType": "uint24",
              "name": "reqsForTier2",
              "type": "uint24"
            },
            {
              "internalType": "uint24",
              "name": "reqsForTier3",
              "type": "uint24"
            },
            {
              "internalType": "uint24",
              "name": "reqsForTier4",
              "type": "uint24"
            },
            {
              "internalType": "uint24",
              "name": "reqsForTier5",
              "type": "uint24"
            }
          ],
          "indexed": false,
          "internalType": "struct ICoordinatorBase.FeeConfig",
          "name": "feeConfig",
          "type": "tuple"
        }
      ],
      "name": "ConfigSet",
      "type": "event"
    },
    {
      "anonymous": false,
      "inputs": [
        {
          "indexed": true,
          "internalType": "uint256",
          "name": "requestId",
          "type": "uint256"
        },
        {
          "indexed": false,
          "internalType": "bool",
          "name": "response",
          "type": "bool"
        },
        {
          "indexed": false,
          "internalType": "uint256",
          "name": "payment",
          "type": "uint256"
        },
        {
          "indexed": false,
          "internalType": "bool",
          "name": "success",
          "type": "bool"
        }
      ],
      "name": "DataRequestFulfilledBool",
      "type": "event"
    },
    {
      "anonymous": false,
      "inputs": [
        {
          "indexed": true,
          "internalType": "uint256",
          "name": "requestId",
          "type": "uint256"
        },
        {
          "indexed": false,
          "internalType": "bytes",
          "name": "response",
          "type": "bytes"
        },
        {
          "indexed": false,
          "internalType": "uint256",
          "name": "payment",
          "type": "uint256"
        },
        {
          "indexed": false,
          "internalType": "bool",
          "name": "success",
          "type": "bool"
        }
      ],
      "name": "DataRequestFulfilledBytes",
      "type": "event"
    },
    {
      "anonymous": false,
      "inputs": [
        {
          "indexed": true,
          "internalType": "uint256",
          "name": "requestId",
          "type": "uint256"
        },
        {
          "indexed": false,
          "internalType": "bytes32",
          "name": "response",
          "type": "bytes32"
        },
        {
          "indexed": false,
          "internalType": "uint256",
          "name": "payment",
          "type": "uint256"
        },
        {
          "indexed": false,
          "internalType": "bool",
          "name": "success",
          "type": "bool"
        }
      ],
      "name": "DataRequestFulfilledBytes32",
      "type": "event"
    },
    {
      "anonymous": false,
      "inputs": [
        {
          "indexed": true,
          "internalType": "uint256",
          "name": "requestId",
          "type": "uint256"
        },
        {
          "indexed": false,
          "internalType": "int256",
          "name": "response",
          "type": "int256"
        },
        {
          "indexed": false,
          "internalType": "uint256",
          "name": "payment",
          "type": "uint256"
        },
        {
          "indexed": false,
          "internalType": "bool",
          "name": "success",
          "type": "bool"
        }
      ],
      "name": "DataRequestFulfilledInt256",
      "type": "event"
    },
    {
      "anonymous": false,
      "inputs": [
        {
          "indexed": true,
          "internalType": "uint256",
          "name": "requestId",
          "type": "uint256"
        },
        {
          "indexed": false,
          "internalType": "string",
          "name": "response",
          "type": "string"
        },
        {
          "indexed": false,
          "internalType": "uint256",
          "name": "payment",
          "type": "uint256"
        },
        {
          "indexed": false,
          "internalType": "bool",
          "name": "success",
          "type": "bool"
        }
      ],
      "name": "DataRequestFulfilledString",
      "type": "event"
    },
    {
      "anonymous": false,
      "inputs": [
        {
          "indexed": true,
          "internalType": "uint256",
          "name": "requestId",
          "type": "uint256"
        },
        {
          "indexed": false,
          "internalType": "uint256",
          "name": "response",
          "type": "uint256"
        },
        {
          "indexed": false,
          "internalType": "uint256",
          "name": "payment",
          "type": "uint256"
        },
        {
          "indexed": false,
          "internalType": "bool",
          "name": "success",
          "type": "bool"
        }
      ],
      "name": "DataRequestFulfilledUint128",
      "type": "event"
    },
    {
      "anonymous": false,
      "inputs": [
        {
          "indexed": true,
          "internalType": "uint256",
          "name": "requestId",
          "type": "uint256"
        },
        {
          "indexed": false,
          "internalType": "bytes32",
          "name": "jobId",
          "type": "bytes32"
        },
        {
          "indexed": true,
          "internalType": "uint64",
          "name": "accId",
          "type": "uint64"
        },
        {
          "indexed": false,
          "internalType": "uint32",
          "name": "callbackGasLimit",
          "type": "uint32"
        },
        {
          "indexed": true,
          "internalType": "address",
          "name": "sender",
          "type": "address"
        },
        {
          "indexed": false,
          "internalType": "bool",
          "name": "isDirectPayment",
          "type": "bool"
        },
        {
          "indexed": false,
          "internalType": "uint8",
          "name": "numSubmission",
          "type": "uint8"
        },
        {
          "indexed": false,
          "internalType": "bytes",
          "name": "data",
          "type": "bytes"
        }
      ],
      "name": "DataRequested",
      "type": "event"
    },
    {
      "anonymous": false,
      "inputs": [
        {
          "indexed": false,
          "internalType": "address",
          "name": "oracle",
          "type": "address"
        },
        {
          "indexed": false,
          "internalType": "uint256",
          "name": "requestId",
          "type": "uint256"
        }
      ],
      "name": "DataSubmitted",
      "type": "event"
    },
    {
      "anonymous": false,
      "inputs": [
        {
          "indexed": false,
          "internalType": "address",
          "name": "oracle",
          "type": "address"
        }
      ],
      "name": "OracleDeregistered",
      "type": "event"
    },
    {
      "anonymous": false,
      "inputs": [
        {
          "indexed": false,
          "internalType": "address",
          "name": "oracle",
          "type": "address"
        }
      ],
      "name": "OracleRegistered",
      "type": "event"
    },
    {
      "anonymous": false,
      "inputs": [
        {
          "indexed": true,
          "internalType": "address",
          "name": "previousOwner",
          "type": "address"
        },
        {
          "indexed": true,
          "internalType": "address",
          "name": "newOwner",
          "type": "address"
        }
      ],
      "name": "OwnershipTransferred",
      "type": "event"
    },
    {
      "anonymous": false,
      "inputs": [
        {
          "indexed": false,
          "internalType": "address",
          "name": "prepayment",
          "type": "address"
        }
      ],
      "name": "PrepaymentSet",
      "type": "event"
    },
    {
      "anonymous": false,
      "inputs": [
        {
          "indexed": true,
          "internalType": "uint256",
          "name": "requestId",
          "type": "uint256"
        }
      ],
      "name": "RequestCanceled",
      "type": "event"
    },
    {
      "inputs": [],
      "name": "MAX_ORACLES",
      "outputs": [
        {
          "internalType": "uint8",
          "name": "",
          "type": "uint8"
        }
      ],
      "stateMutability": "view",
      "type": "function"
    },
    {
      "inputs": [
        {
          "internalType": "uint256",
          "name": "requestId",
          "type": "uint256"
        }
      ],
      "name": "cancelRequest",
      "outputs": [],
      "stateMutability": "nonpayable",
      "type": "function"
    },
    {
      "inputs": [
        {
          "internalType": "address",
          "name": "oracle",
          "type": "address"
        }
      ],
      "name": "deregisterOracle",
      "outputs": [],
      "stateMutability": "nonpayable",
      "type": "function"
    },
    {
      "inputs": [
        {
          "internalType": "uint64",
          "name": "reqCount",
          "type": "uint64"
        },
        {
          "internalType": "uint8",
          "name": "numSubmission",
          "type": "uint8"
        },
        {
          "internalType": "uint32",
          "name": "callbackGasLimit",
          "type": "uint32"
        }
      ],
      "name": "estimateFee",
      "outputs": [
        {
          "internalType": "uint256",
          "name": "",
          "type": "uint256"
        }
      ],
      "stateMutability": "view",
      "type": "function"
    },
    {
      "inputs": [
        {
          "internalType": "uint64",
          "name": "reqCount",
          "type": "uint64"
        },
        {
          "internalType": "uint8",
          "name": "numSubmission",
          "type": "uint8"
        },
        {
          "internalType": "uint32",
          "name": "callbackGasLimit",
          "type": "uint32"
        },
        {
          "internalType": "uint64",
          "name": "accId",
          "type": "uint64"
        },
        {
          "internalType": "enum IAccount.AccountType",
          "name": "accType",
          "type": "uint8"
        }
      ],
      "name": "estimateFeeByAcc",
      "outputs": [
        {
          "internalType": "uint256",
          "name": "",
          "type": "uint256"
        }
      ],
      "stateMutability": "view",
      "type": "function"
    },
    {
      "inputs": [
        {
          "internalType": "uint256",
          "name": "requestId",
          "type": "uint256"
        },
        {
          "internalType": "bool",
          "name": "response",
          "type": "bool"
        },
        {
          "components": [
            {
              "internalType": "uint64",
              "name": "blockNum",
              "type": "uint64"
            },
            {
              "internalType": "uint64",
              "name": "accId",
              "type": "uint64"
            },
            {
              "internalType": "uint8",
              "name": "numSubmission",
              "type": "uint8"
            },
            {
              "internalType": "uint32",
              "name": "callbackGasLimit",
              "type": "uint32"
            },
            {
              "internalType": "address",
              "name": "sender",
              "type": "address"
            },
            {
              "internalType": "bool",
              "name": "isDirectPayment",
              "type": "bool"
            },
            {
              "internalType": "bytes32",
              "name": "jobId",
              "type": "bytes32"
            }
          ],
          "internalType": "struct IRequestResponseCoordinatorBase.RequestCommitment",
          "name": "rc",
          "type": "tuple"
        }
      ],
      "name": "fulfillDataRequestBool",
      "outputs": [],
      "stateMutability": "nonpayable",
      "type": "function"
    },
    {
      "inputs": [
        {
          "internalType": "uint256",
          "name": "requestId",
          "type": "uint256"
        },
        {
          "internalType": "bytes",
          "name": "response",
          "type": "bytes"
        },
        {
          "components": [
            {
              "internalType": "uint64",
              "name": "blockNum",
              "type": "uint64"
            },
            {
              "internalType": "uint64",
              "name": "accId",
              "type": "uint64"
            },
            {
              "internalType": "uint8",
              "name": "numSubmission",
              "type": "uint8"
            },
            {
              "internalType": "uint32",
              "name": "callbackGasLimit",
              "type": "uint32"
            },
            {
              "internalType": "address",
              "name": "sender",
              "type": "address"
            },
            {
              "internalType": "bool",
              "name": "isDirectPayment",
              "type": "bool"
            },
            {
              "internalType": "bytes32",
              "name": "jobId",
              "type": "bytes32"
            }
          ],
          "internalType": "struct IRequestResponseCoordinatorBase.RequestCommitment",
          "name": "rc",
          "type": "tuple"
        }
      ],
      "name": "fulfillDataRequestBytes",
      "outputs": [],
      "stateMutability": "nonpayable",
      "type": "function"
    },
    {
      "inputs": [
        {
          "internalType": "uint256",
          "name": "requestId",
          "type": "uint256"
        },
        {
          "internalType": "bytes32",
          "name": "response",
          "type": "bytes32"
        },
        {
          "components": [
            {
              "internalType": "uint64",
              "name": "blockNum",
              "type": "uint64"
            },
            {
              "internalType": "uint64",
              "name": "accId",
              "type": "uint64"
            },
            {
              "internalType": "uint8",
              "name": "numSubmission",
              "type": "uint8"
            },
            {
              "internalType": "uint32",
              "name": "callbackGasLimit",
              "type": "uint32"
            },
            {
              "internalType": "address",
              "name": "sender",
              "type": "address"
            },
            {
              "internalType": "bool",
              "name": "isDirectPayment",
              "type": "bool"
            },
            {
              "internalType": "bytes32",
              "name": "jobId",
              "type": "bytes32"
            }
          ],
          "internalType": "struct IRequestResponseCoordinatorBase.RequestCommitment",
          "name": "rc",
          "type": "tuple"
        }
      ],
      "name": "fulfillDataRequestBytes32",
      "outputs": [],
      "stateMutability": "nonpayable",
      "type": "function"
    },
    {
      "inputs": [
        {
          "internalType": "uint256",
          "name": "requestId",
          "type": "uint256"
        },
        {
          "internalType": "int256",
          "name": "response",
          "type": "int256"
        },
        {
          "components": [
            {
              "internalType": "uint64",
              "name": "blockNum",
              "type": "uint64"
            },
            {
              "internalType": "uint64",
              "name": "accId",
              "type": "uint64"
            },
            {
              "internalType": "uint8",
              "name": "numSubmission",
              "type": "uint8"
            },
            {
              "internalType": "uint32",
              "name": "callbackGasLimit",
              "type": "uint32"
            },
            {
              "internalType": "address",
              "name": "sender",
              "type": "address"
            },
            {
              "internalType": "bool",
              "name": "isDirectPayment",
              "type": "bool"
            },
            {
              "internalType": "bytes32",
              "name": "jobId",
              "type": "bytes32"
            }
          ],
          "internalType": "struct IRequestResponseCoordinatorBase.RequestCommitment",
          "name": "rc",
          "type": "tuple"
        }
      ],
      "name": "fulfillDataRequestInt256",
      "outputs": [],
      "stateMutability": "nonpayable",
      "type": "function"
    },
    {
      "inputs": [
        {
          "internalType": "uint256",
          "name": "requestId",
          "type": "uint256"
        },
        {
          "internalType": "string",
          "name": "response",
          "type": "string"
        },
        {
          "components": [
            {
              "internalType": "uint64",
              "name": "blockNum",
              "type": "uint64"
            },
            {
              "internalType": "uint64",
              "name": "accId",
              "type": "uint64"
            },
            {
              "internalType": "uint8",
              "name": "numSubmission",
              "type": "uint8"
            },
            {
              "internalType": "uint32",
              "name": "callbackGasLimit",
              "type": "uint32"
            },
            {
              "internalType": "address",
              "name": "sender",
              "type": "address"
            },
            {
              "internalType": "bool",
              "name": "isDirectPayment",
              "type": "bool"
            },
            {
              "internalType": "bytes32",
              "name": "jobId",
              "type": "bytes32"
            }
          ],
          "internalType": "struct IRequestResponseCoordinatorBase.RequestCommitment",
          "name": "rc",
          "type": "tuple"
        }
      ],
      "name": "fulfillDataRequestString",
      "outputs": [],
      "stateMutability": "nonpayable",
      "type": "function"
    },
    {
      "inputs": [
        {
          "internalType": "uint256",
          "name": "requestId",
          "type": "uint256"
        },
        {
          "internalType": "uint128",
          "name": "response",
          "type": "uint128"
        },
        {
          "components": [
            {
              "internalType": "uint64",
              "name": "blockNum",
              "type": "uint64"
            },
            {
              "internalType": "uint64",
              "name": "accId",
              "type": "uint64"
            },
            {
              "internalType": "uint8",
              "name": "numSubmission",
              "type": "uint8"
            },
            {
              "internalType": "uint32",
              "name": "callbackGasLimit",
              "type": "uint32"
            },
            {
              "internalType": "address",
              "name": "sender",
              "type": "address"
            },
            {
              "internalType": "bool",
              "name": "isDirectPayment",
              "type": "bool"
            },
            {
              "internalType": "bytes32",
              "name": "jobId",
              "type": "bytes32"
            }
          ],
          "internalType": "struct IRequestResponseCoordinatorBase.RequestCommitment",
          "name": "rc",
          "type": "tuple"
        }
      ],
      "name": "fulfillDataRequestUint128",
      "outputs": [],
      "stateMutability": "nonpayable",
      "type": "function"
    },
    {
      "inputs": [
        {
          "internalType": "uint256",
          "name": "requestId",
          "type": "uint256"
        }
      ],
      "name": "getCommitment",
      "outputs": [
        {
          "internalType": "bytes32",
          "name": "",
          "type": "bytes32"
        }
      ],
      "stateMutability": "view",
      "type": "function"
    },
    {
      "inputs": [],
      "name": "getConfig",
      "outputs": [
        {
          "internalType": "uint32",
          "name": "maxGasLimit",
          "type": "uint32"
        },
        {
          "internalType": "uint32",
          "name": "gasAfterPaymentCalculation",
          "type": "uint32"
        }
      ],
      "stateMutability": "view",
      "type": "function"
    },
    {
      "inputs": [],
      "name": "getFeeConfig",
      "outputs": [
        {
          "internalType": "uint32",
          "name": "fulfillmentFlatFeeKlayPPMTier1",
          "type": "uint32"
        },
        {
          "internalType": "uint32",
          "name": "fulfillmentFlatFeeKlayPPMTier2",
          "type": "uint32"
        },
        {
          "internalType": "uint32",
          "name": "fulfillmentFlatFeeKlayPPMTier3",
          "type": "uint32"
        },
        {
          "internalType": "uint32",
          "name": "fulfillmentFlatFeeKlayPPMTier4",
          "type": "uint32"
        },
        {
          "internalType": "uint32",
          "name": "fulfillmentFlatFeeKlayPPMTier5",
          "type": "uint32"
        },
        {
          "internalType": "uint24",
          "name": "reqsForTier2",
          "type": "uint24"
        },
        {
          "internalType": "uint24",
          "name": "reqsForTier3",
          "type": "uint24"
        },
        {
          "internalType": "uint24",
          "name": "reqsForTier4",
          "type": "uint24"
        },
        {
          "internalType": "uint24",
          "name": "reqsForTier5",
          "type": "uint24"
        }
      ],
      "stateMutability": "view",
      "type": "function"
    },
    {
      "inputs": [],
      "name": "getPrepaymentAddress",
      "outputs": [
        {
          "internalType": "address",
          "name": "",
          "type": "address"
        }
      ],
      "stateMutability": "view",
      "type": "function"
    },
    {
      "inputs": [
        {
          "internalType": "address",
          "name": "oracle",
          "type": "address"
        }
      ],
      "name": "isOracleRegistered",
      "outputs": [
        {
          "internalType": "bool",
          "name": "",
          "type": "bool"
        }
      ],
      "stateMutability": "view",
      "type": "function"
    },
    {
      "inputs": [],
      "name": "owner",
      "outputs": [
        {
          "internalType": "address",
          "name": "",
          "type": "address"
        }
      ],
      "stateMutability": "view",
      "type": "function"
    },
    {
      "inputs": [
        {
          "internalType": "address",
          "name": "consumer",
          "type": "address"
        },
        {
          "internalType": "uint64",
          "name": "accId",
          "type": "uint64"
        },
        {
          "internalType": "uint64",
          "name": "nonce",
          "type": "uint64"
        }
      ],
      "name": "pendingRequestExists",
      "outputs": [
        {
          "internalType": "bool",
          "name": "",
          "type": "bool"
        }
      ],
      "stateMutability": "view",
      "type": "function"
    },
    {
      "inputs": [
        {
          "internalType": "address",
          "name": "oracle",
          "type": "address"
        }
      ],
      "name": "registerOracle",
      "outputs": [],
      "stateMutability": "nonpayable",
      "type": "function"
    },
    {
      "inputs": [],
      "name": "renounceOwnership",
      "outputs": [],
      "stateMutability": "nonpayable",
      "type": "function"
    },
    {
      "inputs": [
        {
          "components": [
            {
              "internalType": "bytes32",
              "name": "id",
              "type": "bytes32"
            },
            {
              "internalType": "address",
              "name": "callbackAddr",
              "type": "address"
            },
            {
              "internalType": "bytes4",
              "name": "callbackFunc",
              "type": "bytes4"
            },
            {
              "internalType": "uint256",
              "name": "nonce",
              "type": "uint256"
            },
            {
              "components": [
                {
                  "internalType": "bytes",
                  "name": "buf",
                  "type": "bytes"
                },
                {
                  "internalType": "uint256",
                  "name": "capacity",
                  "type": "uint256"
                }
              ],
              "internalType": "struct Buffer.buffer",
              "name": "buf",
              "type": "tuple"
            }
          ],
          "internalType": "struct Orakl.Request",
          "name": "req",
          "type": "tuple"
        },
        {
          "internalType": "uint32",
          "name": "callbackGasLimit",
          "type": "uint32"
        },
        {
          "internalType": "uint64",
          "name": "accId",
          "type": "uint64"
        },
        {
          "internalType": "uint8",
          "name": "numSubmission",
          "type": "uint8"
        }
      ],
      "name": "requestData",
      "outputs": [
        {
          "internalType": "uint256",
          "name": "",
          "type": "uint256"
        }
      ],
      "stateMutability": "nonpayable",
      "type": "function"
    },
    {
      "inputs": [
        {
          "components": [
            {
              "internalType": "bytes32",
              "name": "id",
              "type": "bytes32"
            },
            {
              "internalType": "address",
              "name": "callbackAddr",
              "type": "address"
            },
            {
              "internalType": "bytes4",
              "name": "callbackFunc",
              "type": "bytes4"
            },
            {
              "internalType": "uint256",
              "name": "nonce",
              "type": "uint256"
            },
            {
              "components": [
                {
                  "internalType": "bytes",
                  "name": "buf",
                  "type": "bytes"
                },
                {
                  "internalType": "uint256",
                  "name": "capacity",
                  "type": "uint256"
                }
              ],
              "internalType": "struct Buffer.buffer",
              "name": "buf",
              "type": "tuple"
            }
          ],
          "internalType": "struct Orakl.Request",
          "name": "req",
          "type": "tuple"
        },
        {
          "internalType": "uint32",
          "name": "callbackGasLimit",
          "type": "uint32"
        },
        {
          "internalType": "uint8",
          "name": "numSubmission",
          "type": "uint8"
        },
        {
          "internalType": "address",
          "name": "refundRecipient",
          "type": "address"
        }
      ],
      "name": "requestData",
      "outputs": [
        {
          "internalType": "uint256",
          "name": "",
          "type": "uint256"
        }
      ],
      "stateMutability": "payable",
      "type": "function"
    },
    {
      "inputs": [
        {
          "internalType": "uint256",
          "name": "",
          "type": "uint256"
        }
      ],
      "name": "sOracles",
      "outputs": [
        {
          "internalType": "address",
          "name": "",
          "type": "address"
        }
      ],
      "stateMutability": "view",
      "type": "function"
    },
    {
      "inputs": [
        {
          "internalType": "uint32",
          "name": "maxGasLimit",
          "type": "uint32"
        },
        {
          "internalType": "uint32",
          "name": "gasAfterPaymentCalculation",
          "type": "uint32"
        },
        {
          "components": [
            {
              "internalType": "uint32",
              "name": "fulfillmentFlatFeeKlayPPMTier1",
              "type": "uint32"
            },
            {
              "internalType": "uint32",
              "name": "fulfillmentFlatFeeKlayPPMTier2",
              "type": "uint32"
            },
            {
              "internalType": "uint32",
              "name": "fulfillmentFlatFeeKlayPPMTier3",
              "type": "uint32"
            },
            {
              "internalType": "uint32",
              "name": "fulfillmentFlatFeeKlayPPMTier4",
              "type": "uint32"
            },
            {
              "internalType": "uint32",
              "name": "fulfillmentFlatFeeKlayPPMTier5",
              "type": "uint32"
            },
            {
              "internalType": "uint24",
              "name": "reqsForTier2",
              "type": "uint24"
            },
            {
              "internalType": "uint24",
              "name": "reqsForTier3",
              "type": "uint24"
            },
            {
              "internalType": "uint24",
              "name": "reqsForTier4",
              "type": "uint24"
            },
            {
              "internalType": "uint24",
              "name": "reqsForTier5",
              "type": "uint24"
            }
          ],
          "internalType": "struct ICoordinatorBase.FeeConfig",
          "name": "feeConfig",
          "type": "tuple"
        }
      ],
      "name": "setConfig",
      "outputs": [],
      "stateMutability": "nonpayable",
      "type": "function"
    },
    {
      "inputs": [
        {
          "internalType": "address",
          "name": "newOwner",
          "type": "address"
        }
      ],
      "name": "transferOwnership",
      "outputs": [],
      "stateMutability": "nonpayable",
      "type": "function"
    },
    {
      "inputs": [],
      "name": "typeAndVersion",
      "outputs": [
        {
          "internalType": "string",
          "name": "",
          "type": "string"
        }
      ],
      "stateMutability": "pure",
      "type": "function"
    },
    {
      "inputs": [
        {
          "internalType": "bytes32",
          "name": "jobId",
          "type": "bytes32"
        },
        {
          "internalType": "uint8",
          "name": "numSubmission",
          "type": "uint8"
        }
      ],
      "name": "validateNumSubmission",
      "outputs": [],
      "stateMutability": "view",
      "type": "function"
    }
  ],
  "transactionHash": "0x50eb527aba6887bab6f91050c02f3fd58bc9f278bc4094a4196f1fd9ab1bd485",
  "args": [
    "0x8d3A1663d10eEb0bC9C9e537e1BBeA69383194e7"
  ],
  "numDeployments": 2,
  "solcInputHash": "d643dfb4fd9af2eba004075813929e9c",
  "bytecode": "0x60806040523480156200001157600080fd5b506040516200513038038062005130833981016040819052620000349162000313565b6200003f33620002c3565b6001600960006040516020016200006390660ead2dce86264760cb1b815260070190565b60405160208183030381529060405280519060200120815260200190815260200160002060006101000a81548160ff021916908315150217905550600160096000604051602001620000c1906534b73a191a9b60d11b815260060190565b60405160208183030381529060405280519060200120815260200190815260200160002060006101000a81548160ff0219169083151502179055506001600960006040516020016200011d9063189bdbdb60e21b815260040190565b60405160208183030381529060405280519060200120815260200190815260200160002060006101000a81548160ff0219169083151502179055506001600960006040516020016200017b9065737472696e6760d01b815260060190565b60405160208183030381529060405280519060200120815260200190815260200160002060006101000a81548160ff021916908315150217905550600160096000604051602001620001da9066313cba32b9999960c91b815260070190565b60405160208183030381529060405280519060200120815260200190815260200160002060006101000a81548160ff021916908315150217905550600160096000604051602001620002379064627974657360d81b815260050190565b60408051808303601f190181529181528151602092830120835282820193909352908201600020805460ff191693151593909317909255600480546001600160a01b0319166001600160a01b03851690811790915590519081527f9401527b1b86caed93cfabfbb71d3a9b28c5e923529aa86ebd183664194b013d910160405180910390a15062000345565b600080546001600160a01b038381166001600160a01b0319831681178455604051919092169283917f8be0079c531659141344cd1fd0a4f28419497f9722a3daafe3b4186f6b6457e09190a35050565b6000602082840312156200032657600080fd5b81516001600160a01b03811681146200033e57600080fd5b9392505050565b614ddb80620003556000396000f3fe6080604052600436106101ac5760003560e01c8063a185c35f116100ec578063c3f909d41161008a578063d98196b311610064578063d98196b3146105b1578063e9babaec146105d1578063f2fde38b146105f1578063f30be5511461061157600080fd5b8063c3f909d41461053b578063c6f3401314610571578063d1bf555c1461059157600080fd5b8063a690d7ae116100c6578063a690d7ae1461049d578063b9b55c9a146104bb578063bf8542a9146104f4578063bfedbfa01461051457600080fd5b8063a185c35f1461044a578063a353ddb81461046a578063a4dfe92f1461048a57600080fd5b8063715018a611610159578063796184171161013357806379618417146103b85780638da5cb5b146103d85780638df4e3e21461040a5780639ad6c3471461042a57600080fd5b8063715018a614610363578063752f8c1414610378578063786708e61461039857600080fd5b80633f1eef591161018a5780633f1eef59146102585780635fbbc0d21461028657806369bcdb7d1461033657600080fd5b8063181f5a77146101b15780631a892832146102065780633015394c14610236575b600080fd5b3480156101bd57600080fd5b50604080518082018252601f81527f52657175657374526573706f6e7365436f6f7264696e61746f722076302e3100602082015290516101fd9190614131565b60405180910390f35b34801561021257600080fd5b5061022661022136600461416f565b610631565b60405190151581526020016101fd565b34801561024257600080fd5b506102566102513660046141ba565b6106c3565b005b34801561026457600080fd5b50610278610273366004614205565b61078c565b6040519081526020016101fd565b34801561029257600080fd5b506006546040805163ffffffff80841682526401000000008404811660208301526801000000000000000084048116928201929092526c01000000000000000000000000830482166060820152600160801b8304909116608082015262ffffff600160a01b8304811660a0830152600160b81b8304811660c0830152600160d01b8304811660e0830152600160e81b909204909116610100820152610120016101fd565b34801561034257600080fd5b506102786103513660046141ba565b60009081526002602052604090205490565b34801561036f57600080fd5b506102566109ab565b34801561038457600080fd5b5061027861039336600461447c565b6109bf565b3480156103a457600080fd5b506102566103b3366004614500565b610bac565b3480156103c457600080fd5b506102566103d33660046146b4565b610df8565b3480156103e457600080fd5b506000546001600160a01b03165b6040516001600160a01b0390911681526020016101fd565b34801561041657600080fd5b506102566104253660046146f4565b6110cd565b34801561043657600080fd5b50610278610445366004614711565b61129b565b34801561045657600080fd5b5061025661046536600461474d565b6112df565b34801561047657600080fd5b50610256610485366004614781565b6115dd565b6102786104983660046147ad565b611791565b3480156104a957600080fd5b506004546001600160a01b03166103f2565b3480156104c757600080fd5b506102266104d63660046146f4565b6001600160a01b031660009081526008602052604090205460ff1690565b34801561050057600080fd5b5061025661050f36600461481e565b6119da565b34801561052057600080fd5b5061052960ff81565b60405160ff90911681526020016101fd565b34801561054757600080fd5b506005546040805163ffffffff8084168252650100000000009093049092166020830152016101fd565b34801561057d57600080fd5b5061025661058c36600461484c565b611b9c565b34801561059d57600080fd5b506102566105ac36600461481e565b611d53565b3480156105bd57600080fd5b506103f26105cc3660046141ba565b611fce565b3480156105dd57600080fd5b506102566105ec3660046146f4565b611ff8565b3480156105fd57600080fd5b5061025661060c3660046146f4565b612131565b34801561061d57600080fd5b5061025661062c36600461489c565b6121c1565b600154600090815b818110156106b557604080516001600160a01b03881660208083019190915267ffffffffffffffff808916838501528716606080840191909152835180840390910181526080909201909252805191012061069381612378565b156106a457600193505050506106bc565b506106ae81614906565b9050610639565b5060009150505b9392505050565b6106cc81612378565b6106e957604051631b44092560e11b815260040160405180910390fd5b6000818152600360205260409020546001600160a01b03163314610739576040517f517907dd00000000000000000000000000000000000000000000000000000000815260040160405180910390fd5b6000818152600260209081526040808320839055600390915280822080546001600160a01b03191690555182917f6187bf55f2675dbecee951f81c92ecac87f54ed5bf888d31b09e634749b848ef91a250565b60048054604051638a522dbb60e01b815267ffffffffffffffff85169281019290925260009182916001600160a01b031690638a522dbb90602401608060405180830381865afa1580156107e4573d6000803e3d6000fd5b505050506040513d601f19601f82011682018060405250810190610808919061491f565b935060009250600391506108199050565b84600481111561082b5761082b614955565b036108dd57600480546040516312e7400160e11b815267ffffffffffffffff8816928101929092526000916001600160a01b03909116906325ce800290602401602060405180830381865afa158015610888573d6000803e3d6000fd5b505050506040513d601f19601f820116820180604052508101906108ac919061496b565b905060006108bb8a8a8a61129b565b90506127106108ca8383614984565b6108d491906149b9565b925050506109a0565b60028460048111156108f1576108f1614955565b03610979576004805460405163f1b04d2b60e01b815267ffffffffffffffff8816928101929092526001600160a01b03169063f1b04d2b90602401602060405180830381865afa158015610949573d6000803e3d6000fd5b505050506040513d601f19601f8201168201806040525081019061096d91906149cd565b6109745750805b6109a0565b600484600481111561098d5761098d614955565b036109a05761099d88888861129b565b90505b979650505050505050565b6109b36123a1565b6109bd60006123fb565b565b600554600090640100000000900460ff16156109ee5760405163769dd35360e11b815260040160405180910390fd5b60048054604051633bd7108d60e11b815267ffffffffffffffff861692810192909252600091829182916001600160a01b03909116906377ae211a90602401600060405180830381865afa158015610a4a573d6000803e3d6000fd5b505050506040513d6000823e601f3d908101601f19168201604052610a7291908101906149f5565b600480546040517f5e42205c00000000000000000000000000000000000000000000000000000000815267ffffffffffffffff8e169281019290925295985093965094506000936001600160a01b031692635e42205c92506024019050602060405180830381865afa158015610aec573d6000803e3d6000fd5b505050506040513d601f19601f82011682018060405250810190610b1091906149cd565b905080610b49576040517fb3c2774700000000000000000000000000000000000000000000000000000000815260040160405180910390fd5b6000610b5884888b8b8761078c565b905080851015610b8a5760405163b99e2ab760e01b815260048101869052602481018290526044015b60405180910390fd5b600080610b9a8c8b8d8c8661244b565b9750505050505050505b949350505050565b610bb46123a1565b604080516060808201835263ffffffff86811680845260006020808601919091528783169486018590526005805468ffffffffffffffffff191690921765010000000000909502949094179055845160068054948701518787015194880151608089015160a08a015160c08b015160e08c01516101008d015197891667ffffffffffffffff19909b169a909a1764010000000095891695909502949094177fffffffffffffffffffffffffffffffff0000000000000000ffffffffffffffff1668010000000000000000988816989098027fffffffffffffffffffffffffffffffff00000000ffffffffffffffffffffffff16979097176c0100000000000000000000000092871692909202919091177fffffffffffffffffff00000000000000ffffffffffffffffffffffffffffffff16600160801b91909516027fffffffffffffffffff000000ffffffffffffffffffffffffffffffffffffffff1693909317600160a01b62ffffff95861602177fffffff000000000000ffffffffffffffffffffffffffffffffffffffffffffff16600160b81b938516939093027fffffff000000ffffffffffffffffffffffffffffffffffffffffffffffffffff1692909217600160d01b94841694909402939093177cffffffffffffffffffffffffffffffffffffffffffffffffffffffffff16600160e81b929093169190910291909117815590517f107fdd8d898f7a380d4a448bb9882a3e1bb767bd803a09721d828b4ce217b04391610deb9186918691614aeb565b60405180910390a1505050565b600554640100000000900460ff1615610e245760405163769dd35360e11b815260040160405180910390fd5b60005a60405163189bdbdb60e21b6020820152909150602401604051602081830303815290604052805190602001208260c0015114610e765760405163e7b9d74d60e01b815260040160405180910390fd5b610e808285612759565b60008481526007602081815260408084203380865260018281018552838720805460ff1916821790558a8752600c8552838720805480830182558189528689208782040180548d1515601f9093166101000a92830260ff93840219909116179055968652835491820184558388529490962090950180546001600160a01b0319169095179094558501518154919392161115610f585760408051338152602081018890527f81b10a8136baa5e8975cb74b9c1cd5c44791d42a0fe7c195457f86ce298e0c8391015b60405180910390a1505050505050565b6000610fd283805480602002602001604051908101604052809291908181526020018280548015610fc857602002820191906000526020600020906000905b825461010083900a900460ff161515815260206001928301818104948501949093039092029101808411610f975790505b505050505061290d565b60408051602481018a90528215156044808301919091528251808303909101815260649091019091526020810180516001600160e01b03167f90d95efc00000000000000000000000000000000000000000000000000000000179052909150600061103d82886129d0565b9050600061104a8a612a1d565b60008b8152600c60205260408120919250611065919061406e565b6000611072898984612b44565b604080518c1515815260208101839052851515918101919091529091508b907f27dd42f8797fcff24c7c99ae461d9fd99e490ba813ede9b16fc9df17108bfe56906060015b60405180910390a250505050505050505b505050565b6110d56123a1565b6001600160a01b03811660009081526008602052604090205460ff16611132576040517ff9a0ffdf0000000000000000000000000000000000000000000000000000000081526001600160a01b0382166004820152602401610b81565b6001600160a01b0381166000908152600860205260408120805460ff19169055600154905b8181101561125a57826001600160a01b03166001828154811061117c5761117c614ba8565b6000918252602090912001546001600160a01b03160361124a57600060016111a48185614bbe565b815481106111b4576111b4614ba8565b600091825260209091200154600180546001600160a01b0390921692508291849081106111e3576111e3614ba8565b9060005260206000200160006101000a8154816001600160a01b0302191690836001600160a01b03160217905550600180548061122257611222614bd1565b600082815260209020810160001990810180546001600160a01b03191690550190555061125a565b61125381614906565b9050611157565b506040516001600160a01b03831681527f5406c1f2d9ece2027a923f317fb5f2370221e330db898c037c10acc0c20495b39060200160405180910390a15050565b6000808360ff166112ab86613033565b6112b59190614984565b905060006112c963ffffffff85163a614984565b90506112d58183614be7565b9695505050505050565b600554640100000000900460ff161561130b5760405163769dd35360e11b815260040160405180910390fd5b60005a604051660ead2dce86264760cb1b6020820152909150602701604051602081830303815290604052805190602001208260c00151146113605760405163e7b9d74d60e01b815260040160405180910390fd5b61136a8285612759565b6000848152600b60209081526040808320805460018082018355828652848620600283040180549282166010026101000a6001600160801b0381810219909416938b1602929092179091558885526007808552838620338088528184018752858820805460ff19168517905591865280549283018155808752949095200180546001600160a01b031916909417909355840151825460ff90911611156114405760408051338152602081018890527f81b10a8136baa5e8975cb74b9c1cd5c44791d42a0fe7c195457f86ce298e0c839101610f48565b60006114cc838054806020026020016040519081016040528092919081815260200182805480156114c257602002820191906000526020600020906000905b82829054906101000a90046001600160801b03166001600160801b031681526020019060100190602082600f0104928301926001038202915080841161147f5790505b5050505050613056565b905060006114d982613105565b60408051602481018b90526001600160801b0383166044808301919091528251808303909101815260649091019091526020810180516001600160e01b03167f45b9b6fb00000000000000000000000000000000000000000000000000000000179052909150600061154b82896129d0565b905060006115588b612a1d565b60008c8152600b602052604081209192506115739190614093565b60006115808a8a84612b44565b604080516001600160801b038e168152602081018390528515158183015290519192508d917f8f2da545293ec9ebc31d6839176dc1374f380f6fc61bfea08078233c6ed9b01e9181900360600190a2505050505050505050505050565b60008281526009602052604090205460ff16611625576040517f9a358cc500000000000000000000000000000000000000000000000000000000815260040160405180910390fd5b8060ff1660000361164957604051630fa163bb60e41b815260040160405180910390fd5b60405163189bdbdb60e21b6020820152602401604051602081830303815290604052805190602001208214801561168b5750611686600282614bfa565b60ff16155b156116a957604051630fa163bb60e41b815260040160405180910390fd5b604051660ead2dce86264760cb1b60208201526027016040516020818303038152906040528051906020012082148061170b57506040516534b73a191a9b60d11b60208201526026016040516020818303038152906040528051906020012082145b8061173d575060405163189bdbdb60e21b60208201526024016040516020818303038152906040528051906020012082145b1561178d57600154600090611754906002906149b9565b90508160ff1660011415801561176f57508060ff168260ff16115b156110c857604051630fa163bb60e41b815260040160405180910390fd5b5050565b600554600090640100000000900460ff16156117c05760405163769dd35360e11b815260040160405180910390fd5b6000806117ce82868861129b565b9050803410156117fa5760405163b99e2ab760e01b815234600482015260248101829052604401610b81565b600480546040517f190118b700000000000000000000000000000000000000000000000000000000815233928101929092526000916001600160a01b039091169063190118b7906024016020604051808303816000875af1158015611863573d6000803e3d6000fd5b505050506040513d601f19601f820116820180604052508101906118879190614c1c565b90506001600061189a8a848b8b8661244b565b600480546040517fc49910e40000000000000000000000000000000000000000000000000000000081529293506001600160a01b03169163c49910e49187916118f59188910167ffffffffffffffff91909116815260200190565b6000604051808303818588803b15801561190e57600080fd5b505af1158015611922573d6000803e3d6000fd5b5050505050600084346119359190614bbe565b905080156119cc576000886001600160a01b03168260405160006040518083038185875af1925050503d806000811461198a576040519150601f19603f3d011682016040523d82523d6000602084013e61198f565b606091505b50509050806119ca576040517fef7a4b6100000000000000000000000000000000000000000000000000000000815260040160405180910390fd5b505b509998505050505050505050565b600554640100000000900460ff1615611a065760405163769dd35360e11b815260040160405180910390fd5b60005a6040517f62797465733332000000000000000000000000000000000000000000000000006020820152909150602701604051602081830303815290604052805190602001208260c0015114611a715760405163e7b9d74d60e01b815260040160405180910390fd5b611a7b8285612759565b60008481526007602081815260408084203380865260018083018552838720805460ff1916821790559484528154948501825581865283862090940180546001600160a01b031916909417909355805160248101899052604480820189905282518083039091018152606490910190915290810180516001600160e01b03167ff40b4def000000000000000000000000000000000000000000000000000000001790529091611b2a82866129d0565b90506000611b3788612a1d565b90506000611b46878784612b44565b604080518a8152602081018390528515159181019190915290915089907f39136b4e0c0ed9615348ccda4aabc1e49031d4fcc1d2a631e0ca0340fea80a60906060015b60405180910390a2505050505050505050565b600554640100000000900460ff1615611bc85760405163769dd35360e11b815260040160405180910390fd5b60005a6040517f62797465730000000000000000000000000000000000000000000000000000006020820152909150602501604051602081830303815290604052805190602001208260c0015114611c335760405163e7b9d74d60e01b815260040160405180910390fd5b611c3d8285612759565b60008481526007602081815260408084203380865260018281018552838720805460ff1916821790559484528154948501825581865292852090930180546001600160a01b031916909217909155519091907f19e2cd2f0000000000000000000000000000000000000000000000000000000090611cc19088908890602401614c39565b60408051601f198184030181529190526020810180516001600160e01b03166001600160e01b03199093169290921790915290506000611d0182866129d0565b90506000611d0e88612a1d565b90506000611d1d878784612b44565b9050887f6404cc3a68084786e4262010affb9e1ff9f005c3c6418cfa5bce5a2dcde06667898386604051611b8993929190614c52565b600554640100000000900460ff1615611d7f5760405163769dd35360e11b815260040160405180910390fd5b60005a6040516534b73a191a9b60d11b6020820152909150602601604051602081830303815290604052805190602001208260c0015114611dd35760405163e7b9d74d60e01b815260040160405180910390fd5b611ddd8285612759565b60008481526007602081815260408084203380865260018083018552838720805460ff1916821790558a8752600a855283872080548083018255818952868920018b9055958552825490810183558287529390952090920180546001600160a01b03191690941790935591840151815491929160ff9091161115611e915760408051338152602081018890527f81b10a8136baa5e8975cb74b9c1cd5c44791d42a0fe7c195457f86ce298e0c839101610f48565b6000611eeb83805480602002602001604051908101604052809291908181526020018280548015611ee157602002820191906000526020600020905b815481526020019060010190808311611ecd575b5050505050613105565b60408051602481018a905260448082018490528251808303909101815260649091019091526020810180516001600160e01b03167f6e2acda0000000000000000000000000000000000000000000000000000000001790529091506000611f5282886129d0565b90506000611f5f8a612a1d565b60008b8152600a60205260408120919250611f7a91906140b8565b6000611f87898984612b44565b604080518c815260208101839052851515918101919091529091508b907fc2aca9bb0791cd99d3861401384dc7d8f5b6f2297d6ac1c8dfb91655ac81d437906060016110b7565b60018181548110611fde57600080fd5b6000918252602090912001546001600160a01b0316905081565b6120006123a1565b60015460ff1161203c576040517f25d0209c00000000000000000000000000000000000000000000000000000000815260040160405180910390fd5b6001600160a01b03811660009081526008602052604090205460ff161561209a576040517f6ff7406a0000000000000000000000000000000000000000000000000000000081526001600160a01b0382166004820152602401610b81565b6001805480820182557fb10e2d527612073b26eecdfd717e6a320cf44b4afac2b0732d9fcbe2b7fa0cf60180546001600160a01b0319166001600160a01b038416908117909155600081815260086020908152604091829020805460ff1916909417909355519081527fd9d9fdcc9f936c76b5aafe54fc3db5dcec0c6583c9ccc4abe91d17575c5145a5910160405180910390a150565b6121396123a1565b6001600160a01b0381166121b55760405162461bcd60e51b815260206004820152602660248201527f4f776e61626c653a206e6577206f776e657220697320746865207a65726f206160448201527f64647265737300000000000000000000000000000000000000000000000000006064820152608401610b81565b6121be816123fb565b50565b600554640100000000900460ff16156121ed5760405163769dd35360e11b815260040160405180910390fd5b60005a6040517f737472696e6700000000000000000000000000000000000000000000000000006020820152909150602601604051602081830303815290604052805190602001208260c00151146122585760405163e7b9d74d60e01b815260040160405180910390fd5b6122628285612759565b60008481526007602081815260408084203380865260018281018552838720805460ff1916821790559484528154948501825581865292852090930180546001600160a01b031916909217909155519091907f79b1500800000000000000000000000000000000000000000000000000000000906122e69088908890602401614c39565b60408051601f198184030181529190526020810180516001600160e01b03166001600160e01b0319909316929092179091529050600061232682866129d0565b9050600061233388612a1d565b90506000612342878784612b44565b9050887f5e815adc9078e19ad43911e496cc2d0ec73cd244ddd31b06896c20c48b988e8b898386604051611b8993929190614c52565b6000818152600260205260408120541561239457506001919050565b506000919050565b919050565b6000546001600160a01b031633146109bd5760405162461bcd60e51b815260206004820181905260248201527f4f776e61626c653a2063616c6c6572206973206e6f7420746865206f776e65726044820152606401610b81565b600080546001600160a01b038381166001600160a01b0319831681178455604051919092169283917f8be0079c531659141344cd1fd0a4f28419497f9722a3daafe3b4186f6b6457e09190a35050565b600061245b8660000151846115dd565b600480546040517f734e892a00000000000000000000000000000000000000000000000000000000815267ffffffffffffffff8816928101929092523360248301526001600160a01b03169063734e892a90604401602060405180830381865afa1580156124cd573d6000803e3d6000fd5b505050506040513d601f19601f820116820180604052508101906124f191906149cd565b612539576040517ff0019fe600000000000000000000000000000000000000000000000000000000815267ffffffffffffffff86166004820152336024820152604401610b81565b60055463ffffffff9081169085161115612593576005546040517ff5d7e01e00000000000000000000000000000000000000000000000000000000815263ffffffff80871660048301529091166024820152604401610b81565b600480546040517fa8329c0500000000000000000000000000000000000000000000000000000000815267ffffffffffffffff8816928101929092523360248301526000916001600160a01b039091169063a8329c05906044016020604051808303816000875af115801561260c573d6000803e3d6000fd5b505050506040513d601f19601f820116820180604052508101906126309190614c1c565b6040805133602080830182905267ffffffffffffffff8b811684860181905290861660608086019190915285518086039091018152608080860187528151918401919091208e5160a087018290524360c088015260e0870184905263ffffffff8e1661010088015260ff8d1661012088015261014087018690528b151561016088015261018080880191909152875180880390910181526101a09096018088528651968501969096206000828152600286528881209190915560039094529590922080546001600160a01b031916841790558c51918d015151959650939491939285927ff5de04e252c7bc264fe51dceea89d95673b5166c209718c5f5a068341dab8111926127469290918d918c918e91614c7c565b60405180910390a4979650505050505050565b3360009081526008602052604090205460ff166127a4576040517fd6c33748000000000000000000000000000000000000000000000000000000008152336004820152602401610b81565b600081815260076020908152604080832033845260010190915290205460ff16156127fb576040517f9f17b6ef00000000000000000000000000000000000000000000000000000000815260040160405180910390fd5b6000818152600260205260408120549081900361282b57604051631b44092560e11b815260040160405180910390fd5b6128d582846000015167ffffffffffffffff1685602001518660400151876060015188608001518960a001518a60c001516040805160208082019a909a528082019890985267ffffffffffffffff96909616606088015263ffffffff93909316608087015260ff9390931660a08601526001600160a01b031660c085015290151560e084015261010080840191909152815180840390910181526101209092019052805191012090565b81146110c8576040517fd529142c00000000000000000000000000000000000000000000000000000000815260040160405180910390fd5b60006002825161291d9190614cb2565b600003612956576040517f0a81fe0d00000000000000000000000000000000000000000000000000000000815260040160405180910390fd5b60008060005b84518110156129b45784818151811061297757612977614ba8565b602002602001015115612996578261298e81614906565b9350506129a4565b816129a081614906565b9250505b6129ad81614906565b905061295c565b508082106129c6575060019392505050565b5060009392505050565b6005805464ff000000001916640100000000179055606081015160808201516000918291612a059163ffffffff169086613118565b6005805464ff00000000191690559150505b92915050565b6000818152600760209081526040808320805482518185028101850190935280835260609493830182828015612a7c57602002820191906000526020600020905b81546001600160a01b03168152600190910190602001808311612a5e575b5050505050905060005b81518160ff161015612afa57600760008581526020019081526020016000206001016000838360ff1681518110612abf57612abf614ba8565b6020908102919091018101516001600160a01b03168252810191909152604001600020805460ff19169055612af381614cc6565b9050612a86565b50600083815260076020526040812090612b1482826140b8565b50506000928352600260209081526040808520859055600390915290922080546001600160a01b03191690555090565b805160a08401516000919015612d89576004805460208701516040517fc9d2d7bf00000000000000000000000000000000000000000000000000000000815260009384936001600160a01b03169263c9d2d7bf92612bb2920167ffffffffffffffff91909116815260200190565b60408051808303816000875af1158015612bd0573d6000803e3d6000fd5b505050506040513d601f19601f82011682018060405250810190612bf49190614ce5565b90925090508015612d7f57600080612c0c85846149b9565b905060005b612c1c600187614bbe565b8160ff161015612cdb5760045488516001600160a01b0390911690636b19a19d9084908b9060ff8616908110612c5457612c54614ba8565b60200260200101516040518363ffffffff1660e01b8152600401612c8b9291909182526001600160a01b0316602082015260400190565b600060405180830381600087803b158015612ca557600080fd5b505af1158015612cb9573d6000803e3d6000fd5b505050508183612cc99190614be7565b9250612cd481614cc6565b9050612c11565b506004546001600160a01b0316636b19a19d612cf78486614bbe565b89612d0360018a614bbe565b81518110612d1357612d13614ba8565b60200260200101516040518363ffffffff1660e01b8152600401612d4a9291909182526001600160a01b0316602082015260400190565b600060405180830381600087803b158015612d6457600080fd5b505af1158015612d78573d6000803e3d6000fd5b5050505050505b5091506106bc9050565b6000612da08660200151876040015160ff16613164565b90508015613028576004805460208801516040517f57f2eda700000000000000000000000000000000000000000000000000000000815267ffffffffffffffff90911692810192909252602482018390526000916001600160a01b03909116906357f2eda7906044016020604051808303816000875af1158015612e28573d6000803e3d6000fd5b505050506040513d601f19601f82011682018060405250810190612e4c919061496b565b90506000612e5a84836149b9565b90506000805b612e6b600187614bbe565b811015612f3c5760045460208b015189516001600160a01b03909216916382e7b38c919086908c9086908110612ea357612ea3614ba8565b60209081029190910101516040516001600160e01b031960e086901b16815267ffffffffffffffff909316600484015260248301919091526001600160a01b03166044820152606401600060405180830381600087803b158015612f0657600080fd5b505af1158015612f1a573d6000803e3d6000fd5b505050508282612f2a9190614be7565b9150612f3581614906565b9050612e60565b506000612f488961358b565b60045460208c01519192506001600160a01b0316906382e7b38c9083612f6e8689614bbe565b612f789190614be7565b8b612f8460018c614bbe565b81518110612f9457612f94614ba8565b60209081029190910101516040516001600160e01b031960e086901b16815267ffffffffffffffff909316600484015260248301919091526001600160a01b03166044820152606401600060405180830381600087803b158015612ff757600080fd5b505af115801561300b573d6000803e3d6000fd5b50505050848161301b9190614be7565b96505050505050506106bc565b6000925050506106bc565b60008061303f836135bf565b90506106bc63ffffffff821664e8d4a51000614984565b60606000825167ffffffffffffffff81111561307457613074614272565b60405190808252806020026020018201604052801561309d578160200160208202803683370190505b50905060005b83518110156130fe578381815181106130be576130be614ba8565b60200260200101516001600160801b03168282815181106130e1576130e1614ba8565b6020908102919091010152806130f681614906565b9150506130a3565b5092915050565b6000612a1761311383613751565b6137f0565b60005a61138881101561312a57600080fd5b61138881039050846040820482031161314257600080fd5b50823b61314e57600080fd5b60008083516020850160008789f1949350505050565b60048054604051633bd7108d60e11b815267ffffffffffffffff851692810192909252600091829182916001600160a01b03909116906377ae211a90602401600060405180830381865afa1580156131c0573d6000803e3d6000fd5b505050506040513d6000823e601f3d908101601f191682016040526131e891908101906149f5565b60048054604051638a522dbb60e01b815267ffffffffffffffff8d1692810192909252949750909550600094506001600160a01b0390931692638a522dbb92506024019050608060405180830381865afa15801561324a573d6000803e3d6000fd5b505050506040513d601f19601f8201168201806040525081019061326e919061491f565b93506001925061327c915050565b82600481111561328e5761328e614955565b036133075760048054604051631e4c2cb760e11b815267ffffffffffffffff8916928101929092526001600160a01b031690633c98596e90602401600060405180830381600087803b1580156132e357600080fd5b505af11580156132f7573d6000803e3d6000fd5b5050505060009350505050612a17565b600282600481111561331b5761331b614955565b036133895760048054604051631e4c2cb760e11b815267ffffffffffffffff8916928101929092526001600160a01b031690633c98596e90602401600060405180830381600087803b15801561337057600080fd5b505af1158015613384573d6000803e3d6000fd5b505050505b60008563ffffffff1661339b85613033565b6133a59190614984565b905060028360048111156133bb576133bb614955565b036134d3576004805460405163f1b04d2b60e01b815267ffffffffffffffff8a16928101929092526001600160a01b03169063f1b04d2b90602401602060405180830381865afa158015613413573d6000803e3d6000fd5b505050506040513d601f19601f8201168201806040525081019061343791906149cd565b6134c65750600480546040517f7b3d789500000000000000000000000000000000000000000000000000000000815267ffffffffffffffff89169281019290925282916001600160a01b0390911690637b3d789590602401600060405180830381600087803b1580156134a957600080fd5b505af11580156134bd573d6000803e3d6000fd5b50505050613580565b6000945050505050612a17565b60038360048111156134e7576134e7614955565b0361358057600480546040516312e7400160e11b815267ffffffffffffffff8a1692810192909252612710916001600160a01b03909116906325ce800290602401602060405180830381865afa158015613545573d6000803e3d6000fd5b505050506040513d601f19601f82011682018060405250810190613569919061496b565b6135739083614984565b61357d91906149b9565b90505b9350612a1792505050565b60005a6005546135ab90849065010000000000900463ffffffff16614be7565b6135b59190614bbe565b612a17903a614984565b604080516101208101825260065463ffffffff80821683526401000000008204811660208401526801000000000000000082048116938301939093526c01000000000000000000000000810483166060830152600160801b8104909216608082015262ffffff600160a01b8304811660a08301819052600160b81b8404821660c0840152600160d01b8404821660e0840152600160e81b9093041661010082015260009167ffffffffffffffff84161161367a575192915050565b8267ffffffffffffffff168160a0015162ffffff161080156136af57508060c0015162ffffff168367ffffffffffffffff1611155b156136be576020015192915050565b8267ffffffffffffffff168160c0015162ffffff161080156136f357508060e0015162ffffff168367ffffffffffffffff1611155b15613702576040015192915050565b8267ffffffffffffffff168160e0015162ffffff16108015613738575080610100015162ffffff168367ffffffffffffffff1611155b15613747576060015192915050565b6080015192915050565b60606000825167ffffffffffffffff81111561376f5761376f614272565b604051908082528060200260200182016040528015613798578160200160208202803683370190505b50905060005b83518110156130fe578381815181106137b9576137b9614ba8565b60200260200101518282815181106137d3576137d3614ba8565b6020908102919091010152806137e881614906565b91505061379e565b6000808251116138425760405162461bcd60e51b815260206004820152601660248201527f6c697374206d757374206e6f7420626520656d707479000000000000000000006044820152606401610b81565b815160006138516002836149b9565b905061385e600283614cb2565b600003613898576000806138898682613878600188614bbe565b613883600188614bbe565b876138af565b90925090506112d582826139a7565b610ba48460006138a9600186614bbe565b84613a4a565b6000808284106138be57600080fd5b8386111580156138ce5750848411155b6138d757600080fd5b8286111580156138e75750848311155b6138f057600080fd5b60076138fc8787614bbe565b10156139185761390f8787878787613aef565b9150915061399d565b6000613925888888613f4c565b905080841161393657809550613997565b8481101561395057613949816001614be7565b9650613997565b80851115801561395f57508381105b61396b5761396b614d09565b61397788888388613a4a565b925061398f88613988836001614be7565b8887613a4a565b91505061399d565b506138f0565b9550959350505050565b600080831280156139b85750600082135b806139ce57506000831380156139ce5750600082125b156139f05760026139df8385614d1f565b6139e99190614d47565b9050612a17565b600060026139fe8185614d91565b613a09600287614d91565b613a139190614d1f565b613a1d9190614d47565b905080613a2b600285614d47565b613a36600287614d47565b613a409190614d1f565b610ba49190614d1f565b600081841115613a5957600080fd5b82821115613a6657600080fd5b82841015613acb576007613a7a8585614bbe565b1015613a99576000613a8f8686868687613aef565b509150610ba49050565b6000613aa6868686613f4c565b9050808311613ab757809350613ac5565b613ac2816001614be7565b94505b50613a66565b848481518110613add57613add614ba8565b60200260200101519050949350505050565b6000808086613aff876001614be7565b613b099190614bbe565b9050600088613b188983614be7565b81518110613b2857613b28614ba8565b60200260200101519050600082600110613b49576001600160ff1b03613b6e565b89613b558a6001614be7565b81518110613b6557613b65614ba8565b60200260200101515b9050600083600210613b87576001600160ff1b03613bac565b8a613b938b6002614be7565b81518110613ba357613ba3614ba8565b60200260200101515b9050600084600310613bc5576001600160ff1b03613bea565b8b613bd18c6003614be7565b81518110613be157613be1614ba8565b60200260200101515b9050600085600410613c03576001600160ff1b03613c28565b8c613c0f8d6004614be7565b81518110613c1f57613c1f614ba8565b60200260200101515b9050600086600510613c41576001600160ff1b03613c66565b8d613c4d8e6005614be7565b81518110613c5d57613c5d614ba8565b60200260200101515b9050600087600610613c7f576001600160ff1b03613ca4565b8e613c8b8f6006614be7565b81518110613c9b57613c9b614ba8565b60200260200101515b905085871315613cb2579495945b83851315613cbe579293925b81831315613cca579091905b84871315613cd6579395935b83861315613ce2579294925b80831315613cec57915b84861315613cf8579394935b80821315613d0257905b82871315613d0e579195915b81861315613d1a579094905b80851315613d2457935b82861315613d30579194915b80841315613d3a57925b82851315613d46579193915b81841315613d52579092905b82841315613d5e579192915b6000613d6a8f8e614bbe565b905080600003613d7c57879a50613e24565b80600103613d8c57869a50613e24565b80600203613d9c57859a50613e24565b80600303613dac57849a50613e24565b80600403613dbc57839a50613e24565b80600503613dcc57829a50613e24565b80600603613ddc57819a50613e24565b60405162461bcd60e51b815260206004820152601060248201527f6b31206f7574206f6620626f756e6473000000000000000000000000000000006044820152606401610b81565b60008f8d613e329190614bbe565b90508c8e03613e4e57508a995061399d98505050505050505050565b80600003613e68575096985061399d975050505050505050565b80600103613e82575095985061399d975050505050505050565b80600203613e9c575094985061399d975050505050505050565b80600303613eb6575093985061399d975050505050505050565b80600403613ed0575092985061399d975050505050505050565b80600503613eea575091985061399d975050505050505050565b80600603613f04575090985061399d975050505050505050565b60405162461bcd60e51b815260206004820152601060248201527f6b32206f7574206f6620626f756e6473000000000000000000000000000000006044820152606401610b81565b600080846002613f5c8587614be7565b613f6691906149b9565b81518110613f7657613f76614ba8565b60200260200101519050600184039350600183613f939190614be7565b92505b60018401935080858581518110613faf57613faf614ba8565b602002602001015112613f96575b613fc8600184614bbe565b925080858481518110613fdd57613fdd614ba8565b602002602001015113613fbd57828410156140655784838151811061400457614004614ba8565b602002602001015185858151811061401e5761401e614ba8565b602002602001015186868151811061403857614038614ba8565b6020026020010187868151811061405157614051614ba8565b602090810291909101019190915252613f96565b829150506106bc565b50805460008255601f0160209004906000526020600020908101906121be91906140d2565b5080546000825560010160029004906000526020600020908101906121be91906140d2565b50805460008255906000526020600020908101906121be91905b5b808211156140e757600081556001016140d3565b5090565b6000815180845260005b81811015614111576020818501810151868301820152016140f5565b506000602082860101526020601f19601f83011685010191505092915050565b6020815260006106bc60208301846140eb565b6001600160a01b03811681146121be57600080fd5b67ffffffffffffffff811681146121be57600080fd5b60008060006060848603121561418457600080fd5b833561418f81614144565b9250602084013561419f81614159565b915060408401356141af81614159565b809150509250925092565b6000602082840312156141cc57600080fd5b5035919050565b803560ff8116811461239c57600080fd5b803563ffffffff8116811461239c57600080fd5b600581106121be57600080fd5b600080600080600060a0868803121561421d57600080fd5b853561422881614159565b9450614236602087016141d3565b9350614244604087016141e4565b9250606086013561425481614159565b91506080860135614264816141f8565b809150509295509295909350565b634e487b7160e01b600052604160045260246000fd5b604051610120810167ffffffffffffffff811182821017156142ac576142ac614272565b60405290565b604051601f8201601f1916810167ffffffffffffffff811182821017156142db576142db614272565b604052919050565b600067ffffffffffffffff8311156142fd576142fd614272565b614310601f8401601f19166020016142b2565b905082815283838301111561432457600080fd5b828260208301376000602084830101529392505050565b600082601f83011261434c57600080fd5b6106bc838335602085016142e3565b60006040828403121561436d57600080fd5b6040516040810167ffffffffffffffff828210818311171561439157614391614272565b8160405282935084359150808211156143a957600080fd5b506143b68582860161433b565b825250602083013560208201525092915050565b600060a082840312156143dc57600080fd5b60405160a0810167ffffffffffffffff828210818311171561440057614400614272565b81604052829350843583526020850135915061441b82614144565b816020840152604085013591506001600160e01b03198216821461443e57600080fd5b81604084015260608501356060840152608085013591508082111561446257600080fd5b5061446f8582860161435b565b6080830152505092915050565b6000806000806080858703121561449257600080fd5b843567ffffffffffffffff8111156144a957600080fd5b6144b5878288016143ca565b9450506144c4602086016141e4565b925060408501356144d481614159565b91506144e2606086016141d3565b905092959194509250565b803562ffffff8116811461239c57600080fd5b600080600083850361016081121561451757600080fd5b614520856141e4565b935061452e602086016141e4565b925061012080603f198301121561454457600080fd5b61454c614288565b915061455a604087016141e4565b8252614568606087016141e4565b6020830152614579608087016141e4565b604083015261458a60a087016141e4565b606083015261459b60c087016141e4565b60808301526145ac60e087016144ed565b60a08301526101006145bf8188016144ed565b60c08401526145cf8288016144ed565b60e08401526145e161014088016144ed565b818401525050809150509250925092565b80151581146121be57600080fd5b600060e0828403121561461257600080fd5b60405160e0810181811067ffffffffffffffff8211171561463557614635614272565b604052905080823561464681614159565b8152602083013561465681614159565b6020820152614667604084016141d3565b6040820152614678606084016141e4565b6060820152608083013561468b81614144565b608082015260a083013561469e816145f2565b60a082015260c092830135920191909152919050565b600080600061012084860312156146ca57600080fd5b8335925060208401356146dc816145f2565b91506146eb8560408601614600565b90509250925092565b60006020828403121561470657600080fd5b81356106bc81614144565b60008060006060848603121561472657600080fd5b833561473181614159565b925061473f602085016141d3565b91506146eb604085016141e4565b6000806000610120848603121561476357600080fd5b8335925060208401356001600160801b03811681146146dc57600080fd5b6000806040838503121561479457600080fd5b823591506147a4602084016141d3565b90509250929050565b600080600080608085870312156147c357600080fd5b843567ffffffffffffffff8111156147da57600080fd5b6147e6878288016143ca565b9450506147f5602086016141e4565b9250614803604086016141d3565b9150606085013561481381614144565b939692955090935050565b6000806000610120848603121561483457600080fd5b83359250602084013591506146eb8560408601614600565b6000806000610120848603121561486257600080fd5b83359250602084013567ffffffffffffffff81111561488057600080fd5b61488c8682870161433b565b9250506146eb8560408601614600565b600080600061012084860312156148b257600080fd5b83359250602084013567ffffffffffffffff8111156148d057600080fd5b8401601f810186136148e157600080fd5b61488c868235602084016142e3565b634e487b7160e01b600052601160045260246000fd5b600060018201614918576149186148f0565b5060010190565b6000806000806080858703121561493557600080fd5b505082516020840151604085015160609095015191969095509092509050565b634e487b7160e01b600052602160045260246000fd5b60006020828403121561497d57600080fd5b5051919050565b600081600019048311821515161561499e5761499e6148f0565b500290565b634e487b7160e01b600052601260045260246000fd5b6000826149c8576149c86149a3565b500490565b6000602082840312156149df57600080fd5b81516106bc816145f2565b805161239c816141f8565b600080600080600060a08688031215614a0d57600080fd5b85519450602080870151614a2081614159565b6040880151909550614a3181614144565b606088015190945067ffffffffffffffff80821115614a4f57600080fd5b818901915089601f830112614a6357600080fd5b815181811115614a7557614a75614272565b8060051b9150614a868483016142b2565b818152918301840191848101908c841115614aa057600080fd5b938501935b83851015614aca5784519250614aba83614144565b8282529385019390850190614aa5565b809750505050505050614adf608087016149ea565b90509295509295909350565b63ffffffff848116825283811660208301528254808216604084015261016083019190614b2560608501838360201c1663ffffffff169052565b614b3c60808501838360401c1663ffffffff169052565b614b5360a08501838360601c1663ffffffff169052565b614b6a60c08501838360801c1663ffffffff169052565b62ffffff60a082901c811660e086015260b882901c811661010086015260d082901c1661012085015260e81c61014090930192909252949350505050565b634e487b7160e01b600052603260045260246000fd5b81810381811115612a1757612a176148f0565b634e487b7160e01b600052603160045260246000fd5b80820180821115612a1757612a176148f0565b600060ff831680614c0d57614c0d6149a3565b8060ff84160691505092915050565b600060208284031215614c2e57600080fd5b81516106bc81614159565b828152604060208201526000610ba460408301846140eb565b606081526000614c6560608301866140eb565b602083019490945250901515604090910152919050565b85815263ffffffff85166020820152831515604082015260ff8316606082015260a0608082015260006109a060a08301846140eb565b600082614cc157614cc16149a3565b500690565b600060ff821660ff8103614cdc57614cdc6148f0565b60010192915050565b60008060408385031215614cf857600080fd5b505080516020909101519092909150565b634e487b7160e01b600052600160045260246000fd5b8082018281126000831280158216821582161715614d3f57614d3f6148f0565b505092915050565b600082614d5657614d566149a3565b7f8000000000000000000000000000000000000000000000000000000000000000821460001984141615614d8c57614d8c6148f0565b500590565b600082614da057614da06149a3565b50079056fea264697066735822122019a7c1ded7f353a9282245503a632b77c36aa6e0c73bfe13f1696eb1a78b4a4b64736f6c63430008100033",
  "devdoc": {
    "author": "Bisonai",
    "kind": "dev",
    "methods": {
      "cancelRequest(uint256)": {
        "params": {
          "requestId": "- ID of the Oracle Request"
        }
      },
      "deregisterOracle(address)": {
        "params": {
          "oracle": "address of the oracle"
        }
      },
      "getCommitment(uint256)": {
        "params": {
          "requestId": "id of request"
        },
        "returns": {
          "_0": "commmitment value that can be used to determine whether a request is fulfilled or not. If `requestId` is valid and commitment equals to bytes32(0), the request was fulfilled."
        }
      },
      "getPrepaymentAddress()": {
        "returns": {
          "_0": "prepayment address"
        }
      },
      "isOracleRegistered(address)": {
        "returns": {
          "_0": "true when oracle address registered, otherwise false"
        }
      },
      "owner()": {
        "details": "Returns the address of the current owner."
      },
      "pendingRequestExists(address,uint64,uint64)": {
        "params": {
          "accId": "- ID of the account"
        },
        "returns": {
          "_0": "true if there exists at least one unfulfilled request for the account, false otherwise."
        }
      },
      "registerOracle(address)": {
        "params": {
          "oracle": "address of the oracle"
        }
      },
      "renounceOwnership()": {
        "details": "Leaves the contract without owner. It will not be possible to call `onlyOwner` functions anymore. Can only be called by the current owner. NOTE: Renouncing ownership will leave the contract without an owner, thereby removing any functionality that is only available to the owner."
      },
      "requestData((bytes32,address,bytes4,uint256,(bytes,uint256)),uint32,uint64,uint8)": {
        "details": "Generates and stores a request ID, increments the local nonce, creates a request on the target oracle contract.Emits Requested event.",
        "params": {
          "accId": "- The ID of the account. Must be funded with the minimum account balance.",
          "callbackGasLimit": "- How much gas you'd like to receive in your fulfillRequest callback. Note that gasleft() inside fulfillRequest may be slightly less than this amount because of gas used calling the function (argument decoding etc.), so you may need to request slightly more than you expect to have inside fulfillRequest. The acceptable range is [0, maxGasLimit]",
          "numSubmission": "number of requested submission to compute the final aggregate value",
          "req": "The initialized Request"
        },
        "returns": {
          "_0": "requestId - A unique * identifier of the request. Can be used to match a request to a * response in fulfillRequest."
        }
      },
      "requestData((bytes32,address,bytes4,uint256,(bytes,uint256)),uint32,uint8,address)": {
        "details": "Generates and stores a request ID, increments the local nonce, creates a request on the target oracle contract.Emits Requested event.",
        "params": {
          "callbackGasLimit": "- How much gas you'd like to receive in your fulfillRequest callback. Note that gasleft() inside fulfillRequest may be slightly less than this amount because of gas used calling the function (argument decoding etc.), so you may need to request slightly more than you expect to have inside fulfillRequest. The acceptable range is [0, maxGasLimit]",
          "numSubmission": "number of requested submission to compute the final aggregate value",
          "refundRecipient": "recipient of an extra $KLAY amount that was sent together with service request",
          "req": "The initialized Request"
        },
        "returns": {
          "_0": "requestId - A unique identifier of the request. Can be used to match a request to a response in fulfillRequest."
        }
      },
      "setConfig(uint32,uint32,(uint32,uint32,uint32,uint32,uint32,uint24,uint24,uint24,uint24))": {
        "params": {
          "feeConfig": "fee tier configuration",
          "gasAfterPaymentCalculation": "gas used in doing accounting after completing the gas measurement",
          "maxGasLimit": "global max for request gas limit"
        }
      },
      "transferOwnership(address)": {
        "details": "Transfers ownership of the contract to a new account (`newOwner`). Can only be called by the current owner."
      },
      "typeAndVersion()": {
        "returns": {
          "_0": "Type and version string"
        }
      }
    },
    "title": "Orakl Network RequestResponseCoordinator",
    "version": 1
  },
  "userdoc": {
    "kind": "user",
    "methods": {
      "cancelRequest(uint256)": {
        "notice": "Canceling oracle request"
      },
      "deregisterOracle(address)": {
        "notice": "Deregister an oracle"
      },
      "getCommitment(uint256)": {
        "notice": "Get request commitment."
      },
      "getPrepaymentAddress()": {
        "notice": "Access address for prepayment associated withcoordinator."
      },
      "isOracleRegistered(address)": {
        "notice": "Find out whether given oracle address was registered."
      },
      "pendingRequestExists(address,uint64,uint64)": {
        "notice": "Check to see if there exists a request commitment consumers for all consumers and keyhashes for a given acc."
      },
      "registerOracle(address)": {
        "notice": "Register an oracle"
      },
      "requestData((bytes32,address,bytes4,uint256,(bytes,uint256)),uint32,uint64,uint8)": {
        "notice": "Creates a request to RequestResponse oracle using a [regular] account."
      },
      "requestData((bytes32,address,bytes4,uint256,(bytes,uint256)),uint32,uint8,address)": {
        "notice": "Creates a request to RequestResponse oracle using a [temporary] account."
      },
      "setConfig(uint32,uint32,(uint32,uint32,uint32,uint32,uint32,uint24,uint24,uint24,uint24))": {
        "notice": "Sets the configuration of the VRF coordinator"
      },
      "typeAndVersion()": {
        "notice": "The type and version of this contract"
      },
      "validateNumSubmission(bytes32,uint8)": {
        "notice": "Different jobs specified by jobId have allowed different number of of requests for submissions that depends on total number of registered oracles."
      }
    },
    "notice": "Accepts requests for off-chain data either through [regular] or [temporary] account by calling `requestData` function. Consumers can choose what data type (`jobId`) they want to receive the requested data in, and how many oracles (`numSubmission`) they want to participate on an aggregated answer. Consumers can define the data source and postprocessing steps that should be applied on data received from API. The request is concluded by emitting `DataRequested` event which includes all necessary metadata to provide the requested off-chain data. Off-chain oracles that are registered within the `RequestResponseCoordinator` then compete for delivering the requested data back to on-chain because only a limited number of oracle can submit the requested answer. Answers from off-chain oracles are being collected in contract storage, and the last requested off-chain oracle that submits its answer will also execute consumer's fulfillment function, distributes reward to all participating oracles, and cleanup the storage.",
    "version": 1
  },
  "storageLayout": {
    "storage": [
      {
        "astId": 7,
        "contract": "src/v0.1/RequestResponseCoordinator.sol:RequestResponseCoordinator",
        "label": "_owner",
        "offset": 0,
        "slot": "0",
        "type": "t_address"
      },
      {
        "astId": 912,
        "contract": "src/v0.1/RequestResponseCoordinator.sol:RequestResponseCoordinator",
        "label": "sOracles",
        "offset": 0,
        "slot": "1",
        "type": "t_array(t_address)dyn_storage"
      },
      {
        "astId": 916,
        "contract": "src/v0.1/RequestResponseCoordinator.sol:RequestResponseCoordinator",
        "label": "sRequestIdToCommitment",
        "offset": 0,
        "slot": "2",
        "type": "t_mapping(t_uint256,t_bytes32)"
      },
      {
        "astId": 920,
        "contract": "src/v0.1/RequestResponseCoordinator.sol:RequestResponseCoordinator",
        "label": "sRequestOwner",
        "offset": 0,
        "slot": "3",
        "type": "t_mapping(t_uint256,t_address)"
      },
      {
        "astId": 923,
        "contract": "src/v0.1/RequestResponseCoordinator.sol:RequestResponseCoordinator",
        "label": "sPrepayment",
        "offset": 0,
        "slot": "4",
        "type": "t_contract(IPrepayment)7831"
      },
      {
        "astId": 933,
        "contract": "src/v0.1/RequestResponseCoordinator.sol:RequestResponseCoordinator",
        "label": "sConfig",
        "offset": 0,
        "slot": "5",
        "type": "t_struct(Config)930_storage"
      },
      {
        "astId": 936,
        "contract": "src/v0.1/RequestResponseCoordinator.sol:RequestResponseCoordinator",
        "label": "sFeeConfig",
        "offset": 0,
        "slot": "6",
        "type": "t_struct(FeeConfig)7458_storage"
      },
      {
        "astId": 4001,
        "contract": "src/v0.1/RequestResponseCoordinator.sol:RequestResponseCoordinator",
        "label": "sSubmission",
        "offset": 0,
        "slot": "7",
        "type": "t_mapping(t_uint256,t_struct(Submission)3996_storage)"
      },
      {
        "astId": 4005,
        "contract": "src/v0.1/RequestResponseCoordinator.sol:RequestResponseCoordinator",
        "label": "sIsOracleRegistered",
        "offset": 0,
        "slot": "8",
        "type": "t_mapping(t_address,t_bool)"
      },
      {
        "astId": 4009,
        "contract": "src/v0.1/RequestResponseCoordinator.sol:RequestResponseCoordinator",
        "label": "sJobId",
        "offset": 0,
        "slot": "9",
        "type": "t_mapping(t_bytes32,t_bool)"
      },
      {
        "astId": 4014,
        "contract": "src/v0.1/RequestResponseCoordinator.sol:RequestResponseCoordinator",
        "label": "sRequestToSubmissionInt256",
        "offset": 0,
        "slot": "10",
        "type": "t_mapping(t_uint256,t_array(t_int256)dyn_storage)"
      },
      {
        "astId": 4019,
        "contract": "src/v0.1/RequestResponseCoordinator.sol:RequestResponseCoordinator",
        "label": "sRequestToSubmissionUint128",
        "offset": 0,
        "slot": "11",
        "type": "t_mapping(t_uint256,t_array(t_uint128)dyn_storage)"
      },
      {
        "astId": 4024,
        "contract": "src/v0.1/RequestResponseCoordinator.sol:RequestResponseCoordinator",
        "label": "sRequestToSubmissionBool",
        "offset": 0,
        "slot": "12",
        "type": "t_mapping(t_uint256,t_array(t_bool)dyn_storage)"
      }
    ],
    "types": {
      "t_address": {
        "encoding": "inplace",
        "label": "address",
        "numberOfBytes": "20"
      },
      "t_array(t_address)dyn_storage": {
        "base": "t_address",
        "encoding": "dynamic_array",
        "label": "address[]",
        "numberOfBytes": "32"
      },
      "t_array(t_bool)dyn_storage": {
        "base": "t_bool",
        "encoding": "dynamic_array",
        "label": "bool[]",
        "numberOfBytes": "32"
      },
      "t_array(t_int256)dyn_storage": {
        "base": "t_int256",
        "encoding": "dynamic_array",
        "label": "int256[]",
        "numberOfBytes": "32"
      },
      "t_array(t_uint128)dyn_storage": {
        "base": "t_uint128",
        "encoding": "dynamic_array",
        "label": "uint128[]",
        "numberOfBytes": "32"
      },
      "t_bool": {
        "encoding": "inplace",
        "label": "bool",
        "numberOfBytes": "1"
      },
      "t_bytes32": {
        "encoding": "inplace",
        "label": "bytes32",
        "numberOfBytes": "32"
      },
      "t_contract(IPrepayment)7831": {
        "encoding": "inplace",
        "label": "contract IPrepayment",
        "numberOfBytes": "20"
      },
      "t_int256": {
        "encoding": "inplace",
        "label": "int256",
        "numberOfBytes": "32"
      },
      "t_mapping(t_address,t_bool)": {
        "encoding": "mapping",
        "key": "t_address",
        "label": "mapping(address => bool)",
        "numberOfBytes": "32",
        "value": "t_bool"
      },
      "t_mapping(t_bytes32,t_bool)": {
        "encoding": "mapping",
        "key": "t_bytes32",
        "label": "mapping(bytes32 => bool)",
        "numberOfBytes": "32",
        "value": "t_bool"
      },
      "t_mapping(t_uint256,t_address)": {
        "encoding": "mapping",
        "key": "t_uint256",
        "label": "mapping(uint256 => address)",
        "numberOfBytes": "32",
        "value": "t_address"
      },
      "t_mapping(t_uint256,t_array(t_bool)dyn_storage)": {
        "encoding": "mapping",
        "key": "t_uint256",
        "label": "mapping(uint256 => bool[])",
        "numberOfBytes": "32",
        "value": "t_array(t_bool)dyn_storage"
      },
      "t_mapping(t_uint256,t_array(t_int256)dyn_storage)": {
        "encoding": "mapping",
        "key": "t_uint256",
        "label": "mapping(uint256 => int256[])",
        "numberOfBytes": "32",
        "value": "t_array(t_int256)dyn_storage"
      },
      "t_mapping(t_uint256,t_array(t_uint128)dyn_storage)": {
        "encoding": "mapping",
        "key": "t_uint256",
        "label": "mapping(uint256 => uint128[])",
        "numberOfBytes": "32",
        "value": "t_array(t_uint128)dyn_storage"
      },
      "t_mapping(t_uint256,t_bytes32)": {
        "encoding": "mapping",
        "key": "t_uint256",
        "label": "mapping(uint256 => bytes32)",
        "numberOfBytes": "32",
        "value": "t_bytes32"
      },
      "t_mapping(t_uint256,t_struct(Submission)3996_storage)": {
        "encoding": "mapping",
        "key": "t_uint256",
        "label": "mapping(uint256 => struct RequestResponseCoordinator.Submission)",
        "numberOfBytes": "32",
        "value": "t_struct(Submission)3996_storage"
      },
      "t_struct(Config)930_storage": {
        "encoding": "inplace",
        "label": "struct CoordinatorBase.Config",
        "members": [
          {
            "astId": 925,
            "contract": "src/v0.1/RequestResponseCoordinator.sol:RequestResponseCoordinator",
            "label": "maxGasLimit",
            "offset": 0,
            "slot": "0",
            "type": "t_uint32"
          },
          {
            "astId": 927,
            "contract": "src/v0.1/RequestResponseCoordinator.sol:RequestResponseCoordinator",
            "label": "reentrancyLock",
            "offset": 4,
            "slot": "0",
            "type": "t_bool"
          },
          {
            "astId": 929,
            "contract": "src/v0.1/RequestResponseCoordinator.sol:RequestResponseCoordinator",
            "label": "gasAfterPaymentCalculation",
            "offset": 5,
            "slot": "0",
            "type": "t_uint32"
          }
        ],
        "numberOfBytes": "32"
      },
      "t_struct(FeeConfig)7458_storage": {
        "encoding": "inplace",
        "label": "struct ICoordinatorBase.FeeConfig",
        "members": [
          {
            "astId": 7441,
            "contract": "src/v0.1/RequestResponseCoordinator.sol:RequestResponseCoordinator",
            "label": "fulfillmentFlatFeeKlayPPMTier1",
            "offset": 0,
            "slot": "0",
            "type": "t_uint32"
          },
          {
            "astId": 7443,
            "contract": "src/v0.1/RequestResponseCoordinator.sol:RequestResponseCoordinator",
            "label": "fulfillmentFlatFeeKlayPPMTier2",
            "offset": 4,
            "slot": "0",
            "type": "t_uint32"
          },
          {
            "astId": 7445,
            "contract": "src/v0.1/RequestResponseCoordinator.sol:RequestResponseCoordinator",
            "label": "fulfillmentFlatFeeKlayPPMTier3",
            "offset": 8,
            "slot": "0",
            "type": "t_uint32"
          },
          {
            "astId": 7447,
            "contract": "src/v0.1/RequestResponseCoordinator.sol:RequestResponseCoordinator",
            "label": "fulfillmentFlatFeeKlayPPMTier4",
            "offset": 12,
            "slot": "0",
            "type": "t_uint32"
          },
          {
            "astId": 7449,
            "contract": "src/v0.1/RequestResponseCoordinator.sol:RequestResponseCoordinator",
            "label": "fulfillmentFlatFeeKlayPPMTier5",
            "offset": 16,
            "slot": "0",
            "type": "t_uint32"
          },
          {
            "astId": 7451,
            "contract": "src/v0.1/RequestResponseCoordinator.sol:RequestResponseCoordinator",
            "label": "reqsForTier2",
            "offset": 20,
            "slot": "0",
            "type": "t_uint24"
          },
          {
            "astId": 7453,
            "contract": "src/v0.1/RequestResponseCoordinator.sol:RequestResponseCoordinator",
            "label": "reqsForTier3",
            "offset": 23,
            "slot": "0",
            "type": "t_uint24"
          },
          {
            "astId": 7455,
            "contract": "src/v0.1/RequestResponseCoordinator.sol:RequestResponseCoordinator",
            "label": "reqsForTier4",
            "offset": 26,
            "slot": "0",
            "type": "t_uint24"
          },
          {
            "astId": 7457,
            "contract": "src/v0.1/RequestResponseCoordinator.sol:RequestResponseCoordinator",
            "label": "reqsForTier5",
            "offset": 29,
            "slot": "0",
            "type": "t_uint24"
          }
        ],
        "numberOfBytes": "32"
      },
      "t_struct(Submission)3996_storage": {
        "encoding": "inplace",
        "label": "struct RequestResponseCoordinator.Submission",
        "members": [
          {
            "astId": 3991,
            "contract": "src/v0.1/RequestResponseCoordinator.sol:RequestResponseCoordinator",
            "label": "oracles",
            "offset": 0,
            "slot": "0",
            "type": "t_array(t_address)dyn_storage"
          },
          {
            "astId": 3995,
            "contract": "src/v0.1/RequestResponseCoordinator.sol:RequestResponseCoordinator",
            "label": "submitted",
            "offset": 0,
            "slot": "1",
            "type": "t_mapping(t_address,t_bool)"
          }
        ],
        "numberOfBytes": "64"
      },
      "t_uint128": {
        "encoding": "inplace",
        "label": "uint128",
        "numberOfBytes": "16"
      },
      "t_uint24": {
        "encoding": "inplace",
        "label": "uint24",
        "numberOfBytes": "3"
      },
      "t_uint256": {
        "encoding": "inplace",
        "label": "uint256",
        "numberOfBytes": "32"
      },
      "t_uint32": {
        "encoding": "inplace",
        "label": "uint32",
        "numberOfBytes": "4"
      }
    }
  }
}