{
  "address": "0xc76eA3B33d409DD2716719C5d1DeE0b069f67F73",
  "abi": [
    {
      "inputs": [
        {
          "internalType": "address",
          "name": "registryAddress",
          "type": "address"
        },
        {
          "internalType": "address",
          "name": "vrfCoordinator",
          "type": "address"
        },
        {
          "internalType": "address",
          "name": "requestResponseCoordinator",
          "type": "address"
        }
      ],
      "stateMutability": "nonpayable",
      "type": "constructor"
    },
    {
      "inputs": [],
      "name": "ConsumerValid",
      "type": "error"
    },
    {
      "inputs": [],
      "name": "FailedToDeposit",
      "type": "error"
    },
    {
      "inputs": [],
      "name": "InsufficientBalance",
      "type": "error"
    },
    {
      "inputs": [
        {
          "internalType": "address",
          "name": "have",
          "type": "address"
        },
        {
          "internalType": "address",
          "name": "want",
          "type": "address"
        }
      ],
      "name": "OnlyCoordinatorCanFulfill",
      "type": "error"
    },
    {
      "inputs": [],
      "name": "OnlyOracle",
      "type": "error"
    },
    {
      "inputs": [
        {
          "internalType": "address",
          "name": "have",
          "type": "address"
        },
        {
          "internalType": "address",
          "name": "want",
          "type": "address"
        }
      ],
      "name": "OnlyVRFCoordinatorCanFulfill",
      "type": "error"
    },
    {
      "anonymous": false,
      "inputs": [
        {
          "indexed": false,
          "internalType": "uint256",
          "name": "requestId",
          "type": "uint256"
        },
        {
          "indexed": false,
          "internalType": "uint256",
          "name": "l2RequestId",
          "type": "uint256"
        },
        {
          "indexed": false,
          "internalType": "address",
          "name": "sender",
          "type": "address"
        },
        {
          "indexed": false,
          "internalType": "uint256",
          "name": "callbackGasLimit",
          "type": "uint256"
        },
        {
          "indexed": false,
          "internalType": "bytes32",
          "name": "jobId",
          "type": "bytes32"
        },
        {
          "indexed": false,
          "internalType": "uint128",
          "name": "responseUint128",
          "type": "uint128"
        },
        {
          "indexed": false,
          "internalType": "int256",
          "name": "responseInt256",
          "type": "int256"
        },
        {
          "indexed": false,
          "internalType": "bool",
          "name": "responseBool",
          "type": "bool"
        },
        {
          "indexed": false,
          "internalType": "string",
          "name": "responseString",
          "type": "string"
        },
        {
          "indexed": false,
          "internalType": "bytes32",
          "name": "responseBytes32",
          "type": "bytes32"
        },
        {
          "indexed": false,
          "internalType": "bytes",
          "name": "responseBytes",
          "type": "bytes"
        }
      ],
      "name": "DataRequestFulfilled",
      "type": "event"
    },
    {
      "anonymous": false,
      "inputs": [
        {
          "indexed": false,
          "internalType": "uint256",
          "name": "requestId",
          "type": "uint256"
        },
        {
          "indexed": false,
          "internalType": "address",
          "name": "sender",
          "type": "address"
        }
      ],
      "name": "DataRequested",
      "type": "event"
    },
    {
      "anonymous": false,
      "inputs": [
        {
          "indexed": false,
          "internalType": "address",
          "name": "oracle",
          "type": "address"
        }
      ],
      "name": "OracleAdded",
      "type": "event"
    },
    {
      "anonymous": false,
      "inputs": [
        {
          "indexed": false,
          "internalType": "address",
          "name": "oracle",
          "type": "address"
        }
      ],
      "name": "OracleRemoved",
      "type": "event"
    },
    {
      "anonymous": false,
      "inputs": [
        {
          "indexed": true,
          "internalType": "address",
          "name": "previousOwner",
          "type": "address"
        },
        {
          "indexed": true,
          "internalType": "address",
          "name": "newOwner",
          "type": "address"
        }
      ],
      "name": "OwnershipTransferred",
      "type": "event"
    },
    {
      "anonymous": false,
      "inputs": [
        {
          "indexed": false,
          "internalType": "uint256",
          "name": "requestId",
          "type": "uint256"
        },
        {
          "indexed": false,
          "internalType": "uint256",
          "name": "l2RequestId",
          "type": "uint256"
        },
        {
          "indexed": false,
          "internalType": "address",
          "name": "sender",
          "type": "address"
        },
        {
          "indexed": false,
          "internalType": "uint256",
          "name": "callbackGasLimit",
          "type": "uint256"
        },
        {
          "indexed": false,
          "internalType": "uint256[]",
          "name": "randomWords",
          "type": "uint256[]"
        }
      ],
      "name": "RandomWordFulfilled",
      "type": "event"
    },
    {
      "anonymous": false,
      "inputs": [
        {
          "indexed": false,
          "internalType": "uint256",
          "name": "requestId",
          "type": "uint256"
        },
        {
          "indexed": false,
          "internalType": "address",
          "name": "sender",
          "type": "address"
        }
      ],
      "name": "RandomWordRequested",
      "type": "event"
    },
    {
      "inputs": [],
      "name": "COORDINATOR",
      "outputs": [
        {
          "internalType": "contract IRequestResponseCoordinator",
          "name": "",
          "type": "address"
        }
      ],
      "stateMutability": "view",
      "type": "function"
    },
    {
      "inputs": [],
      "name": "REGISTRY",
      "outputs": [
        {
          "internalType": "contract IRegistry",
          "name": "",
          "type": "address"
        }
      ],
      "stateMutability": "view",
      "type": "function"
    },
    {
      "inputs": [
        {
          "internalType": "address",
          "name": "oracle",
          "type": "address"
        }
      ],
      "name": "addOracle",
      "outputs": [],
      "stateMutability": "nonpayable",
      "type": "function"
    },
    {
      "inputs": [],
      "name": "owner",
      "outputs": [
        {
          "internalType": "address",
          "name": "",
          "type": "address"
        }
      ],
      "stateMutability": "view",
      "type": "function"
    },
    {
      "inputs": [
        {
          "internalType": "uint256",
          "name": "requestId",
          "type": "uint256"
        },
        {
          "internalType": "bytes",
          "name": "response",
          "type": "bytes"
        }
      ],
      "name": "rawFulfillDataRequest",
      "outputs": [],
      "stateMutability": "nonpayable",
      "type": "function"
    },
    {
      "inputs": [
        {
          "internalType": "uint256",
          "name": "requestId",
          "type": "uint256"
        },
        {
          "internalType": "uint128",
          "name": "response",
          "type": "uint128"
        }
      ],
      "name": "rawFulfillDataRequest",
      "outputs": [],
      "stateMutability": "nonpayable",
      "type": "function"
    },
    {
      "inputs": [
        {
          "internalType": "uint256",
          "name": "requestId",
          "type": "uint256"
        },
        {
          "internalType": "int256",
          "name": "response",
          "type": "int256"
        }
      ],
      "name": "rawFulfillDataRequest",
      "outputs": [],
      "stateMutability": "nonpayable",
      "type": "function"
    },
    {
      "inputs": [
        {
          "internalType": "uint256",
          "name": "requestId",
          "type": "uint256"
        },
        {
          "internalType": "string",
          "name": "response",
          "type": "string"
        }
      ],
      "name": "rawFulfillDataRequest",
      "outputs": [],
      "stateMutability": "nonpayable",
      "type": "function"
    },
    {
      "inputs": [
        {
          "internalType": "uint256",
          "name": "requestId",
          "type": "uint256"
        },
        {
          "internalType": "bool",
          "name": "response",
          "type": "bool"
        }
      ],
      "name": "rawFulfillDataRequest",
      "outputs": [],
      "stateMutability": "nonpayable",
      "type": "function"
    },
    {
      "inputs": [
        {
          "internalType": "uint256",
          "name": "requestId",
          "type": "uint256"
        },
        {
          "internalType": "bytes32",
          "name": "response",
          "type": "bytes32"
        }
      ],
      "name": "rawFulfillDataRequest",
      "outputs": [],
      "stateMutability": "nonpayable",
      "type": "function"
    },
    {
      "inputs": [
        {
          "internalType": "uint256",
          "name": "requestId",
          "type": "uint256"
        },
        {
          "internalType": "uint256[]",
          "name": "randomWords",
          "type": "uint256[]"
        }
      ],
      "name": "rawFulfillRandomWords",
      "outputs": [],
      "stateMutability": "nonpayable",
      "type": "function"
    },
    {
      "inputs": [
        {
          "internalType": "address",
          "name": "oracle",
          "type": "address"
        }
      ],
      "name": "removeOracle",
      "outputs": [],
      "stateMutability": "nonpayable",
      "type": "function"
    },
    {
      "inputs": [],
      "name": "renounceOwnership",
      "outputs": [],
      "stateMutability": "nonpayable",
      "type": "function"
    },
    {
      "inputs": [
        {
          "internalType": "uint64",
          "name": "accId",
          "type": "uint64"
        },
        {
          "internalType": "uint32",
          "name": "callbackGasLimit",
          "type": "uint32"
        },
        {
          "internalType": "uint8",
          "name": "numSubmission",
          "type": "uint8"
        },
        {
          "internalType": "address",
          "name": "sender",
          "type": "address"
        },
        {
          "internalType": "uint256",
          "name": "l2RequestId",
          "type": "uint256"
        },
        {
          "components": [
            {
              "internalType": "bytes32",
              "name": "id",
              "type": "bytes32"
            },
            {
              "internalType": "address",
              "name": "callbackAddr",
              "type": "address"
            },
            {
              "internalType": "bytes4",
              "name": "callbackFunc",
              "type": "bytes4"
            },
            {
              "internalType": "uint256",
              "name": "nonce",
              "type": "uint256"
            },
            {
              "components": [
                {
                  "internalType": "bytes",
                  "name": "buf",
                  "type": "bytes"
                },
                {
                  "internalType": "uint256",
                  "name": "capacity",
                  "type": "uint256"
                }
              ],
              "internalType": "struct Buffer.buffer",
              "name": "buf",
              "type": "tuple"
            }
          ],
          "internalType": "struct Orakl.Request",
          "name": "req",
          "type": "tuple"
        }
      ],
      "name": "requestData",
      "outputs": [
        {
          "internalType": "uint256",
          "name": "",
          "type": "uint256"
        }
      ],
      "stateMutability": "nonpayable",
      "type": "function"
    },
    {
      "inputs": [
        {
          "internalType": "bytes32",
          "name": "keyHash",
          "type": "bytes32"
        },
        {
          "internalType": "uint32",
          "name": "callbackGasLimit",
          "type": "uint32"
        },
        {
          "internalType": "uint32",
          "name": "numWords",
          "type": "uint32"
        },
        {
          "internalType": "uint64",
          "name": "accId",
          "type": "uint64"
        },
        {
          "internalType": "address",
          "name": "sender",
          "type": "address"
        },
        {
          "internalType": "uint256",
          "name": "l2RequestId",
          "type": "uint256"
        }
      ],
      "name": "requestRandomWords",
      "outputs": [
        {
          "internalType": "uint256",
          "name": "",
          "type": "uint256"
        }
      ],
      "stateMutability": "nonpayable",
      "type": "function"
    },
    {
      "inputs": [
        {
          "internalType": "address",
          "name": "newOwner",
          "type": "address"
        }
      ],
      "name": "transferOwnership",
      "outputs": [],
      "stateMutability": "nonpayable",
      "type": "function"
    },
    {
      "stateMutability": "payable",
      "type": "receive"
    }
  ],
  "transactionHash": "0x21e6702bf622356a7ee6bc36f49365d5fd9bb0818b1f299e4d087b21623803f6",
  "args": [
    "0xAbA141f04F4D0a8a3824f524122FB6423ebE2421",
    "0xDA8c0A00A372503aa6EC80f9b29Cc97C454bE499",
    "0x5fe8a7445bFDB2Cd6d9f1DcfB3B33D8c365FFdB0"
  ],
  "numDeployments": 3,
  "solcInputHash": "cf9c816c65118e46c80ab6e9a9c28e6b",
  "bytecode": "0x60a06040523480156200001157600080fd5b506040516200206b3803806200206b83398101604081905262000034916200025f565b808083856200004333620001f2565b600180546001600160a01b03199081166001600160a01b0393841617909155600480549091169282169290921790915516608052505060408051660ead2dce86264760cb1b6020808301919091528251808303600701815260278301845280519082012060009081526005808352848220805463ffffffff1990811663a185c35f179091556534b73a191a9b60d11b60478601528551808603602d018152604d8601875280519085012083528184528583208054821663d1bf555c17905563189bdbdb60e21b606d86015285518086036051018152607186018752805190850120835281845285832080548216637961841717905565737472696e6760d01b60918601528551808603607701815260978601875280519085012083528184528583208054821663f30be55117905566313cba32b9999960c91b60b78601528551808603609e01815260be8601875280519085012083528184528583208054821663bf8542a917905564627974657360d81b60de860152855180860360c301815260e39095018652845194840194909420825290915291909120805490911663c6f3401317905550620002a99050565b600080546001600160a01b038381166001600160a01b0319831681178455604051919092169283917f8be0079c531659141344cd1fd0a4f28419497f9722a3daafe3b4186f6b6457e09190a35050565b80516001600160a01b03811681146200025a57600080fd5b919050565b6000806000606084860312156200027557600080fd5b620002808462000242565b9250620002906020850162000242565b9150620002a06040850162000242565b90509250925092565b608051611d6e620002fd6000396000818161019401528181610339015281816104080152818161046d015281816104e601528181610579015281816105ff0152818161075e0152610acf0152611d6e6000f3fe6080604052600436106100f75760003560e01c80638d6e7b9a1161008a578063edf0453011610059578063edf04530146102b7578063f2fde38b146102d7578063f40b4def146102f7578063fdc85fc41461031757600080fd5b80638d6e7b9a1461022b5780638da5cb5b1461025957806390d95efc14610277578063df5dd1a51461029757600080fd5b806345b9b6fb116100c657806345b9b6fb146101b65780636e2acda0146101d6578063715018a6146101f657806379b150081461020b57600080fd5b806306433b1b1461010357806319e2cd2f146101405780631fe543e3146101625780633b2bcbf11461018257600080fd5b366100fe57005b600080fd5b34801561010f57600080fd5b50600154610123906001600160a01b031681565b6040516001600160a01b0390911681526020015b60405180910390f35b34801561014c57600080fd5b5061016061015b366004611674565b610337565b005b34801561016e57600080fd5b5061016061017d3660046116bb565b6103a6565b34801561018e57600080fd5b506101237f000000000000000000000000000000000000000000000000000000000000000081565b3480156101c257600080fd5b506101606101d136600461176d565b610406565b3480156101e257600080fd5b506101606101f13660046117b2565b61046b565b34801561020257600080fd5b506101606104d0565b34801561021757600080fd5b506101606102263660046117d4565b6104e4565b34801561023757600080fd5b5061024b61024636600461186d565b610549565b604051908152602001610137565b34801561026557600080fd5b506000546001600160a01b0316610123565b34801561028357600080fd5b506101606102923660046119d4565b61075c565b3480156102a357600080fd5b506101606102b23660046119f9565b6107c1565b3480156102c357600080fd5b5061024b6102d2366004611a14565b610823565b3480156102e357600080fd5b506101606102f23660046119f9565b610a3d565b34801561030357600080fd5b506101606103123660046117b2565b610acd565b34801561032357600080fd5b506101606103323660046119f9565b610b32565b7f0000000000000000000000000000000000000000000000000000000000000000336001600160a01b038216146103975760405163073e64fd60e21b81523360048201526001600160a01b03821660248201526044015b60405180910390fd5b6103a18383610b8b565b505050565b6004546001600160a01b03163381146103fc576040517fd443d1570000000000000000000000000000000000000000000000000000000081523360048201526001600160a01b038216602482015260440161038e565b6103a18383610c89565b7f0000000000000000000000000000000000000000000000000000000000000000336001600160a01b038216146104615760405163073e64fd60e21b81523360048201526001600160a01b038216602482015260440161038e565b6103a18383610d24565b7f0000000000000000000000000000000000000000000000000000000000000000336001600160a01b038216146104c65760405163073e64fd60e21b81523360048201526001600160a01b038216602482015260440161038e565b6103a18383610e40565b6104d8610f4b565b6104e26000610fa5565b565b7f0000000000000000000000000000000000000000000000000000000000000000336001600160a01b0382161461053f5760405163073e64fd60e21b81523360048201526001600160a01b038216602482015260440161038e565b6103a18383611002565b604051639ad6c34760e01b81526000600482018190526001602483015263ffffffff8716604483015290819081907f00000000000000000000000000000000000000000000000000000000000000006001600160a01b031690639ad6c347906064016020604051808303816000875af11580156105ca573d6000803e3d6000fd5b505050506040513d601f19601f820116820180604052508101906105ee9190611a7a565b90506105fb8987836110bf565b60007f00000000000000000000000000000000000000000000000000000000000000006001600160a01b031663a4dfe92f83878c8c306040518663ffffffff1660e01b81526004016106509493929190611ad9565b60206040518083038185885af115801561066e573d6000803e3d6000fd5b50505050506040513d601f19601f820116820180604052508101906106939190611a7a565b604080516060810182528881526001600160a01b03808b16602080840191825263ffffffff8f1684860190815260008781526003909252908590209351845590516001840180549190931673ffffffffffffffffffffffffffffffffffffffff199091161790915551600290910155519091507ffb91bd2bbda2cef82c8804cef420f09829cea3ff324eccead8fe34103de64b02906107479083908a909182526001600160a01b0316602082015260400190565b60405180910390a19998505050505050505050565b7f0000000000000000000000000000000000000000000000000000000000000000336001600160a01b038216146107b75760405163073e64fd60e21b81523360048201526001600160a01b038216602482015260440161038e565b6103a18383611332565b6107c9610f4b565b6001600160a01b038116600081815260026020908152604091829020805460ff1916600117905590519182527e47706786c922d17b39285dc59d696bafea72c0b003d3841ae1202076f4c2e491015b60405180910390a150565b60048054604051639ad6c34760e01b8152600092810183905260016024820181905263ffffffff891660448301528392909183916001600160a01b031690639ad6c347906064016020604051808303816000875af1158015610889573d6000803e3d6000fd5b505050506040513d601f19601f820116820180604052508101906108ad9190611a7a565b90506108ba8787836110bf565b600480546040517f0f52ffc60000000000000000000000000000000000000000000000000000000081529182018c905263ffffffff808c1660248401528a1660448301523060648301526000916001600160a01b0390911690630f52ffc690849060840160206040518083038185885af115801561093c573d6000803e3d6000fd5b50505050506040513d601f19601f820116820180604052508101906109619190611a7a565b90506040518060600160405280878152602001886001600160a01b031681526020018b63ffffffff16815250600360008381526020019081526020016000206000820151816000015560208201518160010160006101000a8154816001600160a01b0302191690836001600160a01b03160217905550604082015181600201559050507f4a08eb62ab4e0211a35c0ef1702475c22c43065ee5b5160c8c0393265c16c7d38188604051610a279291909182526001600160a01b0316602082015260400190565b60405180910390a19a9950505050505050505050565b610a45610f4b565b6001600160a01b038116610ac15760405162461bcd60e51b815260206004820152602660248201527f4f776e61626c653a206e6577206f776e657220697320746865207a65726f206160448201527f6464726573730000000000000000000000000000000000000000000000000000606482015260840161038e565b610aca81610fa5565b50565b7f0000000000000000000000000000000000000000000000000000000000000000336001600160a01b03821614610b285760405163073e64fd60e21b81523360048201526001600160a01b038216602482015260440161038e565b6103a1838361143e565b610b3a610f4b565b6001600160a01b038116600081815260026020908152604091829020805460ff1916905590519182527f9c8e7d83025bef8a04c664b2f753f64b8814bdb7e27291d7e50935f18cc3c7129101610818565b6040517f6279746573000000000000000000000000000000000000000000000000000000602082015260009060250160408051601f198184030181528282528051602091820120600087815260038352838120606086018552805480875260018201546001600160a01b031694870185905260029091015486860181905294519296507f902f1c64154fa196e32d7875f628db604f6199262df91d9d5f3e4cda4d255eb094610c48948a9492939092899190819081908d90611b96565b60405180910390a1505050600090815260036020526040812081815560018101805473ffffffffffffffffffffffffffffffffffffffff1916905560020155565b600082815260036020526040908190208054600182015460029092015492517fe67b08545206221512d5d4fd5a7d194949e03dd7e28b7f384de9da76b86999cb93610ce5938793926001600160a01b0390911691908790611c21565b60405180910390a150600090815260036020526040812081815560018101805473ffffffffffffffffffffffffffffffffffffffff1916905560020155565b6040517f75696e7431323800000000000000000000000000000000000000000000000000602082015260009060270160408051808303601f19018152828252805160209182012060008781526003835283812060608087018652815480885260018301546001600160a01b031686890181905260029093015488880181905287518c81529687019190915295850191909152830193909352608082018190526fffffffffffffffffffffffffffffffff861660a083015260c0820183905260e0820183905261016061010083018190528201839052610120820183905261018061014083018190528201929092529092507f902f1c64154fa196e32d7875f628db604f6199262df91d9d5f3e4cda4d255eb0906101a001610c48565b6040517f696e743235360000000000000000000000000000000000000000000000000000602082015260009060260160408051808303601f19018152828252805160209182012060008781526003835283812060608087018652815480885260018301546001600160a01b031686890181905260029093015488880181905287518c815296870191909152958501919091528301939093526080820181905260a0820183905260c0820186905260e0820183905261016061010083018190528201839052610120820183905261018061014083018190528201929092529092507f902f1c64154fa196e32d7875f628db604f6199262df91d9d5f3e4cda4d255eb0906101a001610c48565b6000546001600160a01b031633146104e25760405162461bcd60e51b815260206004820181905260248201527f4f776e61626c653a2063616c6c6572206973206e6f7420746865206f776e6572604482015260640161038e565b600080546001600160a01b0383811673ffffffffffffffffffffffffffffffffffffffff19831681178455604051919092169283917f8be0079c531659141344cd1fd0a4f28419497f9722a3daafe3b4186f6b6457e09190a35050565b6040517f737472696e670000000000000000000000000000000000000000000000000000602082015260009060260160408051601f198184030181528282528051602091820120600087815260038352838120606086018552805480875260018201546001600160a01b031694870185905260029091015486860181905294519296507f902f1c64154fa196e32d7875f628db604f6199262df91d9d5f3e4cda4d255eb094610c48948a9492939092899190819081908d90611c8d565b3360009081526002602052604090205460ff16611108576040517f80fee10500000000000000000000000000000000000000000000000000000000815260040160405180910390fd5b6001546040517fef887f0100000000000000000000000000000000000000000000000000000000815267ffffffffffffffff851660048201526001600160a01b038481166024830152600092169063ef887f0190604401602060405180830381865afa15801561117c573d6000803e3d6000fd5b505050506040513d601f19601f820116820180604052508101906111a09190611d1b565b9050806111d9576040517f2c34ebbf00000000000000000000000000000000000000000000000000000000815260040160405180910390fd5b6001546040517f1e01043900000000000000000000000000000000000000000000000000000000815267ffffffffffffffff861660048201526000916001600160a01b031690631e01043990602401602060405180830381865afa158015611245573d6000803e3d6000fd5b505050506040513d601f19601f820116820180604052508101906112699190611a7a565b6001546040517f885aad9b00000000000000000000000000000000000000000000000000000000815267ffffffffffffffff88166004820152602481018690529192506001600160a01b03169063885aad9b90604401600060405180830381600087803b1580156112d957600080fd5b505af11580156112ed573d6000803e3d6000fd5b505050508281101561132b576040517ff4d678b800000000000000000000000000000000000000000000000000000000815260040160405180910390fd5b5050505050565b6040517f626f6f6c00000000000000000000000000000000000000000000000000000000602082015260009060240160408051808303601f19018152828252805160209182012060008781526003835283812060608087018652815480885260018301546001600160a01b031686890181905260029093015488880181905287518c815296870191909152958501919091528301939093526080820181905260a0820183905260c0820183905285151560e083015261016061010083018190528201839052610120820183905261018061014083018190528201929092529092507f902f1c64154fa196e32d7875f628db604f6199262df91d9d5f3e4cda4d255eb0906101a001610c48565b6040517f6279746573333200000000000000000000000000000000000000000000000000602082015260009060270160408051808303601f19018152828252805160209182012060008781526003835283812060608087018652815480885260018301546001600160a01b031686890181905260029093015488880181905287518c815296870191909152958501919091528301939093526080820181905260a0820183905260c0820183905260e0820183905261016061010083018190528201839052610120820186905261018061014083018190528201929092529092507f902f1c64154fa196e32d7875f628db604f6199262df91d9d5f3e4cda4d255eb0906101a001610c48565b7f4e487b7100000000000000000000000000000000000000000000000000000000600052604160045260246000fd5b60405160a0810167ffffffffffffffff8111828210171561159b5761159b611549565b60405290565b6040805190810167ffffffffffffffff8111828210171561159b5761159b611549565b604051601f8201601f1916810167ffffffffffffffff811182821017156115ed576115ed611549565b604052919050565b600067ffffffffffffffff83111561160f5761160f611549565b611622601f8401601f19166020016115c4565b905082815283838301111561163657600080fd5b828260208301376000602084830101529392505050565b600082601f83011261165e57600080fd5b61166d838335602085016115f5565b9392505050565b6000806040838503121561168757600080fd5b82359150602083013567ffffffffffffffff8111156116a557600080fd5b6116b18582860161164d565b9150509250929050565b600080604083850312156116ce57600080fd5b8235915060208084013567ffffffffffffffff808211156116ee57600080fd5b818601915086601f83011261170257600080fd5b81358181111561171457611714611549565b8060051b91506117258483016115c4565b818152918301840191848101908984111561173f57600080fd5b938501935b8385101561175d57843582529385019390850190611744565b8096505050505050509250929050565b6000806040838503121561178057600080fd5b8235915060208301356fffffffffffffffffffffffffffffffff811681146117a757600080fd5b809150509250929050565b600080604083850312156117c557600080fd5b50508035926020909101359150565b600080604083850312156117e757600080fd5b82359150602083013567ffffffffffffffff81111561180557600080fd5b8301601f8101851361181657600080fd5b6116b1858235602084016115f5565b803567ffffffffffffffff8116811461183d57600080fd5b919050565b803563ffffffff8116811461183d57600080fd5b80356001600160a01b038116811461183d57600080fd5b60008060008060008060c0878903121561188657600080fd5b61188f87611825565b955061189d60208801611842565b9450604087013560ff811681146118b357600080fd5b93506118c160608801611856565b92506080870135915060a087013567ffffffffffffffff808211156118e557600080fd5b9088019060a0828b0312156118f957600080fd5b611901611578565b8235815261191160208401611856565b602082015260408301357fffffffff000000000000000000000000000000000000000000000000000000008116811461194957600080fd5b60408201526060838101359082015260808301358281111561196a57600080fd5b92909201916040838c03121561197f57600080fd5b6119876115a1565b83358381111561199657600080fd5b6119a28d82870161164d565b82525060208401356020820152806080830152508093505050509295509295509295565b8015158114610aca57600080fd5b600080604083850312156119e757600080fd5b8235915060208301356117a7816119c6565b600060208284031215611a0b57600080fd5b61166d82611856565b60008060008060008060c08789031215611a2d57600080fd5b86359550611a3d60208801611842565b9450611a4b60408801611842565b9350611a5960608801611825565b9250611a6760808801611856565b915060a087013590509295509295509295565b600060208284031215611a8c57600080fd5b5051919050565b6000815180845260005b81811015611ab957602081850181015186830182015201611a9d565b506000602082860101526020601f19601f83011685010191505092915050565b60808152845160808201526001600160a01b0360208601511660a08201527fffffffff0000000000000000000000000000000000000000000000000000000060408601511660c0820152606085015160e08201526000608086015160a061010084015280516040610120850152611b54610160850182611a93565b6020928301516101408601529250611b7591840190508663ffffffff169052565b60ff841660408301526001600160a01b038316606083015295945050505050565b60006101608b83528a60208401526001600160a01b038a1660408401528860608401528760808401526fffffffffffffffffffffffffffffffff871660a08401528560c084015284151560e08401528061010084015260008184015250610180600061012084015280610140840152611c1181840185611a93565b9c9b505050505050505050505050565b600060a08201878352602087818501526001600160a01b038716604085015285606085015260a0608085015281855180845260c086019150828701935060005b81811015611c7d57845183529383019391830191600101611c61565b50909a9950505050505050505050565b60006101608b83528a60208401526001600160a01b038a1660408401528860608401528760808401526fffffffffffffffffffffffffffffffff871660a08401528560c084015284151560e084015280610100840152611cef81840185611a93565b9050600061012084015282810361014084015260008152602081019150509a9950505050505050505050565b600060208284031215611d2d57600080fd5b815161166d816119c656fea264697066735822122078bbdb7904a01b650018b50b708586eb975adc7def056be268e74194c6346d2e64736f6c63430008100033",
  "devdoc": {
    "kind": "dev",
    "methods": {
      "owner()": {
        "details": "Returns the address of the current owner."
      },
      "renounceOwnership()": {
        "details": "Leaves the contract without owner. It will not be possible to call `onlyOwner` functions. Can only be called by the current owner. NOTE: Renouncing ownership will leave the contract without an owner, thereby disabling any functionality that is only available to the owner."
      },
      "transferOwnership(address)": {
        "details": "Transfers ownership of the contract to a new account (`newOwner`). Can only be called by the current owner."
      }
    },
    "version": 1
  },
  "userdoc": {
    "kind": "user",
    "methods": {},
    "version": 1
  },
  "storageLayout": {
    "storage": [
      {
        "astId": 7,
        "contract": "src/v0.1/L1Endpoint.sol:L1Endpoint",
        "label": "_owner",
        "offset": 0,
        "slot": "0",
        "type": "t_address"
      },
      {
        "astId": 3897,
        "contract": "src/v0.1/L1Endpoint.sol:L1Endpoint",
        "label": "REGISTRY",
        "offset": 0,
        "slot": "1",
        "type": "t_contract(IRegistry)13295"
      },
      {
        "astId": 3908,
        "contract": "src/v0.1/L1Endpoint.sol:L1Endpoint",
        "label": "sOracles",
        "offset": 0,
        "slot": "2",
        "type": "t_mapping(t_address,t_bool)"
      },
      {
        "astId": 3913,
        "contract": "src/v0.1/L1Endpoint.sol:L1Endpoint",
        "label": "sRequest",
        "offset": 0,
        "slot": "3",
        "type": "t_mapping(t_uint256,t_struct(RequestDetail)3904_storage)"
      },
      {
        "astId": 4413,
        "contract": "src/v0.1/L1Endpoint.sol:L1Endpoint",
        "label": "VRFCOORDINATOR",
        "offset": 0,
        "slot": "4",
        "type": "t_contract(IVRFCoordinator)13438"
      },
      {
        "astId": 8897,
        "contract": "src/v0.1/L1Endpoint.sol:L1Endpoint",
        "label": "sJobIdToFunctionSelector",
        "offset": 0,
        "slot": "5",
        "type": "t_mapping(t_bytes32,t_bytes4)"
      }
    ],
    "types": {
      "t_address": {
        "encoding": "inplace",
        "label": "address",
        "numberOfBytes": "20"
      },
      "t_bool": {
        "encoding": "inplace",
        "label": "bool",
        "numberOfBytes": "1"
      },
      "t_bytes32": {
        "encoding": "inplace",
        "label": "bytes32",
        "numberOfBytes": "32"
      },
      "t_bytes4": {
        "encoding": "inplace",
        "label": "bytes4",
        "numberOfBytes": "4"
      },
      "t_contract(IRegistry)13295": {
        "encoding": "inplace",
        "label": "contract IRegistry",
        "numberOfBytes": "20"
      },
      "t_contract(IVRFCoordinator)13438": {
        "encoding": "inplace",
        "label": "contract IVRFCoordinator",
        "numberOfBytes": "20"
      },
      "t_mapping(t_address,t_bool)": {
        "encoding": "mapping",
        "key": "t_address",
        "label": "mapping(address => bool)",
        "numberOfBytes": "32",
        "value": "t_bool"
      },
      "t_mapping(t_bytes32,t_bytes4)": {
        "encoding": "mapping",
        "key": "t_bytes32",
        "label": "mapping(bytes32 => bytes4)",
        "numberOfBytes": "32",
        "value": "t_bytes4"
      },
      "t_mapping(t_uint256,t_struct(RequestDetail)3904_storage)": {
        "encoding": "mapping",
        "key": "t_uint256",
        "label": "mapping(uint256 => struct L1EndpointBase.RequestDetail)",
        "numberOfBytes": "32",
        "value": "t_struct(RequestDetail)3904_storage"
      },
      "t_struct(RequestDetail)3904_storage": {
        "encoding": "inplace",
        "label": "struct L1EndpointBase.RequestDetail",
        "members": [
          {
            "astId": 3899,
            "contract": "src/v0.1/L1Endpoint.sol:L1Endpoint",
            "label": "l2RequestId",
            "offset": 0,
            "slot": "0",
            "type": "t_uint256"
          },
          {
            "astId": 3901,
            "contract": "src/v0.1/L1Endpoint.sol:L1Endpoint",
            "label": "sender",
            "offset": 0,
            "slot": "1",
            "type": "t_address"
          },
          {
            "astId": 3903,
            "contract": "src/v0.1/L1Endpoint.sol:L1Endpoint",
            "label": "callbackGasLimit",
            "offset": 0,
            "slot": "2",
            "type": "t_uint256"
          }
        ],
        "numberOfBytes": "96"
      },
      "t_uint256": {
        "encoding": "inplace",
        "label": "uint256",
        "numberOfBytes": "32"
      }
    }
  }
}