{
  "address": "0x8a014Cb9051c7E3827b3E7843478a97AD03c4b2f",
  "abi": [
    {
      "inputs": [
        {
          "internalType": "address",
          "name": "coordinator",
          "type": "address"
        },
        {
          "internalType": "address",
          "name": "registryAddress",
          "type": "address"
        }
      ],
      "stateMutability": "nonpayable",
      "type": "constructor"
    },
    {
      "inputs": [],
      "name": "ConsumerValid",
      "type": "error"
    },
    {
      "inputs": [],
      "name": "FailedToDeposit",
      "type": "error"
    },
    {
      "inputs": [],
      "name": "InsufficientBalance",
      "type": "error"
    },
    {
      "inputs": [
        {
          "internalType": "address",
          "name": "have",
          "type": "address"
        },
        {
          "internalType": "address",
          "name": "want",
          "type": "address"
        }
      ],
      "name": "OnlyCoordinatorCanFulfill",
      "type": "error"
    },
    {
      "inputs": [],
      "name": "OnlyOracle",
      "type": "error"
    },
    {
      "anonymous": false,
      "inputs": [
        {
          "indexed": false,
          "internalType": "address",
          "name": "oracle",
          "type": "address"
        }
      ],
      "name": "OracleAdded",
      "type": "event"
    },
    {
      "anonymous": false,
      "inputs": [
        {
          "indexed": false,
          "internalType": "address",
          "name": "oracle",
          "type": "address"
        }
      ],
      "name": "OracleRemoved",
      "type": "event"
    },
    {
      "anonymous": false,
      "inputs": [
        {
          "indexed": true,
          "internalType": "address",
          "name": "previousOwner",
          "type": "address"
        },
        {
          "indexed": true,
          "internalType": "address",
          "name": "newOwner",
          "type": "address"
        }
      ],
      "name": "OwnershipTransferred",
      "type": "event"
    },
    {
      "anonymous": false,
      "inputs": [
        {
          "indexed": false,
          "internalType": "uint256",
          "name": "requestId",
          "type": "uint256"
        },
        {
          "indexed": false,
          "internalType": "uint256",
          "name": "l2RequestId",
          "type": "uint256"
        },
        {
          "indexed": false,
          "internalType": "address",
          "name": "sender",
          "type": "address"
        },
        {
          "indexed": false,
          "internalType": "uint256",
          "name": "callbackGasLimit",
          "type": "uint256"
        },
        {
          "indexed": false,
          "internalType": "uint256[]",
          "name": "randomWords",
          "type": "uint256[]"
        }
      ],
      "name": "RandomWordFulfilled",
      "type": "event"
    },
    {
      "anonymous": false,
      "inputs": [
        {
          "indexed": false,
          "internalType": "uint256",
          "name": "requestId",
          "type": "uint256"
        },
        {
          "indexed": false,
          "internalType": "address",
          "name": "sender",
          "type": "address"
        }
      ],
      "name": "RandomWordRequested",
      "type": "event"
    },
    {
      "inputs": [],
      "name": "REGISTRY",
      "outputs": [
        {
          "internalType": "contract IRegistry",
          "name": "",
          "type": "address"
        }
      ],
      "stateMutability": "view",
      "type": "function"
    },
    {
      "inputs": [
        {
          "internalType": "address",
          "name": "oracle",
          "type": "address"
        }
      ],
      "name": "addOracle",
      "outputs": [],
      "stateMutability": "nonpayable",
      "type": "function"
    },
    {
      "inputs": [],
      "name": "owner",
      "outputs": [
        {
          "internalType": "address",
          "name": "",
          "type": "address"
        }
      ],
      "stateMutability": "view",
      "type": "function"
    },
    {
      "inputs": [
        {
          "internalType": "uint256",
          "name": "requestId",
          "type": "uint256"
        },
        {
          "internalType": "uint256[]",
          "name": "randomWords",
          "type": "uint256[]"
        }
      ],
      "name": "rawFulfillRandomWords",
      "outputs": [],
      "stateMutability": "nonpayable",
      "type": "function"
    },
    {
      "inputs": [
        {
          "internalType": "address",
          "name": "oracle",
          "type": "address"
        }
      ],
      "name": "removeOracle",
      "outputs": [],
      "stateMutability": "nonpayable",
      "type": "function"
    },
    {
      "inputs": [],
      "name": "renounceOwnership",
      "outputs": [],
      "stateMutability": "nonpayable",
      "type": "function"
    },
    {
      "inputs": [
        {
          "internalType": "bytes32",
          "name": "keyHash",
          "type": "bytes32"
        },
        {
          "internalType": "uint32",
          "name": "callbackGasLimit",
          "type": "uint32"
        },
        {
          "internalType": "uint32",
          "name": "numWords",
          "type": "uint32"
        },
        {
          "internalType": "uint256",
          "name": "accId",
          "type": "uint256"
        },
        {
          "internalType": "address",
          "name": "sender",
          "type": "address"
        },
        {
          "internalType": "uint256",
          "name": "l2RequestId",
          "type": "uint256"
        }
      ],
      "name": "requestRandomWords",
      "outputs": [
        {
          "internalType": "uint256",
          "name": "",
          "type": "uint256"
        }
      ],
      "stateMutability": "nonpayable",
      "type": "function"
    },
    {
      "inputs": [
        {
          "internalType": "address",
          "name": "newOwner",
          "type": "address"
        }
      ],
      "name": "transferOwnership",
      "outputs": [],
      "stateMutability": "nonpayable",
      "type": "function"
    },
    {
      "stateMutability": "payable",
      "type": "receive"
    }
  ],
  "transactionHash": "0xc93b8b8784c5b993f91723b8ae25fb46e765b4215482970b6339e7905f042331",
  "args": [
    "0xDA8c0A00A372503aa6EC80f9b29Cc97C454bE499",
    "0x89c589256AcaC342c641Cd472Fd8d07550d347a8"
  ],
  "numDeployments": 1,
  "solcInputHash": "9421958cbfcd39d8d02a58d162277796",
  "bytecode": "0x60a060405234801561001057600080fd5b50604051610d3f380380610d3f83398101604081905261002f916100dd565b8161003933610071565b6001600160a01b03908116608052600180549382166001600160a01b0319948516179055600280549290911691909216179055610110565b600080546001600160a01b038381166001600160a01b0319831681178455604051919092169283917f8be0079c531659141344cd1fd0a4f28419497f9722a3daafe3b4186f6b6457e09190a35050565b80516001600160a01b03811681146100d857600080fd5b919050565b600080604083850312156100f057600080fd5b6100f9836100c1565b9150610107602084016100c1565b90509250929050565b608051610c0d610132600039600081816101b601526102110152610c0d6000f3fe60806040526004361061007f5760003560e01c8063d69d79261161004e578063d69d79261461011d578063df5dd1a51461014b578063f2fde38b1461016b578063fdc85fc41461018b57600080fd5b806306433b1b1461008b5780631fe543e3146100c8578063715018a6146100ea5780638da5cb5b146100ff57600080fd5b3661008657005b600080fd5b34801561009757600080fd5b506002546100ab906001600160a01b031681565b6040516001600160a01b0390911681526020015b60405180910390f35b3480156100d457600080fd5b506100e86100e33660046109b5565b6101ab565b005b3480156100f657600080fd5b506100e8610251565b34801561010b57600080fd5b506000546001600160a01b03166100ab565b34801561012957600080fd5b5061013d610138366004610aaf565b610265565b6040519081526020016100bf565b34801561015757600080fd5b506100e8610166366004610b0e565b6106e9565b34801561017757600080fd5b506100e8610186366004610b0e565b61074b565b34801561019757600080fd5b506100e86101a6366004610b0e565b6107db565b336001600160a01b037f00000000000000000000000000000000000000000000000000000000000000001614610243576040517f1cf993f40000000000000000000000000000000000000000000000000000000081523360048201526001600160a01b037f00000000000000000000000000000000000000000000000000000000000000001660248201526044015b60405180910390fd5b61024d8282610834565b5050565b6102596108cf565b6102636000610929565b565b3360009081526003602052604081205460ff166102ae576040517f80fee10500000000000000000000000000000000000000000000000000000000815260040160405180910390fd5b6002546040517fef887f01000000000000000000000000000000000000000000000000000000008152600481018690526001600160a01b038581166024830152600092169063ef887f0190604401602060405180830381865afa158015610319573d6000803e3d6000fd5b505050506040513d601f19601f8201168201806040525081019061033d9190610b30565b905080610376576040517f2c34ebbf00000000000000000000000000000000000000000000000000000000815260040160405180910390fd5b6002546040517f1e010439000000000000000000000000000000000000000000000000000000008152600481018790526000916001600160a01b031690631e01043990602401602060405180830381865afa1580156103d9573d6000803e3d6000fd5b505050506040513d601f19601f820116820180604052508101906103fd9190610b52565b600180546040517f9ad6c3470000000000000000000000000000000000000000000000000000000081526000600482018190526024820184905263ffffffff8d16604483015293945083916001600160a01b031690639ad6c347906064016020604051808303816000875af115801561047a573d6000803e3d6000fd5b505050506040513d601f19601f8201168201806040525081019061049e9190610b52565b9050808410156104da576040517ff4d678b800000000000000000000000000000000000000000000000000000000815260040160405180910390fd5b6002546040517f885aad9b000000000000000000000000000000000000000000000000000000008152600481018b9052602481018390526001600160a01b039091169063885aad9b90604401600060405180830381600087803b15801561054057600080fd5b505af1158015610554573d6000803e3d6000fd5b505050506000600160009054906101000a90046001600160a01b03166001600160a01b0316630f52ffc6838f8f8f306040518663ffffffff1660e01b81526004016105c8949392919093845263ffffffff9283166020850152911660408301526001600160a01b0316606082015260800190565b60206040518083038185885af11580156105e6573d6000803e3d6000fd5b50505050506040513d601f19601f8201168201806040525081019061060b9190610b52565b905060405180606001604052808981526020018a6001600160a01b031681526020018d63ffffffff16815250600460008381526020019081526020016000206000820151816000015560208201518160010160006101000a8154816001600160a01b0302191690836001600160a01b03160217905550604082015181600201559050507f4a08eb62ab4e0211a35c0ef1702475c22c43065ee5b5160c8c0393265c16c7d3818a6040516106d19291909182526001600160a01b0316602082015260400190565b60405180910390a19c9b505050505050505050505050565b6106f16108cf565b6001600160a01b038116600081815260036020908152604091829020805460ff1916600117905590519182527e47706786c922d17b39285dc59d696bafea72c0b003d3841ae1202076f4c2e491015b60405180910390a150565b6107536108cf565b6001600160a01b0381166107cf5760405162461bcd60e51b815260206004820152602660248201527f4f776e61626c653a206e6577206f776e657220697320746865207a65726f206160448201527f6464726573730000000000000000000000000000000000000000000000000000606482015260840161023a565b6107d881610929565b50565b6107e36108cf565b6001600160a01b038116600081815260036020908152604091829020805460ff1916905590519182527f9c8e7d83025bef8a04c664b2f753f64b8814bdb7e27291d7e50935f18cc3c7129101610740565b600082815260046020526040908190208054600182015460029092015492517fe67b08545206221512d5d4fd5a7d194949e03dd7e28b7f384de9da76b86999cb93610890938793926001600160a01b0390911691908790610b6b565b60405180910390a150600090815260046020526040812081815560018101805473ffffffffffffffffffffffffffffffffffffffff1916905560020155565b6000546001600160a01b031633146102635760405162461bcd60e51b815260206004820181905260248201527f4f776e61626c653a2063616c6c6572206973206e6f7420746865206f776e6572604482015260640161023a565b600080546001600160a01b0383811673ffffffffffffffffffffffffffffffffffffffff19831681178455604051919092169283917f8be0079c531659141344cd1fd0a4f28419497f9722a3daafe3b4186f6b6457e09190a35050565b7f4e487b7100000000000000000000000000000000000000000000000000000000600052604160045260246000fd5b600080604083850312156109c857600080fd5b8235915060208084013567ffffffffffffffff808211156109e857600080fd5b818601915086601f8301126109fc57600080fd5b813581811115610a0e57610a0e610986565b8060051b604051601f19603f83011681018181108582111715610a3357610a33610986565b604052918252848201925083810185019189831115610a5157600080fd5b938501935b82851015610a6f57843584529385019392850192610a56565b8096505050505050509250929050565b803563ffffffff81168114610a9357600080fd5b919050565b80356001600160a01b0381168114610a9357600080fd5b60008060008060008060c08789031215610ac857600080fd5b86359550610ad860208801610a7f565b9450610ae660408801610a7f565b935060608701359250610afb60808801610a98565b915060a087013590509295509295509295565b600060208284031215610b2057600080fd5b610b2982610a98565b9392505050565b600060208284031215610b4257600080fd5b81518015158114610b2957600080fd5b600060208284031215610b6457600080fd5b5051919050565b600060a08201878352602087818501526001600160a01b038716604085015285606085015260a0608085015281855180845260c086019150828701935060005b81811015610bc757845183529383019391830191600101610bab565b50909a995050505050505050505056fea26469706673582212202e83a3a1a0f5684df218218b1ab1c1ac256cf0f29ebb7e6368f9ddb738dd563b64736f6c63430008100033",
  "devdoc": {
    "kind": "dev",
    "methods": {
      "owner()": {
        "details": "Returns the address of the current owner."
      },
      "rawFulfillRandomWords(uint256,uint256[])": {
        "params": {
          "randomWords": "the VRF output expanded to the requested number of words",
          "requestId": "The Id initially returned by requestRandomWords"
        }
      },
      "renounceOwnership()": {
        "details": "Leaves the contract without owner. It will not be possible to call `onlyOwner` functions anymore. Can only be called by the current owner. NOTE: Renouncing ownership will leave the contract without an owner, thereby removing any functionality that is only available to the owner."
      },
      "transferOwnership(address)": {
        "details": "Transfers ownership of the contract to a new account (`newOwner`). Can only be called by the current owner."
      }
    },
    "version": 1
  },
  "userdoc": {
    "kind": "user",
    "methods": {
      "rawFulfillRandomWords(uint256,uint256[])": {
        "notice": "rawFulfillRandomWords is called by VRFCoordinator when itreceives a valid VRF proof. rawFulfillRandomWords then callsfulfillRandomWords, after validating the origin of the call"
      }
    },
    "version": 1
  },
  "storageLayout": {
    "storage": [
      {
        "astId": 7,
        "contract": "src/v0.1/L1Endpoint.sol:L1Endpoint",
        "label": "_owner",
        "offset": 0,
        "slot": "0",
        "type": "t_address"
      },
      {
        "astId": 147,
        "contract": "src/v0.1/L1Endpoint.sol:L1Endpoint",
        "label": "COORDINATOR",
        "offset": 0,
        "slot": "1",
        "type": "t_contract(IVRFCoordinator)1112"
      },
      {
        "astId": 150,
        "contract": "src/v0.1/L1Endpoint.sol:L1Endpoint",
        "label": "REGISTRY",
        "offset": 0,
        "slot": "2",
        "type": "t_contract(IRegistry)1103"
      },
      {
        "astId": 161,
        "contract": "src/v0.1/L1Endpoint.sol:L1Endpoint",
        "label": "sOracles",
        "offset": 0,
        "slot": "3",
        "type": "t_mapping(t_address,t_bool)"
      },
      {
        "astId": 166,
        "contract": "src/v0.1/L1Endpoint.sol:L1Endpoint",
        "label": "sRequest",
        "offset": 0,
        "slot": "4",
        "type": "t_mapping(t_uint256,t_struct(RequestDetail)157_storage)"
      }
    ],
    "types": {
      "t_address": {
        "encoding": "inplace",
        "label": "address",
        "numberOfBytes": "20"
      },
      "t_bool": {
        "encoding": "inplace",
        "label": "bool",
        "numberOfBytes": "1"
      },
      "t_contract(IRegistry)1103": {
        "encoding": "inplace",
        "label": "contract IRegistry",
        "numberOfBytes": "20"
      },
      "t_contract(IVRFCoordinator)1112": {
        "encoding": "inplace",
        "label": "contract IVRFCoordinator",
        "numberOfBytes": "20"
      },
      "t_mapping(t_address,t_bool)": {
        "encoding": "mapping",
        "key": "t_address",
        "label": "mapping(address => bool)",
        "numberOfBytes": "32",
        "value": "t_bool"
      },
      "t_mapping(t_uint256,t_struct(RequestDetail)157_storage)": {
        "encoding": "mapping",
        "key": "t_uint256",
        "label": "mapping(uint256 => struct L1Endpoint.RequestDetail)",
        "numberOfBytes": "32",
        "value": "t_struct(RequestDetail)157_storage"
      },
      "t_struct(RequestDetail)157_storage": {
        "encoding": "inplace",
        "label": "struct L1Endpoint.RequestDetail",
        "members": [
          {
            "astId": 152,
            "contract": "src/v0.1/L1Endpoint.sol:L1Endpoint",
            "label": "l2RequestId",
            "offset": 0,
            "slot": "0",
            "type": "t_uint256"
          },
          {
            "astId": 154,
            "contract": "src/v0.1/L1Endpoint.sol:L1Endpoint",
            "label": "sender",
            "offset": 0,
            "slot": "1",
            "type": "t_address"
          },
          {
            "astId": 156,
            "contract": "src/v0.1/L1Endpoint.sol:L1Endpoint",
            "label": "callbackGasLimit",
            "offset": 0,
            "slot": "2",
            "type": "t_uint256"
          }
        ],
        "numberOfBytes": "96"
      },
      "t_uint256": {
        "encoding": "inplace",
        "label": "uint256",
        "numberOfBytes": "32"
      }
    }
  }
}