{
  "address": "0xE22e67F7ce4b6FA9E3ABCB6125Fb53Cb577B34Ef",
  "abi": [
    {
      "inputs": [],
      "stateMutability": "nonpayable",
      "type": "constructor"
    },
    {
      "inputs": [],
      "name": "BurnFeeFailed",
      "type": "error"
    },
    {
      "inputs": [],
      "name": "CoordinatorExists",
      "type": "error"
    },
    {
      "inputs": [],
      "name": "InsufficientBalance",
      "type": "error"
    },
    {
      "inputs": [],
      "name": "InvalidAccount",
      "type": "error"
    },
    {
      "inputs": [],
      "name": "InvalidBurnRatio",
      "type": "error"
    },
    {
      "inputs": [
        {
          "internalType": "uint64",
          "name": "accId",
          "type": "uint64"
        },
        {
          "internalType": "address",
          "name": "consumer",
          "type": "address"
        }
      ],
      "name": "InvalidConsumer",
      "type": "error"
    },
    {
      "inputs": [
        {
          "internalType": "address",
          "name": "owner",
          "type": "address"
        }
      ],
      "name": "MustBeAccountOwner",
      "type": "error"
    },
    {
      "inputs": [
        {
          "internalType": "address",
          "name": "proposedOwner",
          "type": "address"
        }
      ],
      "name": "MustBeRequestedOwner",
      "type": "error"
    },
    {
      "inputs": [],
      "name": "PendingRequestExists",
      "type": "error"
    },
    {
      "inputs": [],
      "name": "TooManyConsumers",
      "type": "error"
    },
    {
      "inputs": [],
      "name": "ZeroAmount",
      "type": "error"
    },
    {
      "anonymous": false,
      "inputs": [
        {
          "indexed": true,
          "internalType": "uint64",
          "name": "accId",
          "type": "uint64"
        },
        {
          "indexed": false,
          "internalType": "uint256",
          "name": "oldBalance",
          "type": "uint256"
        },
        {
          "indexed": false,
          "internalType": "uint256",
          "name": "newBalance",
          "type": "uint256"
        },
        {
          "indexed": false,
          "internalType": "uint256",
          "name": "burnAmount",
          "type": "uint256"
        }
      ],
      "name": "AccountBalanceDecreased",
      "type": "event"
    },
    {
      "anonymous": false,
      "inputs": [
        {
          "indexed": true,
          "internalType": "uint64",
          "name": "accId",
          "type": "uint64"
        },
        {
          "indexed": false,
          "internalType": "uint256",
          "name": "oldBalance",
          "type": "uint256"
        },
        {
          "indexed": false,
          "internalType": "uint256",
          "name": "newBalance",
          "type": "uint256"
        }
      ],
      "name": "AccountBalanceIncreased",
      "type": "event"
    },
    {
      "anonymous": false,
      "inputs": [
        {
          "indexed": true,
          "internalType": "uint64",
          "name": "accId",
          "type": "uint64"
        },
        {
          "indexed": false,
          "internalType": "address",
          "name": "to",
          "type": "address"
        },
        {
          "indexed": false,
          "internalType": "uint256",
          "name": "amount",
          "type": "uint256"
        }
      ],
      "name": "AccountCanceled",
      "type": "event"
    },
    {
      "anonymous": false,
      "inputs": [
        {
          "indexed": true,
          "internalType": "uint64",
          "name": "accId",
          "type": "uint64"
        },
        {
          "indexed": false,
          "internalType": "address",
          "name": "consumer",
          "type": "address"
        }
      ],
      "name": "AccountConsumerAdded",
      "type": "event"
    },
    {
      "anonymous": false,
      "inputs": [
        {
          "indexed": true,
          "internalType": "uint64",
          "name": "accId",
          "type": "uint64"
        },
        {
          "indexed": false,
          "internalType": "address",
          "name": "consumer",
          "type": "address"
        }
      ],
      "name": "AccountConsumerRemoved",
      "type": "event"
    },
    {
      "anonymous": false,
      "inputs": [
        {
          "indexed": true,
          "internalType": "uint64",
          "name": "accId",
          "type": "uint64"
        },
        {
          "indexed": false,
          "internalType": "address",
          "name": "owner",
          "type": "address"
        }
      ],
      "name": "AccountCreated",
      "type": "event"
    },
    {
      "anonymous": false,
      "inputs": [
        {
          "indexed": true,
          "internalType": "uint64",
          "name": "accId",
          "type": "uint64"
        },
        {
          "indexed": false,
          "internalType": "address",
          "name": "from",
          "type": "address"
        },
        {
          "indexed": false,
          "internalType": "address",
          "name": "to",
          "type": "address"
        }
      ],
      "name": "AccountOwnerTransferRequested",
      "type": "event"
    },
    {
      "anonymous": false,
      "inputs": [
        {
          "indexed": true,
          "internalType": "uint64",
          "name": "accId",
          "type": "uint64"
        },
        {
          "indexed": false,
          "internalType": "address",
          "name": "from",
          "type": "address"
        },
        {
          "indexed": false,
          "internalType": "address",
          "name": "to",
          "type": "address"
        }
      ],
      "name": "AccountOwnerTransferred",
      "type": "event"
    },
    {
      "anonymous": false,
      "inputs": [
        {
          "indexed": false,
          "internalType": "uint16",
          "name": "ratio",
          "type": "uint16"
        }
      ],
      "name": "BurnRatioSet",
      "type": "event"
    },
    {
      "anonymous": false,
      "inputs": [
        {
          "indexed": false,
          "internalType": "address",
          "name": "to",
          "type": "address"
        },
        {
          "indexed": false,
          "internalType": "uint256",
          "name": "amount",
          "type": "uint256"
        }
      ],
      "name": "FundsWithdrawn",
      "type": "event"
    },
    {
      "anonymous": false,
      "inputs": [
        {
          "indexed": true,
          "internalType": "address",
          "name": "previousOwner",
          "type": "address"
        },
        {
          "indexed": true,
          "internalType": "address",
          "name": "newOwner",
          "type": "address"
        }
      ],
      "name": "OwnershipTransferred",
      "type": "event"
    },
    {
      "anonymous": false,
      "inputs": [
        {
          "indexed": true,
          "internalType": "bytes32",
          "name": "role",
          "type": "bytes32"
        },
        {
          "indexed": true,
          "internalType": "bytes32",
          "name": "previousAdminRole",
          "type": "bytes32"
        },
        {
          "indexed": true,
          "internalType": "bytes32",
          "name": "newAdminRole",
          "type": "bytes32"
        }
      ],
      "name": "RoleAdminChanged",
      "type": "event"
    },
    {
      "anonymous": false,
      "inputs": [
        {
          "indexed": true,
          "internalType": "bytes32",
          "name": "role",
          "type": "bytes32"
        },
        {
          "indexed": true,
          "internalType": "address",
          "name": "account",
          "type": "address"
        },
        {
          "indexed": true,
          "internalType": "address",
          "name": "sender",
          "type": "address"
        }
      ],
      "name": "RoleGranted",
      "type": "event"
    },
    {
      "anonymous": false,
      "inputs": [
        {
          "indexed": true,
          "internalType": "bytes32",
          "name": "role",
          "type": "bytes32"
        },
        {
          "indexed": true,
          "internalType": "address",
          "name": "account",
          "type": "address"
        },
        {
          "indexed": true,
          "internalType": "address",
          "name": "sender",
          "type": "address"
        }
      ],
      "name": "RoleRevoked",
      "type": "event"
    },
    {
      "inputs": [],
      "name": "COORDINATOR_ROLE",
      "outputs": [
        {
          "internalType": "bytes32",
          "name": "",
          "type": "bytes32"
        }
      ],
      "stateMutability": "view",
      "type": "function"
    },
    {
      "inputs": [],
      "name": "DEFAULT_ADMIN_ROLE",
      "outputs": [
        {
          "internalType": "bytes32",
          "name": "",
          "type": "bytes32"
        }
      ],
      "stateMutability": "view",
      "type": "function"
    },
    {
      "inputs": [],
      "name": "MAX_BURN_RATIO",
      "outputs": [
        {
          "internalType": "uint8",
          "name": "",
          "type": "uint8"
        }
      ],
      "stateMutability": "view",
      "type": "function"
    },
    {
      "inputs": [],
      "name": "MAX_CONSUMERS",
      "outputs": [
        {
          "internalType": "uint16",
          "name": "",
          "type": "uint16"
        }
      ],
      "stateMutability": "view",
      "type": "function"
    },
    {
      "inputs": [],
      "name": "MIN_BURN_RATIO",
      "outputs": [
        {
          "internalType": "uint8",
          "name": "",
          "type": "uint8"
        }
      ],
      "stateMutability": "view",
      "type": "function"
    },
    {
      "inputs": [
        {
          "internalType": "uint64",
          "name": "accId",
          "type": "uint64"
        }
      ],
      "name": "acceptAccountOwnerTransfer",
      "outputs": [],
      "stateMutability": "nonpayable",
      "type": "function"
    },
    {
      "inputs": [
        {
          "internalType": "uint64",
          "name": "accId",
          "type": "uint64"
        },
        {
          "internalType": "address",
          "name": "consumer",
          "type": "address"
        }
      ],
      "name": "addConsumer",
      "outputs": [],
      "stateMutability": "nonpayable",
      "type": "function"
    },
    {
      "inputs": [
        {
          "internalType": "address",
          "name": "coordinator",
          "type": "address"
        }
      ],
      "name": "addCoordinator",
      "outputs": [],
      "stateMutability": "nonpayable",
      "type": "function"
    },
    {
      "inputs": [
        {
          "internalType": "uint64",
          "name": "accId",
          "type": "uint64"
        },
        {
          "internalType": "address",
          "name": "to",
          "type": "address"
        }
      ],
      "name": "cancelAccount",
      "outputs": [],
      "stateMutability": "nonpayable",
      "type": "function"
    },
    {
      "inputs": [
        {
          "internalType": "uint64",
          "name": "accId",
          "type": "uint64"
        },
        {
          "internalType": "uint256",
          "name": "amount",
          "type": "uint256"
        },
        {
          "internalType": "address",
          "name": "node",
          "type": "address"
        }
      ],
      "name": "chargeFee",
      "outputs": [],
      "stateMutability": "nonpayable",
      "type": "function"
    },
    {
      "inputs": [],
      "name": "createAccount",
      "outputs": [
        {
          "internalType": "uint64",
          "name": "",
          "type": "uint64"
        }
      ],
      "stateMutability": "nonpayable",
      "type": "function"
    },
    {
      "inputs": [
        {
          "internalType": "uint64",
          "name": "accId",
          "type": "uint64"
        }
      ],
      "name": "deposit",
      "outputs": [],
      "stateMutability": "payable",
      "type": "function"
    },
    {
      "inputs": [
        {
          "internalType": "uint64",
          "name": "accId",
          "type": "uint64"
        }
      ],
      "name": "getAccount",
      "outputs": [
        {
          "internalType": "uint256",
          "name": "balance",
          "type": "uint256"
        },
        {
          "internalType": "uint64",
          "name": "reqCount",
          "type": "uint64"
        },
        {
          "internalType": "address",
          "name": "owner",
          "type": "address"
        },
        {
          "internalType": "address[]",
          "name": "consumers",
          "type": "address[]"
        }
      ],
      "stateMutability": "view",
      "type": "function"
    },
    {
      "inputs": [
        {
          "internalType": "uint64",
          "name": "accId",
          "type": "uint64"
        }
      ],
      "name": "getAccountOwner",
      "outputs": [
        {
          "internalType": "address",
          "name": "owner",
          "type": "address"
        }
      ],
      "stateMutability": "view",
      "type": "function"
    },
    {
      "inputs": [
        {
          "internalType": "address",
          "name": "consumer",
          "type": "address"
        },
        {
          "internalType": "uint64",
          "name": "accId",
          "type": "uint64"
        }
      ],
      "name": "getNonce",
      "outputs": [
        {
          "internalType": "uint64",
          "name": "",
          "type": "uint64"
        }
      ],
      "stateMutability": "view",
      "type": "function"
    },
    {
      "inputs": [
        {
          "internalType": "bytes32",
          "name": "role",
          "type": "bytes32"
        }
      ],
      "name": "getRoleAdmin",
      "outputs": [
        {
          "internalType": "bytes32",
          "name": "",
          "type": "bytes32"
        }
      ],
      "stateMutability": "view",
      "type": "function"
    },
    {
      "inputs": [
        {
          "internalType": "bytes32",
          "name": "role",
          "type": "bytes32"
        },
        {
          "internalType": "uint256",
          "name": "index",
          "type": "uint256"
        }
      ],
      "name": "getRoleMember",
      "outputs": [
        {
          "internalType": "address",
          "name": "",
          "type": "address"
        }
      ],
      "stateMutability": "view",
      "type": "function"
    },
    {
      "inputs": [
        {
          "internalType": "bytes32",
          "name": "role",
          "type": "bytes32"
        }
      ],
      "name": "getRoleMemberCount",
      "outputs": [
        {
          "internalType": "uint256",
          "name": "",
          "type": "uint256"
        }
      ],
      "stateMutability": "view",
      "type": "function"
    },
    {
      "inputs": [],
      "name": "getTotalBalance",
      "outputs": [
        {
          "internalType": "uint256",
          "name": "",
          "type": "uint256"
        }
      ],
      "stateMutability": "view",
      "type": "function"
    },
    {
      "inputs": [
        {
          "internalType": "bytes32",
          "name": "role",
          "type": "bytes32"
        },
        {
          "internalType": "address",
          "name": "account",
          "type": "address"
        }
      ],
      "name": "grantRole",
      "outputs": [],
      "stateMutability": "nonpayable",
      "type": "function"
    },
    {
      "inputs": [
        {
          "internalType": "bytes32",
          "name": "role",
          "type": "bytes32"
        },
        {
          "internalType": "address",
          "name": "account",
          "type": "address"
        }
      ],
      "name": "hasRole",
      "outputs": [
        {
          "internalType": "bool",
          "name": "",
          "type": "bool"
        }
      ],
      "stateMutability": "view",
      "type": "function"
    },
    {
      "inputs": [
        {
          "internalType": "address",
          "name": "consumer",
          "type": "address"
        },
        {
          "internalType": "uint64",
          "name": "accId",
          "type": "uint64"
        }
      ],
      "name": "increaseNonce",
      "outputs": [
        {
          "internalType": "uint64",
          "name": "",
          "type": "uint64"
        }
      ],
      "stateMutability": "nonpayable",
      "type": "function"
    },
    {
      "inputs": [
        {
          "internalType": "uint256",
          "name": "amount",
          "type": "uint256"
        }
      ],
      "name": "nodeWithdraw",
      "outputs": [],
      "stateMutability": "nonpayable",
      "type": "function"
    },
    {
      "inputs": [],
      "name": "owner",
      "outputs": [
        {
          "internalType": "address",
          "name": "",
          "type": "address"
        }
      ],
      "stateMutability": "view",
      "type": "function"
    },
    {
      "inputs": [
        {
          "internalType": "uint64",
          "name": "accId",
          "type": "uint64"
        }
      ],
      "name": "pendingRequestExists",
      "outputs": [
        {
          "internalType": "bool",
          "name": "",
          "type": "bool"
        }
      ],
      "stateMutability": "view",
      "type": "function"
    },
    {
      "inputs": [
        {
          "internalType": "uint64",
          "name": "accId",
          "type": "uint64"
        },
        {
          "internalType": "address",
          "name": "consumer",
          "type": "address"
        }
      ],
      "name": "removeConsumer",
      "outputs": [],
      "stateMutability": "nonpayable",
      "type": "function"
    },
    {
      "inputs": [
        {
          "internalType": "address",
          "name": "coordinator",
          "type": "address"
        }
      ],
      "name": "removeCoordinator",
      "outputs": [],
      "stateMutability": "nonpayable",
      "type": "function"
    },
    {
      "inputs": [],
      "name": "renounceOwnership",
      "outputs": [],
      "stateMutability": "nonpayable",
      "type": "function"
    },
    {
      "inputs": [
        {
          "internalType": "bytes32",
          "name": "role",
          "type": "bytes32"
        },
        {
          "internalType": "address",
          "name": "account",
          "type": "address"
        }
      ],
      "name": "renounceRole",
      "outputs": [],
      "stateMutability": "nonpayable",
      "type": "function"
    },
    {
      "inputs": [
        {
          "internalType": "uint64",
          "name": "accId",
          "type": "uint64"
        },
        {
          "internalType": "address",
          "name": "newOwner",
          "type": "address"
        }
      ],
      "name": "requestAccountOwnerTransfer",
      "outputs": [],
      "stateMutability": "nonpayable",
      "type": "function"
    },
    {
      "inputs": [
        {
          "internalType": "bytes32",
          "name": "role",
          "type": "bytes32"
        },
        {
          "internalType": "address",
          "name": "account",
          "type": "address"
        }
      ],
      "name": "revokeRole",
      "outputs": [],
      "stateMutability": "nonpayable",
      "type": "function"
    },
    {
      "inputs": [],
      "name": "s_BurnRatio",
      "outputs": [
        {
          "internalType": "uint8",
          "name": "",
          "type": "uint8"
        }
      ],
      "stateMutability": "view",
      "type": "function"
    },
    {
      "inputs": [
        {
          "internalType": "uint256",
          "name": "",
          "type": "uint256"
        }
      ],
      "name": "s_coordinators",
      "outputs": [
        {
          "internalType": "contract CoordinatorBaseInterface",
          "name": "",
          "type": "address"
        }
      ],
      "stateMutability": "view",
      "type": "function"
    },
    {
      "inputs": [
        {
          "internalType": "address",
          "name": "",
          "type": "address"
        }
      ],
      "name": "s_nodes",
      "outputs": [
        {
          "internalType": "uint256",
          "name": "",
          "type": "uint256"
        }
      ],
      "stateMutability": "view",
      "type": "function"
    },
    {
      "inputs": [
        {
          "internalType": "uint8",
          "name": "ratio",
          "type": "uint8"
        }
      ],
      "name": "setBurnRatio",
      "outputs": [],
      "stateMutability": "nonpayable",
      "type": "function"
    },
    {
      "inputs": [
        {
          "internalType": "bytes4",
          "name": "interfaceId",
          "type": "bytes4"
        }
      ],
      "name": "supportsInterface",
      "outputs": [
        {
          "internalType": "bool",
          "name": "",
          "type": "bool"
        }
      ],
      "stateMutability": "view",
      "type": "function"
    },
    {
      "inputs": [
        {
          "internalType": "address",
          "name": "newOwner",
          "type": "address"
        }
      ],
      "name": "transferOwnership",
      "outputs": [],
      "stateMutability": "nonpayable",
      "type": "function"
    },
    {
      "inputs": [],
      "name": "typeAndVersion",
      "outputs": [
        {
          "internalType": "string",
          "name": "",
          "type": "string"
        }
      ],
      "stateMutability": "pure",
      "type": "function"
    },
    {
      "inputs": [
        {
          "internalType": "uint64",
          "name": "accId",
          "type": "uint64"
        },
        {
          "internalType": "uint256",
          "name": "amount",
          "type": "uint256"
        }
      ],
      "name": "withdraw",
      "outputs": [],
      "stateMutability": "nonpayable",
      "type": "function"
    }
  ],
  "transactionHash": "0xc5c440df318a15c885f9afca03d5fa54e2fc16648e6ab2abbebf362975a0648c",
  "args": [],
  "numDeployments": 1,
  "solcInputHash": "fa56e8cc296933aafbed3a3276231c2d",
  "bytecode": "0x60806040526004805460ff60401b1916681400000000000000001790553480156200002957600080fd5b50620000353362000048565b620000426000336200009a565b620001ff565b600280546001600160a01b038381166001600160a01b0319831681179093556040519116919082907f8be0079c531659141344cd1fd0a4f28419497f9722a3daafe3b4186f6b6457e090600090a35050565b620000a68282620000aa565b5050565b620000c18282620000ed60201b6200209b1760201c565b6000828152600160209081526040909120620000e8918390620021396200018d821b17901c565b505050565b6000828152602081815260408083206001600160a01b038516845290915290205460ff16620000a6576000828152602081815260408083206001600160a01b03851684529091529020805460ff19166001179055620001493390565b6001600160a01b0316816001600160a01b0316837f2f8788117e7eff1d82e926ec794901d17c78024a50270940304540a733656f0d60405160405180910390a45050565b6000620001a4836001600160a01b038416620001ad565b90505b92915050565b6000818152600183016020526040812054620001f657508154600181810184556000848152602080822090930184905584548482528286019093526040902091909155620001a7565b506000620001a7565b612f13806200020f6000396000f3fe6080604052600436106102a05760003560e01c8063715018a61161016e5780639f87fad7116100cb578063e82ad7d41161007f578063f2fde38b11610064578063f2fde38b14610821578063faa536ec14610841578063fbd6d77e1461086757600080fd5b8063e82ad7d4146107e1578063ea74b84d1461080157600080fd5b8063ca15c873116100b0578063ca15c8731461078c578063d547741f146107ac578063da41d4b3146107cc57600080fd5b80639f87fad714610757578063a217fddf1461077757600080fd5b80638da5cb5b1161012257806391d148541161010757806391d14854146106d757806393c89ef11461071b5780639dca362f1461074257600080fd5b80638da5cb5b146106995780639010d07c146106b757600080fd5b806377ae211a1161015357806377ae211a1461062957806382d87af3146106595780638cb5a0c01461067957600080fd5b8063715018a6146105f45780637341c10c1461060957600080fd5b8063302727101161021c5780634a418973116101d057806364d51a2a116101b557806364d51a2a146105485780636b366cb5146105705780636d5e8a79146105a457600080fd5b80634a418973146104db5780634c91f4ff1461051b57600080fd5b80634000a007116102015780634000a00714610462578063433879831461049b57806344a287ca146104bb57600080fd5b8063302727101461042257806336568abe1461044257600080fd5b806312b5834911610273578063181f5a7711610258578063181f5a7714610386578063248a9ca3146103d25780632f2ff15d1461040257600080fd5b806312b5834914610354578063137658381461037357600080fd5b806301ffc9a7146102a557806304f1be08146102da578063080e221b1461031257806312207e6a14610334575b600080fd5b3480156102b157600080fd5b506102c56102c0366004612a61565b610887565b60405190151581526020015b60405180910390f35b3480156102e657600080fd5b506102fa6102f5366004612a8b565b6108cb565b6040516001600160a01b0390911681526020016102d1565b34801561031e57600080fd5b5061033261032d366004612ad8565b6108f5565b005b34801561034057600080fd5b5061033261034f366004612b0b565b6109a8565b34801561036057600080fd5b506003545b6040519081526020016102d1565b610332610381366004612b0b565b610af6565b34801561039257600080fd5b50604080518082018252600f81527f5072657061796d656e742076302e310000000000000000000000000000000000602082015290516102d19190612b4a565b3480156103de57600080fd5b506103656103ed366004612a8b565b60009081526020819052604090206001015490565b34801561040e57600080fd5b5061033261041d366004612b7d565b610b93565b34801561042e57600080fd5b5061033261043d366004612a8b565b610bbd565b34801561044e57600080fd5b5061033261045d366004612b7d565b610d14565b34801561046e57600080fd5b5061048261047d366004612ba0565b610da0565b60405167ffffffffffffffff90911681526020016102d1565b3480156104a757600080fd5b506103326104b6366004612bca565b610e57565b3480156104c757600080fd5b506103326104d6366004612bf4565b611031565b3480156104e757600080fd5b506102fa6104f6366004612b0b565b67ffffffffffffffff166000908152600660205260409020546001600160a01b031690565b34801561052757600080fd5b50610365610536366004612c17565b60086020526000908152604090205481565b34801561055457600080fd5b5061055d606481565b60405161ffff90911681526020016102d1565b34801561057c57600080fd5b506103657f2e8b98eef02e8df3bd27d1270ded3bea3d14db99c5234c7b14001a7fff957bcc81565b3480156105b057600080fd5b506104826105bf366004612ba0565b6001600160a01b0391909116600090815260056020908152604080832067ffffffffffffffff94851684529091529020541690565b34801561060057600080fd5b506103326110d5565b34801561061557600080fd5b50610332610624366004612ad8565b6110e9565b34801561063557600080fd5b50610649610644366004612b0b565b611291565b6040516102d19493929190612c32565b34801561066557600080fd5b50610332610674366004612ad8565b611384565b34801561068557600080fd5b50610332610694366004612c17565b611497565b3480156106a557600080fd5b506002546001600160a01b03166102fa565b3480156106c357600080fd5b506102fa6106d2366004612ca5565b6115d8565b3480156106e357600080fd5b506102c56106f2366004612b7d565b6000918252602082815260408084206001600160a01b0393909316845291905290205460ff1690565b34801561072757600080fd5b50610730606481565b60405160ff90911681526020016102d1565b34801561074e57600080fd5b506104826115f7565b34801561076357600080fd5b50610332610772366004612ad8565b61176c565b34801561078357600080fd5b50610365600081565b34801561079857600080fd5b506103656107a7366004612a8b565b611a81565b3480156107b857600080fd5b506103326107c7366004612b7d565b611a98565b3480156107d857600080fd5b50610730600081565b3480156107ed57600080fd5b506102c56107fc366004612b0b565b611abd565b34801561080d57600080fd5b5061033261081c366004612cc7565b611cd1565b34801561082d57600080fd5b5061033261083c366004612c17565b611efe565b34801561084d57600080fd5b506004546107309068010000000000000000900460ff1681565b34801561087357600080fd5b50610332610882366004612c17565b611f8e565b60006001600160e01b031982167f5a05180f0000000000000000000000000000000000000000000000000000000014806108c557506108c58261214e565b92915050565b600981815481106108db57600080fd5b6000918252602090912001546001600160a01b0316905081565b67ffffffffffffffff821660009081526006602052604090205482906001600160a01b03168061093857604051630da30f6560e31b815260040160405180910390fd5b336001600160a01b038216146109715760405163901d952160e01b81526001600160a01b03821660048201526024015b60405180910390fd5b61097a84611abd565b1561099857604051631685ecdd60e31b815260040160405180910390fd5b6109a284846121b5565b50505050565b67ffffffffffffffff81166000908152600660205260409020546001600160a01b03166109e857604051630da30f6560e31b815260040160405180910390fd5b67ffffffffffffffff81166000908152600660205260409020600101546001600160a01b03163314610a705767ffffffffffffffff8116600090815260066020526040908190206001015490517fd084e9750000000000000000000000000000000000000000000000000000000081526001600160a01b039091166004820152602401610968565b67ffffffffffffffff81166000818152600660209081526040918290208054336001600160a01b0319808316821784556001909301805490931690925583516001600160a01b03909116808252928101919091529092917f048b267147cb3de127974a8d4590e362caeaf224016765e6fa656d3b9d441fa6910160405180910390a25050565b67ffffffffffffffff811660009081526007602052604081208054349290918391610b218385612d19565b925050819055508160036000828254610b3a9190612d19565b909155505067ffffffffffffffff83167faf3d9fb1c57e7b7764b81db151a26af4f4eb375e7e3c7ee23d8adc3f149f760b82610b768582612d19565b6040805192835260208301919091520160405180910390a2505050565b600082815260208190526040902060010154610bae81612457565b610bb88383612461565b505050565b80600003610bf7576040517f1f2a200500000000000000000000000000000000000000000000000000000000815260040160405180910390fd5b80471015610c1857604051631e9acf1760e31b815260040160405180910390fd5b3360009081526008602052604090205481811015610c4957604051631e9acf1760e31b815260040160405180910390fd5b3360009081526008602052604081208054849290610c68908490612d2c565b9091555050604051600090339084908381818185875af1925050503d8060008114610caf576040519150601f19603f3d011682016040523d82523d6000602084013e610cb4565b606091505b5050905080610cd657604051631e9acf1760e31b815260040160405180910390fd5b60408051338152602081018590527feaff4b37086828766ad3268786972c0cd24259d4c87a80f9d3963a3c3d999b0d910160405180910390a1505050565b6001600160a01b0381163314610d925760405162461bcd60e51b815260206004820152602f60248201527f416363657373436f6e74726f6c3a2063616e206f6e6c792072656e6f756e636560448201527f20726f6c657320666f722073656c6600000000000000000000000000000000006064820152608401610968565b610d9c8282612483565b5050565b60007f2e8b98eef02e8df3bd27d1270ded3bea3d14db99c5234c7b14001a7fff957bcc610dcc81612457565b6001600160a01b038416600090815260056020908152604080832067ffffffffffffffff808816855292528220541690610e07826001612d3f565b6001600160a01b038716600090815260056020908152604080832067ffffffffffffffff8a811685529252909120805467ffffffffffffffff1916918316919091179055935050505b5092915050565b67ffffffffffffffff821660009081526006602052604090205482906001600160a01b031680610e9a57604051630da30f6560e31b815260040160405180910390fd5b336001600160a01b03821614610ece5760405163901d952160e01b81526001600160a01b0382166004820152602401610968565b610ed784611abd565b15610ef557604051631685ecdd60e31b815260040160405180910390fd5b67ffffffffffffffff841660009081526007602052604090205483811080610f1c57508347105b15610f3a57604051631e9acf1760e31b815260040160405180910390fd5b67ffffffffffffffff851660009081526007602052604081208054869290610f63908490612d2c565b9091555050604051600090339086908381818185875af1925050503d8060008114610faa576040519150601f19603f3d011682016040523d82523d6000602084013e610faf565b606091505b5050905080610fd157604051631e9acf1760e31b815260040160405180910390fd5b67ffffffffffffffff86167f1aa2ced328cf62f816244b343d21e32b609f2651bf5a7a593fca245d3cfd0204836110088882612d2c565b6040805192835260208301919091526000908201526060015b60405180910390a2505050505050565b6110396124a5565b606460ff82161115611077576040517f345cb3cf00000000000000000000000000000000000000000000000000000000815260040160405180910390fd5b6004805468ff000000000000000019166801000000000000000060ff8416908102919091179091556040519081527f0f1db622a68af62a7752ca69b8060662f7c914040a9e0b5712b4127a8c76486f9060200160405180910390a150565b6110dd6124a5565b6110e760006124ff565b565b67ffffffffffffffff821660009081526006602052604090205482906001600160a01b03168061112c57604051630da30f6560e31b815260040160405180910390fd5b336001600160a01b038216146111605760405163901d952160e01b81526001600160a01b0382166004820152602401610968565b67ffffffffffffffff84166000908152600660205260409020600201546064116111b6576040517f05a48e0f00000000000000000000000000000000000000000000000000000000815260040160405180910390fd5b6001600160a01b038316600090815260056020908152604080832067ffffffffffffffff808916855292528220541690036109a2576001600160a01b038316600081815260056020908152604080832067ffffffffffffffff8916808552908352818420805467ffffffffffffffff19166001908117909155600684528285206002018054918201815585529383902090930180546001600160a01b031916851790555192835290917f7894faa1f0036964938f730572ac59cb10a7300d75d21c8185b3331e563c1e0291015b60405180910390a250505050565b67ffffffffffffffff8116600090815260066020526040812054819081906060906001600160a01b03166112d857604051630da30f6560e31b815260040160405180910390fd5b67ffffffffffffffff808616600090815260076020908152604080832080546001909101546006845293829020805460029091018054845181870281018701909552808552929695909516946001600160a01b0390911693909291839183018282801561136e57602002820191906000526020600020905b81546001600160a01b03168152600190910190602001808311611350575b5050505050905093509350935093509193509193565b67ffffffffffffffff821660009081526006602052604090205482906001600160a01b0316806113c757604051630da30f6560e31b815260040160405180910390fd5b336001600160a01b038216146113fb5760405163901d952160e01b81526001600160a01b0382166004820152602401610968565b67ffffffffffffffff84166000908152600660205260409020600101546001600160a01b038481169116146109a25767ffffffffffffffff841660008181526006602090815260409182902060010180546001600160a01b0319166001600160a01b0388169081179091558251338152918201527f16af79d7ecfd9b6d6e5a0ddacdbcc62123ae4fb0ee026d1a4127e0bf601750219101611283565b61149f6124a5565b6114c97f2e8b98eef02e8df3bd27d1270ded3bea3d14db99c5234c7b14001a7fff957bcc82612483565b60005b600954811015610d9c57816001600160a01b0316600982815481106114f3576114f3612d60565b6000918252602090912001546001600160a01b0316036115c657600980546000919061152190600190612d2c565b8154811061153157611531612d60565b600091825260209091200154600980546001600160a01b03909216925082918490811061156057611560612d60565b9060005260206000200160006101000a8154816001600160a01b0302191690836001600160a01b03160217905550600980548061159f5761159f612d76565b600082815260209020810160001990810180546001600160a01b0319169055019055505050565b806115d081612d8c565b9150506114cc565b60008281526001602052604081206115f09083612551565b9392505050565b6004805460009167ffffffffffffffff909116908261161583612da5565b82546101009290920a67ffffffffffffffff818102199093169183160217909155600454169050600080604051908082528060200260200182016040528015611668578160200160208202803683370190505b506040805180820182526000808252602080830182815267ffffffffffffffff888116808552600784528685209551865591516001958601805467ffffffffffffffff19169190921617905584516060810186523381528083018481528187018881529285526006845295909320835181546001600160a01b03199081166001600160a01b03928316178355965195820180549097169516949094179094559251805194955090939192611724926002850192909101906129cd565b505060405133815267ffffffffffffffff841691507fb11f5bd59847fcbf709975a48b39d9a73c39005f186a0e7c9e16d071707426019060200160405180910390a250919050565b67ffffffffffffffff821660009081526006602052604090205482906001600160a01b0316806117af57604051630da30f6560e31b815260040160405180910390fd5b336001600160a01b038216146117e35760405163901d952160e01b81526001600160a01b0382166004820152602401610968565b6001600160a01b038316600090815260056020908152604080832067ffffffffffffffff80891685529252822054169003611865576040517ff0019fe600000000000000000000000000000000000000000000000000000000815267ffffffffffffffff851660048201526001600160a01b0384166024820152604401610968565b67ffffffffffffffff84166000908152600660209081526040808320600201805482518185028101850190935280835291929091908301828280156118d357602002820191906000526020600020905b81546001600160a01b031681526001909101906020018083116118b5575b505050505090506000600182516118ea9190612d2c565b905060005b8251811015611a1357856001600160a01b031683828151811061191457611914612d60565b60200260200101516001600160a01b031603611a0157600083838151811061193e5761193e612d60565b6020026020010151905080600660008a67ffffffffffffffff1667ffffffffffffffff168152602001908152602001600020600201838154811061198457611984612d60565b600091825260208083209190910180546001600160a01b0319166001600160a01b03949094169390931790925567ffffffffffffffff8a1681526006909152604090206002018054806119d9576119d9612d76565b600082815260209020810160001990810180546001600160a01b031916905501905550611a13565b80611a0b81612d8c565b9150506118ef565b506001600160a01b038516600081815260056020908152604080832067ffffffffffffffff8b1680855290835292819020805467ffffffffffffffff191690555192835290917fa4be0a97eff918a7bcc570a09d2a8812983d49f7cd84d1f29a8148cf0ed401e69101611021565b60008181526001602052604081206108c59061255d565b600082815260208190526040902060010154611ab381612457565b610bb88383612483565b67ffffffffffffffff81166000908152600660209081526040808320815160608101835281546001600160a01b0390811682526001830154168185015260028201805484518187028101870186528181528796939586019390929190830182828015611b5257602002820191906000526020600020905b81546001600160a01b03168152600190910190602001808311611b34575b505050505081525050905060005b816040015151811015611cc75760005b600954811015611cb45760098181548110611b8d57611b8d612d60565b600091825260209091200154604084015180516001600160a01b0390921691631a892832919085908110611bc357611bc3612d60565b6020026020010151876005600088604001518881518110611be657611be6612d60565b6020908102919091018101516001600160a01b039081168352828201939093526040918201600090812067ffffffffffffffff8e81168352925282902054915160e087901b6001600160e01b03191681529490921660048501529181166024840152166044820152606401602060405180830381865afa158015611c6e573d6000803e3d6000fd5b505050506040513d601f19601f82011682018060405250810190611c929190612de2565b15611ca257506001949350505050565b80611cac81612d8c565b915050611b70565b5080611cbf81612d8c565b915050611b60565b5060009392505050565b7f2e8b98eef02e8df3bd27d1270ded3bea3d14db99c5234c7b14001a7fff957bcc611cfb81612457565b67ffffffffffffffff841660009081526007602052604090205483811015611d3657604051631e9acf1760e31b815260040160405180910390fd5b67ffffffffffffffff851660009081526007602052604081208054869290611d5f908490612d2c565b909155505067ffffffffffffffff8086166000908152600760205260408120600190810180549193909291611d9691859116612d3f565b92506101000a81548167ffffffffffffffff021916908367ffffffffffffffff16021790555060006064600460089054906101000a900460ff1660ff1686611dde9190612e04565b611de89190612e23565b9050611df48186612d2c565b6001600160a01b03851660009081526008602052604081208054909190611e1c908490612d19565b90915550508015611eab57604051600090819083908281818185825af1925050503d8060008114611e69576040519150601f19603f3d011682016040523d82523d6000602084013e611e6e565b606091505b5050905080611ea9576040517f0e27e65d00000000000000000000000000000000000000000000000000000000815260040160405180910390fd5b505b67ffffffffffffffff86167f1aa2ced328cf62f816244b343d21e32b609f2651bf5a7a593fca245d3cfd020483611ee28882612d2c565b6040805192835260208301919091528101849052606001611021565b611f066124a5565b6001600160a01b038116611f825760405162461bcd60e51b815260206004820152602660248201527f4f776e61626c653a206e6577206f776e657220697320746865207a65726f206160448201527f64647265737300000000000000000000000000000000000000000000000000006064820152608401610968565b611f8b816124ff565b50565b611f966124a5565b60005b60095481101561201e57816001600160a01b031660098281548110611fc057611fc0612d60565b6000918252602090912001546001600160a01b03160361200c576040517f59f4e0cc00000000000000000000000000000000000000000000000000000000815260040160405180910390fd5b8061201681612d8c565b915050611f99565b506120497f2e8b98eef02e8df3bd27d1270ded3bea3d14db99c5234c7b14001a7fff957bcc82612461565b600980546001810182556000919091527f6e1540171b6c0c960b71a7020d9f60077f6af931a8bbf590da0223dacf75c7af0180546001600160a01b0319166001600160a01b0392909216919091179055565b6000828152602081815260408083206001600160a01b038516845290915290205460ff16610d9c576000828152602081815260408083206001600160a01b03851684529091529020805460ff191660011790556120f53390565b6001600160a01b0316816001600160a01b0316837f2f8788117e7eff1d82e926ec794901d17c78024a50270940304540a733656f0d60405160405180910390a45050565b60006115f0836001600160a01b038416612567565b60006001600160e01b031982167f7965db0b0000000000000000000000000000000000000000000000000000000014806108c557507f01ffc9a7000000000000000000000000000000000000000000000000000000006001600160e01b03198316146108c5565b67ffffffffffffffff82166000908152600660209081526040808320815160608101835281546001600160a01b0390811682526001830154168185015260028201805484518187028101870186528181529295939486019383018282801561224657602002820191906000526020600020905b81546001600160a01b03168152600190910190602001808311612228575b5050509190925250505067ffffffffffffffff808516600090815260076020908152604080832081518083019092528054808352600190910154909416918101919091529293505b8360400151518110156123105760056000856040015183815181106122b5576122b5612d60565b6020908102919091018101516001600160a01b03168252818101929092526040908101600090812067ffffffffffffffff8a1682529092529020805467ffffffffffffffff191690558061230881612d8c565b91505061228e565b5067ffffffffffffffff8516600090815260066020526040812080546001600160a01b031990811682556001820180549091169055906123536002830182612a32565b505067ffffffffffffffff85166000908152600760205260408120818155600101805467ffffffffffffffff1916905560038054839290612395908490612d2c565b90915550506040516000906001600160a01b0386169083908381818185875af1925050503d80600081146123e5576040519150601f19603f3d011682016040523d82523d6000602084013e6123ea565b606091505b505090508061240c57604051631e9acf1760e31b815260040160405180910390fd5b604080516001600160a01b03871681526020810184905267ffffffffffffffff8816917fa4b415eea92d547f572903f94d46c3f89d4accdd251f08b275660d0b2b8b9bb59101611021565b611f8b81336125b6565b61246b828261209b565b6000828152600160205260409020610bb89082612139565b61248d8282612629565b6000828152600160205260409020610bb890826126a8565b6002546001600160a01b031633146110e75760405162461bcd60e51b815260206004820181905260248201527f4f776e61626c653a2063616c6c6572206973206e6f7420746865206f776e65726044820152606401610968565b600280546001600160a01b038381166001600160a01b0319831681179093556040519116919082907f8be0079c531659141344cd1fd0a4f28419497f9722a3daafe3b4186f6b6457e090600090a35050565b60006115f083836126bd565b60006108c5825490565b60008181526001830160205260408120546125ae575081546001818101845560008481526020808220909301849055845484825282860190935260409020919091556108c5565b5060006108c5565b6000828152602081815260408083206001600160a01b038516845290915290205460ff16610d9c576125e7816126e7565b6125f28360206126f9565b604051602001612603929190612e45565b60408051601f198184030181529082905262461bcd60e51b825261096891600401612b4a565b6000828152602081815260408083206001600160a01b038516845290915290205460ff1615610d9c576000828152602081815260408083206001600160a01b0385168085529252808320805460ff1916905551339285917ff6391f5c32d9c69d2a47ea670b442974b53935d1edc7fd64eb21e047a839171b9190a45050565b60006115f0836001600160a01b0384166128da565b60008260000182815481106126d4576126d4612d60565b9060005260206000200154905092915050565b60606108c56001600160a01b03831660145b60606000612708836002612e04565b612713906002612d19565b67ffffffffffffffff81111561272b5761272b612dcc565b6040519080825280601f01601f191660200182016040528015612755576020820181803683370190505b5090507f30000000000000000000000000000000000000000000000000000000000000008160008151811061278c5761278c612d60565b60200101906001600160f81b031916908160001a9053507f7800000000000000000000000000000000000000000000000000000000000000816001815181106127d7576127d7612d60565b60200101906001600160f81b031916908160001a90535060006127fb846002612e04565b612806906001612d19565b90505b600181111561288b577f303132333435363738396162636465660000000000000000000000000000000085600f166010811061284757612847612d60565b1a60f81b82828151811061285d5761285d612d60565b60200101906001600160f81b031916908160001a90535060049490941c9361288481612ec6565b9050612809565b5083156115f05760405162461bcd60e51b815260206004820181905260248201527f537472696e67733a20686578206c656e67746820696e73756666696369656e746044820152606401610968565b600081815260018301602052604081205480156129c35760006128fe600183612d2c565b855490915060009061291290600190612d2c565b905081811461297757600086600001828154811061293257612932612d60565b906000526020600020015490508087600001848154811061295557612955612d60565b6000918252602080832090910192909255918252600188019052604090208390555b855486908061298857612988612d76565b6001900381819060005260206000200160009055905585600101600086815260200190815260200160002060009055600193505050506108c5565b60009150506108c5565b828054828255906000526020600020908101928215612a22579160200282015b82811115612a2257825182546001600160a01b0319166001600160a01b039091161782556020909201916001909101906129ed565b50612a2e929150612a4c565b5090565b5080546000825590600052602060002090810190611f8b91905b5b80821115612a2e5760008155600101612a4d565b600060208284031215612a7357600080fd5b81356001600160e01b0319811681146115f057600080fd5b600060208284031215612a9d57600080fd5b5035919050565b803567ffffffffffffffff81168114612abc57600080fd5b919050565b80356001600160a01b0381168114612abc57600080fd5b60008060408385031215612aeb57600080fd5b612af483612aa4565b9150612b0260208401612ac1565b90509250929050565b600060208284031215612b1d57600080fd5b6115f082612aa4565b60005b83811015612b41578181015183820152602001612b29565b50506000910152565b6020815260008251806020840152612b69816040850160208701612b26565b601f01601f19169190910160400192915050565b60008060408385031215612b9057600080fd5b82359150612b0260208401612ac1565b60008060408385031215612bb357600080fd5b612bbc83612ac1565b9150612b0260208401612aa4565b60008060408385031215612bdd57600080fd5b612be683612aa4565b946020939093013593505050565b600060208284031215612c0657600080fd5b813560ff811681146115f057600080fd5b600060208284031215612c2957600080fd5b6115f082612ac1565b600060808201868352602067ffffffffffffffff8716818501526001600160a01b0380871660408601526080606086015282865180855260a087019150838801945060005b81811015612c95578551841683529484019491840191600101612c77565b50909a9950505050505050505050565b60008060408385031215612cb857600080fd5b50508035926020909101359150565b600080600060608486031215612cdc57600080fd5b612ce584612aa4565b925060208401359150612cfa60408501612ac1565b90509250925092565b634e487b7160e01b600052601160045260246000fd5b808201808211156108c5576108c5612d03565b818103818111156108c5576108c5612d03565b67ffffffffffffffff818116838216019080821115610e5057610e50612d03565b634e487b7160e01b600052603260045260246000fd5b634e487b7160e01b600052603160045260246000fd5b600060018201612d9e57612d9e612d03565b5060010190565b600067ffffffffffffffff808316818103612dc257612dc2612d03565b6001019392505050565b634e487b7160e01b600052604160045260246000fd5b600060208284031215612df457600080fd5b815180151581146115f057600080fd5b6000816000190483118215151615612e1e57612e1e612d03565b500290565b600082612e4057634e487b7160e01b600052601260045260246000fd5b500490565b7f416363657373436f6e74726f6c3a206163636f756e7420000000000000000000815260008351612e7d816017850160208801612b26565b7f206973206d697373696e6720726f6c65200000000000000000000000000000006017918401918201528351612eba816028840160208801612b26565b01602801949350505050565b600081612ed557612ed5612d03565b50600019019056fea26469706673582212205323a88e9ea9b26d89136551567aa2d9778537cba3df2a97d183537504b429b664736f6c63430008100033",
  "devdoc": {
    "kind": "dev",
    "methods": {
      "acceptAccountOwnerTransfer(uint64)": {
        "details": "will revert if original owner of accId has not requested that msg.sender become the new owner.",
        "params": {
          "accId": "- ID of the account"
        }
      },
      "addConsumer(uint64,address)": {
        "params": {
          "accId": "- ID of the account",
          "consumer": "- New consumer which can use the account"
        }
      },
      "cancelAccount(uint64,address)": {
        "params": {
          "accId": "- ID of the account",
          "to": "- Where to send the remaining KLAY to"
        }
      },
      "chargeFee(uint64,uint256,address)": {
        "params": {
          "accId": "- ID of the account",
          "amount": "- KLAY amount to be charged"
        }
      },
      "createAccount()": {
        "details": "You can manage the consumer set dynamically with addConsumer/removeConsumer.Note to fund the account, use deposit function.",
        "returns": {
          "_0": "accId - A unique account id."
        }
      },
      "deposit(uint64)": {
        "params": {
          "accId": "- ID of the account"
        }
      },
      "getAccount(uint64)": {
        "params": {
          "accId": "- ID of the account"
        },
        "returns": {
          "balance": "- KLAY balance of the account in juels.",
          "consumers": "- list of consumer address which are able to use this account.",
          "owner": "- owner of the account.",
          "reqCount": "- number of requests for this account, determines fee tier."
        }
      },
      "getAccountOwner(uint64)": {
        "params": {
          "accId": "- ID of the account"
        }
      },
      "getNonce(address,uint64)": {
        "params": {
          "accId": "- ID of the account",
          "consumer": "- Address of consumer registered under accId"
        }
      },
      "getRoleAdmin(bytes32)": {
        "details": "Returns the admin role that controls `role`. See {grantRole} and {revokeRole}. To change a role's admin, use {_setRoleAdmin}."
      },
      "getRoleMember(bytes32,uint256)": {
        "details": "Returns one of the accounts that have `role`. `index` must be a value between 0 and {getRoleMemberCount}, non-inclusive. Role bearers are not sorted in any particular way, and their ordering may change at any point. WARNING: When using {getRoleMember} and {getRoleMemberCount}, make sure you perform all queries on the same block. See the following https://forum.openzeppelin.com/t/iterating-over-elements-on-enumerableset-in-openzeppelin-contracts/2296[forum post] for more information."
      },
      "getRoleMemberCount(bytes32)": {
        "details": "Returns the number of accounts that have `role`. Can be used together with {getRoleMember} to enumerate all bearers of a role."
      },
      "getTotalBalance()": {
        "returns": {
          "_0": "balance - A unique account id."
        }
      },
      "grantRole(bytes32,address)": {
        "details": "Grants `role` to `account`. If `account` had not been already granted `role`, emits a {RoleGranted} event. Requirements: - the caller must have ``role``'s admin role. May emit a {RoleGranted} event."
      },
      "hasRole(bytes32,address)": {
        "details": "Returns `true` if `account` has been granted `role`."
      },
      "increaseNonce(address,uint64)": {
        "params": {
          "accId": "- ID of the account",
          "consumer": "- Address of consumer registered under accId"
        }
      },
      "nodeWithdraw(uint256)": {
        "params": {
          "amount": "- KLAY amount to be withdrawn"
        }
      },
      "owner()": {
        "details": "Returns the address of the current owner."
      },
      "pendingRequestExists(uint64)": {
        "details": "Looping is bounded to MAX_CONSUMERS*(number of keyhashes).Used to disable subscription canceling while outstanding request are present."
      },
      "removeConsumer(uint64,address)": {
        "params": {
          "accId": "- ID of the account",
          "consumer": "- Consumer to remove from the account"
        }
      },
      "renounceOwnership()": {
        "details": "Leaves the contract without owner. It will not be possible to call `onlyOwner` functions anymore. Can only be called by the current owner. NOTE: Renouncing ownership will leave the contract without an owner, thereby removing any functionality that is only available to the owner."
      },
      "renounceRole(bytes32,address)": {
        "details": "Revokes `role` from the calling account. Roles are often managed via {grantRole} and {revokeRole}: this function's purpose is to provide a mechanism for accounts to lose their privileges if they are compromised (such as when a trusted device is misplaced). If the calling account had been revoked `role`, emits a {RoleRevoked} event. Requirements: - the caller must be `account`. May emit a {RoleRevoked} event."
      },
      "requestAccountOwnerTransfer(uint64,address)": {
        "params": {
          "accId": "- ID of the account",
          "newOwner": "- proposed new owner of the account"
        }
      },
      "revokeRole(bytes32,address)": {
        "details": "Revokes `role` from `account`. If `account` had been granted `role`, emits a {RoleRevoked} event. Requirements: - the caller must have ``role``'s admin role. May emit a {RoleRevoked} event."
      },
      "supportsInterface(bytes4)": {
        "details": "See {IERC165-supportsInterface}."
      },
      "transferOwnership(address)": {
        "details": "Transfers ownership of the contract to a new account (`newOwner`). Can only be called by the current owner."
      },
      "typeAndVersion()": {
        "returns": {
          "_0": "Type and version string"
        }
      },
      "withdraw(uint64,uint256)": {
        "params": {
          "accId": "- ID of the account",
          "amount": "- KLAY amount to be withdrawn"
        }
      }
    },
    "version": 1
  },
  "userdoc": {
    "kind": "user",
    "methods": {
      "acceptAccountOwnerTransfer(uint64)": {
        "notice": "Request account owner transfer."
      },
      "addConsumer(uint64,address)": {
        "notice": "Add a consumer to an account."
      },
      "cancelAccount(uint64,address)": {
        "notice": "Cancel account"
      },
      "chargeFee(uint64,uint256,address)": {
        "notice": "Charge fee from service connected to account."
      },
      "createAccount()": {
        "notice": "Create an account."
      },
      "deposit(uint64)": {
        "notice": "Deposit KLAY to account.Anybody can deposit KLAY, there are no restrictions."
      },
      "getAccount(uint64)": {
        "notice": "Get an account."
      },
      "getAccountOwner(uint64)": {
        "notice": "Get address of account owner."
      },
      "getNonce(address,uint64)": {
        "notice": "Return nonce value."
      },
      "getTotalBalance()": {
        "notice": "Return total amount of KLAY held in contract."
      },
      "increaseNonce(address,uint64)": {
        "notice": "Increase nonce for consumer registered under accId."
      },
      "nodeWithdraw(uint256)": {
        "notice": "Withdraw funds stored in contract.Can be executed only by WITHDRAWER_ROLE."
      },
      "removeConsumer(uint64,address)": {
        "notice": "Remove a consumer from a account."
      },
      "requestAccountOwnerTransfer(uint64,address)": {
        "notice": "Request account owner transfer."
      },
      "typeAndVersion()": {
        "notice": "The type and version of this contract"
      },
      "withdraw(uint64,uint256)": {
        "notice": "Withdraw KLAY from account.Only account owner can withdraw KLAY."
      }
    },
    "version": 1
  },
  "storageLayout": {
    "storage": [
      {
        "astId": 24,
        "contract": "src/v0.1/Prepayment.sol:Prepayment",
        "label": "_roles",
        "offset": 0,
        "slot": "0",
        "type": "t_mapping(t_bytes32,t_struct(RoleData)19_storage)"
      },
      {
        "astId": 334,
        "contract": "src/v0.1/Prepayment.sol:Prepayment",
        "label": "_roleMembers",
        "offset": 0,
        "slot": "1",
        "type": "t_mapping(t_bytes32,t_struct(AddressSet)2075_storage)"
      },
      {
        "astId": 546,
        "contract": "src/v0.1/Prepayment.sol:Prepayment",
        "label": "_owner",
        "offset": 0,
        "slot": "2",
        "type": "t_address"
      },
      {
        "astId": 6029,
        "contract": "src/v0.1/Prepayment.sol:Prepayment",
        "label": "s_totalBalance",
        "offset": 0,
        "slot": "3",
        "type": "t_uint256"
      },
      {
        "astId": 6031,
        "contract": "src/v0.1/Prepayment.sol:Prepayment",
        "label": "s_currentAccId",
        "offset": 0,
        "slot": "4",
        "type": "t_uint64"
      },
      {
        "astId": 6034,
        "contract": "src/v0.1/Prepayment.sol:Prepayment",
        "label": "s_BurnRatio",
        "offset": 8,
        "slot": "4",
        "type": "t_uint8"
      },
      {
        "astId": 6040,
        "contract": "src/v0.1/Prepayment.sol:Prepayment",
        "label": "s_consumers",
        "offset": 0,
        "slot": "5",
        "type": "t_mapping(t_address,t_mapping(t_uint64,t_uint64))"
      },
      {
        "astId": 6045,
        "contract": "src/v0.1/Prepayment.sol:Prepayment",
        "label": "s_accountConfigs",
        "offset": 0,
        "slot": "6",
        "type": "t_mapping(t_uint64,t_struct(AccountConfig)6067_storage)"
      },
      {
        "astId": 6050,
        "contract": "src/v0.1/Prepayment.sol:Prepayment",
        "label": "s_accounts",
        "offset": 0,
        "slot": "7",
        "type": "t_mapping(t_uint64,t_struct(Account)6059_storage)"
      },
      {
        "astId": 6054,
        "contract": "src/v0.1/Prepayment.sol:Prepayment",
        "label": "s_nodes",
        "offset": 0,
        "slot": "8",
        "type": "t_mapping(t_address,t_uint256)"
      },
      {
        "astId": 6071,
        "contract": "src/v0.1/Prepayment.sol:Prepayment",
        "label": "s_coordinators",
        "offset": 0,
        "slot": "9",
        "type": "t_array(t_contract(CoordinatorBaseInterface)10322)dyn_storage"
      }
    ],
    "types": {
      "t_address": {
        "encoding": "inplace",
        "label": "address",
        "numberOfBytes": "20"
      },
      "t_array(t_address)dyn_storage": {
        "base": "t_address",
        "encoding": "dynamic_array",
        "label": "address[]",
        "numberOfBytes": "32"
      },
      "t_array(t_bytes32)dyn_storage": {
        "base": "t_bytes32",
        "encoding": "dynamic_array",
        "label": "bytes32[]",
        "numberOfBytes": "32"
      },
      "t_array(t_contract(CoordinatorBaseInterface)10322)dyn_storage": {
        "base": "t_contract(CoordinatorBaseInterface)10322",
        "encoding": "dynamic_array",
        "label": "contract CoordinatorBaseInterface[]",
        "numberOfBytes": "32"
      },
      "t_bool": {
        "encoding": "inplace",
        "label": "bool",
        "numberOfBytes": "1"
      },
      "t_bytes32": {
        "encoding": "inplace",
        "label": "bytes32",
        "numberOfBytes": "32"
      },
      "t_contract(CoordinatorBaseInterface)10322": {
        "encoding": "inplace",
        "label": "contract CoordinatorBaseInterface",
        "numberOfBytes": "20"
      },
      "t_mapping(t_address,t_bool)": {
        "encoding": "mapping",
        "key": "t_address",
        "label": "mapping(address => bool)",
        "numberOfBytes": "32",
        "value": "t_bool"
      },
      "t_mapping(t_address,t_mapping(t_uint64,t_uint64))": {
        "encoding": "mapping",
        "key": "t_address",
        "label": "mapping(address => mapping(uint64 => uint64))",
        "numberOfBytes": "32",
        "value": "t_mapping(t_uint64,t_uint64)"
      },
      "t_mapping(t_address,t_uint256)": {
        "encoding": "mapping",
        "key": "t_address",
        "label": "mapping(address => uint256)",
        "numberOfBytes": "32",
        "value": "t_uint256"
      },
      "t_mapping(t_bytes32,t_struct(AddressSet)2075_storage)": {
        "encoding": "mapping",
        "key": "t_bytes32",
        "label": "mapping(bytes32 => struct EnumerableSet.AddressSet)",
        "numberOfBytes": "32",
        "value": "t_struct(AddressSet)2075_storage"
      },
      "t_mapping(t_bytes32,t_struct(RoleData)19_storage)": {
        "encoding": "mapping",
        "key": "t_bytes32",
        "label": "mapping(bytes32 => struct AccessControl.RoleData)",
        "numberOfBytes": "32",
        "value": "t_struct(RoleData)19_storage"
      },
      "t_mapping(t_bytes32,t_uint256)": {
        "encoding": "mapping",
        "key": "t_bytes32",
        "label": "mapping(bytes32 => uint256)",
        "numberOfBytes": "32",
        "value": "t_uint256"
      },
      "t_mapping(t_uint64,t_struct(Account)6059_storage)": {
        "encoding": "mapping",
        "key": "t_uint64",
        "label": "mapping(uint64 => struct Prepayment.Account)",
        "numberOfBytes": "32",
        "value": "t_struct(Account)6059_storage"
      },
      "t_mapping(t_uint64,t_struct(AccountConfig)6067_storage)": {
        "encoding": "mapping",
        "key": "t_uint64",
        "label": "mapping(uint64 => struct Prepayment.AccountConfig)",
        "numberOfBytes": "32",
        "value": "t_struct(AccountConfig)6067_storage"
      },
      "t_mapping(t_uint64,t_uint64)": {
        "encoding": "mapping",
        "key": "t_uint64",
        "label": "mapping(uint64 => uint64)",
        "numberOfBytes": "32",
        "value": "t_uint64"
      },
      "t_struct(Account)6059_storage": {
        "encoding": "inplace",
        "label": "struct Prepayment.Account",
        "members": [
          {
            "astId": 6056,
            "contract": "src/v0.1/Prepayment.sol:Prepayment",
            "label": "balance",
            "offset": 0,
            "slot": "0",
            "type": "t_uint256"
          },
          {
            "astId": 6058,
            "contract": "src/v0.1/Prepayment.sol:Prepayment",
            "label": "reqCount",
            "offset": 0,
            "slot": "1",
            "type": "t_uint64"
          }
        ],
        "numberOfBytes": "64"
      },
      "t_struct(AccountConfig)6067_storage": {
        "encoding": "inplace",
        "label": "struct Prepayment.AccountConfig",
        "members": [
          {
            "astId": 6061,
            "contract": "src/v0.1/Prepayment.sol:Prepayment",
            "label": "owner",
            "offset": 0,
            "slot": "0",
            "type": "t_address"
          },
          {
            "astId": 6063,
            "contract": "src/v0.1/Prepayment.sol:Prepayment",
            "label": "requestedOwner",
            "offset": 0,
            "slot": "1",
            "type": "t_address"
          },
          {
            "astId": 6066,
            "contract": "src/v0.1/Prepayment.sol:Prepayment",
            "label": "consumers",
            "offset": 0,
            "slot": "2",
            "type": "t_array(t_address)dyn_storage"
          }
        ],
        "numberOfBytes": "96"
      },
      "t_struct(AddressSet)2075_storage": {
        "encoding": "inplace",
        "label": "struct EnumerableSet.AddressSet",
        "members": [
          {
            "astId": 2074,
            "contract": "src/v0.1/Prepayment.sol:Prepayment",
            "label": "_inner",
            "offset": 0,
            "slot": "0",
            "type": "t_struct(Set)1760_storage"
          }
        ],
        "numberOfBytes": "64"
      },
      "t_struct(RoleData)19_storage": {
        "encoding": "inplace",
        "label": "struct AccessControl.RoleData",
        "members": [
          {
            "astId": 16,
            "contract": "src/v0.1/Prepayment.sol:Prepayment",
            "label": "members",
            "offset": 0,
            "slot": "0",
            "type": "t_mapping(t_address,t_bool)"
          },
          {
            "astId": 18,
            "contract": "src/v0.1/Prepayment.sol:Prepayment",
            "label": "adminRole",
            "offset": 0,
            "slot": "1",
            "type": "t_bytes32"
          }
        ],
        "numberOfBytes": "64"
      },
      "t_struct(Set)1760_storage": {
        "encoding": "inplace",
        "label": "struct EnumerableSet.Set",
        "members": [
          {
            "astId": 1755,
            "contract": "src/v0.1/Prepayment.sol:Prepayment",
            "label": "_values",
            "offset": 0,
            "slot": "0",
            "type": "t_array(t_bytes32)dyn_storage"
          },
          {
            "astId": 1759,
            "contract": "src/v0.1/Prepayment.sol:Prepayment",
            "label": "_indexes",
            "offset": 0,
            "slot": "1",
            "type": "t_mapping(t_bytes32,t_uint256)"
          }
        ],
        "numberOfBytes": "64"
      },
      "t_uint256": {
        "encoding": "inplace",
        "label": "uint256",
        "numberOfBytes": "32"
      },
      "t_uint64": {
        "encoding": "inplace",
        "label": "uint64",
        "numberOfBytes": "8"
      },
      "t_uint8": {
        "encoding": "inplace",
        "label": "uint8",
        "numberOfBytes": "1"
      }
    }
  }
}