{
  "address": "0xf37a736b476fCEaB261371A3B3B330772630b0bF",
  "abi": [
    {
      "inputs": [
        {
          "internalType": "address",
          "name": "protocolFeeRecipient",
          "type": "address"
        }
      ],
      "stateMutability": "nonpayable",
      "type": "constructor"
    },
    {
      "inputs": [],
      "name": "BurnFeeFailed",
      "type": "error"
    },
    {
      "inputs": [],
      "name": "CoordinatorExists",
      "type": "error"
    },
    {
      "inputs": [],
      "name": "FailedToDeposit",
      "type": "error"
    },
    {
      "inputs": [
        {
          "internalType": "uint64",
          "name": "accId",
          "type": "uint64"
        }
      ],
      "name": "FailedToWithdraw",
      "type": "error"
    },
    {
      "inputs": [
        {
          "internalType": "uint64",
          "name": "accId",
          "type": "uint64"
        }
      ],
      "name": "FailedToWithdrawFromTemporaryAccount",
      "type": "error"
    },
    {
      "inputs": [],
      "name": "InsufficientBalance",
      "type": "error"
    },
    {
      "inputs": [],
      "name": "InvalidAccount",
      "type": "error"
    },
    {
      "inputs": [],
      "name": "InvalidCoordinator",
      "type": "error"
    },
    {
      "inputs": [],
      "name": "MustBeAccountOwner",
      "type": "error"
    },
    {
      "inputs": [],
      "name": "OperatorFeeFailed",
      "type": "error"
    },
    {
      "inputs": [],
      "name": "PendingRequestExists",
      "type": "error"
    },
    {
      "inputs": [],
      "name": "ProtocolFeeFailed",
      "type": "error"
    },
    {
      "inputs": [],
      "name": "RatioOutOfBounds",
      "type": "error"
    },
    {
      "inputs": [],
      "name": "TooHighFeeRatio",
      "type": "error"
    },
    {
      "anonymous": false,
      "inputs": [
        {
          "indexed": true,
          "internalType": "uint64",
          "name": "accId",
          "type": "uint64"
        },
        {
          "indexed": false,
          "internalType": "uint256",
          "name": "oldBalance",
          "type": "uint256"
        },
        {
          "indexed": false,
          "internalType": "uint256",
          "name": "newBalance",
          "type": "uint256"
        }
      ],
      "name": "AccountBalanceDecreased",
      "type": "event"
    },
    {
      "anonymous": false,
      "inputs": [
        {
          "indexed": true,
          "internalType": "uint64",
          "name": "accId",
          "type": "uint64"
        },
        {
          "indexed": false,
          "internalType": "uint256",
          "name": "oldBalance",
          "type": "uint256"
        },
        {
          "indexed": false,
          "internalType": "uint256",
          "name": "newBalance",
          "type": "uint256"
        }
      ],
      "name": "AccountBalanceIncreased",
      "type": "event"
    },
    {
      "anonymous": false,
      "inputs": [
        {
          "indexed": true,
          "internalType": "uint64",
          "name": "accId",
          "type": "uint64"
        },
        {
          "indexed": false,
          "internalType": "address",
          "name": "to",
          "type": "address"
        },
        {
          "indexed": false,
          "internalType": "uint256",
          "name": "amount",
          "type": "uint256"
        }
      ],
      "name": "AccountCanceled",
      "type": "event"
    },
    {
      "anonymous": false,
      "inputs": [
        {
          "indexed": true,
          "internalType": "uint64",
          "name": "accId",
          "type": "uint64"
        },
        {
          "indexed": false,
          "internalType": "address",
          "name": "consumer",
          "type": "address"
        }
      ],
      "name": "AccountConsumerAdded",
      "type": "event"
    },
    {
      "anonymous": false,
      "inputs": [
        {
          "indexed": true,
          "internalType": "uint64",
          "name": "accId",
          "type": "uint64"
        },
        {
          "indexed": false,
          "internalType": "address",
          "name": "consumer",
          "type": "address"
        }
      ],
      "name": "AccountConsumerRemoved",
      "type": "event"
    },
    {
      "anonymous": false,
      "inputs": [
        {
          "indexed": true,
          "internalType": "uint64",
          "name": "accId",
          "type": "uint64"
        },
        {
          "indexed": false,
          "internalType": "address",
          "name": "account",
          "type": "address"
        },
        {
          "indexed": false,
          "internalType": "address",
          "name": "owner",
          "type": "address"
        }
      ],
      "name": "AccountCreated",
      "type": "event"
    },
    {
      "anonymous": false,
      "inputs": [
        {
          "indexed": true,
          "internalType": "uint64",
          "name": "accId",
          "type": "uint64"
        },
        {
          "indexed": false,
          "internalType": "address",
          "name": "from",
          "type": "address"
        },
        {
          "indexed": false,
          "internalType": "address",
          "name": "to",
          "type": "address"
        }
      ],
      "name": "AccountOwnerTransferRequested",
      "type": "event"
    },
    {
      "anonymous": false,
      "inputs": [
        {
          "indexed": true,
          "internalType": "uint64",
          "name": "accId",
          "type": "uint64"
        },
        {
          "indexed": false,
          "internalType": "address",
          "name": "from",
          "type": "address"
        },
        {
          "indexed": false,
          "internalType": "address",
          "name": "to",
          "type": "address"
        }
      ],
      "name": "AccountOwnerTransferred",
      "type": "event"
    },
    {
      "anonymous": false,
      "inputs": [
        {
          "indexed": false,
          "internalType": "uint8",
          "name": "ratio",
          "type": "uint8"
        }
      ],
      "name": "BurnRatioSet",
      "type": "event"
    },
    {
      "anonymous": false,
      "inputs": [
        {
          "indexed": true,
          "internalType": "uint64",
          "name": "accId",
          "type": "uint64"
        },
        {
          "indexed": false,
          "internalType": "uint256",
          "name": "amount",
          "type": "uint256"
        }
      ],
      "name": "BurnedFee",
      "type": "event"
    },
    {
      "anonymous": false,
      "inputs": [
        {
          "indexed": false,
          "internalType": "address",
          "name": "coordinator",
          "type": "address"
        }
      ],
      "name": "CoordinatorAdded",
      "type": "event"
    },
    {
      "anonymous": false,
      "inputs": [
        {
          "indexed": false,
          "internalType": "address",
          "name": "coordinator",
          "type": "address"
        }
      ],
      "name": "CoordinatorRemoved",
      "type": "event"
    },
    {
      "anonymous": false,
      "inputs": [
        {
          "indexed": true,
          "internalType": "address",
          "name": "previousOwner",
          "type": "address"
        },
        {
          "indexed": true,
          "internalType": "address",
          "name": "newOwner",
          "type": "address"
        }
      ],
      "name": "OwnershipTransferred",
      "type": "event"
    },
    {
      "anonymous": false,
      "inputs": [
        {
          "indexed": false,
          "internalType": "uint8",
          "name": "ratio",
          "type": "uint8"
        }
      ],
      "name": "ProtocolFeeRatioSet",
      "type": "event"
    },
    {
      "anonymous": false,
      "inputs": [
        {
          "indexed": true,
          "internalType": "uint64",
          "name": "accId",
          "type": "uint64"
        },
        {
          "indexed": false,
          "internalType": "address",
          "name": "owner",
          "type": "address"
        }
      ],
      "name": "TemporaryAccountCreated",
      "type": "event"
    },
    {
      "inputs": [],
      "name": "MAX_RATIO",
      "outputs": [
        {
          "internalType": "uint8",
          "name": "",
          "type": "uint8"
        }
      ],
      "stateMutability": "view",
      "type": "function"
    },
    {
      "inputs": [],
      "name": "MIN_RATIO",
      "outputs": [
        {
          "internalType": "uint8",
          "name": "",
          "type": "uint8"
        }
      ],
      "stateMutability": "view",
      "type": "function"
    },
    {
      "inputs": [
        {
          "internalType": "uint64",
          "name": "accId",
          "type": "uint64"
        }
      ],
      "name": "acceptAccountOwnerTransfer",
      "outputs": [],
      "stateMutability": "nonpayable",
      "type": "function"
    },
    {
      "inputs": [
        {
          "internalType": "uint64",
          "name": "accId",
          "type": "uint64"
        },
        {
          "internalType": "address",
          "name": "consumer",
          "type": "address"
        }
      ],
      "name": "addConsumer",
      "outputs": [],
      "stateMutability": "nonpayable",
      "type": "function"
    },
    {
      "inputs": [
        {
          "internalType": "address",
          "name": "coordinator",
          "type": "address"
        }
      ],
      "name": "addCoordinator",
      "outputs": [],
      "stateMutability": "nonpayable",
      "type": "function"
    },
    {
      "inputs": [
        {
          "internalType": "uint64",
          "name": "accId",
          "type": "uint64"
        },
        {
          "internalType": "address",
          "name": "to",
          "type": "address"
        }
      ],
      "name": "cancelAccount",
      "outputs": [],
      "stateMutability": "nonpayable",
      "type": "function"
    },
    {
      "inputs": [
        {
          "internalType": "uint64",
          "name": "accId",
          "type": "uint64"
        },
        {
          "internalType": "uint256",
          "name": "amount",
          "type": "uint256"
        }
      ],
      "name": "chargeFee",
      "outputs": [
        {
          "internalType": "uint256",
          "name": "",
          "type": "uint256"
        }
      ],
      "stateMutability": "nonpayable",
      "type": "function"
    },
    {
      "inputs": [
        {
          "internalType": "uint64",
          "name": "accId",
          "type": "uint64"
        }
      ],
      "name": "chargeFeeTemporary",
      "outputs": [
        {
          "internalType": "uint256",
          "name": "totalAmount",
          "type": "uint256"
        },
        {
          "internalType": "uint256",
          "name": "operatorAmount",
          "type": "uint256"
        }
      ],
      "stateMutability": "nonpayable",
      "type": "function"
    },
    {
      "inputs": [
        {
          "internalType": "uint64",
          "name": "accId",
          "type": "uint64"
        },
        {
          "internalType": "uint256",
          "name": "operatorFee",
          "type": "uint256"
        },
        {
          "internalType": "address",
          "name": "operatorFeeRecipient",
          "type": "address"
        }
      ],
      "name": "chargeOperatorFee",
      "outputs": [],
      "stateMutability": "nonpayable",
      "type": "function"
    },
    {
      "inputs": [
        {
          "internalType": "uint256",
          "name": "operatorFee",
          "type": "uint256"
        },
        {
          "internalType": "address",
          "name": "operatorFeeRecipient",
          "type": "address"
        }
      ],
      "name": "chargeOperatorFeeTemporary",
      "outputs": [],
      "stateMutability": "nonpayable",
      "type": "function"
    },
    {
      "inputs": [],
      "name": "createAccount",
      "outputs": [
        {
          "internalType": "uint64",
          "name": "",
          "type": "uint64"
        }
      ],
      "stateMutability": "nonpayable",
      "type": "function"
    },
    {
      "inputs": [
        {
          "internalType": "address",
          "name": "owner",
          "type": "address"
        }
      ],
      "name": "createTemporaryAccount",
      "outputs": [
        {
          "internalType": "uint64",
          "name": "",
          "type": "uint64"
        }
      ],
      "stateMutability": "nonpayable",
      "type": "function"
    },
    {
      "inputs": [
        {
          "internalType": "uint64",
          "name": "accId",
          "type": "uint64"
        }
      ],
      "name": "deposit",
      "outputs": [],
      "stateMutability": "payable",
      "type": "function"
    },
    {
      "inputs": [
        {
          "internalType": "uint64",
          "name": "accId",
          "type": "uint64"
        }
      ],
      "name": "depositTemporary",
      "outputs": [],
      "stateMutability": "payable",
      "type": "function"
    },
    {
      "inputs": [
        {
          "internalType": "uint64",
          "name": "accId",
          "type": "uint64"
        }
      ],
      "name": "getAccount",
      "outputs": [
        {
          "internalType": "uint256",
          "name": "balance",
          "type": "uint256"
        },
        {
          "internalType": "uint64",
          "name": "reqCount",
          "type": "uint64"
        },
        {
          "internalType": "address",
          "name": "owner",
          "type": "address"
        },
        {
          "internalType": "address[]",
          "name": "consumers",
          "type": "address[]"
        }
      ],
      "stateMutability": "view",
      "type": "function"
    },
    {
      "inputs": [
        {
          "internalType": "uint64",
          "name": "accId",
          "type": "uint64"
        }
      ],
      "name": "getAccountOwner",
      "outputs": [
        {
          "internalType": "address",
          "name": "",
          "type": "address"
        }
      ],
      "stateMutability": "view",
      "type": "function"
    },
    {
      "inputs": [
        {
          "internalType": "uint64",
          "name": "accId",
          "type": "uint64"
        }
      ],
      "name": "getBalance",
      "outputs": [
        {
          "internalType": "uint256",
          "name": "balance",
          "type": "uint256"
        }
      ],
      "stateMutability": "view",
      "type": "function"
    },
    {
      "inputs": [],
      "name": "getBurnFeeRatio",
      "outputs": [
        {
          "internalType": "uint8",
          "name": "",
          "type": "uint8"
        }
      ],
      "stateMutability": "view",
      "type": "function"
    },
    {
      "inputs": [],
      "name": "getCoordinators",
      "outputs": [
        {
          "internalType": "contract ICoordinatorBase[]",
          "name": "",
          "type": "address[]"
        }
      ],
      "stateMutability": "view",
      "type": "function"
    },
    {
      "inputs": [
        {
          "internalType": "uint64",
          "name": "accId",
          "type": "uint64"
        },
        {
          "internalType": "address",
          "name": "consumer",
          "type": "address"
        }
      ],
      "name": "getNonce",
      "outputs": [
        {
          "internalType": "uint64",
          "name": "",
          "type": "uint64"
        }
      ],
      "stateMutability": "view",
      "type": "function"
    },
    {
      "inputs": [],
      "name": "getProtocolFeeRatio",
      "outputs": [
        {
          "internalType": "uint8",
          "name": "",
          "type": "uint8"
        }
      ],
      "stateMutability": "view",
      "type": "function"
    },
    {
      "inputs": [],
      "name": "getProtocolFeeRecipient",
      "outputs": [
        {
          "internalType": "address",
          "name": "",
          "type": "address"
        }
      ],
      "stateMutability": "view",
      "type": "function"
    },
    {
      "inputs": [
        {
          "internalType": "uint64",
          "name": "accId",
          "type": "uint64"
        }
      ],
      "name": "getReqCount",
      "outputs": [
        {
          "internalType": "uint64",
          "name": "",
          "type": "uint64"
        }
      ],
      "stateMutability": "view",
      "type": "function"
    },
    {
      "inputs": [
        {
          "internalType": "uint64",
          "name": "accId",
          "type": "uint64"
        },
        {
          "internalType": "address",
          "name": "consumer",
          "type": "address"
        }
      ],
      "name": "increaseNonce",
      "outputs": [
        {
          "internalType": "uint64",
          "name": "",
          "type": "uint64"
        }
      ],
      "stateMutability": "nonpayable",
      "type": "function"
    },
    {
      "inputs": [
        {
          "internalType": "uint64",
          "name": "accId",
          "type": "uint64"
        },
        {
          "internalType": "address",
          "name": "consumer",
          "type": "address"
        }
      ],
      "name": "isValidAccount",
      "outputs": [
        {
          "internalType": "bool",
          "name": "",
          "type": "bool"
        }
      ],
      "stateMutability": "view",
      "type": "function"
    },
    {
      "inputs": [],
      "name": "owner",
      "outputs": [
        {
          "internalType": "address",
          "name": "",
          "type": "address"
        }
      ],
      "stateMutability": "view",
      "type": "function"
    },
    {
      "inputs": [
        {
          "internalType": "uint64",
          "name": "accId",
          "type": "uint64"
        }
      ],
      "name": "pendingRequestExists",
      "outputs": [
        {
          "internalType": "bool",
          "name": "",
          "type": "bool"
        }
      ],
      "stateMutability": "view",
      "type": "function"
    },
    {
      "inputs": [
        {
          "internalType": "uint64",
          "name": "accId",
          "type": "uint64"
        }
      ],
      "name": "pendingRequestExistsTemporary",
      "outputs": [
        {
          "internalType": "bool",
          "name": "",
          "type": "bool"
        }
      ],
      "stateMutability": "view",
      "type": "function"
    },
    {
      "inputs": [
        {
          "internalType": "uint64",
          "name": "accId",
          "type": "uint64"
        },
        {
          "internalType": "address",
          "name": "consumer",
          "type": "address"
        }
      ],
      "name": "removeConsumer",
      "outputs": [],
      "stateMutability": "nonpayable",
      "type": "function"
    },
    {
      "inputs": [
        {
          "internalType": "address",
          "name": "coordinator",
          "type": "address"
        }
      ],
      "name": "removeCoordinator",
      "outputs": [],
      "stateMutability": "nonpayable",
      "type": "function"
    },
    {
      "inputs": [],
      "name": "renounceOwnership",
      "outputs": [],
      "stateMutability": "nonpayable",
      "type": "function"
    },
    {
      "inputs": [
        {
          "internalType": "uint64",
          "name": "accId",
          "type": "uint64"
        },
        {
          "internalType": "address",
          "name": "requestedOwner",
          "type": "address"
        }
      ],
      "name": "requestAccountOwnerTransfer",
      "outputs": [],
      "stateMutability": "nonpayable",
      "type": "function"
    },
    {
      "inputs": [
        {
          "internalType": "uint256",
          "name": "",
          "type": "uint256"
        }
      ],
      "name": "sCoordinators",
      "outputs": [
        {
          "internalType": "contract ICoordinatorBase",
          "name": "",
          "type": "address"
        }
      ],
      "stateMutability": "view",
      "type": "function"
    },
    {
      "inputs": [
        {
          "internalType": "uint8",
          "name": "ratio",
          "type": "uint8"
        }
      ],
      "name": "setBurnFeeRatio",
      "outputs": [],
      "stateMutability": "nonpayable",
      "type": "function"
    },
    {
      "inputs": [
        {
          "internalType": "uint8",
          "name": "ratio",
          "type": "uint8"
        }
      ],
      "name": "setProtocolFeeRatio",
      "outputs": [],
      "stateMutability": "nonpayable",
      "type": "function"
    },
    {
      "inputs": [
        {
          "internalType": "address",
          "name": "protocolFeeRecipient",
          "type": "address"
        }
      ],
      "name": "setProtocolFeeRecipient",
      "outputs": [],
      "stateMutability": "nonpayable",
      "type": "function"
    },
    {
      "inputs": [
        {
          "internalType": "address",
          "name": "newOwner",
          "type": "address"
        }
      ],
      "name": "transferOwnership",
      "outputs": [],
      "stateMutability": "nonpayable",
      "type": "function"
    },
    {
      "inputs": [],
      "name": "typeAndVersion",
      "outputs": [
        {
          "internalType": "string",
          "name": "",
          "type": "string"
        }
      ],
      "stateMutability": "pure",
      "type": "function"
    },
    {
      "inputs": [
        {
          "internalType": "uint64",
          "name": "accId",
          "type": "uint64"
        },
        {
          "internalType": "uint256",
          "name": "amount",
          "type": "uint256"
        }
      ],
      "name": "withdraw",
      "outputs": [],
      "stateMutability": "nonpayable",
      "type": "function"
    },
    {
      "inputs": [
        {
          "internalType": "uint64",
          "name": "accId",
          "type": "uint64"
        },
        {
          "internalType": "address payable",
          "name": "to",
          "type": "address"
        }
      ],
      "name": "withdrawTemporary",
      "outputs": [],
      "stateMutability": "nonpayable",
      "type": "function"
    }
  ],
  "transactionHash": "0x5c9e7d252dc3d7f6ef77ec7b8a507c4c913d587a02b0f73ad5bc383d8abc6182",
  "args": [
    "0xBcd4042DE499D14e55001CcbB24a551F3b954096"
  ],
  "numDeployments": 1,
  "solcInputHash": "287924cdab12013ae3fe30e077f4a3d5",
  "bytecode": "0x60806040526000805461ffff60a01b191661029960a11b1790553480156200002657600080fd5b50604051620048f6380380620048f68339810160408190526200004991620000ca565b62000054336200007a565b600180546001600160a01b0319166001600160a01b0392909216919091179055620000fc565b600080546001600160a01b038381166001600160a01b0319831681178455604051919092169283917f8be0079c531659141344cd1fd0a4f28419497f9722a3daafe3b4186f6b6457e09190a35050565b600060208284031215620000dd57600080fd5b81516001600160a01b0381168114620000f557600080fd5b9392505050565b6147ea806200010c6000396000f3fe608060405260043610620002f35760003560e01c8063734e892a116200018b5780639f87fad711620000db578063e521cb921162000089578063f026330a116200006c578063f026330a14620008ac578063f2fde38b14620008d1578063fbd6d77e14620008f657600080fd5b8063e521cb921462000862578063e82ad7d4146200088757600080fd5b8063bdde7f0011620000be578063bdde7f0014620007eb578063c49910e41462000810578063c9d2d7bf146200082757600080fd5b80639f87fad714620007a1578063a8329c0514620007c657600080fd5b806382e7b38c11620001395780638da5cb5b116200011c5780638da5cb5b146200074457806396ed7f4314620007645780639dca362f146200078957600080fd5b806382e7b38c14620006fa5780638cb5a0c0146200071f57600080fd5b80637c57492d116200016e5780637c57492d146200068b5780637f51282914620006b057806382d87af314620006d557600080fd5b8063734e892a146200062f57806377ae211a146200065457600080fd5b8063341b9e5a1162000247578063630eb8ab11620001f5578063715018a611620001d8578063715018a614620005d257806372c8fc0e14620005ea5780637341c10c146200060a57600080fd5b8063630eb8ab14620005965780636b19a19d14620005ad57600080fd5b80634a418973116200022a5780634a418973146200050c57806357f2eda7146200054a5780635d5d8d19146200056f57600080fd5b8063341b9e5a14620004b35780634338798314620004e757600080fd5b806315693e0a11620002a5578063190118b71162000288578063190118b7146200043357806326bb591b1462000471578063284be215146200049257600080fd5b806315693e0a14620003ae578063181f5a7714620003e457600080fd5b80630f0aeb8d11620002da5780630f0aeb8d146200034457806312207e6a146200037257806313765838146200039757600080fd5b8063048c865414620002f8578063080e221b146200031f575b600080fd5b3480156200030557600080fd5b506200031d6200031736600462002fb4565b6200091b565b005b3480156200032c57600080fd5b506200031d6200033e36600462003005565b620009fa565b3480156200035157600080fd5b506200035b600081565b60405160ff90911681526020015b60405180910390f35b3480156200037f57600080fd5b506200031d6200039136600462003043565b62000c4d565b6200031d620003a836600462003043565b62000da6565b348015620003bb57600080fd5b50620003d3620003cd36600462003043565b62000f33565b604051901515815260200162000369565b348015620003f157600080fd5b50604080518082018252600f81527f5072657061796d656e742076302e3100000000000000000000000000000000006020820152905162000369919062003063565b3480156200044057600080fd5b506200045862000452366004620030b3565b62001040565b6040516001600160401b03909116815260200162000369565b3480156200047e57600080fd5b50600054600160a01b900460ff166200035b565b3480156200049f57600080fd5b50600054600160a81b900460ff166200035b565b348015620004c057600080fd5b50620004d8620004d236600462003043565b62001115565b60405190815260200162000369565b348015620004f457600080fd5b506200031d62000506366004620030d3565b6200119d565b3480156200051957600080fd5b50620005316200052b36600462003043565b620013ae565b6040516001600160a01b03909116815260200162000369565b3480156200055757600080fd5b50620004d862000569366004620030d3565b62001431565b3480156200057c57600080fd5b5062000587620016b2565b60405162000369919062003102565b348015620005a357600080fd5b506200035b606481565b348015620005ba57600080fd5b506200031d620005cc36600462003151565b62001716565b348015620005df57600080fd5b506200031d620017dc565b348015620005f757600080fd5b506001546001600160a01b031662000531565b3480156200061757600080fd5b506200031d6200062936600462003005565b620017f4565b3480156200063c57600080fd5b50620003d36200064e36600462003005565b62001981565b3480156200066157600080fd5b50620006796200067336600462003043565b62001a69565b60405162000369949392919062003179565b3480156200069857600080fd5b506200031d620006aa36600462002fb4565b62001ba0565b348015620006bd57600080fd5b5062000458620006cf36600462003005565b62001c79565b348015620006e257600080fd5b506200031d620006f436600462003005565b62001d07565b3480156200070757600080fd5b506200031d62000719366004620031ed565b62001e91565b3480156200072c57600080fd5b506200031d6200073e366004620030b3565b62002022565b3480156200075157600080fd5b506000546001600160a01b031662000531565b3480156200077157600080fd5b50620004586200078336600462003043565b620021dd565b3480156200079657600080fd5b506200045862002279565b348015620007ae57600080fd5b506200031d620007c036600462003005565b62002382565b348015620007d357600080fd5b5062000458620007e536600462003005565b62002507565b348015620007f857600080fd5b50620005316200080a36600462003234565b62002604565b6200031d6200082136600462003043565b6200262f565b3480156200083457600080fd5b506200084c6200084636600462003043565b620026ad565b6040805192835260208301919091520162000369565b3480156200086f57600080fd5b506200031d62000881366004620030b3565b62002942565b3480156200089457600080fd5b50620003d3620008a636600462003043565b6200296e565b348015620008b957600080fd5b506200031d620008cb36600462003005565b62002bc3565b348015620008de57600080fd5b506200031d620008f0366004620030b3565b62002d71565b3480156200090357600080fd5b506200031d62000915366004620030b3565b62002e07565b6200092562002efa565b606460ff821611156200094b57604051634a580a4d60e01b815260040160405180910390fd5b6000546064906200096790600160a01b900460ff168362003264565b60ff1611156200098a5760405163767eca5f60e11b815260040160405180910390fd5b600080547fffffffffffffffffffff00ffffffffffffffffffffffffffffffffffffffffff16600160a81b60ff8416908102919091179091556040519081527f3b08a23561e30127f3db6d96a3d1fe7b80940eb91ff73ce0b16faedbdade7f28906020015b60405180910390a150565b6001600160401b038216600090815260056020908152604091829020548251631127a41d60e31b81529251859333936001600160a01b039093169263893d20e8926004808401938290030181865afa15801562000a5b573d6000803e3d6000fd5b505050506040513d601f19601f8201168201806040525081019062000a81919062003292565b6001600160a01b03161462000aa957604051636074361360e01b815260040160405180910390fd5b62000ab4836200296e565b1562000ad357604051631685ecdd60e31b815260040160405180910390fd5b6001600160401b0383166000908152600560209081526040808320548151629032ff60e51b815291516001600160a01b03909116939284926312065fe092600480830193928290030181865afa15801562000b32573d6000803e3d6000fd5b505050506040513d601f19601f8201168201806040525081019062000b589190620032b2565b6001600160401b0386166000908152600560205260409081902080546001600160a01b0319169055517fcdbb962f0000000000000000000000000000000000000000000000000000000081526001600160a01b0386811660048301529192509083169063cdbb962f90602401600060405180830381600087803b15801562000bdf57600080fd5b505af115801562000bf4573d6000803e3d6000fd5b5050604080516001600160a01b0388168152602081018590526001600160401b03891693507fa4b415eea92d547f572903f94d46c3f89d4accdd251f08b275660d0b2b8b9bb59250015b60405180910390a25050505050565b6001600160401b0381166000908152600560209081526040808320548151631127a41d60e31b815291516001600160a01b039091169333939092859263893d20e8926004808401939192918290030181865afa15801562000cb2573d6000803e3d6000fd5b505050506040513d601f19601f8201168201806040525081019062000cd8919062003292565b6040517f05aa772e0000000000000000000000000000000000000000000000000000000081526001600160a01b038481166004830152919250908416906305aa772e90602401600060405180830381600087803b15801562000d3957600080fd5b505af115801562000d4e573d6000803e3d6000fd5b5050604080516001600160a01b038086168252861660208201526001600160401b03881693507f048b267147cb3de127974a8d4590e362caeaf224016765e6fa656d3b9d441fa692500160405180910390a250505050565b6001600160401b0381166000908152600560205260409020546001600160a01b03168062000de757604051630da30f6560e31b815260040160405180910390fd5b60003490506000826001600160a01b03166312065fe06040518163ffffffff1660e01b8152600401602060405180830381865afa15801562000e2d573d6000803e3d6000fd5b505050506040513d601f19601f8201168201806040525081019062000e539190620032b2565b90506000836001600160a01b03163460405160006040518083038185875af1925050503d806000811462000ea4576040519150601f19603f3d011682016040523d82523d6000602084013e62000ea9565b606091505b505090508062000ee5576040517fa4790ee300000000000000000000000000000000000000000000000000000000815260040160405180910390fd5b6001600160401b0385167faf3d9fb1c57e7b7764b81db151a26af4f4eb375e7e3c7ee23d8adc3f149f760b8362000f1d8682620032cc565b6040805192835260208301919091520162000c3e565b6001600160401b0381166000908152600760205260408120600101546002546001600160a01b0390911690825b8181101562001035576002818154811062000f7f5762000f7f620032e2565b600091825260209091200154604051630d44941960e11b81526001600160a01b0385811660048301526001600160401b03881660248301526001604483015290911690631a89283290606401602060405180830381865afa15801562000fe9573d6000803e3d6000fd5b505050506040513d601f19601f820116820180604052508101906200100f919062003309565b156200102057506001949350505050565b806200102c8162003327565b91505062000f60565b506000949350505050565b60045460009081906200105e906001600160401b0316600162003343565b6004805467ffffffffffffffff19166001600160401b03831690811790915560408051808201825260008082526001600160a01b038881166020808501828152878552600782528685209551865551600195860180546001600160a01b03191691909416179092556006825291849020805460ff1916909317909255915191825292935090917f584978095899ecb25b0c1fe61f8fa93cc9359c5c1fea5e1276528aeec4aaaf43910160405180910390a292915050565b6001600160401b0381166000908152600560209081526040808320548151629032ff60e51b815291516001600160a01b03909116926312065fe092600480820193918290030181865afa15801562001171573d6000803e3d6000fd5b505050506040513d601f19601f82011682018060405250810190620011979190620032b2565b92915050565b6001600160401b038216600090815260056020908152604091829020548251631127a41d60e31b81529251859333936001600160a01b039093169263893d20e8926004808401938290030181865afa158015620011fe573d6000803e3d6000fd5b505050506040513d601f19601f8201168201806040525081019062001224919062003292565b6001600160a01b0316146200124c57604051636074361360e01b815260040160405180910390fd5b62001257836200296e565b156200127657604051631685ecdd60e31b815260040160405180910390fd5b6001600160401b0383166000908152600560205260408082205490517f2e1a7d4d0000000000000000000000000000000000000000000000000000000081526004810185905282916001600160a01b031690632e1a7d4d9060240160408051808303816000875af1158015620012f0573d6000803e3d6000fd5b505050506040513d601f19601f8201168201806040525081019062001316919062003366565b915091508162001362576040517f2aa6965e0000000000000000000000000000000000000000000000000000000081526001600160401b03861660048201526024015b60405180910390fd5b6001600160401b0385167f4c4d860a50e6fb83506f3f8c8a48b6430bf0725ab430db77c9fc0a6f4d19534c620013998684620032cc565b60408051918252602082018590520162000c3e565b6001600160401b0381166000908152600560209081526040808320548151631127a41d60e31b815291516001600160a01b039091169263893d20e892600480820193918290030181865afa1580156200140b573d6000803e3d6000fd5b505050506040513d601f19601f8201168201806040525081019062001197919062003292565b3360009081526003602052604081205460ff166200146257604051636188839760e01b815260040160405180910390fd5b6001600160401b0383166000908152600560209081526040808320548151629032ff60e51b815291516001600160a01b03909116939284926312065fe092600480830193928290030181865afa158015620014c1573d6000803e3d6000fd5b505050506040513d601f19601f82011682018060405250810190620014e79190620032b2565b9050838110156200150b57604051631e9acf1760e31b815260040160405180910390fd5b600080546064906200152890600160a01b900460ff168762003395565b620015349190620033b7565b60008054919250906064906200155590600160a81b900460ff168862003395565b620015619190620033b7565b6001546040517f619eea0000000000000000000000000000000000000000000000000000000000815260048101859052602481018390526001600160a01b03918216604482015291925085169063619eea0090606401600060405180830381600087803b158015620015d257600080fd5b505af1158015620015e7573d6000803e3d6000fd5b50505050866001600160401b03167f4c4d860a50e6fb83506f3f8c8a48b6430bf0725ab430db77c9fc0a6f4d19534c84838587620016269190620033da565b620016329190620033da565b6040805192835260208301919091520160405180910390a2866001600160401b03167f5c99b84ba0f813bdfcfc063ad296c6cf2e5eb1e9ef2b4f323849b035f93da616836040516200168691815260200190565b60405180910390a2806200169b8388620033da565b620016a79190620033da565b979650505050505050565b606060028054806020026020016040519081016040528092919081815260200182805480156200170c57602002820191906000526020600020905b81546001600160a01b03168152600190910190602001808311620016ed575b5050505050905090565b3360009081526003602052604090205460ff166200174757604051636188839760e01b815260040160405180910390fd5b6000816001600160a01b03168360405160006040518083038185875af1925050503d806000811462001796576040519150601f19603f3d011682016040523d82523d6000602084013e6200179b565b606091505b5050905080620017d7576040517fb7c1cac700000000000000000000000000000000000000000000000000000000815260040160405180910390fd5b505050565b620017e662002efa565b620017f2600062002f56565b565b6001600160401b038216600090815260056020908152604091829020548251631127a41d60e31b81529251859333936001600160a01b039093169263893d20e8926004808401938290030181865afa15801562001855573d6000803e3d6000fd5b505050506040513d601f19601f820116820180604052508101906200187b919062003292565b6001600160a01b031614620018a357604051636074361360e01b815260040160405180910390fd5b6001600160401b038316600090815260056020526040908190205490517f112940f90000000000000000000000000000000000000000000000000000000081526001600160a01b0384811660048301529091169063112940f990602401600060405180830381600087803b1580156200191b57600080fd5b505af115801562001930573d6000803e3d6000fd5b50506040516001600160a01b03851681526001600160401b03861692507f7894faa1f0036964938f730572ac59cb10a7300d75d21c8185b3331e563c1e0291506020015b60405180910390a2505050565b6001600160401b0382166000908152600560205260408120546001600160a01b031681811580159062001a285750604051632d0335ab60e01b81526001600160a01b038581166004830152831690632d0335ab90602401602060405180830381865afa158015620019f6573d6000803e3d6000fd5b505050506040513d601f19601f8201168201806040525081019062001a1c9190620033f0565b6001600160401b031615155b6001600160401b0386166000908152600760205260409020600101549091506001600160a01b03858116911614818062001a5f5750805b9695505050505050565b6001600160401b038116600090815260056020526040812054819081906060906001600160a01b0316801562001b1157806001600160a01b031663db613e816040518163ffffffff1660e01b8152600401600060405180830381865afa15801562001ad8573d6000803e3d6000fd5b505050506040513d6000823e601f3d908101601f1916820160405262001b029190810190620034c8565b94509450945094505062001b99565b6001600160401b03861660009081526006602052604090205460ff161562001b8057506001600160401b0385166000908152600760209081526040808320815180830190925280548083526001909101546001600160a01b031691909201819052909550909350915062001b99565b604051630da30f6560e31b815260040160405180910390fd5b9193509193565b62001baa62002efa565b606460ff8216111562001bd057604051634a580a4d60e01b815260040160405180910390fd5b60005460649062001bec90600160a81b900460ff168362003264565b60ff16111562001c0f5760405163767eca5f60e11b815260040160405180910390fd5b600080547fffffffffffffffffffffff00ffffffffffffffffffffffffffffffffffffffff16600160a01b60ff8416908102919091179091556040519081527fa88718c61da479d30fc74cc8fccfca36874ca55fd22e912db96d3e4f73da3f6190602001620009ef565b6001600160401b038216600090815260056020526040808220549051632d0335ab60e01b81526001600160a01b03848116600483015290911690632d0335ab90602401602060405180830381865afa15801562001cda573d6000803e3d6000fd5b505050506040513d601f19601f8201168201806040525081019062001d009190620033f0565b9392505050565b6001600160401b038216600090815260056020908152604091829020548251631127a41d60e31b81529251859333936001600160a01b039093169263893d20e8926004808401938290030181865afa15801562001d68573d6000803e3d6000fd5b505050506040513d601f19601f8201168201806040525081019062001d8e919062003292565b6001600160a01b03161462001db657604051636074361360e01b815260040160405180910390fd5b6001600160401b038316600090815260056020526040908190205490517f9c076c110000000000000000000000000000000000000000000000000000000081526001600160a01b03848116600483015290911690639c076c1190602401600060405180830381600087803b15801562001e2e57600080fd5b505af115801562001e43573d6000803e3d6000fd5b5050604080513381526001600160a01b03861660208201526001600160401b03871693507f16af79d7ecfd9b6d6e5a0ddacdbcc62123ae4fb0ee026d1a4127e0bf6017502192500162001974565b3360009081526003602052604090205460ff1662001ec257604051636188839760e01b815260040160405180910390fd5b6001600160401b0383166000908152600560209081526040808320548151629032ff60e51b815291516001600160a01b03909116939284926312065fe092600480830193928290030181865afa15801562001f21573d6000803e3d6000fd5b505050506040513d601f19601f8201168201806040525081019062001f479190620032b2565b90508381101562001f6b57604051631e9acf1760e31b815260040160405180910390fd5b6040517ff19bdf8b000000000000000000000000000000000000000000000000000000008152600481018590526001600160a01b03848116602483015283169063f19bdf8b90604401600060405180830381600087803b15801562001fcf57600080fd5b505af115801562001fe4573d6000803e3d6000fd5b50505050846001600160401b03167f4c4d860a50e6fb83506f3f8c8a48b6430bf0725ab430db77c9fc0a6f4d19534c82868462000f1d9190620033da565b6200202c62002efa565b6001600160a01b03811660009081526003602052604090205460ff166200206657604051636188839760e01b815260040160405180910390fd5b60025460005b818110156200218457826001600160a01b031660028281548110620020955762002095620032e2565b6000918252602090912001546001600160a01b031603620021715760006002620020c1600185620033da565b81548110620020d457620020d4620032e2565b600091825260209091200154600280546001600160a01b039092169250829184908110620021065762002106620032e2565b9060005260206000200160006101000a8154816001600160a01b0302191690836001600160a01b0316021790555060028054806200214857620021486200353d565b600082815260209020810160001990810180546001600160a01b03191690550190555062002184565b6200217c8162003327565b90506200206c565b506001600160a01b038216600081815260036020908152604091829020805460ff1916905590519182527fcf15831020102bbbe0547b0c3460aa49715f2646e0911760d2b069e0fb2f62a1910160405180910390a15050565b6001600160401b03811660009081526005602090815260408083205481517f69ad397600000000000000000000000000000000000000000000000000000000815291516001600160a01b03909116926369ad397692600480820193918290030181865afa15801562002253573d6000803e3d6000fd5b505050506040513d601f19601f82011682018060405250810190620011979190620033f0565b600454600090819062002297906001600160401b0316600162003343565b6004805467ffffffffffffffff19166001600160401b03831617905560405190915060009082903390620022cb9062002fa6565b6001600160401b0390921682526001600160a01b03166020820152604001604051809103906000f08015801562002306573d6000803e3d6000fd5b506001600160401b03831660008181526005602090815260409182902080546001600160a01b0319166001600160a01b0386169081179091558251908152339181019190915292935090917f1edb85fa1da66f07bfbc44d91f7c78393164c973af4df8905400a1beaaeb7305910160405180910390a250919050565b6001600160401b038216600090815260056020908152604091829020548251631127a41d60e31b81529251859333936001600160a01b039093169263893d20e8926004808401938290030181865afa158015620023e3573d6000803e3d6000fd5b505050506040513d601f19601f8201168201806040525081019062002409919062003292565b6001600160a01b0316146200243157604051636074361360e01b815260040160405180910390fd5b6001600160401b038316600090815260056020526040908190205490517f0e27e3df0000000000000000000000000000000000000000000000000000000081526001600160a01b03848116600483015290911690630e27e3df90602401600060405180830381600087803b158015620024a957600080fd5b505af1158015620024be573d6000803e3d6000fd5b50506040516001600160a01b03851681526001600160401b03861692507fa4be0a97eff918a7bcc570a09d2a8812983d49f7cd84d1f29a8148cf0ed401e6915060200162001974565b3360009081526003602052604081205460ff166200253857604051636188839760e01b815260040160405180910390fd5b6001600160401b0383166000908152600560205260409020546001600160a01b03168015620025f2576040517f8247a97c0000000000000000000000000000000000000000000000000000000081526001600160a01b038481166004830152821690638247a97c906024016020604051808303816000875af1158015620025c3573d6000803e3d6000fd5b505050506040513d601f19601f82011682018060405250810190620025e99190620033f0565b91505062001197565b600191505062001197565b5092915050565b600281815481106200261557600080fd5b6000918252602090912001546001600160a01b0316905081565b6001600160401b03811660009081526007602052604081205490620026553483620032cc565b6001600160401b038416600081815260076020908152604091829020849055815186815290810184905292935090917faf3d9fb1c57e7b7764b81db151a26af4f4eb375e7e3c7ee23d8adc3f149f760b910162001974565b33600090815260036020526040812054819060ff16620026e057604051636188839760e01b815260040160405180910390fd5b6001600160401b03831660009081526007602052604081208054828255600190910180546001600160a01b031916905581549091906064906200272e90600160a01b900460ff168462003395565b6200273a9190620033b7565b60008054919250906064906200275b90600160a81b900460ff168562003395565b620027679190620033b7565b9050600081620027788486620033da565b620027849190620033da565b905082156200281457604051600090819085908281818185825af1925050503d8060008114620027d1576040519150601f19603f3d011682016040523d82523d6000602084013e620027d6565b606091505b505090508062002812576040517f0e27e65d00000000000000000000000000000000000000000000000000000000815260040160405180910390fd5b505b8115620028ad576001546040516000916001600160a01b03169084908381818185875af1925050503d80600081146200286a576040519150601f19603f3d011682016040523d82523d6000602084013e6200286f565b606091505b5050905080620028ab576040517ff56213a300000000000000000000000000000000000000000000000000000000815260040160405180910390fd5b505b60408051858152600060208201526001600160401b038916917f4c4d860a50e6fb83506f3f8c8a48b6430bf0725ab430db77c9fc0a6f4d19534c910160405180910390a2866001600160401b03167f5c99b84ba0f813bdfcfc063ad296c6cf2e5eb1e9ef2b4f323849b035f93da616846040516200292d91815260200190565b60405180910390a29294509192505050915091565b6200294c62002efa565b600180546001600160a01b0319166001600160a01b0392909216919091179055565b6001600160401b0381166000908152600560205260408082205481517f3b729b8600000000000000000000000000000000000000000000000000000000815291516001600160a01b039091169183918391633b729b8691600480830192869291908290030181865afa158015620029e9573d6000803e3d6000fd5b505050506040513d6000823e601f3d908101601f1916820160405262002a13919081019062003553565b80516002549192509060005b8281101562002bb657600084828151811062002a3f5762002a3f620032e2565b6020908102919091010151604051632d0335ab60e01b81526001600160a01b038083166004830152919250600091881690632d0335ab90602401602060405180830381865afa15801562002a97573d6000803e3d6000fd5b505050506040513d601f19601f8201168201806040525081019062002abd9190620033f0565b905060005b8481101562002b9d576002818154811062002ae15762002ae1620032e2565b600091825260209091200154604051630d44941960e11b81526001600160a01b0385811660048301526001600160401b03808e1660248401528516604483015290911690631a89283290606401602060405180830381865afa15801562002b4c573d6000803e3d6000fd5b505050506040513d601f19601f8201168201806040525081019062002b72919062003309565b1562002b88575060019998505050505050505050565b8062002b948162003327565b91505062002ac2565b505050808062002bad9062003327565b91505062002a1f565b5060009695505050505050565b62002bce8262000f33565b1562002bed57604051631685ecdd60e31b815260040160405180910390fd5b6001600160401b038216600090815260076020908152604091829020825180840190935280548352600101546001600160a01b0316908201819052331462002c4857604051636074361360e01b815260040160405180910390fd5b8051600081900362002c6d57604051631e9acf1760e31b815260040160405180910390fd5b6001600160401b03841660009081526007602052604080822082815560010180546001600160a01b0319169055516001600160a01b0385169083908381818185875af1925050503d806000811462002ce2576040519150601f19603f3d011682016040523d82523d6000602084013e62002ce7565b606091505b505090508062002d2f576040517f4319610c0000000000000000000000000000000000000000000000000000000081526001600160401b038616600482015260240162001359565b60408051838152600060208201526001600160401b038716917f4c4d860a50e6fb83506f3f8c8a48b6430bf0725ab430db77c9fc0a6f4d19534c910162000c3e565b62002d7b62002efa565b6001600160a01b03811662002df95760405162461bcd60e51b815260206004820152602660248201527f4f776e61626c653a206e6577206f776e657220697320746865207a65726f206160448201527f6464726573730000000000000000000000000000000000000000000000000000606482015260840162001359565b62002e048162002f56565b50565b62002e1162002efa565b6001600160a01b03811660009081526003602052604090205460ff161562002e65576040517f59f4e0cc00000000000000000000000000000000000000000000000000000000815260040160405180910390fd5b6002805460018082019092557f405787fa12a823e0f2b7631cc41b3ba8828b3321ca811111fa75cd3aa3bb5ace0180546001600160a01b0319166001600160a01b038416908117909155600081815260036020908152604091829020805460ff1916909417909355519081527f56e6c5206d2baab7a01569b19d84b5963ca9f96e10f55076b5e5987fbf780cf59101620009ef565b6000546001600160a01b03163314620017f25760405162461bcd60e51b815260206004820181905260248201527f4f776e61626c653a2063616c6c6572206973206e6f7420746865206f776e6572604482015260640162001359565b600080546001600160a01b038381166001600160a01b0319831681178455604051919092169283917f8be0079c531659141344cd1fd0a4f28419497f9722a3daafe3b4186f6b6457e09190a35050565b611221806200359483390190565b60006020828403121562002fc757600080fd5b813560ff8116811462001d0057600080fd5b6001600160401b038116811462002e0457600080fd5b6001600160a01b038116811462002e0457600080fd5b600080604083850312156200301957600080fd5b8235620030268162002fd9565b91506020830135620030388162002fef565b809150509250929050565b6000602082840312156200305657600080fd5b813562001d008162002fd9565b600060208083528351808285015260005b81811015620030925785810183015185820160400152820162003074565b506000604082860101526040601f19601f8301168501019250505092915050565b600060208284031215620030c657600080fd5b813562001d008162002fef565b60008060408385031215620030e757600080fd5b8235620030f48162002fd9565b946020939093013593505050565b6020808252825182820181905260009190848201906040850190845b81811015620031455783516001600160a01b0316835292840192918401916001016200311e565b50909695505050505050565b600080604083850312156200316557600080fd5b823591506020830135620030388162002fef565b60006080820186835260206001600160401b038716818501526001600160a01b0380871660408601526080606086015282865180855260a087019150838801945060005b81811015620031dd578551841683529484019491840191600101620031bd565b50909a9950505050505050505050565b6000806000606084860312156200320357600080fd5b8335620032108162002fd9565b9250602084013591506040840135620032298162002fef565b809150509250925092565b6000602082840312156200324757600080fd5b5035919050565b634e487b7160e01b600052601160045260246000fd5b60ff81811683821601908111156200119757620011976200324e565b80516200328d8162002fef565b919050565b600060208284031215620032a557600080fd5b815162001d008162002fef565b600060208284031215620032c557600080fd5b5051919050565b808201808211156200119757620011976200324e565b634e487b7160e01b600052603260045260246000fd5b805180151581146200328d57600080fd5b6000602082840312156200331c57600080fd5b62001d0082620032f8565b6000600182016200333c576200333c6200324e565b5060010190565b6001600160401b03818116838216019080821115620025fd57620025fd6200324e565b600080604083850312156200337a57600080fd5b6200338583620032f8565b9150602083015190509250929050565b6000816000190483118215151615620033b257620033b26200324e565b500290565b600082620033d557634e487b7160e01b600052601260045260246000fd5b500490565b818103818111156200119757620011976200324e565b6000602082840312156200340357600080fd5b815162001d008162002fd9565b634e487b7160e01b600052604160045260246000fd5b600082601f8301126200343857600080fd5b815160206001600160401b038083111562003457576200345762003410565b8260051b604051601f19603f830116810181811084821117156200347f576200347f62003410565b6040529384528581018301938381019250878511156200349e57600080fd5b83870191505b84821015620016a757620034b88262003280565b83529183019190830190620034a4565b60008060008060808587031215620034df57600080fd5b845193506020850151620034f38162002fd9565b6040860151909350620035068162002fef565b60608601519092506001600160401b038111156200352357600080fd5b620035318782880162003426565b91505092959194509250565b634e487b7160e01b600052603160045260246000fd5b6000602082840312156200356657600080fd5b81516001600160401b038111156200357d57600080fd5b6200358b8482850162003426565b94935050505056fe608060405234801561001057600080fd5b5060405161122138038061122183398101604081905261002f9161007f565b60008054600180546001600160a01b039094166001600160a01b03199485161790556001600160401b03909316600160a01b02919091166001600160e01b031990921691909117331790556100d1565b6000806040838503121561009257600080fd5b82516001600160401b03811681146100a957600080fd5b60208401519092506001600160a01b03811681146100c657600080fd5b809150509250929050565b611141806100e06000396000f3fe6080604052600436106101635760003560e01c806364d51a2a116100c05780639c076c1111610074578063cdbb962f11610059578063cdbb962f14610456578063db613e8114610476578063f19bdf8b1461049b57600080fd5b80639c076c1114610418578063b7acf25a1461043857600080fd5b80636d1dca0b116100a55780636d1dca0b146103a35780638247a97c146103da578063893d20e8146103fa57600080fd5b806364d51a2a1461035c57806369ad39761461038457600080fd5b80632d0335ab116101175780632f048674116100fc5780632f048674146102e85780633b729b861461031a578063619eea001461033c57600080fd5b80632d0335ab146102585780632e1a7d4d146102b157600080fd5b8063112940f911610148578063112940f9146101c957806312065fe0146101e9578063181f5a771461020c57600080fd5b806305aa772e146101875780630e27e3df146101a957600080fd5b3661018257346003600082825461017a9190610ed8565b925050819055005b600080fd5b34801561019357600080fd5b506101a76101a2366004610f08565b6104bb565b005b3480156101b557600080fd5b506101a76101c4366004610f08565b610586565b3480156101d557600080fd5b506101a76101e4366004610f08565b6107b9565b3480156101f557600080fd5b506003546040519081526020015b60405180910390f35b34801561021857600080fd5b50604080518082018252600c81527f4163636f756e742076302e310000000000000000000000000000000000000000602082015290516102039190610f2a565b34801561026457600080fd5b50610298610273366004610f08565b6001600160a01b031660009081526006602052604090205467ffffffffffffffff1690565b60405167ffffffffffffffff9091168152602001610203565b3480156102bd57600080fd5b506102d16102cc366004610f78565b6108d3565b604080519215158352602083019190915201610203565b3480156102f457600080fd5b506002546001600160a01b03165b6040516001600160a01b039091168152602001610203565b34801561032657600080fd5b5061032f6109c1565b6040516102039190610fd5565b34801561034857600080fd5b506101a7610357366004610fe8565b610a23565b34801561036857600080fd5b50610371606481565b60405161ffff9091168152602001610203565b34801561039057600080fd5b5060045467ffffffffffffffff16610298565b3480156103af57600080fd5b5060005474010000000000000000000000000000000000000000900467ffffffffffffffff16610298565b3480156103e657600080fd5b506102986103f5366004610f08565b610be9565b34801561040657600080fd5b506001546001600160a01b0316610302565b34801561042457600080fd5b506101a7610433366004610f08565b610c8e565b34801561044457600080fd5b506000546001600160a01b0316610302565b34801561046257600080fd5b506101a7610471366004610f08565b610d0a565b34801561048257600080fd5b5061048b610d50565b604051610203949392919061101d565b3480156104a757600080fd5b506101a76104b636600461105f565b610de6565b6000546001600160a01b031633146104fa576000546040516357695ced60e01b81526001600160a01b0390911660048201526024015b60405180910390fd5b6002546001600160a01b03828116911614610550576002546040517fd084e9750000000000000000000000000000000000000000000000000000000081526001600160a01b0390911660048201526024016104f1565b600180546001600160a01b0390921673ffffffffffffffffffffffffffffffffffffffff19928316179055600280549091169055565b6000546001600160a01b031633146105c0576000546040516357695ced60e01b81526001600160a01b0390911660048201526024016104f1565b6001600160a01b03811660009081526006602052604081205467ffffffffffffffff169003610626576040517f728aeb5f0000000000000000000000000000000000000000000000000000000081526001600160a01b03821660048201526024016104f1565b6000600580548060200260200160405190810160405280929190818152602001828054801561067e57602002820191906000526020600020905b81546001600160a01b03168152600190910190602001808311610660575b50508351939450600092506106989150600190508361108b565b905060005b8281101561078d57846001600160a01b03168482815181106106c1576106c161109e565b60200260200101516001600160a01b03160361077d5760008483815181106106eb576106eb61109e565b6020026020010151905080600583815481106107095761070961109e565b9060005260206000200160006101000a8154816001600160a01b0302191690836001600160a01b031602179055506005805480610748576107486110b4565b6000828152602090208101600019908101805473ffffffffffffffffffffffffffffffffffffffff191690550190555061078d565b610786816110ca565b905061069d565b505050506001600160a01b03166000908152600660205260409020805467ffffffffffffffff19169055565b6000546001600160a01b031633146107f3576000546040516357695ced60e01b81526001600160a01b0390911660048201526024016104f1565b60055460641161082f576040517f05a48e0f00000000000000000000000000000000000000000000000000000000815260040160405180910390fd5b6001600160a01b03811660009081526006602052604090205467ffffffffffffffff166108d0576001600160a01b0381166000818152600660205260408120805467ffffffffffffffff191660019081179091556005805491820181559091527f036b6384b5eca791c62761152d0c79bb0604c104a5fb6f4eb0703f3154bb3db001805473ffffffffffffffffffffffffffffffffffffffff191690911790555b50565b6000805481906001600160a01b03163314610910576000546040516357695ced60e01b81526001600160a01b0390911660048201526024016104f1565b6003548381101561094d576040517ff4d678b800000000000000000000000000000000000000000000000000000000815260040160405180910390fd5b610957848261108b565b60038190556001546040519192506000916001600160a01b039091169086908381818185875af1925050503d80600081146109ae576040519150601f19603f3d011682016040523d82523d6000602084013e6109b3565b606091505b509094509192505050915091565b60606005805480602002602001604051908101604052809291908181526020018280548015610a1957602002820191906000526020600020905b81546001600160a01b031681526001909101906020018083116109fb575b5050505050905090565b6000546001600160a01b03163314610a5d576000546040516357695ced60e01b81526001600160a01b0390911660048201526024016104f1565b6004805460019190600090610a7d90849067ffffffffffffffff166110e3565b92506101000a81548167ffffffffffffffff021916908367ffffffffffffffff1602179055508183610aaf9190610ed8565b60036000828254610ac0919061108b565b90915550508215610b4f57604051600090819085908281818185825af1925050503d8060008114610b0d576040519150601f19603f3d011682016040523d82523d6000602084013e610b12565b606091505b5050905080610b4d576040517f0e27e65d00000000000000000000000000000000000000000000000000000000815260040160405180910390fd5b505b8115610be4576000816001600160a01b03168360405160006040518083038185875af1925050503d8060008114610ba2576040519150601f19603f3d011682016040523d82523d6000602084013e610ba7565b606091505b5050905080610be2576040517ff56213a300000000000000000000000000000000000000000000000000000000815260040160405180910390fd5b505b505050565b600080546001600160a01b03163314610c24576000546040516357695ced60e01b81526001600160a01b0390911660048201526024016104f1565b6001600160a01b038216600090815260066020526040812054610c529067ffffffffffffffff1660016110e3565b6001600160a01b0384166000908152600660205260409020805467ffffffffffffffff191667ffffffffffffffff83161790559150505b919050565b6000546001600160a01b03163314610cc8576000546040516357695ced60e01b81526001600160a01b0390911660048201526024016104f1565b6002546001600160a01b038281169116146108d057600280546001600160a01b03831673ffffffffffffffffffffffffffffffffffffffff1990911617905550565b6000546001600160a01b03163314610d44576000546040516357695ced60e01b81526001600160a01b0390911660048201526024016104f1565b806001600160a01b0316ff5b600354600454600154600580546040805160208084028201810190925282815260009687968796606096929567ffffffffffffffff909216946001600160a01b0390911693918391830182828015610dd157602002820191906000526020600020905b81546001600160a01b03168152600190910190602001808311610db3575b50505050509050935093509350935090919293565b6000546001600160a01b03163314610e20576000546040516357695ced60e01b81526001600160a01b0390911660048201526024016104f1565b8160036000828254610e32919061108b565b90915550506040516000906001600160a01b0383169084908381818185875af1925050503d8060008114610e82576040519150601f19603f3d011682016040523d82523d6000602084013e610e87565b606091505b5050905080610be4576040517fb7c1cac700000000000000000000000000000000000000000000000000000000815260040160405180910390fd5b634e487b7160e01b600052601160045260246000fd5b80820180821115610eeb57610eeb610ec2565b92915050565b80356001600160a01b0381168114610c8957600080fd5b600060208284031215610f1a57600080fd5b610f2382610ef1565b9392505050565b600060208083528351808285015260005b81811015610f5757858101830151858201604001528201610f3b565b506000604082860101526040601f19601f8301168501019250505092915050565b600060208284031215610f8a57600080fd5b5035919050565b600081518084526020808501945080840160005b83811015610fca5781516001600160a01b031687529582019590820190600101610fa5565b509495945050505050565b602081526000610f236020830184610f91565b600080600060608486031215610ffd57600080fd5b833592506020840135915061101460408501610ef1565b90509250925092565b84815267ffffffffffffffff841660208201526001600160a01b03831660408201526080606082015260006110556080830184610f91565b9695505050505050565b6000806040838503121561107257600080fd5b8235915061108260208401610ef1565b90509250929050565b81810381811115610eeb57610eeb610ec2565b634e487b7160e01b600052603260045260246000fd5b634e487b7160e01b600052603160045260246000fd5b6000600182016110dc576110dc610ec2565b5060010190565b67ffffffffffffffff81811683821601908082111561110457611104610ec2565b509291505056fea264697066735822122006f21b310b572a0dac45fea8849d62648e13b3494a52b02b314f9c8c26b482a564736f6c63430008100033a2646970667358221220841057b114e96605cee87660d4c7479d8606cc3c324b9b0b11347bce841fe02864736f6c63430008100033",
  "devdoc": {
    "author": "Bisonai",
    "kind": "dev",
    "methods": {
      "acceptAccountOwnerTransfer(uint64)": {
        "details": "The function will revert inside of the`Account.acceptAccountOwnerTransfer` if original owner of`accId` has not requested the `msg.sender` to become thenew owner.",
        "params": {
          "accId": "- ID of the account"
        }
      },
      "addConsumer(uint64,address)": {
        "details": "This function is meant to be used only for [regular]account. If called with [temporary] account, thetransaction will be reverted.",
        "params": {
          "accId": "- ID of the account",
          "consumer": "- New consumer which can use the account"
        }
      },
      "cancelAccount(uint64,address)": {
        "details": "This function is meant to be used only for [regular]account. If there is any pending request, the accountcannot be canceled.",
        "params": {
          "accId": "- ID of the account",
          "to": "- Where to send the remaining $KLAY to"
        }
      },
      "chargeFee(uint64,uint256)": {
        "params": {
          "accId": "- ID of the account",
          "amount": "- $KLAY amount to be charged"
        }
      },
      "chargeFeeTemporary(uint64)": {
        "details": "Temporary account is deleted because we do not expect to use it again.",
        "params": {
          "accId": "- ID of the account"
        }
      },
      "chargeOperatorFee(uint64,uint256,address)": {
        "params": {
          "accId": "- ID of the account",
          "operatorFee": "- amount of fee to be paid to operator fee recipient",
          "operatorFeeRecipient": "- address of operator fee recipient"
        }
      },
      "chargeOperatorFeeTemporary(uint256,address)": {
        "params": {
          "operatorFee": "- amount of fee to be paid to operator fee recipient",
          "operatorFeeRecipient": "- address of operator fee recipient"
        }
      },
      "createAccount()": {
        "details": "This function deploys a new `Account` contract (defined atAccount.sol) and connect it with the `Prepayment` contract.You can add or remove the consumer dynamically with`addConsumer` or `removeConsumer` functions,respectively. To fund the account, use deposit function.",
        "returns": {
          "_0": "accId - A unique account id"
        }
      },
      "createTemporaryAccount(address)": {
        "params": {
          "": "- account owner"
        },
        "returns": {
          "_0": "accId - A unique account id"
        }
      },
      "deposit(uint64)": {
        "params": {
          "accId": "- ID of the account"
        }
      },
      "depositTemporary(uint64)": {
        "params": {
          "accId": "- ID of the account"
        }
      },
      "getAccount(uint64)": {
        "details": "This function can be used for both [regular] and[temporary] account.",
        "params": {
          "accId": "- ID of the account"
        },
        "returns": {
          "balance": "- $KLAY balance of the account in juels.",
          "consumers": "- list of consumer address which are able to use this account.",
          "owner": "- owner of the account.",
          "reqCount": "- number of requests for this account, determines fee tier."
        }
      },
      "getAccountOwner(uint64)": {
        "details": "This function is meant to be used only for [regular]account.",
        "params": {
          "accId": "- ID of the account"
        }
      },
      "getBalance(uint64)": {
        "details": "This function is meant to be used only for [regular]account. If invalid `accId` (ID not assigned to anyaccount) is passed, zero balance will be always returned.",
        "params": {
          "accId": "- ID of the account"
        },
        "returns": {
          "balance": "of account"
        }
      },
      "getNonce(uint64,address)": {
        "details": "This function is meant to be used only for [regular]account. [temporary] account does not have a notion of a nonce.When an invalid `accId` is passed, transaction isreverted. When an invalid `consumer` is passed, 0 zerononce is returned that represents an unregistered consumer.",
        "params": {
          "accId": "- ID of the account",
          "consumer": "- consumer address"
        }
      },
      "getReqCount(uint64)": {
        "details": "This function is meant to be used only for [regular]account.",
        "params": {
          "accId": "- ID of the account"
        },
        "returns": {
          "_0": "number of requests"
        }
      },
      "increaseNonce(uint64,address)": {
        "params": {
          "accId": "- ID of the account",
          "consumer": "- Address of consumer registered under accId"
        }
      },
      "isValidAccount(uint64,address)": {
        "details": "This function can be used for checking validity of both[regular] and [temporary] account.",
        "params": {
          "accId": "- ID of the account"
        }
      },
      "owner()": {
        "details": "Returns the address of the current owner."
      },
      "removeConsumer(uint64,address)": {
        "details": "This function is meant to be used only for [regular]account. If called with [temporary] account, thetransaction will be reverted.",
        "params": {
          "accId": "- ID of the account",
          "consumer": "- Consumer to remove from the account"
        }
      },
      "renounceOwnership()": {
        "details": "Leaves the contract without owner. It will not be possible to call `onlyOwner` functions anymore. Can only be called by the current owner. NOTE: Renouncing ownership will leave the contract without an owner, thereby removing any functionality that is only available to the owner."
      },
      "requestAccountOwnerTransfer(uint64,address)": {
        "details": "Only [regular] account owner can be transferred.",
        "params": {
          "accId": "- ID of the account",
          "newOwner": "- proposed new owner of the account"
        }
      },
      "setBurnFeeRatio(uint8)": {
        "params": {
          "ratio": "in a range 0 - 100 % of a fee to be burnt"
        }
      },
      "setProtocolFeeRatio(uint8)": {
        "params": {
          "ratio": "in a range 0 - 100 % of a fee to be burnt"
        }
      },
      "setProtocolFeeRecipient(address)": {
        "params": {
          "protocolFeeRecipient": "- address of protocol fee recipient"
        }
      },
      "transferOwnership(address)": {
        "details": "Transfers ownership of the contract to a new account (`newOwner`). Can only be called by the current owner."
      },
      "typeAndVersion()": {
        "returns": {
          "_0": "Type and version string"
        }
      },
      "withdraw(uint64,uint256)": {
        "details": "Account owner can withdraw $KLAY only when there are nopending requests on any of associated consumers. If one triesto use it to withdraw $KLAY from [temporary] account,transaction will revert. Transaction reverts also on failure towithdraw tokens from account.",
        "params": {
          "accId": "- ID of the account",
          "amount": "- $KLAY amount to be withdrawn"
        }
      },
      "withdrawTemporary(uint64,address)": {
        "details": "Account owner can withdraw $KLAY only when there are nopending requests. Temporary account will be deleted uponsuccessful withdrawal. Transaction reverts also on failure towithdraw tokens from account.",
        "params": {
          "accId": "- ID of the account",
          "to": "- recipient address"
        }
      }
    },
    "title": "Orakl Network Prepayment",
    "version": 1
  },
  "userdoc": {
    "kind": "user",
    "methods": {
      "acceptAccountOwnerTransfer(uint64)": {
        "notice": "Accept account owner transfer."
      },
      "addConsumer(uint64,address)": {
        "notice": "Add a consumer to an account."
      },
      "cancelAccount(uint64,address)": {
        "notice": "Cancel account"
      },
      "chargeFee(uint64,uint256)": {
        "notice": "Burn part of fee and charge protocol fee for a service connected to [regular] account."
      },
      "chargeFeeTemporary(uint64)": {
        "notice": "Burn part of fee and charge protocol fee for a service connected to [temporary] account."
      },
      "chargeOperatorFee(uint64,uint256,address)": {
        "notice": "Charge operator fee for a service connected to [temporary] account."
      },
      "chargeOperatorFeeTemporary(uint256,address)": {
        "notice": "Charge operator fee for a service connected to [temporary] account."
      },
      "createAccount()": {
        "notice": "Create a [regular] account."
      },
      "createTemporaryAccount(address)": {
        "notice": "Create a temporary account to be used with a singleservice request."
      },
      "deposit(uint64)": {
        "notice": "Deposit $KLAY to [regular] account.Anybody can deposit $KLAY, there are no restrictions."
      },
      "depositTemporary(uint64)": {
        "notice": "Deposit $KLAY to [temporary] account.Anybody can deposit $KLAY, there are no restrictions."
      },
      "getAccount(uint64)": {
        "notice": "Get an account information."
      },
      "getAccountOwner(uint64)": {
        "notice": "Get address of account owner."
      },
      "getBalance(uint64)": {
        "notice": "Returns the balance of given account."
      },
      "getBurnFeeRatio()": {
        "notice": "Return the current burn ratio that represents thepercentage of $KLAY fee that is burnt during fulfillmentof every request."
      },
      "getCoordinators()": {
        "notice": "Get addresses of all registered coordinators in Prepayment."
      },
      "getNonce(uint64,address)": {
        "notice": "Get nonce for specified `consumer` in account denoted by `accId`."
      },
      "getProtocolFeeRatio()": {
        "notice": "Return the current protocol fee ratio that representsthe percentage of $KLAY fee that is charged for everyfinalizes fulfillment."
      },
      "getProtocolFeeRecipient()": {
        "notice": "Get address of protocol fee recipient."
      },
      "getReqCount(uint64)": {
        "notice": "Return the number of requests created through theaccount."
      },
      "increaseNonce(uint64,address)": {
        "notice": "Increase nonce for consumer registered under accId."
      },
      "isValidAccount(uint64,address)": {
        "notice": "Returns `true` when a `consumer` is registered under`accId`, otherwise returns `false`."
      },
      "removeConsumer(uint64,address)": {
        "notice": "Remove a consumer from a account."
      },
      "requestAccountOwnerTransfer(uint64,address)": {
        "notice": "Request account owner transfer."
      },
      "setBurnFeeRatio(uint8)": {
        "notice": "The function allows to update a \"burn ratio\" that represents apartial amount of payment for the Orakl Network service thatwill be burnt."
      },
      "setProtocolFeeRatio(uint8)": {
        "notice": "The function allows to update a protocol fee."
      },
      "setProtocolFeeRecipient(address)": {
        "notice": "Update address of protocol fee recipient that willreceive protocol fees."
      },
      "typeAndVersion()": {
        "notice": "The type and version of this contract"
      },
      "withdraw(uint64,uint256)": {
        "notice": "Withdraw $KLAY from [regular] account."
      },
      "withdrawTemporary(uint64,address)": {
        "notice": "Withdraw $KLAY from [temporary] account."
      }
    },
    "notice": "Prepayment is a type of prepaid payment solution whichallows to controls two types of accounts: regular andtemporary.@notice [regular] account is a separate smart contract(Account.sol) that is meant to be used long-term. User candeposit $KLAY to account and use it to pay for Orakl Networkservices. More details about [regular] account aredescribed at `Account` smart contract.@notice [temporary] account is created for one-time-use of OraklNetwork services. Consumer can send $KLAY together withrequest to Orakl Network to pay for the service. Alloperations related to [temporary] account are implementedin the Prepayment contract.",
    "version": 1
  },
  "storageLayout": {
    "storage": [
      {
        "astId": 7,
        "contract": "src/v0.1/Prepayment.sol:Prepayment",
        "label": "_owner",
        "offset": 0,
        "slot": "0",
        "type": "t_address"
      },
      {
        "astId": 1160,
        "contract": "src/v0.1/Prepayment.sol:Prepayment",
        "label": "sBurnFeeRatio",
        "offset": 20,
        "slot": "0",
        "type": "t_uint8"
      },
      {
        "astId": 1163,
        "contract": "src/v0.1/Prepayment.sol:Prepayment",
        "label": "sProtocolFeeRatio",
        "offset": 21,
        "slot": "0",
        "type": "t_uint8"
      },
      {
        "astId": 1165,
        "contract": "src/v0.1/Prepayment.sol:Prepayment",
        "label": "sProtocolFeeRecipient",
        "offset": 0,
        "slot": "1",
        "type": "t_address"
      },
      {
        "astId": 1169,
        "contract": "src/v0.1/Prepayment.sol:Prepayment",
        "label": "sCoordinators",
        "offset": 0,
        "slot": "2",
        "type": "t_array(t_contract(ICoordinatorBase)6443)dyn_storage"
      },
      {
        "astId": 1173,
        "contract": "src/v0.1/Prepayment.sol:Prepayment",
        "label": "sIsCoordinator",
        "offset": 0,
        "slot": "3",
        "type": "t_mapping(t_address,t_bool)"
      },
      {
        "astId": 1175,
        "contract": "src/v0.1/Prepayment.sol:Prepayment",
        "label": "sCurrentAccId",
        "offset": 0,
        "slot": "4",
        "type": "t_uint64"
      },
      {
        "astId": 1180,
        "contract": "src/v0.1/Prepayment.sol:Prepayment",
        "label": "sAccIdToAccount",
        "offset": 0,
        "slot": "5",
        "type": "t_mapping(t_uint64,t_contract(Account)699)"
      },
      {
        "astId": 1184,
        "contract": "src/v0.1/Prepayment.sol:Prepayment",
        "label": "sIsTemporaryAccount",
        "offset": 0,
        "slot": "6",
        "type": "t_mapping(t_uint64,t_bool)"
      },
      {
        "astId": 1194,
        "contract": "src/v0.1/Prepayment.sol:Prepayment",
        "label": "sAccIdToTmpAcc",
        "offset": 0,
        "slot": "7",
        "type": "t_mapping(t_uint64,t_struct(TemporaryAccount)1189_storage)"
      }
    ],
    "types": {
      "t_address": {
        "encoding": "inplace",
        "label": "address",
        "numberOfBytes": "20"
      },
      "t_array(t_contract(ICoordinatorBase)6443)dyn_storage": {
        "base": "t_contract(ICoordinatorBase)6443",
        "encoding": "dynamic_array",
        "label": "contract ICoordinatorBase[]",
        "numberOfBytes": "32"
      },
      "t_bool": {
        "encoding": "inplace",
        "label": "bool",
        "numberOfBytes": "1"
      },
      "t_contract(Account)699": {
        "encoding": "inplace",
        "label": "contract Account",
        "numberOfBytes": "20"
      },
      "t_contract(ICoordinatorBase)6443": {
        "encoding": "inplace",
        "label": "contract ICoordinatorBase",
        "numberOfBytes": "20"
      },
      "t_mapping(t_address,t_bool)": {
        "encoding": "mapping",
        "key": "t_address",
        "label": "mapping(address => bool)",
        "numberOfBytes": "32",
        "value": "t_bool"
      },
      "t_mapping(t_uint64,t_bool)": {
        "encoding": "mapping",
        "key": "t_uint64",
        "label": "mapping(uint64 => bool)",
        "numberOfBytes": "32",
        "value": "t_bool"
      },
      "t_mapping(t_uint64,t_contract(Account)699)": {
        "encoding": "mapping",
        "key": "t_uint64",
        "label": "mapping(uint64 => contract Account)",
        "numberOfBytes": "32",
        "value": "t_contract(Account)699"
      },
      "t_mapping(t_uint64,t_struct(TemporaryAccount)1189_storage)": {
        "encoding": "mapping",
        "key": "t_uint64",
        "label": "mapping(uint64 => struct Prepayment.TemporaryAccount)",
        "numberOfBytes": "32",
        "value": "t_struct(TemporaryAccount)1189_storage"
      },
      "t_struct(TemporaryAccount)1189_storage": {
        "encoding": "inplace",
        "label": "struct Prepayment.TemporaryAccount",
        "members": [
          {
            "astId": 1186,
            "contract": "src/v0.1/Prepayment.sol:Prepayment",
            "label": "balance",
            "offset": 0,
            "slot": "0",
            "type": "t_uint256"
          },
          {
            "astId": 1188,
            "contract": "src/v0.1/Prepayment.sol:Prepayment",
            "label": "owner",
            "offset": 0,
            "slot": "1",
            "type": "t_address"
          }
        ],
        "numberOfBytes": "64"
      },
      "t_uint256": {
        "encoding": "inplace",
        "label": "uint256",
        "numberOfBytes": "32"
      },
      "t_uint64": {
        "encoding": "inplace",
        "label": "uint64",
        "numberOfBytes": "8"
      },
      "t_uint8": {
        "encoding": "inplace",
        "label": "uint8",
        "numberOfBytes": "1"
      }
    }
  }
}