{
  "address": "0x671cfC6Df033C0773e0B65815433C5E264FeA63f",
  "abi": [
    {
      "inputs": [
        {
          "internalType": "address",
          "name": "prepayment",
          "type": "address"
        }
      ],
      "stateMutability": "nonpayable",
      "type": "constructor"
    },
    {
      "inputs": [
        {
          "internalType": "uint32",
          "name": "have",
          "type": "uint32"
        },
        {
          "internalType": "uint32",
          "name": "want",
          "type": "uint32"
        }
      ],
      "name": "GasLimitTooBig",
      "type": "error"
    },
    {
      "inputs": [],
      "name": "IncorrectCommitment",
      "type": "error"
    },
    {
      "inputs": [
        {
          "internalType": "uint256",
          "name": "have",
          "type": "uint256"
        },
        {
          "internalType": "uint256",
          "name": "want",
          "type": "uint256"
        }
      ],
      "name": "InsufficientPayment",
      "type": "error"
    },
    {
      "inputs": [],
      "name": "InvalidAccount",
      "type": "error"
    },
    {
      "inputs": [
        {
          "internalType": "uint64",
          "name": "accId",
          "type": "uint64"
        },
        {
          "internalType": "address",
          "name": "consumer",
          "type": "address"
        }
      ],
      "name": "InvalidConsumer",
      "type": "error"
    },
    {
      "inputs": [],
      "name": "NoCorrespondingRequest",
      "type": "error"
    },
    {
      "inputs": [
        {
          "internalType": "address",
          "name": "oracle",
          "type": "address"
        }
      ],
      "name": "NoSuchOracle",
      "type": "error"
    },
    {
      "inputs": [],
      "name": "NotRequestOwner",
      "type": "error"
    },
    {
      "inputs": [
        {
          "internalType": "address",
          "name": "oracle",
          "type": "address"
        }
      ],
      "name": "OracleAlreadyRegistered",
      "type": "error"
    },
    {
      "inputs": [],
      "name": "Reentrant",
      "type": "error"
    },
    {
      "inputs": [],
      "name": "RefundFailure",
      "type": "error"
    },
    {
      "inputs": [
        {
          "internalType": "address",
          "name": "oracle",
          "type": "address"
        }
      ],
      "name": "UnregisteredOracleFulfillment",
      "type": "error"
    },
    {
      "anonymous": false,
      "inputs": [
        {
          "indexed": false,
          "internalType": "uint32",
          "name": "maxGasLimit",
          "type": "uint32"
        },
        {
          "indexed": false,
          "internalType": "uint32",
          "name": "gasAfterPaymentCalculation",
          "type": "uint32"
        },
        {
          "components": [
            {
              "internalType": "uint32",
              "name": "fulfillmentFlatFeeKlayPPMTier1",
              "type": "uint32"
            },
            {
              "internalType": "uint32",
              "name": "fulfillmentFlatFeeKlayPPMTier2",
              "type": "uint32"
            },
            {
              "internalType": "uint32",
              "name": "fulfillmentFlatFeeKlayPPMTier3",
              "type": "uint32"
            },
            {
              "internalType": "uint32",
              "name": "fulfillmentFlatFeeKlayPPMTier4",
              "type": "uint32"
            },
            {
              "internalType": "uint32",
              "name": "fulfillmentFlatFeeKlayPPMTier5",
              "type": "uint32"
            },
            {
              "internalType": "uint24",
              "name": "reqsForTier2",
              "type": "uint24"
            },
            {
              "internalType": "uint24",
              "name": "reqsForTier3",
              "type": "uint24"
            },
            {
              "internalType": "uint24",
              "name": "reqsForTier4",
              "type": "uint24"
            },
            {
              "internalType": "uint24",
              "name": "reqsForTier5",
              "type": "uint24"
            }
          ],
          "indexed": false,
          "internalType": "struct RequestResponseCoordinator.FeeConfig",
          "name": "feeConfig",
          "type": "tuple"
        }
      ],
      "name": "ConfigSet",
      "type": "event"
    },
    {
      "anonymous": false,
      "inputs": [
        {
          "indexed": true,
          "internalType": "uint256",
          "name": "requestId",
          "type": "uint256"
        }
      ],
      "name": "DataRequestCancelled",
      "type": "event"
    },
    {
      "anonymous": false,
      "inputs": [
        {
          "indexed": true,
          "internalType": "uint256",
          "name": "requestId",
          "type": "uint256"
        },
        {
          "indexed": false,
          "internalType": "uint256",
          "name": "response",
          "type": "uint256"
        },
        {
          "indexed": false,
          "internalType": "uint256",
          "name": "payment",
          "type": "uint256"
        },
        {
          "indexed": false,
          "internalType": "bool",
          "name": "success",
          "type": "bool"
        }
      ],
      "name": "DataRequestFulfilled",
      "type": "event"
    },
    {
      "anonymous": false,
      "inputs": [
        {
          "indexed": true,
          "internalType": "uint256",
          "name": "requestId",
          "type": "uint256"
        },
        {
          "indexed": false,
          "internalType": "bytes32",
          "name": "jobId",
          "type": "bytes32"
        },
        {
          "indexed": true,
          "internalType": "uint64",
          "name": "accId",
          "type": "uint64"
        },
        {
          "indexed": false,
          "internalType": "uint32",
          "name": "callbackGasLimit",
          "type": "uint32"
        },
        {
          "indexed": true,
          "internalType": "address",
          "name": "sender",
          "type": "address"
        },
        {
          "indexed": false,
          "internalType": "bool",
          "name": "isDirectPayment",
          "type": "bool"
        },
        {
          "indexed": false,
          "internalType": "bytes",
          "name": "data",
          "type": "bytes"
        }
      ],
      "name": "DataRequested",
      "type": "event"
    },
    {
      "anonymous": false,
      "inputs": [
        {
          "indexed": false,
          "internalType": "uint256",
          "name": "fulfillmentFee",
          "type": "uint256"
        },
        {
          "indexed": false,
          "internalType": "uint256",
          "name": "baseFee",
          "type": "uint256"
        }
      ],
      "name": "DirectPaymentConfigSet",
      "type": "event"
    },
    {
      "anonymous": false,
      "inputs": [
        {
          "indexed": false,
          "internalType": "uint256",
          "name": "minBalance",
          "type": "uint256"
        }
      ],
      "name": "MinBalanceSet",
      "type": "event"
    },
    {
      "anonymous": false,
      "inputs": [
        {
          "indexed": false,
          "internalType": "address",
          "name": "oracle",
          "type": "address"
        }
      ],
      "name": "OracleDeregistered",
      "type": "event"
    },
    {
      "anonymous": false,
      "inputs": [
        {
          "indexed": false,
          "internalType": "address",
          "name": "oracle",
          "type": "address"
        }
      ],
      "name": "OracleRegistered",
      "type": "event"
    },
    {
      "anonymous": false,
      "inputs": [
        {
          "indexed": true,
          "internalType": "address",
          "name": "previousOwner",
          "type": "address"
        },
        {
          "indexed": true,
          "internalType": "address",
          "name": "newOwner",
          "type": "address"
        }
      ],
      "name": "OwnershipTransferred",
      "type": "event"
    },
    {
      "inputs": [
        {
          "internalType": "uint256",
          "name": "requestId",
          "type": "uint256"
        }
      ],
      "name": "cancelRequest",
      "outputs": [],
      "stateMutability": "nonpayable",
      "type": "function"
    },
    {
      "inputs": [
        {
          "internalType": "address",
          "name": "oracle",
          "type": "address"
        }
      ],
      "name": "deregisterOracle",
      "outputs": [],
      "stateMutability": "nonpayable",
      "type": "function"
    },
    {
      "inputs": [],
      "name": "estimateDirectPaymentFee",
      "outputs": [
        {
          "internalType": "uint256",
          "name": "",
          "type": "uint256"
        }
      ],
      "stateMutability": "view",
      "type": "function"
    },
    {
      "inputs": [
        {
          "internalType": "uint256",
          "name": "requestId",
          "type": "uint256"
        },
        {
          "internalType": "uint256",
          "name": "response",
          "type": "uint256"
        },
        {
          "components": [
            {
              "internalType": "uint64",
              "name": "blockNum",
              "type": "uint64"
            },
            {
              "internalType": "uint64",
              "name": "accId",
              "type": "uint64"
            },
            {
              "internalType": "uint32",
              "name": "callbackGasLimit",
              "type": "uint32"
            },
            {
              "internalType": "address",
              "name": "sender",
              "type": "address"
            }
          ],
          "internalType": "struct RequestResponseCoordinatorInterface.RequestCommitment",
          "name": "rc",
          "type": "tuple"
        },
        {
          "internalType": "bool",
          "name": "isDirectPayment",
          "type": "bool"
        }
      ],
      "name": "fulfillDataRequest",
      "outputs": [
        {
          "internalType": "uint256",
          "name": "",
          "type": "uint256"
        }
      ],
      "stateMutability": "nonpayable",
      "type": "function"
    },
    {
      "inputs": [],
      "name": "getConfig",
      "outputs": [
        {
          "internalType": "uint32",
          "name": "maxGasLimit",
          "type": "uint32"
        },
        {
          "internalType": "uint32",
          "name": "gasAfterPaymentCalculation",
          "type": "uint32"
        }
      ],
      "stateMutability": "view",
      "type": "function"
    },
    {
      "inputs": [],
      "name": "getDirectPaymentConfig",
      "outputs": [
        {
          "internalType": "uint256",
          "name": "",
          "type": "uint256"
        },
        {
          "internalType": "uint256",
          "name": "",
          "type": "uint256"
        }
      ],
      "stateMutability": "view",
      "type": "function"
    },
    {
      "inputs": [],
      "name": "getFeeConfig",
      "outputs": [
        {
          "internalType": "uint32",
          "name": "fulfillmentFlatFeeKlayPPMTier1",
          "type": "uint32"
        },
        {
          "internalType": "uint32",
          "name": "fulfillmentFlatFeeKlayPPMTier2",
          "type": "uint32"
        },
        {
          "internalType": "uint32",
          "name": "fulfillmentFlatFeeKlayPPMTier3",
          "type": "uint32"
        },
        {
          "internalType": "uint32",
          "name": "fulfillmentFlatFeeKlayPPMTier4",
          "type": "uint32"
        },
        {
          "internalType": "uint32",
          "name": "fulfillmentFlatFeeKlayPPMTier5",
          "type": "uint32"
        },
        {
          "internalType": "uint24",
          "name": "reqsForTier2",
          "type": "uint24"
        },
        {
          "internalType": "uint24",
          "name": "reqsForTier3",
          "type": "uint24"
        },
        {
          "internalType": "uint24",
          "name": "reqsForTier4",
          "type": "uint24"
        },
        {
          "internalType": "uint24",
          "name": "reqsForTier5",
          "type": "uint24"
        }
      ],
      "stateMutability": "view",
      "type": "function"
    },
    {
      "inputs": [
        {
          "internalType": "uint64",
          "name": "reqCount",
          "type": "uint64"
        }
      ],
      "name": "getFeeTier",
      "outputs": [
        {
          "internalType": "uint32",
          "name": "",
          "type": "uint32"
        }
      ],
      "stateMutability": "view",
      "type": "function"
    },
    {
      "inputs": [],
      "name": "getPrepaymentAddress",
      "outputs": [
        {
          "internalType": "address",
          "name": "",
          "type": "address"
        }
      ],
      "stateMutability": "view",
      "type": "function"
    },
    {
      "inputs": [],
      "name": "owner",
      "outputs": [
        {
          "internalType": "address",
          "name": "",
          "type": "address"
        }
      ],
      "stateMutability": "view",
      "type": "function"
    },
    {
      "inputs": [
        {
          "internalType": "address",
          "name": "consumer",
          "type": "address"
        },
        {
          "internalType": "uint64",
          "name": "accId",
          "type": "uint64"
        },
        {
          "internalType": "uint64",
          "name": "nonce",
          "type": "uint64"
        }
      ],
      "name": "pendingRequestExists",
      "outputs": [
        {
          "internalType": "bool",
          "name": "",
          "type": "bool"
        }
      ],
      "stateMutability": "view",
      "type": "function"
    },
    {
      "inputs": [
        {
          "internalType": "address",
          "name": "oracle",
          "type": "address"
        }
      ],
      "name": "registerOracle",
      "outputs": [],
      "stateMutability": "nonpayable",
      "type": "function"
    },
    {
      "inputs": [],
      "name": "renounceOwnership",
      "outputs": [],
      "stateMutability": "nonpayable",
      "type": "function"
    },
    {
      "inputs": [
        {
          "components": [
            {
              "internalType": "bytes32",
              "name": "id",
              "type": "bytes32"
            },
            {
              "internalType": "address",
              "name": "callbackAddr",
              "type": "address"
            },
            {
              "internalType": "bytes4",
              "name": "callbackFunc",
              "type": "bytes4"
            },
            {
              "internalType": "uint256",
              "name": "nonce",
              "type": "uint256"
            },
            {
              "components": [
                {
                  "internalType": "bytes",
                  "name": "buf",
                  "type": "bytes"
                },
                {
                  "internalType": "uint256",
                  "name": "capacity",
                  "type": "uint256"
                }
              ],
              "internalType": "struct Buffer.buffer",
              "name": "buf",
              "type": "tuple"
            }
          ],
          "internalType": "struct Orakl.Request",
          "name": "req",
          "type": "tuple"
        },
        {
          "internalType": "uint32",
          "name": "callbackGasLimit",
          "type": "uint32"
        },
        {
          "internalType": "uint64",
          "name": "accId",
          "type": "uint64"
        }
      ],
      "name": "requestData",
      "outputs": [
        {
          "internalType": "uint256",
          "name": "requestId",
          "type": "uint256"
        }
      ],
      "stateMutability": "nonpayable",
      "type": "function"
    },
    {
      "inputs": [
        {
          "components": [
            {
              "internalType": "bytes32",
              "name": "id",
              "type": "bytes32"
            },
            {
              "internalType": "address",
              "name": "callbackAddr",
              "type": "address"
            },
            {
              "internalType": "bytes4",
              "name": "callbackFunc",
              "type": "bytes4"
            },
            {
              "internalType": "uint256",
              "name": "nonce",
              "type": "uint256"
            },
            {
              "components": [
                {
                  "internalType": "bytes",
                  "name": "buf",
                  "type": "bytes"
                },
                {
                  "internalType": "uint256",
                  "name": "capacity",
                  "type": "uint256"
                }
              ],
              "internalType": "struct Buffer.buffer",
              "name": "buf",
              "type": "tuple"
            }
          ],
          "internalType": "struct Orakl.Request",
          "name": "req",
          "type": "tuple"
        },
        {
          "internalType": "uint32",
          "name": "callbackGasLimit",
          "type": "uint32"
        }
      ],
      "name": "requestData",
      "outputs": [
        {
          "internalType": "uint256",
          "name": "",
          "type": "uint256"
        }
      ],
      "stateMutability": "payable",
      "type": "function"
    },
    {
      "inputs": [],
      "name": "s_minBalance",
      "outputs": [
        {
          "internalType": "uint256",
          "name": "",
          "type": "uint256"
        }
      ],
      "stateMutability": "view",
      "type": "function"
    },
    {
      "inputs": [
        {
          "internalType": "uint32",
          "name": "maxGasLimit",
          "type": "uint32"
        },
        {
          "internalType": "uint32",
          "name": "gasAfterPaymentCalculation",
          "type": "uint32"
        },
        {
          "components": [
            {
              "internalType": "uint32",
              "name": "fulfillmentFlatFeeKlayPPMTier1",
              "type": "uint32"
            },
            {
              "internalType": "uint32",
              "name": "fulfillmentFlatFeeKlayPPMTier2",
              "type": "uint32"
            },
            {
              "internalType": "uint32",
              "name": "fulfillmentFlatFeeKlayPPMTier3",
              "type": "uint32"
            },
            {
              "internalType": "uint32",
              "name": "fulfillmentFlatFeeKlayPPMTier4",
              "type": "uint32"
            },
            {
              "internalType": "uint32",
              "name": "fulfillmentFlatFeeKlayPPMTier5",
              "type": "uint32"
            },
            {
              "internalType": "uint24",
              "name": "reqsForTier2",
              "type": "uint24"
            },
            {
              "internalType": "uint24",
              "name": "reqsForTier3",
              "type": "uint24"
            },
            {
              "internalType": "uint24",
              "name": "reqsForTier4",
              "type": "uint24"
            },
            {
              "internalType": "uint24",
              "name": "reqsForTier5",
              "type": "uint24"
            }
          ],
          "internalType": "struct RequestResponseCoordinator.FeeConfig",
          "name": "feeConfig",
          "type": "tuple"
        }
      ],
      "name": "setConfig",
      "outputs": [],
      "stateMutability": "nonpayable",
      "type": "function"
    },
    {
      "inputs": [
        {
          "components": [
            {
              "internalType": "uint256",
              "name": "fulfillmentFee",
              "type": "uint256"
            },
            {
              "internalType": "uint256",
              "name": "baseFee",
              "type": "uint256"
            }
          ],
          "internalType": "struct RequestResponseCoordinator.DirectPaymentConfig",
          "name": "directPaymentConfig",
          "type": "tuple"
        }
      ],
      "name": "setDirectPaymentConfig",
      "outputs": [],
      "stateMutability": "nonpayable",
      "type": "function"
    },
    {
      "inputs": [
        {
          "internalType": "uint256",
          "name": "minBalance",
          "type": "uint256"
        }
      ],
      "name": "setMinBalance",
      "outputs": [],
      "stateMutability": "nonpayable",
      "type": "function"
    },
    {
      "inputs": [
        {
          "internalType": "address",
          "name": "newOwner",
          "type": "address"
        }
      ],
      "name": "transferOwnership",
      "outputs": [],
      "stateMutability": "nonpayable",
      "type": "function"
    },
    {
      "inputs": [],
      "name": "typeAndVersion",
      "outputs": [
        {
          "internalType": "string",
          "name": "",
          "type": "string"
        }
      ],
      "stateMutability": "pure",
      "type": "function"
    }
  ],
  "transactionHash": "0x71ced66586448a21ce3565f97ecb5fdcdbfeeda38ed0624fae106cc8a6777115",
  "args": [
    "0xE22e67F7ce4b6FA9E3ABCB6125Fb53Cb577B34Ef"
  ],
  "numDeployments": 1,
  "solcInputHash": "fa56e8cc296933aafbed3a3276231c2d",
  "bytecode": "0x60806040523480156200001157600080fd5b5060405162002487380380620024878339810160408190526200003491620000b5565b6200003f3362000065565b600680546001600160a01b0319166001600160a01b0392909216919091179055620000e7565b600080546001600160a01b038381166001600160a01b0319831681178455604051919092169283917f8be0079c531659141344cd1fd0a4f28419497f9722a3daafe3b4186f6b6457e09190a35050565b600060208284031215620000c857600080fd5b81516001600160a01b0381168114620000e057600080fd5b9392505050565b61239080620000f76000396000f3fe60806040526004361061016a5760003560e01c80637d08430e116100cb578063c3f909d41161007f578063d2f9f9a711610059578063d2f9f9a714610491578063e9babaec146104c6578063f2fde38b146104e657600080fd5b8063c3f909d414610425578063c91d956c1461045b578063c9feea4a1461047b57600080fd5b80638da5cb5b116100b05780638da5cb5b146103b55780638df4e3e2146103e7578063a690d7ae1461040757600080fd5b80637d08430e1461036d57806388e759721461038d57600080fd5b8063530863a31161012257806369e7a3e11161010757806369e7a3e114610325578063715018a614610338578063786708e61461034d57600080fd5b8063530863a3146102555780635fbbc0d21461027557600080fd5b80631a892832116101535780631a892832146101e35780631f3133eb146102135780633015394c1461023357600080fd5b806306b5536c1461016f578063181f5a7714610197575b600080fd5b34801561017b57600080fd5b50610184610506565b6040519081526020015b60405180910390f35b3480156101a357600080fd5b50604080518082018252601f81527f52657175657374526573706f6e7365436f6f7264696e61746f722076302e31006020820152905161018e9190611b07565b3480156101ef57600080fd5b506102036101fe366004611b45565b61051d565b604051901515815260200161018e565b34801561021f57600080fd5b5061018461022e366004611c60565b6105b5565b34801561023f57600080fd5b5061025361024e366004611d04565b610984565b005b34801561026157600080fd5b50610184610270366004611e90565b610a58565b34801561028157600080fd5b506008546040805163ffffffff80841682526401000000008404811660208301526801000000000000000084048116928201929092526c01000000000000000000000000830482166060820152600160801b8304909116608082015262ffffff600160a01b8304811660a0830152600160b81b8304811660c0830152600160d01b8304811660e0830152600160e81b9092049091166101008201526101200161018e565b610184610333366004611ed7565b610b52565b34801561034457600080fd5b50610253610dd6565b34801561035957600080fd5b50610253610368366004611f38565b610dea565b34801561037957600080fd5b5061025361038836600461202a565b611036565b34801561039957600080fd5b50600954600a546040805192835260208301919091520161018e565b3480156103c157600080fd5b506000546001600160a01b03165b6040516001600160a01b03909116815260200161018e565b3480156103f357600080fd5b50610253610402366004612079565b61108a565b34801561041357600080fd5b506006546001600160a01b03166103cf565b34801561043157600080fd5b506007546040805163ffffffff80841682526501000000000090930490921660208301520161018e565b34801561046757600080fd5b50610253610476366004611d04565b611257565b34801561048757600080fd5b5061018460055481565b34801561049d57600080fd5b506104b16104ac366004612096565b611294565b60405163ffffffff909116815260200161018e565b3480156104d257600080fd5b506102536104e1366004612079565b611426565b3480156104f257600080fd5b50610253610501366004612079565b61151e565b600a54600954600091610518916120c9565b905090565b6000805b6004548110156105a857604080516001600160a01b03871660208083019190915267ffffffffffffffff8781168385015286166060808401919091528351808403909101815260809092018352815191810191909120600081815260029092529190205415610595576001925050506105ae565b50806105a0816120dc565b915050610521565b50600090505b9392505050565b600754600090640100000000900460ff16156105e45760405163769dd35360e11b815260040160405180910390fd5b60005a3360009081526001602052604090205490915060ff1661063a576040517fd6c337480000000000000000000000000000000000000000000000000000000081523360048201526024015b60405180910390fd5b6000868152600260205260408120549081900361066a57604051631b44092560e11b815260040160405180910390fd5b845160208087015160408089015160608a015191516106c9958d95909493910194855267ffffffffffffffff938416602086015291909216604084015263ffffffff9190911660608301526001600160a01b0316608082015260a00190565b604051602081830303815290604052805190602001208114610717576040517fd529142c00000000000000000000000000000000000000000000000000000000815260040160405180910390fd5b60008781526002602090815260408083208390558051602481018b905260448082018b9052825180830390910181526064909101825291820180517bffffffffffffffffffffffffffffffffffffffffffffffffffffffff167f77f262ea000000000000000000000000000000000000000000000000000000001790526007805464010000000064ff0000000019909116179055870151606088015183916107c89163ffffffff90911690846115ae565b6007805464ff000000001916905560065460208a0151604051633bd7108d60e11b815267ffffffffffffffff909116600482015291925060009182916001600160a01b0316906377ae211a90602401600060405180830381865afa158015610834573d6000803e3d6000fd5b505050506040513d6000823e601f3d908101601f1916820160405261085c91908101906120f5565b5050915091506000891561087157508161089a565b60075461089790899065010000000000900463ffffffff1661089285611294565b6115fa565b90505b60065460208c01516040517fea74b84d00000000000000000000000000000000000000000000000000000000815267ffffffffffffffff9091166004820152602481018390523360448201526001600160a01b039091169063ea74b84d90606401600060405180830381600087803b15801561091557600080fd5b505af1158015610929573d6000803e3d6000fd5b5050604080518f815260208101859052871515918101919091528f92507f46061247432b981794044ad3de8e8938f53ecdf3f7bc2efab12123f71f1b500f915060600160405180910390a29c9b505050505050505050505050565b600081815260026020526040812054908190036109b457604051631b44092560e11b815260040160405180910390fd5b6000828152600360205260409020546001600160a01b03163314610a04576040517f517907dd00000000000000000000000000000000000000000000000000000000815260040160405180910390fd5b6000828152600260209081526040808320839055600390915280822080546001600160a01b03191690555183917fd2e2d1db782d45df0f8645776294aaf5eeaa836975f36f812ee194a8f138e13f91a25050565b600754600090640100000000900460ff1615610a875760405163769dd35360e11b815260040160405180910390fd5b600654604051633bd7108d60e11b815267ffffffffffffffff8416600482015260009182916001600160a01b03909116906377ae211a90602401600060405180830381865afa158015610ade573d6000803e3d6000fd5b505050506040513d6000823e601f3d908101601f19168201604052610b0691908101906120f5565b5050509050600554811015610b3c5760055460405163b99e2ab760e01b8152610631918391600401918252602082015260400190565b610b4886858785611641565b9695505050505050565b600080610b5d610506565b905080341015610b895760405163b99e2ab760e01b815234600482015260248101829052604401610631565b600654604080517f9dca362f00000000000000000000000000000000000000000000000000000000815290516000926001600160a01b031691639dca362f916004808301926020929190829003018187875af1158015610bed573d6000803e3d6000fd5b505050506040513d601f19601f82011682018060405250810190610c1191906121d8565b6006546040517f7341c10c00000000000000000000000000000000000000000000000000000000815267ffffffffffffffff831660048201523360248201529192506001600160a01b031690637341c10c90604401600060405180830381600087803b158015610c8057600080fd5b505af1158015610c94573d6000803e3d6000fd5b505050506000600190506000610cac87848885611641565b6006546040517f1376583800000000000000000000000000000000000000000000000000000000815267ffffffffffffffff861660048201529192506001600160a01b03169063137658389086906024016000604051808303818588803b158015610d1657600080fd5b505af1158015610d2a573d6000803e3d6000fd5b505050505060008434610d3d91906121f5565b90508015610dc957604051600090339083908381818185875af1925050503d8060008114610d87576040519150601f19603f3d011682016040523d82523d6000602084013e610d8c565b606091505b5050905080610dc7576040517fef7a4b6100000000000000000000000000000000000000000000000000000000815260040160405180910390fd5b505b5093505050505b92915050565b610dde611a17565b610de86000611a71565b565b610df2611a17565b604080516060808201835263ffffffff86811680845260006020808601919091528783169486018590526007805468ffffffffffffffffff191690921765010000000000909502949094179055845160088054948701518787015194880151608089015160a08a015160c08b015160e08c01516101008d015197891667ffffffffffffffff19909b169a909a1764010000000095891695909502949094177fffffffffffffffffffffffffffffffff0000000000000000ffffffffffffffff1668010000000000000000988816989098027fffffffffffffffffffffffffffffffff00000000ffffffffffffffffffffffff16979097176c0100000000000000000000000092871692909202919091177fffffffffffffffffff00000000000000ffffffffffffffffffffffffffffffff16600160801b91909516027fffffffffffffffffff000000ffffffffffffffffffffffffffffffffffffffff1693909317600160a01b62ffffff95861602177fffffff000000000000ffffffffffffffffffffffffffffffffffffffffffffff16600160b81b938516939093027fffffff000000ffffffffffffffffffffffffffffffffffffffffffffffffffff1692909217600160d01b94841694909402939093177cffffffffffffffffffffffffffffffffffffffffffffffffffffffffff16600160e81b929093169190910291909117815590517f107fdd8d898f7a380d4a448bb9882a3e1bb767bd803a09721d828b4ce217b043916110299186918691612208565b60405180910390a1505050565b61103e611a17565b80516009819055602080830151600a81905560408051938452918301527f6e080c19f3bdc7644116da0ba00746ad7b6452f89b6634457e4a41c331fd03dd91015b60405180910390a150565b611092611a17565b6001600160a01b03811660009081526001602052604090205460ff166110ef576040517ff9a0ffdf0000000000000000000000000000000000000000000000000000000081526001600160a01b0382166004820152602401610631565b6001600160a01b0381166000908152600160205260408120805460ff191690555b60045481101561121d57816001600160a01b031660048281548110611137576111376122c5565b6000918252602090912001546001600160a01b03160361120b576004805460009190611165906001906121f5565b81548110611175576111756122c5565b600091825260209091200154600480546001600160a01b0390921692508291849081106111a4576111a46122c5565b9060005260206000200160006101000a8154816001600160a01b0302191690836001600160a01b0316021790555060048054806111e3576111e36122db565b600082815260209020810160001990810180546001600160a01b03191690550190555061121d565b80611215816120dc565b915050611110565b506040516001600160a01b03821681527f5406c1f2d9ece2027a923f317fb5f2370221e330db898c037c10acc0c20495b39060200161107f565b61125f611a17565b60058190556040518181527fc9ac0b9c6116d44b14ac8198e0802802d07cf6956054e7542f0460a4d3423b3a9060200161107f565b604080516101208101825260085463ffffffff80821683526401000000008204811660208401526801000000000000000082048116938301939093526c01000000000000000000000000810483166060830152600160801b8104909216608082015262ffffff600160a01b8304811660a08301819052600160b81b8404821660c0840152600160d01b8404821660e0840152600160e81b9093041661010082015260009167ffffffffffffffff84161161134f575192915050565b8267ffffffffffffffff168160a0015162ffffff1610801561138457508060c0015162ffffff168367ffffffffffffffff1611155b15611393576020015192915050565b8267ffffffffffffffff168160c0015162ffffff161080156113c857508060e0015162ffffff168367ffffffffffffffff1611155b156113d7576040015192915050565b8267ffffffffffffffff168160e0015162ffffff1610801561140d575080610100015162ffffff168367ffffffffffffffff1611155b1561141c576060015192915050565b6080015192915050565b61142e611a17565b6001600160a01b03811660009081526001602052604090205460ff161561148c576040517f6ff7406a0000000000000000000000000000000000000000000000000000000081526001600160a01b0382166004820152602401610631565b6001600160a01b0381166000818152600160208181526040808420805460ff1916841790556004805493840181559093527f8a35acfbc15ff81a39ae7d344fd709f28e8600b4aa8c65c6b64bfe7fe36bd19b90910180546001600160a01b0319168417905590519182527fd9d9fdcc9f936c76b5aafe54fc3db5dcec0c6583c9ccc4abe91d17575c5145a5910161107f565b611526611a17565b6001600160a01b0381166115a25760405162461bcd60e51b815260206004820152602660248201527f4f776e61626c653a206e6577206f776e657220697320746865207a65726f206160448201527f64647265737300000000000000000000000000000000000000000000000000006064820152608401610631565b6115ab81611a71565b50565b60005a6113888110156115c057600080fd5b6113888103905084604082048203116115d857600080fd5b50823b6115e457600080fd5b60008083516020850160008789f1949350505050565b6000805a61160886866120c9565b61161291906121f5565b61161c903a6122f1565b9050600061163563ffffffff851664e8d4a510006122f1565b9050610b4881836120c9565b6006546040517f4a41897300000000000000000000000000000000000000000000000000000000815267ffffffffffffffff8516600482015260009182916001600160a01b0390911690634a418973906024016020604051808303816000875af11580156116b3573d6000803e3d6000fd5b505050506040513d601f19601f820116820180604052508101906116d79190612310565b90506001600160a01b038116611719576040517f6d187b2800000000000000000000000000000000000000000000000000000000815260040160405180910390fd5b6006546040517f6d5e8a7900000000000000000000000000000000000000000000000000000000815233600482015267ffffffffffffffff871660248201526000916001600160a01b031690636d5e8a7990604401602060405180830381865afa15801561178b573d6000803e3d6000fd5b505050506040513d601f19601f820116820180604052508101906117af91906121d8565b90508067ffffffffffffffff16600003611807576040517ff0019fe600000000000000000000000000000000000000000000000000000000815267ffffffffffffffff87166004820152336024820152604401610631565b60075463ffffffff9081169086161115611861576007546040517ff5d7e01e00000000000000000000000000000000000000000000000000000000815263ffffffff80881660048301529091166024820152604401610631565b6006546040517f4000a00700000000000000000000000000000000000000000000000000000000815233600482015267ffffffffffffffff881660248201526000916001600160a01b031690634000a007906044016020604051808303816000875af11580156118d5573d6000803e3d6000fd5b505050506040513d601f19601f820116820180604052508101906118f991906121d8565b604080513360208083019190915267ffffffffffffffff808c1683850152841660608084019190915283518084039091018152608090920190925280519101209091506000906040805160208101839052439181019190915267ffffffffffffffff8a16606082015263ffffffff891660808201523360a082015290915060c00160408051601f1981840301815282825280516020918201206000858152600283528381209190915560039091522080546001600160a01b031916339081179091558a5160808c015151919267ffffffffffffffff8c169285927fabd654d3b85665d34edb5c6165db793362567af860f253a8a91462f31d1cb1c492611a03928e918e919061232d565b60405180910390a498975050505050505050565b6000546001600160a01b03163314610de85760405162461bcd60e51b815260206004820181905260248201527f4f776e61626c653a2063616c6c6572206973206e6f7420746865206f776e65726044820152606401610631565b600080546001600160a01b038381166001600160a01b0319831681178455604051919092169283917f8be0079c531659141344cd1fd0a4f28419497f9722a3daafe3b4186f6b6457e09190a35050565b6000815180845260005b81811015611ae757602081850181015186830182015201611acb565b506000602082860101526020601f19601f83011685010191505092915050565b6020815260006105ae6020830184611ac1565b6001600160a01b03811681146115ab57600080fd5b67ffffffffffffffff811681146115ab57600080fd5b600080600060608486031215611b5a57600080fd5b8335611b6581611b1a565b92506020840135611b7581611b2f565b91506040840135611b8581611b2f565b809150509250925092565b634e487b7160e01b600052604160045260246000fd5b6040516080810167ffffffffffffffff81118282101715611bc957611bc9611b90565b60405290565b6040805190810167ffffffffffffffff81118282101715611bc957611bc9611b90565b604051610120810167ffffffffffffffff81118282101715611bc957611bc9611b90565b604051601f8201601f1916810167ffffffffffffffff81118282101715611c3f57611c3f611b90565b604052919050565b803563ffffffff81168114611c5b57600080fd5b919050565b60008060008084860360e0811215611c7757600080fd5b85359450602086013593506080603f1982011215611c9457600080fd5b50611c9d611ba6565b6040860135611cab81611b2f565b81526060860135611cbb81611b2f565b6020820152611ccc60808701611c47565b604082015260a0860135611cdf81611b1a565b6060820152915060c08501358015158114611cf957600080fd5b939692955090935050565b600060208284031215611d1657600080fd5b5035919050565b600060408284031215611d2f57600080fd5b611d37611bcf565b9050813567ffffffffffffffff80821115611d5157600080fd5b818401915084601f830112611d6557600080fd5b8135602082821115611d7957611d79611b90565b611d8b601f8301601f19168201611c16565b92508183528681838601011115611da157600080fd5b8181850182850137600081838501015282855280860135818601525050505092915050565b600060a08284031215611dd857600080fd5b60405160a0810167ffffffffffffffff8282108183111715611dfc57611dfc611b90565b816040528293508435835260208501359150611e1782611b1a565b816020840152604085013591507fffffffff0000000000000000000000000000000000000000000000000000000082168214611e5257600080fd5b816040840152606085013560608401526080850135915080821115611e7657600080fd5b50611e8385828601611d1d565b6080830152505092915050565b600080600060608486031215611ea557600080fd5b833567ffffffffffffffff811115611ebc57600080fd5b611ec886828701611dc6565b935050611b7560208501611c47565b60008060408385031215611eea57600080fd5b823567ffffffffffffffff811115611f0157600080fd5b611f0d85828601611dc6565b925050611f1c60208401611c47565b90509250929050565b803562ffffff81168114611c5b57600080fd5b6000806000838503610160811215611f4f57600080fd5b611f5885611c47565b9350611f6660208601611c47565b925061012080603f1983011215611f7c57600080fd5b611f84611bf2565b9150611f9260408701611c47565b8252611fa060608701611c47565b6020830152611fb160808701611c47565b6040830152611fc260a08701611c47565b6060830152611fd360c08701611c47565b6080830152611fe460e08701611f25565b60a0830152610100611ff7818801611f25565b60c0840152612007828801611f25565b60e08401526120196101408801611f25565b818401525050809150509250925092565b60006040828403121561203c57600080fd5b6040516040810181811067ffffffffffffffff8211171561205f5761205f611b90565b604052823581526020928301359281019290925250919050565b60006020828403121561208b57600080fd5b81356105ae81611b1a565b6000602082840312156120a857600080fd5b81356105ae81611b2f565b634e487b7160e01b600052601160045260246000fd5b80820180821115610dd057610dd06120b3565b6000600182016120ee576120ee6120b3565b5060010190565b6000806000806080858703121561210b57600080fd5b8451935060208086015161211e81611b2f565b604087015190945061212f81611b1a565b606087015190935067ffffffffffffffff8082111561214d57600080fd5b818801915088601f83011261216157600080fd5b81518181111561217357612173611b90565b8060051b9150612184848301611c16565b818152918301840191848101908b84111561219e57600080fd5b938501935b838510156121c857845192506121b883611b1a565b82825293850193908501906121a3565b989b979a50959850505050505050565b6000602082840312156121ea57600080fd5b81516105ae81611b2f565b81810381811115610dd057610dd06120b3565b63ffffffff84811682528381166020830152825480821660408401526101608301919061224260608501838360201c1663ffffffff169052565b61225960808501838360401c1663ffffffff169052565b61227060a08501838360601c1663ffffffff169052565b61228760c08501838360801c1663ffffffff169052565b62ffffff60a082901c811660e086015260b882901c811661010086015260d082901c1661012085015260e81c61014090930192909252949350505050565b634e487b7160e01b600052603260045260246000fd5b634e487b7160e01b600052603160045260246000fd5b600081600019048311821515161561230b5761230b6120b3565b500290565b60006020828403121561232257600080fd5b81516105ae81611b1a565b84815263ffffffff841660208201528215156040820152608060608201526000610b486080830184611ac156fea2646970667358221220051338b8e5912fb649084f0d55ecaa7c1810769467d48a3bad5f773691a7bad364736f6c63430008100033",
  "devdoc": {
    "kind": "dev",
    "methods": {
      "cancelRequest(uint256)": {
        "params": {
          "requestId": "- ID of the Oracle Request"
        }
      },
      "deregisterOracle(address)": {
        "params": {
          "oracle": "address of the oracle"
        }
      },
      "fulfillDataRequest(uint256,uint256,(uint64,uint64,uint32,address),bool)": {
        "params": {
          "rc": "request commitment pre-image, committed to at request time",
          "requestId": "- ID of the Oracle Request",
          "response": "- Return data for fulfilment"
        }
      },
      "owner()": {
        "details": "Returns the address of the current owner."
      },
      "pendingRequestExists(address,uint64,uint64)": {
        "params": {
          "accId": "- ID of the account"
        },
        "returns": {
          "_0": "true if there exists at least one unfulfilled request for the account, false otherwise."
        }
      },
      "registerOracle(address)": {
        "params": {
          "oracle": "address of the oracle"
        }
      },
      "renounceOwnership()": {
        "details": "Leaves the contract without owner. It will not be possible to call `onlyOwner` functions anymore. Can only be called by the current owner. NOTE: Renouncing ownership will leave the contract without an owner, thereby removing any functionality that is only available to the owner."
      },
      "requestData((bytes32,address,bytes4,uint256,(bytes,uint256)),uint32,uint64)": {
        "details": "Generates and stores a request ID, increments the local nonce, creates a request on the target oracle contract.Emits Requested event.",
        "params": {
          "accId": "- The ID of the account. Must be funded with the minimum account balance required for the selected keyHash.",
          "callbackGasLimit": "- How much gas you'd like to receive in your fulfillRequest callback. Note that gasleft() inside fulfillRequest may be slightly less than this amount because of gas used calling the function (argument decoding etc.), so you may need to request slightly more than you expect to have inside fulfillRequest. The acceptable range is [0, maxGasLimit]",
          "req": "The initialized Request"
        },
        "returns": {
          "requestId": "- A unique identifier of the request. Can be used to match a request to a response in fulfillRequest."
        }
      },
      "setConfig(uint32,uint32,(uint32,uint32,uint32,uint32,uint32,uint24,uint24,uint24,uint24))": {
        "params": {
          "feeConfig": "fee tier configuration",
          "gasAfterPaymentCalculation": "gas used in doing accounting after completing the gas measurement",
          "maxGasLimit": "global max for request gas limit"
        }
      },
      "transferOwnership(address)": {
        "details": "Transfers ownership of the contract to a new account (`newOwner`). Can only be called by the current owner."
      },
      "typeAndVersion()": {
        "returns": {
          "_0": "Type and version string"
        }
      }
    },
    "version": 1
  },
  "userdoc": {
    "kind": "user",
    "methods": {
      "cancelRequest(uint256)": {
        "notice": "Cancelling oracle request"
      },
      "deregisterOracle(address)": {
        "notice": "Deregister an oracle"
      },
      "fulfillDataRequest(uint256,uint256,(uint64,uint64,uint32,address),bool)": {
        "notice": "Fulfils oracle request"
      },
      "pendingRequestExists(address,uint64,uint64)": {
        "notice": "Check to see if there exists a request commitment consumers for all consumers and keyhashes for a given acc."
      },
      "registerOracle(address)": {
        "notice": "Register an oracle"
      },
      "requestData((bytes32,address,bytes4,uint256,(bytes,uint256)),uint32,uint64)": {
        "notice": "Creates a request to RequestResponse oracle"
      },
      "setConfig(uint32,uint32,(uint32,uint32,uint32,uint32,uint32,uint24,uint24,uint24,uint24))": {
        "notice": "Sets the general configuration"
      },
      "typeAndVersion()": {
        "notice": "The type and version of this contract"
      }
    },
    "version": 1
  },
  "storageLayout": {
    "storage": [
      {
        "astId": 546,
        "contract": "src/v0.1/RequestResponseCoordinator.sol:RequestResponseCoordinator",
        "label": "_owner",
        "offset": 0,
        "slot": "0",
        "type": "t_address"
      },
      {
        "astId": 7376,
        "contract": "src/v0.1/RequestResponseCoordinator.sol:RequestResponseCoordinator",
        "label": "s_oracles",
        "offset": 0,
        "slot": "1",
        "type": "t_mapping(t_address,t_bool)"
      },
      {
        "astId": 7380,
        "contract": "src/v0.1/RequestResponseCoordinator.sol:RequestResponseCoordinator",
        "label": "s_requestCommitments",
        "offset": 0,
        "slot": "2",
        "type": "t_mapping(t_uint256,t_bytes32)"
      },
      {
        "astId": 7384,
        "contract": "src/v0.1/RequestResponseCoordinator.sol:RequestResponseCoordinator",
        "label": "s_requestOwner",
        "offset": 0,
        "slot": "3",
        "type": "t_mapping(t_uint256,t_address)"
      },
      {
        "astId": 7387,
        "contract": "src/v0.1/RequestResponseCoordinator.sol:RequestResponseCoordinator",
        "label": "s_registeredOracles",
        "offset": 0,
        "slot": "4",
        "type": "t_array(t_address)dyn_storage"
      },
      {
        "astId": 7389,
        "contract": "src/v0.1/RequestResponseCoordinator.sol:RequestResponseCoordinator",
        "label": "s_minBalance",
        "offset": 0,
        "slot": "5",
        "type": "t_uint256"
      },
      {
        "astId": 7392,
        "contract": "src/v0.1/RequestResponseCoordinator.sol:RequestResponseCoordinator",
        "label": "s_prepayment",
        "offset": 0,
        "slot": "6",
        "type": "t_contract(PrepaymentInterface)10560"
      },
      {
        "astId": 7402,
        "contract": "src/v0.1/RequestResponseCoordinator.sol:RequestResponseCoordinator",
        "label": "s_config",
        "offset": 0,
        "slot": "7",
        "type": "t_struct(Config)7399_storage"
      },
      {
        "astId": 7424,
        "contract": "src/v0.1/RequestResponseCoordinator.sol:RequestResponseCoordinator",
        "label": "s_feeConfig",
        "offset": 0,
        "slot": "8",
        "type": "t_struct(FeeConfig)7421_storage"
      },
      {
        "astId": 7432,
        "contract": "src/v0.1/RequestResponseCoordinator.sol:RequestResponseCoordinator",
        "label": "s_directPaymentConfig",
        "offset": 0,
        "slot": "9",
        "type": "t_struct(DirectPaymentConfig)7429_storage"
      }
    ],
    "types": {
      "t_address": {
        "encoding": "inplace",
        "label": "address",
        "numberOfBytes": "20"
      },
      "t_array(t_address)dyn_storage": {
        "base": "t_address",
        "encoding": "dynamic_array",
        "label": "address[]",
        "numberOfBytes": "32"
      },
      "t_bool": {
        "encoding": "inplace",
        "label": "bool",
        "numberOfBytes": "1"
      },
      "t_bytes32": {
        "encoding": "inplace",
        "label": "bytes32",
        "numberOfBytes": "32"
      },
      "t_contract(PrepaymentInterface)10560": {
        "encoding": "inplace",
        "label": "contract PrepaymentInterface",
        "numberOfBytes": "20"
      },
      "t_mapping(t_address,t_bool)": {
        "encoding": "mapping",
        "key": "t_address",
        "label": "mapping(address => bool)",
        "numberOfBytes": "32",
        "value": "t_bool"
      },
      "t_mapping(t_uint256,t_address)": {
        "encoding": "mapping",
        "key": "t_uint256",
        "label": "mapping(uint256 => address)",
        "numberOfBytes": "32",
        "value": "t_address"
      },
      "t_mapping(t_uint256,t_bytes32)": {
        "encoding": "mapping",
        "key": "t_uint256",
        "label": "mapping(uint256 => bytes32)",
        "numberOfBytes": "32",
        "value": "t_bytes32"
      },
      "t_struct(Config)7399_storage": {
        "encoding": "inplace",
        "label": "struct RequestResponseCoordinator.Config",
        "members": [
          {
            "astId": 7394,
            "contract": "src/v0.1/RequestResponseCoordinator.sol:RequestResponseCoordinator",
            "label": "maxGasLimit",
            "offset": 0,
            "slot": "0",
            "type": "t_uint32"
          },
          {
            "astId": 7396,
            "contract": "src/v0.1/RequestResponseCoordinator.sol:RequestResponseCoordinator",
            "label": "reentrancyLock",
            "offset": 4,
            "slot": "0",
            "type": "t_bool"
          },
          {
            "astId": 7398,
            "contract": "src/v0.1/RequestResponseCoordinator.sol:RequestResponseCoordinator",
            "label": "gasAfterPaymentCalculation",
            "offset": 5,
            "slot": "0",
            "type": "t_uint32"
          }
        ],
        "numberOfBytes": "32"
      },
      "t_struct(DirectPaymentConfig)7429_storage": {
        "encoding": "inplace",
        "label": "struct RequestResponseCoordinator.DirectPaymentConfig",
        "members": [
          {
            "astId": 7426,
            "contract": "src/v0.1/RequestResponseCoordinator.sol:RequestResponseCoordinator",
            "label": "fulfillmentFee",
            "offset": 0,
            "slot": "0",
            "type": "t_uint256"
          },
          {
            "astId": 7428,
            "contract": "src/v0.1/RequestResponseCoordinator.sol:RequestResponseCoordinator",
            "label": "baseFee",
            "offset": 0,
            "slot": "1",
            "type": "t_uint256"
          }
        ],
        "numberOfBytes": "64"
      },
      "t_struct(FeeConfig)7421_storage": {
        "encoding": "inplace",
        "label": "struct RequestResponseCoordinator.FeeConfig",
        "members": [
          {
            "astId": 7404,
            "contract": "src/v0.1/RequestResponseCoordinator.sol:RequestResponseCoordinator",
            "label": "fulfillmentFlatFeeKlayPPMTier1",
            "offset": 0,
            "slot": "0",
            "type": "t_uint32"
          },
          {
            "astId": 7406,
            "contract": "src/v0.1/RequestResponseCoordinator.sol:RequestResponseCoordinator",
            "label": "fulfillmentFlatFeeKlayPPMTier2",
            "offset": 4,
            "slot": "0",
            "type": "t_uint32"
          },
          {
            "astId": 7408,
            "contract": "src/v0.1/RequestResponseCoordinator.sol:RequestResponseCoordinator",
            "label": "fulfillmentFlatFeeKlayPPMTier3",
            "offset": 8,
            "slot": "0",
            "type": "t_uint32"
          },
          {
            "astId": 7410,
            "contract": "src/v0.1/RequestResponseCoordinator.sol:RequestResponseCoordinator",
            "label": "fulfillmentFlatFeeKlayPPMTier4",
            "offset": 12,
            "slot": "0",
            "type": "t_uint32"
          },
          {
            "astId": 7412,
            "contract": "src/v0.1/RequestResponseCoordinator.sol:RequestResponseCoordinator",
            "label": "fulfillmentFlatFeeKlayPPMTier5",
            "offset": 16,
            "slot": "0",
            "type": "t_uint32"
          },
          {
            "astId": 7414,
            "contract": "src/v0.1/RequestResponseCoordinator.sol:RequestResponseCoordinator",
            "label": "reqsForTier2",
            "offset": 20,
            "slot": "0",
            "type": "t_uint24"
          },
          {
            "astId": 7416,
            "contract": "src/v0.1/RequestResponseCoordinator.sol:RequestResponseCoordinator",
            "label": "reqsForTier3",
            "offset": 23,
            "slot": "0",
            "type": "t_uint24"
          },
          {
            "astId": 7418,
            "contract": "src/v0.1/RequestResponseCoordinator.sol:RequestResponseCoordinator",
            "label": "reqsForTier4",
            "offset": 26,
            "slot": "0",
            "type": "t_uint24"
          },
          {
            "astId": 7420,
            "contract": "src/v0.1/RequestResponseCoordinator.sol:RequestResponseCoordinator",
            "label": "reqsForTier5",
            "offset": 29,
            "slot": "0",
            "type": "t_uint24"
          }
        ],
        "numberOfBytes": "32"
      },
      "t_uint24": {
        "encoding": "inplace",
        "label": "uint24",
        "numberOfBytes": "3"
      },
      "t_uint256": {
        "encoding": "inplace",
        "label": "uint256",
        "numberOfBytes": "32"
      },
      "t_uint32": {
        "encoding": "inplace",
        "label": "uint32",
        "numberOfBytes": "4"
      }
    }
  }
}