{
  "address": "0x9c73342afD279Cb3106a8F45788973F512d9e40a",
  "abi": [
    {
      "inputs": [
        {
          "internalType": "address",
          "name": "prepayment",
          "type": "address"
        }
      ],
      "stateMutability": "nonpayable",
      "type": "constructor"
    },
    {
      "inputs": [],
      "name": "EvenLengthList",
      "type": "error"
    },
    {
      "inputs": [
        {
          "internalType": "uint32",
          "name": "have",
          "type": "uint32"
        },
        {
          "internalType": "uint32",
          "name": "want",
          "type": "uint32"
        }
      ],
      "name": "GasLimitTooBig",
      "type": "error"
    },
    {
      "inputs": [],
      "name": "IncompatibleJobId",
      "type": "error"
    },
    {
      "inputs": [],
      "name": "IncorrectCommitment",
      "type": "error"
    },
    {
      "inputs": [
        {
          "internalType": "uint256",
          "name": "have",
          "type": "uint256"
        },
        {
          "internalType": "uint256",
          "name": "want",
          "type": "uint256"
        }
      ],
      "name": "InsufficientPayment",
      "type": "error"
    },
    {
      "inputs": [
        {
          "internalType": "uint64",
          "name": "accId",
          "type": "uint64"
        },
        {
          "internalType": "address",
          "name": "consumer",
          "type": "address"
        }
      ],
      "name": "InvalidConsumer",
      "type": "error"
    },
    {
      "inputs": [],
      "name": "InvalidJobId",
      "type": "error"
    },
    {
      "inputs": [],
      "name": "InvalidNumSubmission",
      "type": "error"
    },
    {
      "inputs": [],
      "name": "NoCorrespondingRequest",
      "type": "error"
    },
    {
      "inputs": [
        {
          "internalType": "address",
          "name": "oracle",
          "type": "address"
        }
      ],
      "name": "NoSuchOracle",
      "type": "error"
    },
    {
      "inputs": [],
      "name": "NotRequestOwner",
      "type": "error"
    },
    {
      "inputs": [
        {
          "internalType": "address",
          "name": "oracle",
          "type": "address"
        }
      ],
      "name": "OracleAlreadyRegistered",
      "type": "error"
    },
    {
      "inputs": [],
      "name": "OracleAlreadySubmitted",
      "type": "error"
    },
    {
      "inputs": [],
      "name": "Reentrant",
      "type": "error"
    },
    {
      "inputs": [],
      "name": "RefundFailure",
      "type": "error"
    },
    {
      "inputs": [],
      "name": "TooManyOracles",
      "type": "error"
    },
    {
      "inputs": [
        {
          "internalType": "address",
          "name": "oracle",
          "type": "address"
        }
      ],
      "name": "UnregisteredOracleFulfillment",
      "type": "error"
    },
    {
      "anonymous": false,
      "inputs": [
        {
          "indexed": false,
          "internalType": "uint32",
          "name": "maxGasLimit",
          "type": "uint32"
        },
        {
          "indexed": false,
          "internalType": "uint32",
          "name": "gasAfterPaymentCalculation",
          "type": "uint32"
        },
        {
          "components": [
            {
              "internalType": "uint32",
              "name": "fulfillmentFlatFeeKlayPPMTier1",
              "type": "uint32"
            },
            {
              "internalType": "uint32",
              "name": "fulfillmentFlatFeeKlayPPMTier2",
              "type": "uint32"
            },
            {
              "internalType": "uint32",
              "name": "fulfillmentFlatFeeKlayPPMTier3",
              "type": "uint32"
            },
            {
              "internalType": "uint32",
              "name": "fulfillmentFlatFeeKlayPPMTier4",
              "type": "uint32"
            },
            {
              "internalType": "uint32",
              "name": "fulfillmentFlatFeeKlayPPMTier5",
              "type": "uint32"
            },
            {
              "internalType": "uint24",
              "name": "reqsForTier2",
              "type": "uint24"
            },
            {
              "internalType": "uint24",
              "name": "reqsForTier3",
              "type": "uint24"
            },
            {
              "internalType": "uint24",
              "name": "reqsForTier4",
              "type": "uint24"
            },
            {
              "internalType": "uint24",
              "name": "reqsForTier5",
              "type": "uint24"
            }
          ],
          "indexed": false,
          "internalType": "struct ICoordinatorBase.FeeConfig",
          "name": "feeConfig",
          "type": "tuple"
        }
      ],
      "name": "ConfigSet",
      "type": "event"
    },
    {
      "anonymous": false,
      "inputs": [
        {
          "indexed": true,
          "internalType": "uint256",
          "name": "requestId",
          "type": "uint256"
        },
        {
          "indexed": false,
          "internalType": "bool",
          "name": "response",
          "type": "bool"
        },
        {
          "indexed": false,
          "internalType": "uint256",
          "name": "payment",
          "type": "uint256"
        },
        {
          "indexed": false,
          "internalType": "bool",
          "name": "success",
          "type": "bool"
        }
      ],
      "name": "DataRequestFulfilledBool",
      "type": "event"
    },
    {
      "anonymous": false,
      "inputs": [
        {
          "indexed": true,
          "internalType": "uint256",
          "name": "requestId",
          "type": "uint256"
        },
        {
          "indexed": false,
          "internalType": "bytes",
          "name": "response",
          "type": "bytes"
        },
        {
          "indexed": false,
          "internalType": "uint256",
          "name": "payment",
          "type": "uint256"
        },
        {
          "indexed": false,
          "internalType": "bool",
          "name": "success",
          "type": "bool"
        }
      ],
      "name": "DataRequestFulfilledBytes",
      "type": "event"
    },
    {
      "anonymous": false,
      "inputs": [
        {
          "indexed": true,
          "internalType": "uint256",
          "name": "requestId",
          "type": "uint256"
        },
        {
          "indexed": false,
          "internalType": "bytes32",
          "name": "response",
          "type": "bytes32"
        },
        {
          "indexed": false,
          "internalType": "uint256",
          "name": "payment",
          "type": "uint256"
        },
        {
          "indexed": false,
          "internalType": "bool",
          "name": "success",
          "type": "bool"
        }
      ],
      "name": "DataRequestFulfilledBytes32",
      "type": "event"
    },
    {
      "anonymous": false,
      "inputs": [
        {
          "indexed": true,
          "internalType": "uint256",
          "name": "requestId",
          "type": "uint256"
        },
        {
          "indexed": false,
          "internalType": "int256",
          "name": "response",
          "type": "int256"
        },
        {
          "indexed": false,
          "internalType": "uint256",
          "name": "payment",
          "type": "uint256"
        },
        {
          "indexed": false,
          "internalType": "bool",
          "name": "success",
          "type": "bool"
        }
      ],
      "name": "DataRequestFulfilledInt256",
      "type": "event"
    },
    {
      "anonymous": false,
      "inputs": [
        {
          "indexed": true,
          "internalType": "uint256",
          "name": "requestId",
          "type": "uint256"
        },
        {
          "indexed": false,
          "internalType": "string",
          "name": "response",
          "type": "string"
        },
        {
          "indexed": false,
          "internalType": "uint256",
          "name": "payment",
          "type": "uint256"
        },
        {
          "indexed": false,
          "internalType": "bool",
          "name": "success",
          "type": "bool"
        }
      ],
      "name": "DataRequestFulfilledString",
      "type": "event"
    },
    {
      "anonymous": false,
      "inputs": [
        {
          "indexed": true,
          "internalType": "uint256",
          "name": "requestId",
          "type": "uint256"
        },
        {
          "indexed": false,
          "internalType": "uint256",
          "name": "response",
          "type": "uint256"
        },
        {
          "indexed": false,
          "internalType": "uint256",
          "name": "payment",
          "type": "uint256"
        },
        {
          "indexed": false,
          "internalType": "bool",
          "name": "success",
          "type": "bool"
        }
      ],
      "name": "DataRequestFulfilledUint128",
      "type": "event"
    },
    {
      "anonymous": false,
      "inputs": [
        {
          "indexed": true,
          "internalType": "uint256",
          "name": "requestId",
          "type": "uint256"
        },
        {
          "indexed": false,
          "internalType": "bytes32",
          "name": "jobId",
          "type": "bytes32"
        },
        {
          "indexed": true,
          "internalType": "uint64",
          "name": "accId",
          "type": "uint64"
        },
        {
          "indexed": false,
          "internalType": "uint32",
          "name": "callbackGasLimit",
          "type": "uint32"
        },
        {
          "indexed": true,
          "internalType": "address",
          "name": "sender",
          "type": "address"
        },
        {
          "indexed": false,
          "internalType": "bool",
          "name": "isDirectPayment",
          "type": "bool"
        },
        {
          "indexed": false,
          "internalType": "uint8",
          "name": "numSubmission",
          "type": "uint8"
        },
        {
          "indexed": false,
          "internalType": "bytes",
          "name": "data",
          "type": "bytes"
        }
      ],
      "name": "DataRequested",
      "type": "event"
    },
    {
      "anonymous": false,
      "inputs": [
        {
          "indexed": false,
          "internalType": "address",
          "name": "oracle",
          "type": "address"
        },
        {
          "indexed": false,
          "internalType": "uint256",
          "name": "requestId",
          "type": "uint256"
        }
      ],
      "name": "DataSubmitted",
      "type": "event"
    },
    {
      "anonymous": false,
      "inputs": [
        {
          "indexed": false,
          "internalType": "address",
          "name": "oracle",
          "type": "address"
        }
      ],
      "name": "OracleDeregistered",
      "type": "event"
    },
    {
      "anonymous": false,
      "inputs": [
        {
          "indexed": false,
          "internalType": "address",
          "name": "oracle",
          "type": "address"
        }
      ],
      "name": "OracleRegistered",
      "type": "event"
    },
    {
      "anonymous": false,
      "inputs": [
        {
          "indexed": true,
          "internalType": "address",
          "name": "previousOwner",
          "type": "address"
        },
        {
          "indexed": true,
          "internalType": "address",
          "name": "newOwner",
          "type": "address"
        }
      ],
      "name": "OwnershipTransferred",
      "type": "event"
    },
    {
      "anonymous": false,
      "inputs": [
        {
          "indexed": false,
          "internalType": "address",
          "name": "prepayment",
          "type": "address"
        }
      ],
      "name": "PrepaymentSet",
      "type": "event"
    },
    {
      "anonymous": false,
      "inputs": [
        {
          "indexed": true,
          "internalType": "uint256",
          "name": "requestId",
          "type": "uint256"
        }
      ],
      "name": "RequestCanceled",
      "type": "event"
    },
    {
      "inputs": [],
      "name": "MAX_ORACLES",
      "outputs": [
        {
          "internalType": "uint8",
          "name": "",
          "type": "uint8"
        }
      ],
      "stateMutability": "view",
      "type": "function"
    },
    {
      "inputs": [
        {
          "internalType": "uint256",
          "name": "requestId",
          "type": "uint256"
        }
      ],
      "name": "cancelRequest",
      "outputs": [],
      "stateMutability": "nonpayable",
      "type": "function"
    },
    {
      "inputs": [
        {
          "internalType": "address",
          "name": "oracle",
          "type": "address"
        }
      ],
      "name": "deregisterOracle",
      "outputs": [],
      "stateMutability": "nonpayable",
      "type": "function"
    },
    {
      "inputs": [
        {
          "internalType": "uint64",
          "name": "reqCount",
          "type": "uint64"
        },
        {
          "internalType": "uint8",
          "name": "numSubmission",
          "type": "uint8"
        },
        {
          "internalType": "uint32",
          "name": "callbackGasLimit",
          "type": "uint32"
        }
      ],
      "name": "estimateFee",
      "outputs": [
        {
          "internalType": "uint256",
          "name": "",
          "type": "uint256"
        }
      ],
      "stateMutability": "view",
      "type": "function"
    },
    {
      "inputs": [
        {
          "internalType": "uint256",
          "name": "requestId",
          "type": "uint256"
        },
        {
          "internalType": "bool",
          "name": "response",
          "type": "bool"
        },
        {
          "components": [
            {
              "internalType": "uint64",
              "name": "blockNum",
              "type": "uint64"
            },
            {
              "internalType": "uint64",
              "name": "accId",
              "type": "uint64"
            },
            {
              "internalType": "uint8",
              "name": "numSubmission",
              "type": "uint8"
            },
            {
              "internalType": "uint32",
              "name": "callbackGasLimit",
              "type": "uint32"
            },
            {
              "internalType": "address",
              "name": "sender",
              "type": "address"
            },
            {
              "internalType": "bool",
              "name": "isDirectPayment",
              "type": "bool"
            },
            {
              "internalType": "bytes32",
              "name": "jobId",
              "type": "bytes32"
            }
          ],
          "internalType": "struct IRequestResponseCoordinatorBase.RequestCommitment",
          "name": "rc",
          "type": "tuple"
        }
      ],
      "name": "fulfillDataRequestBool",
      "outputs": [],
      "stateMutability": "nonpayable",
      "type": "function"
    },
    {
      "inputs": [
        {
          "internalType": "uint256",
          "name": "requestId",
          "type": "uint256"
        },
        {
          "internalType": "bytes",
          "name": "response",
          "type": "bytes"
        },
        {
          "components": [
            {
              "internalType": "uint64",
              "name": "blockNum",
              "type": "uint64"
            },
            {
              "internalType": "uint64",
              "name": "accId",
              "type": "uint64"
            },
            {
              "internalType": "uint8",
              "name": "numSubmission",
              "type": "uint8"
            },
            {
              "internalType": "uint32",
              "name": "callbackGasLimit",
              "type": "uint32"
            },
            {
              "internalType": "address",
              "name": "sender",
              "type": "address"
            },
            {
              "internalType": "bool",
              "name": "isDirectPayment",
              "type": "bool"
            },
            {
              "internalType": "bytes32",
              "name": "jobId",
              "type": "bytes32"
            }
          ],
          "internalType": "struct IRequestResponseCoordinatorBase.RequestCommitment",
          "name": "rc",
          "type": "tuple"
        }
      ],
      "name": "fulfillDataRequestBytes",
      "outputs": [],
      "stateMutability": "nonpayable",
      "type": "function"
    },
    {
      "inputs": [
        {
          "internalType": "uint256",
          "name": "requestId",
          "type": "uint256"
        },
        {
          "internalType": "bytes32",
          "name": "response",
          "type": "bytes32"
        },
        {
          "components": [
            {
              "internalType": "uint64",
              "name": "blockNum",
              "type": "uint64"
            },
            {
              "internalType": "uint64",
              "name": "accId",
              "type": "uint64"
            },
            {
              "internalType": "uint8",
              "name": "numSubmission",
              "type": "uint8"
            },
            {
              "internalType": "uint32",
              "name": "callbackGasLimit",
              "type": "uint32"
            },
            {
              "internalType": "address",
              "name": "sender",
              "type": "address"
            },
            {
              "internalType": "bool",
              "name": "isDirectPayment",
              "type": "bool"
            },
            {
              "internalType": "bytes32",
              "name": "jobId",
              "type": "bytes32"
            }
          ],
          "internalType": "struct IRequestResponseCoordinatorBase.RequestCommitment",
          "name": "rc",
          "type": "tuple"
        }
      ],
      "name": "fulfillDataRequestBytes32",
      "outputs": [],
      "stateMutability": "nonpayable",
      "type": "function"
    },
    {
      "inputs": [
        {
          "internalType": "uint256",
          "name": "requestId",
          "type": "uint256"
        },
        {
          "internalType": "int256",
          "name": "response",
          "type": "int256"
        },
        {
          "components": [
            {
              "internalType": "uint64",
              "name": "blockNum",
              "type": "uint64"
            },
            {
              "internalType": "uint64",
              "name": "accId",
              "type": "uint64"
            },
            {
              "internalType": "uint8",
              "name": "numSubmission",
              "type": "uint8"
            },
            {
              "internalType": "uint32",
              "name": "callbackGasLimit",
              "type": "uint32"
            },
            {
              "internalType": "address",
              "name": "sender",
              "type": "address"
            },
            {
              "internalType": "bool",
              "name": "isDirectPayment",
              "type": "bool"
            },
            {
              "internalType": "bytes32",
              "name": "jobId",
              "type": "bytes32"
            }
          ],
          "internalType": "struct IRequestResponseCoordinatorBase.RequestCommitment",
          "name": "rc",
          "type": "tuple"
        }
      ],
      "name": "fulfillDataRequestInt256",
      "outputs": [],
      "stateMutability": "nonpayable",
      "type": "function"
    },
    {
      "inputs": [
        {
          "internalType": "uint256",
          "name": "requestId",
          "type": "uint256"
        },
        {
          "internalType": "string",
          "name": "response",
          "type": "string"
        },
        {
          "components": [
            {
              "internalType": "uint64",
              "name": "blockNum",
              "type": "uint64"
            },
            {
              "internalType": "uint64",
              "name": "accId",
              "type": "uint64"
            },
            {
              "internalType": "uint8",
              "name": "numSubmission",
              "type": "uint8"
            },
            {
              "internalType": "uint32",
              "name": "callbackGasLimit",
              "type": "uint32"
            },
            {
              "internalType": "address",
              "name": "sender",
              "type": "address"
            },
            {
              "internalType": "bool",
              "name": "isDirectPayment",
              "type": "bool"
            },
            {
              "internalType": "bytes32",
              "name": "jobId",
              "type": "bytes32"
            }
          ],
          "internalType": "struct IRequestResponseCoordinatorBase.RequestCommitment",
          "name": "rc",
          "type": "tuple"
        }
      ],
      "name": "fulfillDataRequestString",
      "outputs": [],
      "stateMutability": "nonpayable",
      "type": "function"
    },
    {
      "inputs": [
        {
          "internalType": "uint256",
          "name": "requestId",
          "type": "uint256"
        },
        {
          "internalType": "uint128",
          "name": "response",
          "type": "uint128"
        },
        {
          "components": [
            {
              "internalType": "uint64",
              "name": "blockNum",
              "type": "uint64"
            },
            {
              "internalType": "uint64",
              "name": "accId",
              "type": "uint64"
            },
            {
              "internalType": "uint8",
              "name": "numSubmission",
              "type": "uint8"
            },
            {
              "internalType": "uint32",
              "name": "callbackGasLimit",
              "type": "uint32"
            },
            {
              "internalType": "address",
              "name": "sender",
              "type": "address"
            },
            {
              "internalType": "bool",
              "name": "isDirectPayment",
              "type": "bool"
            },
            {
              "internalType": "bytes32",
              "name": "jobId",
              "type": "bytes32"
            }
          ],
          "internalType": "struct IRequestResponseCoordinatorBase.RequestCommitment",
          "name": "rc",
          "type": "tuple"
        }
      ],
      "name": "fulfillDataRequestUint128",
      "outputs": [],
      "stateMutability": "nonpayable",
      "type": "function"
    },
    {
      "inputs": [
        {
          "internalType": "uint256",
          "name": "requestId",
          "type": "uint256"
        }
      ],
      "name": "getCommitment",
      "outputs": [
        {
          "internalType": "bytes32",
          "name": "",
          "type": "bytes32"
        }
      ],
      "stateMutability": "view",
      "type": "function"
    },
    {
      "inputs": [],
      "name": "getConfig",
      "outputs": [
        {
          "internalType": "uint32",
          "name": "maxGasLimit",
          "type": "uint32"
        },
        {
          "internalType": "uint32",
          "name": "gasAfterPaymentCalculation",
          "type": "uint32"
        }
      ],
      "stateMutability": "view",
      "type": "function"
    },
    {
      "inputs": [],
      "name": "getFeeConfig",
      "outputs": [
        {
          "internalType": "uint32",
          "name": "fulfillmentFlatFeeKlayPPMTier1",
          "type": "uint32"
        },
        {
          "internalType": "uint32",
          "name": "fulfillmentFlatFeeKlayPPMTier2",
          "type": "uint32"
        },
        {
          "internalType": "uint32",
          "name": "fulfillmentFlatFeeKlayPPMTier3",
          "type": "uint32"
        },
        {
          "internalType": "uint32",
          "name": "fulfillmentFlatFeeKlayPPMTier4",
          "type": "uint32"
        },
        {
          "internalType": "uint32",
          "name": "fulfillmentFlatFeeKlayPPMTier5",
          "type": "uint32"
        },
        {
          "internalType": "uint24",
          "name": "reqsForTier2",
          "type": "uint24"
        },
        {
          "internalType": "uint24",
          "name": "reqsForTier3",
          "type": "uint24"
        },
        {
          "internalType": "uint24",
          "name": "reqsForTier4",
          "type": "uint24"
        },
        {
          "internalType": "uint24",
          "name": "reqsForTier5",
          "type": "uint24"
        }
      ],
      "stateMutability": "view",
      "type": "function"
    },
    {
      "inputs": [],
      "name": "getPrepaymentAddress",
      "outputs": [
        {
          "internalType": "address",
          "name": "",
          "type": "address"
        }
      ],
      "stateMutability": "view",
      "type": "function"
    },
    {
      "inputs": [
        {
          "internalType": "address",
          "name": "oracle",
          "type": "address"
        }
      ],
      "name": "isOracleRegistered",
      "outputs": [
        {
          "internalType": "bool",
          "name": "",
          "type": "bool"
        }
      ],
      "stateMutability": "view",
      "type": "function"
    },
    {
      "inputs": [],
      "name": "owner",
      "outputs": [
        {
          "internalType": "address",
          "name": "",
          "type": "address"
        }
      ],
      "stateMutability": "view",
      "type": "function"
    },
    {
      "inputs": [
        {
          "internalType": "address",
          "name": "consumer",
          "type": "address"
        },
        {
          "internalType": "uint64",
          "name": "accId",
          "type": "uint64"
        },
        {
          "internalType": "uint64",
          "name": "nonce",
          "type": "uint64"
        }
      ],
      "name": "pendingRequestExists",
      "outputs": [
        {
          "internalType": "bool",
          "name": "",
          "type": "bool"
        }
      ],
      "stateMutability": "view",
      "type": "function"
    },
    {
      "inputs": [
        {
          "internalType": "address",
          "name": "oracle",
          "type": "address"
        }
      ],
      "name": "registerOracle",
      "outputs": [],
      "stateMutability": "nonpayable",
      "type": "function"
    },
    {
      "inputs": [],
      "name": "renounceOwnership",
      "outputs": [],
      "stateMutability": "nonpayable",
      "type": "function"
    },
    {
      "inputs": [
        {
          "components": [
            {
              "internalType": "bytes32",
              "name": "id",
              "type": "bytes32"
            },
            {
              "internalType": "address",
              "name": "callbackAddr",
              "type": "address"
            },
            {
              "internalType": "bytes4",
              "name": "callbackFunc",
              "type": "bytes4"
            },
            {
              "internalType": "uint256",
              "name": "nonce",
              "type": "uint256"
            },
            {
              "components": [
                {
                  "internalType": "bytes",
                  "name": "buf",
                  "type": "bytes"
                },
                {
                  "internalType": "uint256",
                  "name": "capacity",
                  "type": "uint256"
                }
              ],
              "internalType": "struct Buffer.buffer",
              "name": "buf",
              "type": "tuple"
            }
          ],
          "internalType": "struct Orakl.Request",
          "name": "req",
          "type": "tuple"
        },
        {
          "internalType": "uint32",
          "name": "callbackGasLimit",
          "type": "uint32"
        },
        {
          "internalType": "uint64",
          "name": "accId",
          "type": "uint64"
        },
        {
          "internalType": "uint8",
          "name": "numSubmission",
          "type": "uint8"
        }
      ],
      "name": "requestData",
      "outputs": [
        {
          "internalType": "uint256",
          "name": "",
          "type": "uint256"
        }
      ],
      "stateMutability": "nonpayable",
      "type": "function"
    },
    {
      "inputs": [
        {
          "components": [
            {
              "internalType": "bytes32",
              "name": "id",
              "type": "bytes32"
            },
            {
              "internalType": "address",
              "name": "callbackAddr",
              "type": "address"
            },
            {
              "internalType": "bytes4",
              "name": "callbackFunc",
              "type": "bytes4"
            },
            {
              "internalType": "uint256",
              "name": "nonce",
              "type": "uint256"
            },
            {
              "components": [
                {
                  "internalType": "bytes",
                  "name": "buf",
                  "type": "bytes"
                },
                {
                  "internalType": "uint256",
                  "name": "capacity",
                  "type": "uint256"
                }
              ],
              "internalType": "struct Buffer.buffer",
              "name": "buf",
              "type": "tuple"
            }
          ],
          "internalType": "struct Orakl.Request",
          "name": "req",
          "type": "tuple"
        },
        {
          "internalType": "uint32",
          "name": "callbackGasLimit",
          "type": "uint32"
        },
        {
          "internalType": "uint8",
          "name": "numSubmission",
          "type": "uint8"
        },
        {
          "internalType": "address",
          "name": "refundRecipient",
          "type": "address"
        }
      ],
      "name": "requestData",
      "outputs": [
        {
          "internalType": "uint256",
          "name": "",
          "type": "uint256"
        }
      ],
      "stateMutability": "payable",
      "type": "function"
    },
    {
      "inputs": [
        {
          "internalType": "uint256",
          "name": "",
          "type": "uint256"
        }
      ],
      "name": "sOracles",
      "outputs": [
        {
          "internalType": "address",
          "name": "",
          "type": "address"
        }
      ],
      "stateMutability": "view",
      "type": "function"
    },
    {
      "inputs": [
        {
          "internalType": "uint32",
          "name": "maxGasLimit",
          "type": "uint32"
        },
        {
          "internalType": "uint32",
          "name": "gasAfterPaymentCalculation",
          "type": "uint32"
        },
        {
          "components": [
            {
              "internalType": "uint32",
              "name": "fulfillmentFlatFeeKlayPPMTier1",
              "type": "uint32"
            },
            {
              "internalType": "uint32",
              "name": "fulfillmentFlatFeeKlayPPMTier2",
              "type": "uint32"
            },
            {
              "internalType": "uint32",
              "name": "fulfillmentFlatFeeKlayPPMTier3",
              "type": "uint32"
            },
            {
              "internalType": "uint32",
              "name": "fulfillmentFlatFeeKlayPPMTier4",
              "type": "uint32"
            },
            {
              "internalType": "uint32",
              "name": "fulfillmentFlatFeeKlayPPMTier5",
              "type": "uint32"
            },
            {
              "internalType": "uint24",
              "name": "reqsForTier2",
              "type": "uint24"
            },
            {
              "internalType": "uint24",
              "name": "reqsForTier3",
              "type": "uint24"
            },
            {
              "internalType": "uint24",
              "name": "reqsForTier4",
              "type": "uint24"
            },
            {
              "internalType": "uint24",
              "name": "reqsForTier5",
              "type": "uint24"
            }
          ],
          "internalType": "struct ICoordinatorBase.FeeConfig",
          "name": "feeConfig",
          "type": "tuple"
        }
      ],
      "name": "setConfig",
      "outputs": [],
      "stateMutability": "nonpayable",
      "type": "function"
    },
    {
      "inputs": [
        {
          "internalType": "address",
          "name": "newOwner",
          "type": "address"
        }
      ],
      "name": "transferOwnership",
      "outputs": [],
      "stateMutability": "nonpayable",
      "type": "function"
    },
    {
      "inputs": [],
      "name": "typeAndVersion",
      "outputs": [
        {
          "internalType": "string",
          "name": "",
          "type": "string"
        }
      ],
      "stateMutability": "pure",
      "type": "function"
    },
    {
      "inputs": [
        {
          "internalType": "bytes32",
          "name": "jobId",
          "type": "bytes32"
        },
        {
          "internalType": "uint8",
          "name": "numSubmission",
          "type": "uint8"
        }
      ],
      "name": "validateNumSubmission",
      "outputs": [],
      "stateMutability": "view",
      "type": "function"
    }
  ],
  "transactionHash": "0xc5a7dcc11d743bc6d58ddf27e3a5543863f1ec1420ad1ef321b98027d6fc7140",
  "args": [
    "0xf37a736b476fCEaB261371A3B3B330772630b0bF"
  ],
  "numDeployments": 1,
  "solcInputHash": "287924cdab12013ae3fe30e077f4a3d5",
  "bytecode": "0x60806040523480156200001157600080fd5b50604051620049b8380380620049b8833981016040819052620000349162000313565b6200003f33620002c3565b6001600960006040516020016200006390660ead2dce86264760cb1b815260070190565b60405160208183030381529060405280519060200120815260200190815260200160002060006101000a81548160ff021916908315150217905550600160096000604051602001620000c1906534b73a191a9b60d11b815260060190565b60405160208183030381529060405280519060200120815260200190815260200160002060006101000a81548160ff0219169083151502179055506001600960006040516020016200011d9063189bdbdb60e21b815260040190565b60405160208183030381529060405280519060200120815260200190815260200160002060006101000a81548160ff0219169083151502179055506001600960006040516020016200017b9065737472696e6760d01b815260060190565b60405160208183030381529060405280519060200120815260200190815260200160002060006101000a81548160ff021916908315150217905550600160096000604051602001620001da9066313cba32b9999960c91b815260070190565b60405160208183030381529060405280519060200120815260200190815260200160002060006101000a81548160ff021916908315150217905550600160096000604051602001620002379064627974657360d81b815260050190565b60408051808303601f190181529181528151602092830120835282820193909352908201600020805460ff191693151593909317909255600480546001600160a01b0319166001600160a01b03851690811790915590519081527f9401527b1b86caed93cfabfbb71d3a9b28c5e923529aa86ebd183664194b013d910160405180910390a15062000345565b600080546001600160a01b038381166001600160a01b0319831681178455604051919092169283917f8be0079c531659141344cd1fd0a4f28419497f9722a3daafe3b4186f6b6457e09190a35050565b6000602082840312156200032657600080fd5b81516001600160a01b03811681146200033e57600080fd5b9392505050565b61466380620003556000396000f3fe6080604052600436106101a15760003560e01c8063a353ddb8116100e1578063c3f909d41161008a578063d98196b311610064578063d98196b314610586578063e9babaec146105a6578063f2fde38b146105c6578063f30be551146105e657600080fd5b8063c3f909d414610510578063c6f3401314610546578063d1bf555c1461056657600080fd5b8063b9b55c9a116100bb578063b9b55c9a14610490578063bf8542a9146104c9578063bfedbfa0146104e957600080fd5b8063a353ddb81461043f578063a4dfe92f1461045f578063a690d7ae1461047257600080fd5b8063752f8c141161014e5780638da5cb5b116101285780638da5cb5b146103ad5780638df4e3e2146103df5780639ad6c347146103ff578063a185c35f1461041f57600080fd5b8063752f8c141461034d578063786708e61461036d578063796184171461038d57600080fd5b80635fbbc0d21161017f5780635fbbc0d21461024d57806369bcdb7d146102fd578063715018a61461033857600080fd5b8063181f5a77146101a65780631a892832146101fb5780633015394c1461022b575b600080fd5b3480156101b257600080fd5b50604080518082018252601f81527f52657175657374526573706f6e7365436f6f7264696e61746f722076302e3100602082015290516101f29190613a92565b60405180910390f35b34801561020757600080fd5b5061021b610216366004613ad0565b610606565b60405190151581526020016101f2565b34801561023757600080fd5b5061024b610246366004613b1b565b610698565b005b34801561025957600080fd5b506006546040805163ffffffff80841682526401000000008404811660208301526801000000000000000084048116928201929092526c01000000000000000000000000830482166060820152600160801b8304909116608082015262ffffff600160a01b8304811660a0830152600160b81b8304811660c0830152600160d01b8304811660e0830152600160e81b909204909116610100820152610120016101f2565b34801561030957600080fd5b5061032a610318366004613b1b565b60009081526002602052604090205490565b6040519081526020016101f2565b34801561034457600080fd5b5061024b610761565b34801561035957600080fd5b5061032a610368366004613d63565b610775565b34801561037957600080fd5b5061024b610388366004613de7565b6108a2565b34801561039957600080fd5b5061024b6103a8366004613f9b565b610aee565b3480156103b957600080fd5b506000546001600160a01b03165b6040516001600160a01b0390911681526020016101f2565b3480156103eb57600080fd5b5061024b6103fa366004613fdb565b610dc3565b34801561040b57600080fd5b5061032a61041a366004613ff8565b610f91565b34801561042b57600080fd5b5061024b61043a366004614034565b610fd5565b34801561044b57600080fd5b5061024b61045a366004614068565b6112d3565b61032a61046d366004614094565b611487565b34801561047e57600080fd5b506004546001600160a01b03166103c7565b34801561049c57600080fd5b5061021b6104ab366004613fdb565b6001600160a01b031660009081526008602052604090205460ff1690565b3480156104d557600080fd5b5061024b6104e4366004614105565b6116d0565b3480156104f557600080fd5b506104fe60ff81565b60405160ff90911681526020016101f2565b34801561051c57600080fd5b506005546040805163ffffffff8084168252650100000000009093049092166020830152016101f2565b34801561055257600080fd5b5061024b610561366004614133565b611892565b34801561057257600080fd5b5061024b610581366004614105565b611a49565b34801561059257600080fd5b506103c76105a1366004613b1b565b611cc4565b3480156105b257600080fd5b5061024b6105c1366004613fdb565b611cee565b3480156105d257600080fd5b5061024b6105e1366004613fdb565b611e27565b3480156105f257600080fd5b5061024b610601366004614183565b611eb7565b600154600090815b8181101561068a57604080516001600160a01b03881660208083019190915267ffffffffffffffff80891683850152871660608084019190915283518084039091018152608090920190925280519101206106688161206e565b156106795760019350505050610691565b50610683816141ed565b905061060e565b5060009150505b9392505050565b6106a18161206e565b6106be57604051631b44092560e11b815260040160405180910390fd5b6000818152600360205260409020546001600160a01b0316331461070e576040517f517907dd00000000000000000000000000000000000000000000000000000000815260040160405180910390fd5b6000818152600260209081526040808320839055600390915280822080546001600160a01b03191690555182917f6187bf55f2675dbecee951f81c92ecac87f54ed5bf888d31b09e634749b848ef91a250565b610769612097565b61077360006120f1565b565b600554600090640100000000900460ff16156107a45760405163769dd35360e11b815260040160405180910390fd5b600480546040517f77ae211a00000000000000000000000000000000000000000000000000000000815267ffffffffffffffff86169281019290925260009182916001600160a01b0316906377ae211a90602401600060405180830381865afa158015610815573d6000803e3d6000fd5b505050506040513d6000823e601f3d908101601f1916820160405261083d9190810190614206565b5050915091506000610850828689610f91565b9050808310156108825760405163b99e2ab760e01b815260048101849052602481018290526044015b60405180910390fd5b6000806108928a898b8a86612141565b955050505050505b949350505050565b6108aa612097565b604080516060808201835263ffffffff86811680845260006020808601919091528783169486018590526005805468ffffffffffffffffff191690921765010000000000909502949094179055845160068054948701518787015194880151608089015160a08a015160c08b015160e08c01516101008d015197891667ffffffffffffffff19909b169a909a1764010000000095891695909502949094177fffffffffffffffffffffffffffffffff0000000000000000ffffffffffffffff1668010000000000000000988816989098027fffffffffffffffffffffffffffffffff00000000ffffffffffffffffffffffff16979097176c0100000000000000000000000092871692909202919091177fffffffffffffffffff00000000000000ffffffffffffffffffffffffffffffff16600160801b91909516027fffffffffffffffffff000000ffffffffffffffffffffffffffffffffffffffff1693909317600160a01b62ffffff95861602177fffffff000000000000ffffffffffffffffffffffffffffffffffffffffffffff16600160b81b938516939093027fffffff000000ffffffffffffffffffffffffffffffffffffffffffffffffffff1692909217600160d01b94841694909402939093177cffffffffffffffffffffffffffffffffffffffffffffffffffffffffff16600160e81b929093169190910291909117815590517f107fdd8d898f7a380d4a448bb9882a3e1bb767bd803a09721d828b4ce217b04391610ae191869186916142e9565b60405180910390a1505050565b600554640100000000900460ff1615610b1a5760405163769dd35360e11b815260040160405180910390fd5b60005a60405163189bdbdb60e21b6020820152909150602401604051602081830303815290604052805190602001208260c0015114610b6c5760405163e7b9d74d60e01b815260040160405180910390fd5b610b76828561244f565b60008481526007602081815260408084203380865260018281018552838720805460ff1916821790558a8752600c8552838720805480830182558189528689208782040180548d1515601f9093166101000a92830260ff93840219909116179055968652835491820184558388529490962090950180546001600160a01b0319169095179094558501518154919392161115610c4e5760408051338152602081018890527f81b10a8136baa5e8975cb74b9c1cd5c44791d42a0fe7c195457f86ce298e0c8391015b60405180910390a1505050505050565b6000610cc883805480602002602001604051908101604052809291908181526020018280548015610cbe57602002820191906000526020600020906000905b825461010083900a900460ff161515815260206001928301818104948501949093039092029101808411610c8d5790505b5050505050612603565b60408051602481018a90528215156044808301919091528251808303909101815260649091019091526020810180516001600160e01b03167f90d95efc000000000000000000000000000000000000000000000000000000001790529091506000610d3382886126c6565b90506000610d408a612713565b60008b8152600c60205260408120919250610d5b91906139cf565b6000610d6889898461283a565b604080518c1515815260208101839052851515918101919091529091508b907f27dd42f8797fcff24c7c99ae461d9fd99e490ba813ede9b16fc9df17108bfe56906060015b60405180910390a250505050505050505b505050565b610dcb612097565b6001600160a01b03811660009081526008602052604090205460ff16610e28576040517ff9a0ffdf0000000000000000000000000000000000000000000000000000000081526001600160a01b0382166004820152602401610879565b6001600160a01b0381166000908152600860205260408120805460ff19169055600154905b81811015610f5057826001600160a01b031660018281548110610e7257610e726143a6565b6000918252602090912001546001600160a01b031603610f405760006001610e9a81856143bc565b81548110610eaa57610eaa6143a6565b600091825260209091200154600180546001600160a01b039092169250829184908110610ed957610ed96143a6565b9060005260206000200160006101000a8154816001600160a01b0302191690836001600160a01b031602179055506001805480610f1857610f186143cf565b600082815260209020810160001990810180546001600160a01b031916905501905550610f50565b610f49816141ed565b9050610e4d565b506040516001600160a01b03831681527f5406c1f2d9ece2027a923f317fb5f2370221e330db898c037c10acc0c20495b39060200160405180910390a15050565b6000808360ff16610fa186612dbb565b610fab91906143e5565b90506000610fbf63ffffffff85163a6143e5565b9050610fcb8183614404565b9695505050505050565b600554640100000000900460ff16156110015760405163769dd35360e11b815260040160405180910390fd5b60005a604051660ead2dce86264760cb1b6020820152909150602701604051602081830303815290604052805190602001208260c00151146110565760405163e7b9d74d60e01b815260040160405180910390fd5b611060828561244f565b6000848152600b60209081526040808320805460018082018355828652848620600283040180549282166010026101000a6001600160801b0381810219909416938b1602929092179091558885526007808552838620338088528184018752858820805460ff19168517905591865280549283018155808752949095200180546001600160a01b031916909417909355840151825460ff90911611156111365760408051338152602081018890527f81b10a8136baa5e8975cb74b9c1cd5c44791d42a0fe7c195457f86ce298e0c839101610c3e565b60006111c2838054806020026020016040519081016040528092919081815260200182805480156111b857602002820191906000526020600020906000905b82829054906101000a90046001600160801b03166001600160801b031681526020019060100190602082600f010492830192600103820291508084116111755790505b5050505050612dde565b905060006111cf82612e8d565b60408051602481018b90526001600160801b0383166044808301919091528251808303909101815260649091019091526020810180516001600160e01b03167f45b9b6fb00000000000000000000000000000000000000000000000000000000179052909150600061124182896126c6565b9050600061124e8b612713565b60008c8152600b6020526040812091925061126991906139f4565b60006112768a8a8461283a565b604080516001600160801b038e168152602081018390528515158183015290519192508d917f8f2da545293ec9ebc31d6839176dc1374f380f6fc61bfea08078233c6ed9b01e9181900360600190a2505050505050505050505050565b60008281526009602052604090205460ff1661131b576040517f9a358cc500000000000000000000000000000000000000000000000000000000815260040160405180910390fd5b8060ff1660000361133f57604051630fa163bb60e41b815260040160405180910390fd5b60405163189bdbdb60e21b60208201526024016040516020818303038152906040528051906020012082148015611381575061137c60028261442d565b60ff16155b1561139f57604051630fa163bb60e41b815260040160405180910390fd5b604051660ead2dce86264760cb1b60208201526027016040516020818303038152906040528051906020012082148061140157506040516534b73a191a9b60d11b60208201526026016040516020818303038152906040528051906020012082145b80611433575060405163189bdbdb60e21b60208201526024016040516020818303038152906040528051906020012082145b156114835760015460009061144a9060029061444f565b90508160ff1660011415801561146557508060ff168260ff16115b15610dbe57604051630fa163bb60e41b815260040160405180910390fd5b5050565b600554600090640100000000900460ff16156114b65760405163769dd35360e11b815260040160405180910390fd5b6000806114c4828688610f91565b9050803410156114f05760405163b99e2ab760e01b815234600482015260248101829052604401610879565b600480546040517f190118b700000000000000000000000000000000000000000000000000000000815233928101929092526000916001600160a01b039091169063190118b7906024016020604051808303816000875af1158015611559573d6000803e3d6000fd5b505050506040513d601f19601f8201168201806040525081019061157d9190614463565b9050600160006115908a848b8b86612141565b600480546040517fc49910e40000000000000000000000000000000000000000000000000000000081529293506001600160a01b03169163c49910e49187916115eb9188910167ffffffffffffffff91909116815260200190565b6000604051808303818588803b15801561160457600080fd5b505af1158015611618573d6000803e3d6000fd5b50505050506000843461162b91906143bc565b905080156116c2576000886001600160a01b03168260405160006040518083038185875af1925050503d8060008114611680576040519150601f19603f3d011682016040523d82523d6000602084013e611685565b606091505b50509050806116c0576040517fef7a4b6100000000000000000000000000000000000000000000000000000000815260040160405180910390fd5b505b509998505050505050505050565b600554640100000000900460ff16156116fc5760405163769dd35360e11b815260040160405180910390fd5b60005a6040517f62797465733332000000000000000000000000000000000000000000000000006020820152909150602701604051602081830303815290604052805190602001208260c00151146117675760405163e7b9d74d60e01b815260040160405180910390fd5b611771828561244f565b60008481526007602081815260408084203380865260018083018552838720805460ff1916821790559484528154948501825581865283862090940180546001600160a01b031916909417909355805160248101899052604480820189905282518083039091018152606490910190915290810180516001600160e01b03167ff40b4def00000000000000000000000000000000000000000000000000000000179052909161182082866126c6565b9050600061182d88612713565b9050600061183c87878461283a565b604080518a8152602081018390528515159181019190915290915089907f39136b4e0c0ed9615348ccda4aabc1e49031d4fcc1d2a631e0ca0340fea80a60906060015b60405180910390a2505050505050505050565b600554640100000000900460ff16156118be5760405163769dd35360e11b815260040160405180910390fd5b60005a6040517f62797465730000000000000000000000000000000000000000000000000000006020820152909150602501604051602081830303815290604052805190602001208260c00151146119295760405163e7b9d74d60e01b815260040160405180910390fd5b611933828561244f565b60008481526007602081815260408084203380865260018281018552838720805460ff1916821790559484528154948501825581865292852090930180546001600160a01b031916909217909155519091907f19e2cd2f00000000000000000000000000000000000000000000000000000000906119b79088908890602401614480565b60408051601f198184030181529190526020810180516001600160e01b03166001600160e01b031990931692909217909152905060006119f782866126c6565b90506000611a0488612713565b90506000611a1387878461283a565b9050887f6404cc3a68084786e4262010affb9e1ff9f005c3c6418cfa5bce5a2dcde0666789838660405161187f93929190614499565b600554640100000000900460ff1615611a755760405163769dd35360e11b815260040160405180910390fd5b60005a6040516534b73a191a9b60d11b6020820152909150602601604051602081830303815290604052805190602001208260c0015114611ac95760405163e7b9d74d60e01b815260040160405180910390fd5b611ad3828561244f565b60008481526007602081815260408084203380865260018083018552838720805460ff1916821790558a8752600a855283872080548083018255818952868920018b9055958552825490810183558287529390952090920180546001600160a01b03191690941790935591840151815491929160ff9091161115611b875760408051338152602081018890527f81b10a8136baa5e8975cb74b9c1cd5c44791d42a0fe7c195457f86ce298e0c839101610c3e565b6000611be183805480602002602001604051908101604052809291908181526020018280548015611bd757602002820191906000526020600020905b815481526020019060010190808311611bc3575b5050505050612e8d565b60408051602481018a905260448082018490528251808303909101815260649091019091526020810180516001600160e01b03167f6e2acda0000000000000000000000000000000000000000000000000000000001790529091506000611c4882886126c6565b90506000611c558a612713565b60008b8152600a60205260408120919250611c709190613a19565b6000611c7d89898461283a565b604080518c815260208101839052851515918101919091529091508b907fc2aca9bb0791cd99d3861401384dc7d8f5b6f2297d6ac1c8dfb91655ac81d43790606001610dad565b60018181548110611cd457600080fd5b6000918252602090912001546001600160a01b0316905081565b611cf6612097565b60015460ff11611d32576040517f25d0209c00000000000000000000000000000000000000000000000000000000815260040160405180910390fd5b6001600160a01b03811660009081526008602052604090205460ff1615611d90576040517f6ff7406a0000000000000000000000000000000000000000000000000000000081526001600160a01b0382166004820152602401610879565b6001805480820182557fb10e2d527612073b26eecdfd717e6a320cf44b4afac2b0732d9fcbe2b7fa0cf60180546001600160a01b0319166001600160a01b038416908117909155600081815260086020908152604091829020805460ff1916909417909355519081527fd9d9fdcc9f936c76b5aafe54fc3db5dcec0c6583c9ccc4abe91d17575c5145a5910160405180910390a150565b611e2f612097565b6001600160a01b038116611eab5760405162461bcd60e51b815260206004820152602660248201527f4f776e61626c653a206e6577206f776e657220697320746865207a65726f206160448201527f64647265737300000000000000000000000000000000000000000000000000006064820152608401610879565b611eb4816120f1565b50565b600554640100000000900460ff1615611ee35760405163769dd35360e11b815260040160405180910390fd5b60005a6040517f737472696e6700000000000000000000000000000000000000000000000000006020820152909150602601604051602081830303815290604052805190602001208260c0015114611f4e5760405163e7b9d74d60e01b815260040160405180910390fd5b611f58828561244f565b60008481526007602081815260408084203380865260018281018552838720805460ff1916821790559484528154948501825581865292852090930180546001600160a01b031916909217909155519091907f79b150080000000000000000000000000000000000000000000000000000000090611fdc9088908890602401614480565b60408051601f198184030181529190526020810180516001600160e01b03166001600160e01b0319909316929092179091529050600061201c82866126c6565b9050600061202988612713565b9050600061203887878461283a565b9050887f5e815adc9078e19ad43911e496cc2d0ec73cd244ddd31b06896c20c48b988e8b89838660405161187f93929190614499565b6000818152600260205260408120541561208a57506001919050565b506000919050565b919050565b6000546001600160a01b031633146107735760405162461bcd60e51b815260206004820181905260248201527f4f776e61626c653a2063616c6c6572206973206e6f7420746865206f776e65726044820152606401610879565b600080546001600160a01b038381166001600160a01b0319831681178455604051919092169283917f8be0079c531659141344cd1fd0a4f28419497f9722a3daafe3b4186f6b6457e09190a35050565b60006121518660000151846112d3565b600480546040517f734e892a00000000000000000000000000000000000000000000000000000000815267ffffffffffffffff8816928101929092523360248301526001600160a01b03169063734e892a90604401602060405180830381865afa1580156121c3573d6000803e3d6000fd5b505050506040513d601f19601f820116820180604052508101906121e791906144c3565b61222f576040517ff0019fe600000000000000000000000000000000000000000000000000000000815267ffffffffffffffff86166004820152336024820152604401610879565b60055463ffffffff9081169085161115612289576005546040517ff5d7e01e00000000000000000000000000000000000000000000000000000000815263ffffffff80871660048301529091166024820152604401610879565b600480546040517fa8329c0500000000000000000000000000000000000000000000000000000000815267ffffffffffffffff8816928101929092523360248301526000916001600160a01b039091169063a8329c05906044016020604051808303816000875af1158015612302573d6000803e3d6000fd5b505050506040513d601f19601f820116820180604052508101906123269190614463565b6040805133602080830182905267ffffffffffffffff8b811684860181905290861660608086019190915285518086039091018152608080860187528151918401919091208e5160a087018290524360c088015260e0870184905263ffffffff8e1661010088015260ff8d1661012088015261014087018690528b151561016088015261018080880191909152875180880390910181526101a09096018088528651968501969096206000828152600286528881209190915560039094529590922080546001600160a01b031916841790558c51918d015151959650939491939285927ff5de04e252c7bc264fe51dceea89d95673b5166c209718c5f5a068341dab81119261243c9290918d918c918e916144e0565b60405180910390a4979650505050505050565b3360009081526008602052604090205460ff1661249a576040517fd6c33748000000000000000000000000000000000000000000000000000000008152336004820152602401610879565b600081815260076020908152604080832033845260010190915290205460ff16156124f1576040517f9f17b6ef00000000000000000000000000000000000000000000000000000000815260040160405180910390fd5b6000818152600260205260408120549081900361252157604051631b44092560e11b815260040160405180910390fd5b6125cb82846000015167ffffffffffffffff1685602001518660400151876060015188608001518960a001518a60c001516040805160208082019a909a528082019890985267ffffffffffffffff96909616606088015263ffffffff93909316608087015260ff9390931660a08601526001600160a01b031660c085015290151560e084015261010080840191909152815180840390910181526101209092019052805191012090565b8114610dbe576040517fd529142c00000000000000000000000000000000000000000000000000000000815260040160405180910390fd5b6000600282516126139190614521565b60000361264c576040517f0a81fe0d00000000000000000000000000000000000000000000000000000000815260040160405180910390fd5b60008060005b84518110156126aa5784818151811061266d5761266d6143a6565b60200260200101511561268c5782612684816141ed565b93505061269a565b81612696816141ed565b9250505b6126a3816141ed565b9050612652565b508082106126bc575060019392505050565b5060009392505050565b6005805464ff0000000019166401000000001790556060810151608082015160009182916126fb9163ffffffff169086612ea0565b6005805464ff00000000191690559150505b92915050565b600081815260076020908152604080832080548251818502810185019093528083526060949383018282801561277257602002820191906000526020600020905b81546001600160a01b03168152600190910190602001808311612754575b5050505050905060005b81518160ff1610156127f057600760008581526020019081526020016000206001016000838360ff16815181106127b5576127b56143a6565b6020908102919091018101516001600160a01b03168252810191909152604001600020805460ff191690556127e981614535565b905061277c565b5060008381526007602052604081209061280a8282613a19565b50506000928352600260209081526040808520859055600390915290922080546001600160a01b03191690555090565b805160a08401516000919015612a7f576004805460208701516040517fc9d2d7bf00000000000000000000000000000000000000000000000000000000815260009384936001600160a01b03169263c9d2d7bf926128a8920167ffffffffffffffff91909116815260200190565b60408051808303816000875af11580156128c6573d6000803e3d6000fd5b505050506040513d601f19601f820116820180604052508101906128ea9190614554565b90925090508015612a7557600080612902858461444f565b905060005b6129126001876143bc565b8160ff1610156129d15760045488516001600160a01b0390911690636b19a19d9084908b9060ff861690811061294a5761294a6143a6565b60200260200101516040518363ffffffff1660e01b81526004016129819291909182526001600160a01b0316602082015260400190565b600060405180830381600087803b15801561299b57600080fd5b505af11580156129af573d6000803e3d6000fd5b5050505081836129bf9190614404565b92506129ca81614535565b9050612907565b506004546001600160a01b0316636b19a19d6129ed84866143bc565b896129f960018a6143bc565b81518110612a0957612a096143a6565b60200260200101516040518363ffffffff1660e01b8152600401612a409291909182526001600160a01b0316602082015260400190565b600060405180830381600087803b158015612a5a57600080fd5b505af1158015612a6e573d6000803e3d6000fd5b5050505050505b5091506106919050565b6004805460208701516040517f96ed7f4300000000000000000000000000000000000000000000000000000000815267ffffffffffffffff909116928101929092526000916001600160a01b03909116906396ed7f4390602401602060405180830381865afa158015612af6573d6000803e3d6000fd5b505050506040513d601f19601f82011682018060405250810190612b1a9190614463565b90506000866040015160ff16612b2f83612dbb565b612b3991906143e5565b6004805460208a01516040517f57f2eda700000000000000000000000000000000000000000000000000000000815267ffffffffffffffff90911692810192909252602482018390529192506000916001600160a01b0316906357f2eda7906044016020604051808303816000875af1158015612bba573d6000803e3d6000fd5b505050506040513d601f19601f82011682018060405250810190612bde9190614578565b90506000612bec858361444f565b90506000805b612bfd6001886143bc565b811015612cce5760045460208c01518a516001600160a01b03909216916382e7b38c919086908d9086908110612c3557612c356143a6565b60209081029190910101516040516001600160e01b031960e086901b16815267ffffffffffffffff909316600484015260248301919091526001600160a01b03166044820152606401600060405180830381600087803b158015612c9857600080fd5b505af1158015612cac573d6000803e3d6000fd5b505050508282612cbc9190614404565b9150612cc7816141ed565b9050612bf2565b506000612cda8a612eec565b60045460208d01519192506001600160a01b0316906382e7b38c9083612d0086896143bc565b612d0a9190614404565b8c612d1660018d6143bc565b81518110612d2657612d266143a6565b60209081029190910101516040516001600160e01b031960e086901b16815267ffffffffffffffff909316600484015260248301919091526001600160a01b03166044820152606401600060405180830381600087803b158015612d8957600080fd5b505af1158015612d9d573d6000803e3d6000fd5b505050508481612dad9190614404565b975050505050505050610691565b600080612dc783612f20565b905061069163ffffffff821664e8d4a510006143e5565b60606000825167ffffffffffffffff811115612dfc57612dfc613b34565b604051908082528060200260200182016040528015612e25578160200160208202803683370190505b50905060005b8351811015612e8657838181518110612e4657612e466143a6565b60200260200101516001600160801b0316828281518110612e6957612e696143a6565b602090810291909101015280612e7e816141ed565b915050612e2b565b5092915050565b600061270d612e9b836130b2565b613151565b60005a611388811015612eb257600080fd5b611388810390508460408204820311612eca57600080fd5b50823b612ed657600080fd5b60008083516020850160008789f1949350505050565b60005a600554612f0c90849065010000000000900463ffffffff16614404565b612f1691906143bc565b61270d903a6143e5565b604080516101208101825260065463ffffffff80821683526401000000008204811660208401526801000000000000000082048116938301939093526c01000000000000000000000000810483166060830152600160801b8104909216608082015262ffffff600160a01b8304811660a08301819052600160b81b8404821660c0840152600160d01b8404821660e0840152600160e81b9093041661010082015260009167ffffffffffffffff841611612fdb575192915050565b8267ffffffffffffffff168160a0015162ffffff1610801561301057508060c0015162ffffff168367ffffffffffffffff1611155b1561301f576020015192915050565b8267ffffffffffffffff168160c0015162ffffff1610801561305457508060e0015162ffffff168367ffffffffffffffff1611155b15613063576040015192915050565b8267ffffffffffffffff168160e0015162ffffff16108015613099575080610100015162ffffff168367ffffffffffffffff1611155b156130a8576060015192915050565b6080015192915050565b60606000825167ffffffffffffffff8111156130d0576130d0613b34565b6040519080825280602002602001820160405280156130f9578160200160208202803683370190505b50905060005b8351811015612e865783818151811061311a5761311a6143a6565b6020026020010151828281518110613134576131346143a6565b602090810291909101015280613149816141ed565b9150506130ff565b6000808251116131a35760405162461bcd60e51b815260206004820152601660248201527f6c697374206d757374206e6f7420626520656d707479000000000000000000006044820152606401610879565b815160006131b260028361444f565b90506131bf600283614521565b6000036131f9576000806131ea86826131d96001886143bc565b6131e46001886143bc565b87613210565b9092509050610fcb8282613308565b61089a84600061320a6001866143bc565b846133ab565b60008082841061321f57600080fd5b83861115801561322f5750848411155b61323857600080fd5b8286111580156132485750848311155b61325157600080fd5b600761325d87876143bc565b1015613279576132708787878787613450565b915091506132fe565b60006132868888886138ad565b9050808411613297578095506132f8565b848110156132b1576132aa816001614404565b96506132f8565b8085111580156132c057508381105b6132cc576132cc614591565b6132d8888883886133ab565b92506132f0886132e9836001614404565b88876133ab565b9150506132fe565b50613251565b9550959350505050565b600080831280156133195750600082135b8061332f575060008313801561332f5750600082125b1561335157600261334083856145a7565b61334a91906145cf565b905061270d565b6000600261335f8185614619565b61336a600287614619565b61337491906145a7565b61337e91906145cf565b90508061338c6002856145cf565b6133976002876145cf565b6133a191906145a7565b61089a91906145a7565b6000818411156133ba57600080fd5b828211156133c757600080fd5b8284101561342c5760076133db85856143bc565b10156133fa5760006133f08686868687613450565b50915061089a9050565b60006134078686866138ad565b905080831161341857809350613426565b613423816001614404565b94505b506133c7565b84848151811061343e5761343e6143a6565b60200260200101519050949350505050565b6000808086613460876001614404565b61346a91906143bc565b90506000886134798983614404565b81518110613489576134896143a6565b602002602001015190506000826001106134aa576001600160ff1b036134cf565b896134b68a6001614404565b815181106134c6576134c66143a6565b60200260200101515b90506000836002106134e8576001600160ff1b0361350d565b8a6134f48b6002614404565b81518110613504576135046143a6565b60200260200101515b9050600084600310613526576001600160ff1b0361354b565b8b6135328c6003614404565b81518110613542576135426143a6565b60200260200101515b9050600085600410613564576001600160ff1b03613589565b8c6135708d6004614404565b81518110613580576135806143a6565b60200260200101515b90506000866005106135a2576001600160ff1b036135c7565b8d6135ae8e6005614404565b815181106135be576135be6143a6565b60200260200101515b90506000876006106135e0576001600160ff1b03613605565b8e6135ec8f6006614404565b815181106135fc576135fc6143a6565b60200260200101515b905085871315613613579495945b8385131561361f579293925b8183131561362b579091905b84871315613637579395935b83861315613643579294925b8083131561364d57915b84861315613659579394935b8082131561366357905b8287131561366f579195915b8186131561367b579094905b8085131561368557935b82861315613691579194915b8084131561369b57925b828513156136a7579193915b818413156136b3579092905b828413156136bf579192915b60006136cb8f8e6143bc565b9050806000036136dd57879a50613785565b806001036136ed57869a50613785565b806002036136fd57859a50613785565b8060030361370d57849a50613785565b8060040361371d57839a50613785565b8060050361372d57829a50613785565b8060060361373d57819a50613785565b60405162461bcd60e51b815260206004820152601060248201527f6b31206f7574206f6620626f756e6473000000000000000000000000000000006044820152606401610879565b60008f8d61379391906143bc565b90508c8e036137af57508a99506132fe98505050505050505050565b806000036137c957509698506132fe975050505050505050565b806001036137e357509598506132fe975050505050505050565b806002036137fd57509498506132fe975050505050505050565b8060030361381757509398506132fe975050505050505050565b8060040361383157509298506132fe975050505050505050565b8060050361384b57509198506132fe975050505050505050565b8060060361386557509098506132fe975050505050505050565b60405162461bcd60e51b815260206004820152601060248201527f6b32206f7574206f6620626f756e6473000000000000000000000000000000006044820152606401610879565b6000808460026138bd8587614404565b6138c7919061444f565b815181106138d7576138d76143a6565b602002602001015190506001840393506001836138f49190614404565b92505b60018401935080858581518110613910576139106143a6565b6020026020010151126138f7575b6139296001846143bc565b92508085848151811061393e5761393e6143a6565b60200260200101511361391e57828410156139c657848381518110613965576139656143a6565b602002602001015185858151811061397f5761397f6143a6565b6020026020010151868681518110613999576139996143a6565b602002602001018786815181106139b2576139b26143a6565b6020908102919091010191909152526138f7565b82915050610691565b50805460008255601f016020900490600052602060002090810190611eb49190613a33565b508054600082556001016002900490600052602060002090810190611eb49190613a33565b5080546000825590600052602060002090810190611eb491905b5b80821115613a485760008155600101613a34565b5090565b6000815180845260005b81811015613a7257602081850181015186830182015201613a56565b506000602082860101526020601f19601f83011685010191505092915050565b6020815260006106916020830184613a4c565b6001600160a01b0381168114611eb457600080fd5b67ffffffffffffffff81168114611eb457600080fd5b600080600060608486031215613ae557600080fd5b8335613af081613aa5565b92506020840135613b0081613aba565b91506040840135613b1081613aba565b809150509250925092565b600060208284031215613b2d57600080fd5b5035919050565b634e487b7160e01b600052604160045260246000fd5b604051610120810167ffffffffffffffff81118282101715613b6e57613b6e613b34565b60405290565b604051601f8201601f1916810167ffffffffffffffff81118282101715613b9d57613b9d613b34565b604052919050565b600067ffffffffffffffff831115613bbf57613bbf613b34565b613bd2601f8401601f1916602001613b74565b9050828152838383011115613be657600080fd5b828260208301376000602084830101529392505050565b600082601f830112613c0e57600080fd5b61069183833560208501613ba5565b600060408284031215613c2f57600080fd5b6040516040810167ffffffffffffffff8282108183111715613c5357613c53613b34565b816040528293508435915080821115613c6b57600080fd5b50613c7885828601613bfd565b825250602083013560208201525092915050565b600060a08284031215613c9e57600080fd5b60405160a0810167ffffffffffffffff8282108183111715613cc257613cc2613b34565b816040528293508435835260208501359150613cdd82613aa5565b816020840152604085013591506001600160e01b031982168214613d0057600080fd5b816040840152606085013560608401526080850135915080821115613d2457600080fd5b50613d3185828601613c1d565b6080830152505092915050565b803563ffffffff8116811461209257600080fd5b803560ff8116811461209257600080fd5b60008060008060808587031215613d7957600080fd5b843567ffffffffffffffff811115613d9057600080fd5b613d9c87828801613c8c565b945050613dab60208601613d3e565b92506040850135613dbb81613aba565b9150613dc960608601613d52565b905092959194509250565b803562ffffff8116811461209257600080fd5b6000806000838503610160811215613dfe57600080fd5b613e0785613d3e565b9350613e1560208601613d3e565b925061012080603f1983011215613e2b57600080fd5b613e33613b4a565b9150613e4160408701613d3e565b8252613e4f60608701613d3e565b6020830152613e6060808701613d3e565b6040830152613e7160a08701613d3e565b6060830152613e8260c08701613d3e565b6080830152613e9360e08701613dd4565b60a0830152610100613ea6818801613dd4565b60c0840152613eb6828801613dd4565b60e0840152613ec86101408801613dd4565b818401525050809150509250925092565b8015158114611eb457600080fd5b600060e08284031215613ef957600080fd5b60405160e0810181811067ffffffffffffffff82111715613f1c57613f1c613b34565b6040529050808235613f2d81613aba565b81526020830135613f3d81613aba565b6020820152613f4e60408401613d52565b6040820152613f5f60608401613d3e565b60608201526080830135613f7281613aa5565b608082015260a0830135613f8581613ed9565b60a082015260c092830135920191909152919050565b60008060006101208486031215613fb157600080fd5b833592506020840135613fc381613ed9565b9150613fd28560408601613ee7565b90509250925092565b600060208284031215613fed57600080fd5b813561069181613aa5565b60008060006060848603121561400d57600080fd5b833561401881613aba565b925061402660208501613d52565b9150613fd260408501613d3e565b6000806000610120848603121561404a57600080fd5b8335925060208401356001600160801b0381168114613fc357600080fd5b6000806040838503121561407b57600080fd5b8235915061408b60208401613d52565b90509250929050565b600080600080608085870312156140aa57600080fd5b843567ffffffffffffffff8111156140c157600080fd5b6140cd87828801613c8c565b9450506140dc60208601613d3e565b92506140ea60408601613d52565b915060608501356140fa81613aa5565b939692955090935050565b6000806000610120848603121561411b57600080fd5b8335925060208401359150613fd28560408601613ee7565b6000806000610120848603121561414957600080fd5b83359250602084013567ffffffffffffffff81111561416757600080fd5b61417386828701613bfd565b925050613fd28560408601613ee7565b6000806000610120848603121561419957600080fd5b83359250602084013567ffffffffffffffff8111156141b757600080fd5b8401601f810186136141c857600080fd5b61417386823560208401613ba5565b634e487b7160e01b600052601160045260246000fd5b6000600182016141ff576141ff6141d7565b5060010190565b6000806000806080858703121561421c57600080fd5b8451935060208086015161422f81613aba565b604087015190945061424081613aa5565b606087015190935067ffffffffffffffff8082111561425e57600080fd5b818801915088601f83011261427257600080fd5b81518181111561428457614284613b34565b8060051b9150614295848301613b74565b818152918301840191848101908b8411156142af57600080fd5b938501935b838510156142d957845192506142c983613aa5565b82825293850193908501906142b4565b989b979a50959850505050505050565b63ffffffff84811682528381166020830152825480821660408401526101608301919061432360608501838360201c1663ffffffff169052565b61433a60808501838360401c1663ffffffff169052565b61435160a08501838360601c1663ffffffff169052565b61436860c08501838360801c1663ffffffff169052565b62ffffff60a082901c811660e086015260b882901c811661010086015260d082901c1661012085015260e81c61014090930192909252949350505050565b634e487b7160e01b600052603260045260246000fd5b8181038181111561270d5761270d6141d7565b634e487b7160e01b600052603160045260246000fd5b60008160001904831182151516156143ff576143ff6141d7565b500290565b8082018082111561270d5761270d6141d7565b634e487b7160e01b600052601260045260246000fd5b600060ff83168061444057614440614417565b8060ff84160691505092915050565b60008261445e5761445e614417565b500490565b60006020828403121561447557600080fd5b815161069181613aba565b82815260406020820152600061089a6040830184613a4c565b6060815260006144ac6060830186613a4c565b602083019490945250901515604090910152919050565b6000602082840312156144d557600080fd5b815161069181613ed9565b85815263ffffffff85166020820152831515604082015260ff8316606082015260a06080820152600061451660a0830184613a4c565b979650505050505050565b60008261453057614530614417565b500690565b600060ff821660ff810361454b5761454b6141d7565b60010192915050565b6000806040838503121561456757600080fd5b505080516020909101519092909150565b60006020828403121561458a57600080fd5b5051919050565b634e487b7160e01b600052600160045260246000fd5b80820182811260008312801582168215821617156145c7576145c76141d7565b505092915050565b6000826145de576145de614417565b7f8000000000000000000000000000000000000000000000000000000000000000821460001984141615614614576146146141d7565b500590565b60008261462857614628614417565b50079056fea2646970667358221220575e128e5f28ff95e969b74efcbcac15d4fbc97f83b6be75b06c668bc46ae2ee64736f6c63430008100033",
  "devdoc": {
    "author": "Bisonai",
    "kind": "dev",
    "methods": {
      "cancelRequest(uint256)": {
        "params": {
          "requestId": "- ID of the Oracle Request"
        }
      },
      "deregisterOracle(address)": {
        "params": {
          "oracle": "address of the oracle"
        }
      },
      "getCommitment(uint256)": {
        "params": {
          "requestId": "id of request"
        },
        "returns": {
          "_0": "commmitment value that can be used to determine whether a request is fulfilled or not. If `requestId` is valid and commitment equals to bytes32(0), the request was fulfilled."
        }
      },
      "getPrepaymentAddress()": {
        "returns": {
          "_0": "prepayment address"
        }
      },
      "isOracleRegistered(address)": {
        "returns": {
          "_0": "true when oracle address registered, otherwise false"
        }
      },
      "owner()": {
        "details": "Returns the address of the current owner."
      },
      "pendingRequestExists(address,uint64,uint64)": {
        "params": {
          "accId": "- ID of the account"
        },
        "returns": {
          "_0": "true if there exists at least one unfulfilled request for the account, false otherwise."
        }
      },
      "registerOracle(address)": {
        "params": {
          "oracle": "address of the oracle"
        }
      },
      "renounceOwnership()": {
        "details": "Leaves the contract without owner. It will not be possible to call `onlyOwner` functions anymore. Can only be called by the current owner. NOTE: Renouncing ownership will leave the contract without an owner, thereby removing any functionality that is only available to the owner."
      },
      "requestData((bytes32,address,bytes4,uint256,(bytes,uint256)),uint32,uint64,uint8)": {
        "details": "Generates and stores a request ID, increments the local nonce, creates a request on the target oracle contract.Emits Requested event.",
        "params": {
          "accId": "- The ID of the account. Must be funded with the minimum account balance.",
          "callbackGasLimit": "- How much gas you'd like to receive in your fulfillRequest callback. Note that gasleft() inside fulfillRequest may be slightly less than this amount because of gas used calling the function (argument decoding etc.), so you may need to request slightly more than you expect to have inside fulfillRequest. The acceptable range is [0, maxGasLimit]",
          "numSubmission": "number of requested submission to compute the final aggregate value",
          "req": "The initialized Request"
        },
        "returns": {
          "_0": "requestId - A unique * identifier of the request. Can be used to match a request to a * response in fulfillRequest."
        }
      },
      "requestData((bytes32,address,bytes4,uint256,(bytes,uint256)),uint32,uint8,address)": {
        "details": "Generates and stores a request ID, increments the local nonce, creates a request on the target oracle contract.Emits Requested event.",
        "params": {
          "callbackGasLimit": "- How much gas you'd like to receive in your fulfillRequest callback. Note that gasleft() inside fulfillRequest may be slightly less than this amount because of gas used calling the function (argument decoding etc.), so you may need to request slightly more than you expect to have inside fulfillRequest. The acceptable range is [0, maxGasLimit]",
          "numSubmission": "number of requested submission to compute the final aggregate value",
          "refundRecipient": "recipient of an extra $KLAY amount that was sent together with service request",
          "req": "The initialized Request"
        },
        "returns": {
          "_0": "requestId - A unique identifier of the request. Can be used to match a request to a response in fulfillRequest."
        }
      },
      "setConfig(uint32,uint32,(uint32,uint32,uint32,uint32,uint32,uint24,uint24,uint24,uint24))": {
        "params": {
          "feeConfig": "fee tier configuration",
          "gasAfterPaymentCalculation": "gas used in doing accounting after completing the gas measurement",
          "maxGasLimit": "global max for request gas limit"
        }
      },
      "transferOwnership(address)": {
        "details": "Transfers ownership of the contract to a new account (`newOwner`). Can only be called by the current owner."
      },
      "typeAndVersion()": {
        "returns": {
          "_0": "Type and version string"
        }
      }
    },
    "title": "Orakl Network RequestResponseCoordinator",
    "version": 1
  },
  "userdoc": {
    "kind": "user",
    "methods": {
      "cancelRequest(uint256)": {
        "notice": "Canceling oracle request"
      },
      "deregisterOracle(address)": {
        "notice": "Deregister an oracle"
      },
      "getCommitment(uint256)": {
        "notice": "Get request commitment."
      },
      "getPrepaymentAddress()": {
        "notice": "Access address for prepayment associated withcoordinator."
      },
      "isOracleRegistered(address)": {
        "notice": "Find out whether given oracle address was registered."
      },
      "pendingRequestExists(address,uint64,uint64)": {
        "notice": "Check to see if there exists a request commitment consumers for all consumers and keyhashes for a given acc."
      },
      "registerOracle(address)": {
        "notice": "Register an oracle"
      },
      "requestData((bytes32,address,bytes4,uint256,(bytes,uint256)),uint32,uint64,uint8)": {
        "notice": "Creates a request to RequestResponse oracle using a [regular] account."
      },
      "requestData((bytes32,address,bytes4,uint256,(bytes,uint256)),uint32,uint8,address)": {
        "notice": "Creates a request to RequestResponse oracle using a [temporary] account."
      },
      "setConfig(uint32,uint32,(uint32,uint32,uint32,uint32,uint32,uint24,uint24,uint24,uint24))": {
        "notice": "Sets the configuration of the VRF coordinator"
      },
      "typeAndVersion()": {
        "notice": "The type and version of this contract"
      },
      "validateNumSubmission(bytes32,uint8)": {
        "notice": "Different jobs specified by jobId have allowed different number of of requests for submissions that depends on total number of registered oracles."
      }
    },
    "notice": "Accepts requests for off-chain data either through [regular] or [temporary] account by calling `requestData` function. Consumers can choose what data type (`jobId`) they want to receive the requested data in, and how many oracles (`numSubmission`) they want to participate on an aggregated answer. Consumers can define the data source and postprocessing steps that should be applied on data received from API. The request is concluded by emitting `DataRequested` event which includes all necessary metadata to provide the requested off-chain data. Off-chain oracles that are registered within the `RequestResponseCoordinator` then compete for delivering the requested data back to on-chain because only a limited number of oracle can submit the requested answer. Answers from off-chain oracles are being collected in contract storage, and the last requested off-chain oracle that submits its answer will also execute consumer's fulfillment function, distributes reward to all participating oracles, and cleanup the storage.",
    "version": 1
  },
  "storageLayout": {
    "storage": [
      {
        "astId": 7,
        "contract": "src/v0.1/RequestResponseCoordinator.sol:RequestResponseCoordinator",
        "label": "_owner",
        "offset": 0,
        "slot": "0",
        "type": "t_address"
      },
      {
        "astId": 714,
        "contract": "src/v0.1/RequestResponseCoordinator.sol:RequestResponseCoordinator",
        "label": "sOracles",
        "offset": 0,
        "slot": "1",
        "type": "t_array(t_address)dyn_storage"
      },
      {
        "astId": 718,
        "contract": "src/v0.1/RequestResponseCoordinator.sol:RequestResponseCoordinator",
        "label": "sRequestIdToCommitment",
        "offset": 0,
        "slot": "2",
        "type": "t_mapping(t_uint256,t_bytes32)"
      },
      {
        "astId": 722,
        "contract": "src/v0.1/RequestResponseCoordinator.sol:RequestResponseCoordinator",
        "label": "sRequestOwner",
        "offset": 0,
        "slot": "3",
        "type": "t_mapping(t_uint256,t_address)"
      },
      {
        "astId": 725,
        "contract": "src/v0.1/RequestResponseCoordinator.sol:RequestResponseCoordinator",
        "label": "sPrepayment",
        "offset": 0,
        "slot": "4",
        "type": "t_contract(IPrepayment)6667"
      },
      {
        "astId": 735,
        "contract": "src/v0.1/RequestResponseCoordinator.sol:RequestResponseCoordinator",
        "label": "sConfig",
        "offset": 0,
        "slot": "5",
        "type": "t_struct(Config)732_storage"
      },
      {
        "astId": 738,
        "contract": "src/v0.1/RequestResponseCoordinator.sol:RequestResponseCoordinator",
        "label": "sFeeConfig",
        "offset": 0,
        "slot": "6",
        "type": "t_struct(FeeConfig)6399_storage"
      },
      {
        "astId": 3042,
        "contract": "src/v0.1/RequestResponseCoordinator.sol:RequestResponseCoordinator",
        "label": "sSubmission",
        "offset": 0,
        "slot": "7",
        "type": "t_mapping(t_uint256,t_struct(Submission)3037_storage)"
      },
      {
        "astId": 3046,
        "contract": "src/v0.1/RequestResponseCoordinator.sol:RequestResponseCoordinator",
        "label": "sIsOracleRegistered",
        "offset": 0,
        "slot": "8",
        "type": "t_mapping(t_address,t_bool)"
      },
      {
        "astId": 3050,
        "contract": "src/v0.1/RequestResponseCoordinator.sol:RequestResponseCoordinator",
        "label": "sJobId",
        "offset": 0,
        "slot": "9",
        "type": "t_mapping(t_bytes32,t_bool)"
      },
      {
        "astId": 3055,
        "contract": "src/v0.1/RequestResponseCoordinator.sol:RequestResponseCoordinator",
        "label": "sRequestToSubmissionInt256",
        "offset": 0,
        "slot": "10",
        "type": "t_mapping(t_uint256,t_array(t_int256)dyn_storage)"
      },
      {
        "astId": 3060,
        "contract": "src/v0.1/RequestResponseCoordinator.sol:RequestResponseCoordinator",
        "label": "sRequestToSubmissionUint128",
        "offset": 0,
        "slot": "11",
        "type": "t_mapping(t_uint256,t_array(t_uint128)dyn_storage)"
      },
      {
        "astId": 3065,
        "contract": "src/v0.1/RequestResponseCoordinator.sol:RequestResponseCoordinator",
        "label": "sRequestToSubmissionBool",
        "offset": 0,
        "slot": "12",
        "type": "t_mapping(t_uint256,t_array(t_bool)dyn_storage)"
      }
    ],
    "types": {
      "t_address": {
        "encoding": "inplace",
        "label": "address",
        "numberOfBytes": "20"
      },
      "t_array(t_address)dyn_storage": {
        "base": "t_address",
        "encoding": "dynamic_array",
        "label": "address[]",
        "numberOfBytes": "32"
      },
      "t_array(t_bool)dyn_storage": {
        "base": "t_bool",
        "encoding": "dynamic_array",
        "label": "bool[]",
        "numberOfBytes": "32"
      },
      "t_array(t_int256)dyn_storage": {
        "base": "t_int256",
        "encoding": "dynamic_array",
        "label": "int256[]",
        "numberOfBytes": "32"
      },
      "t_array(t_uint128)dyn_storage": {
        "base": "t_uint128",
        "encoding": "dynamic_array",
        "label": "uint128[]",
        "numberOfBytes": "32"
      },
      "t_bool": {
        "encoding": "inplace",
        "label": "bool",
        "numberOfBytes": "1"
      },
      "t_bytes32": {
        "encoding": "inplace",
        "label": "bytes32",
        "numberOfBytes": "32"
      },
      "t_contract(IPrepayment)6667": {
        "encoding": "inplace",
        "label": "contract IPrepayment",
        "numberOfBytes": "20"
      },
      "t_int256": {
        "encoding": "inplace",
        "label": "int256",
        "numberOfBytes": "32"
      },
      "t_mapping(t_address,t_bool)": {
        "encoding": "mapping",
        "key": "t_address",
        "label": "mapping(address => bool)",
        "numberOfBytes": "32",
        "value": "t_bool"
      },
      "t_mapping(t_bytes32,t_bool)": {
        "encoding": "mapping",
        "key": "t_bytes32",
        "label": "mapping(bytes32 => bool)",
        "numberOfBytes": "32",
        "value": "t_bool"
      },
      "t_mapping(t_uint256,t_address)": {
        "encoding": "mapping",
        "key": "t_uint256",
        "label": "mapping(uint256 => address)",
        "numberOfBytes": "32",
        "value": "t_address"
      },
      "t_mapping(t_uint256,t_array(t_bool)dyn_storage)": {
        "encoding": "mapping",
        "key": "t_uint256",
        "label": "mapping(uint256 => bool[])",
        "numberOfBytes": "32",
        "value": "t_array(t_bool)dyn_storage"
      },
      "t_mapping(t_uint256,t_array(t_int256)dyn_storage)": {
        "encoding": "mapping",
        "key": "t_uint256",
        "label": "mapping(uint256 => int256[])",
        "numberOfBytes": "32",
        "value": "t_array(t_int256)dyn_storage"
      },
      "t_mapping(t_uint256,t_array(t_uint128)dyn_storage)": {
        "encoding": "mapping",
        "key": "t_uint256",
        "label": "mapping(uint256 => uint128[])",
        "numberOfBytes": "32",
        "value": "t_array(t_uint128)dyn_storage"
      },
      "t_mapping(t_uint256,t_bytes32)": {
        "encoding": "mapping",
        "key": "t_uint256",
        "label": "mapping(uint256 => bytes32)",
        "numberOfBytes": "32",
        "value": "t_bytes32"
      },
      "t_mapping(t_uint256,t_struct(Submission)3037_storage)": {
        "encoding": "mapping",
        "key": "t_uint256",
        "label": "mapping(uint256 => struct RequestResponseCoordinator.Submission)",
        "numberOfBytes": "32",
        "value": "t_struct(Submission)3037_storage"
      },
      "t_struct(Config)732_storage": {
        "encoding": "inplace",
        "label": "struct CoordinatorBase.Config",
        "members": [
          {
            "astId": 727,
            "contract": "src/v0.1/RequestResponseCoordinator.sol:RequestResponseCoordinator",
            "label": "maxGasLimit",
            "offset": 0,
            "slot": "0",
            "type": "t_uint32"
          },
          {
            "astId": 729,
            "contract": "src/v0.1/RequestResponseCoordinator.sol:RequestResponseCoordinator",
            "label": "reentrancyLock",
            "offset": 4,
            "slot": "0",
            "type": "t_bool"
          },
          {
            "astId": 731,
            "contract": "src/v0.1/RequestResponseCoordinator.sol:RequestResponseCoordinator",
            "label": "gasAfterPaymentCalculation",
            "offset": 5,
            "slot": "0",
            "type": "t_uint32"
          }
        ],
        "numberOfBytes": "32"
      },
      "t_struct(FeeConfig)6399_storage": {
        "encoding": "inplace",
        "label": "struct ICoordinatorBase.FeeConfig",
        "members": [
          {
            "astId": 6382,
            "contract": "src/v0.1/RequestResponseCoordinator.sol:RequestResponseCoordinator",
            "label": "fulfillmentFlatFeeKlayPPMTier1",
            "offset": 0,
            "slot": "0",
            "type": "t_uint32"
          },
          {
            "astId": 6384,
            "contract": "src/v0.1/RequestResponseCoordinator.sol:RequestResponseCoordinator",
            "label": "fulfillmentFlatFeeKlayPPMTier2",
            "offset": 4,
            "slot": "0",
            "type": "t_uint32"
          },
          {
            "astId": 6386,
            "contract": "src/v0.1/RequestResponseCoordinator.sol:RequestResponseCoordinator",
            "label": "fulfillmentFlatFeeKlayPPMTier3",
            "offset": 8,
            "slot": "0",
            "type": "t_uint32"
          },
          {
            "astId": 6388,
            "contract": "src/v0.1/RequestResponseCoordinator.sol:RequestResponseCoordinator",
            "label": "fulfillmentFlatFeeKlayPPMTier4",
            "offset": 12,
            "slot": "0",
            "type": "t_uint32"
          },
          {
            "astId": 6390,
            "contract": "src/v0.1/RequestResponseCoordinator.sol:RequestResponseCoordinator",
            "label": "fulfillmentFlatFeeKlayPPMTier5",
            "offset": 16,
            "slot": "0",
            "type": "t_uint32"
          },
          {
            "astId": 6392,
            "contract": "src/v0.1/RequestResponseCoordinator.sol:RequestResponseCoordinator",
            "label": "reqsForTier2",
            "offset": 20,
            "slot": "0",
            "type": "t_uint24"
          },
          {
            "astId": 6394,
            "contract": "src/v0.1/RequestResponseCoordinator.sol:RequestResponseCoordinator",
            "label": "reqsForTier3",
            "offset": 23,
            "slot": "0",
            "type": "t_uint24"
          },
          {
            "astId": 6396,
            "contract": "src/v0.1/RequestResponseCoordinator.sol:RequestResponseCoordinator",
            "label": "reqsForTier4",
            "offset": 26,
            "slot": "0",
            "type": "t_uint24"
          },
          {
            "astId": 6398,
            "contract": "src/v0.1/RequestResponseCoordinator.sol:RequestResponseCoordinator",
            "label": "reqsForTier5",
            "offset": 29,
            "slot": "0",
            "type": "t_uint24"
          }
        ],
        "numberOfBytes": "32"
      },
      "t_struct(Submission)3037_storage": {
        "encoding": "inplace",
        "label": "struct RequestResponseCoordinator.Submission",
        "members": [
          {
            "astId": 3032,
            "contract": "src/v0.1/RequestResponseCoordinator.sol:RequestResponseCoordinator",
            "label": "oracles",
            "offset": 0,
            "slot": "0",
            "type": "t_array(t_address)dyn_storage"
          },
          {
            "astId": 3036,
            "contract": "src/v0.1/RequestResponseCoordinator.sol:RequestResponseCoordinator",
            "label": "submitted",
            "offset": 0,
            "slot": "1",
            "type": "t_mapping(t_address,t_bool)"
          }
        ],
        "numberOfBytes": "64"
      },
      "t_uint128": {
        "encoding": "inplace",
        "label": "uint128",
        "numberOfBytes": "16"
      },
      "t_uint24": {
        "encoding": "inplace",
        "label": "uint24",
        "numberOfBytes": "3"
      },
      "t_uint256": {
        "encoding": "inplace",
        "label": "uint256",
        "numberOfBytes": "32"
      },
      "t_uint32": {
        "encoding": "inplace",
        "label": "uint32",
        "numberOfBytes": "4"
      }
    }
  }
}