{
  "address": "0x7cb70669dB89f6d20C47ecF8f010F477722D1E22",
  "abi": [
    {
      "inputs": [
        {
          "internalType": "address",
          "name": "prepayment",
          "type": "address"
        }
      ],
      "stateMutability": "nonpayable",
      "type": "constructor"
    },
    {
      "inputs": [
        {
          "internalType": "uint32",
          "name": "have",
          "type": "uint32"
        },
        {
          "internalType": "uint32",
          "name": "want",
          "type": "uint32"
        }
      ],
      "name": "GasLimitTooBig",
      "type": "error"
    },
    {
      "inputs": [],
      "name": "IncorrectCommitment",
      "type": "error"
    },
    {
      "inputs": [
        {
          "internalType": "uint256",
          "name": "have",
          "type": "uint256"
        },
        {
          "internalType": "uint256",
          "name": "want",
          "type": "uint256"
        }
      ],
      "name": "InsufficientPayment",
      "type": "error"
    },
    {
      "inputs": [],
      "name": "InvalidAccount",
      "type": "error"
    },
    {
      "inputs": [
        {
          "internalType": "uint64",
          "name": "accId",
          "type": "uint64"
        },
        {
          "internalType": "address",
          "name": "consumer",
          "type": "address"
        }
      ],
      "name": "InvalidConsumer",
      "type": "error"
    },
    {
      "inputs": [
        {
          "internalType": "bytes32",
          "name": "keyHash",
          "type": "bytes32"
        }
      ],
      "name": "InvalidKeyHash",
      "type": "error"
    },
    {
      "inputs": [],
      "name": "NoCorrespondingRequest",
      "type": "error"
    },
    {
      "inputs": [
        {
          "internalType": "bytes32",
          "name": "keyHash",
          "type": "bytes32"
        }
      ],
      "name": "NoSuchProvingKey",
      "type": "error"
    },
    {
      "inputs": [
        {
          "internalType": "uint32",
          "name": "have",
          "type": "uint32"
        },
        {
          "internalType": "uint32",
          "name": "want",
          "type": "uint32"
        }
      ],
      "name": "NumWordsTooBig",
      "type": "error"
    },
    {
      "inputs": [
        {
          "internalType": "bytes32",
          "name": "keyHash",
          "type": "bytes32"
        }
      ],
      "name": "ProvingKeyAlreadyRegistered",
      "type": "error"
    },
    {
      "inputs": [],
      "name": "Reentrant",
      "type": "error"
    },
    {
      "inputs": [],
      "name": "RefundFailure",
      "type": "error"
    },
    {
      "anonymous": false,
      "inputs": [
        {
          "indexed": false,
          "internalType": "uint32",
          "name": "maxGasLimit",
          "type": "uint32"
        },
        {
          "indexed": false,
          "internalType": "uint32",
          "name": "gasAfterPaymentCalculation",
          "type": "uint32"
        },
        {
          "components": [
            {
              "internalType": "uint32",
              "name": "fulfillmentFlatFeeKlayPPMTier1",
              "type": "uint32"
            },
            {
              "internalType": "uint32",
              "name": "fulfillmentFlatFeeKlayPPMTier2",
              "type": "uint32"
            },
            {
              "internalType": "uint32",
              "name": "fulfillmentFlatFeeKlayPPMTier3",
              "type": "uint32"
            },
            {
              "internalType": "uint32",
              "name": "fulfillmentFlatFeeKlayPPMTier4",
              "type": "uint32"
            },
            {
              "internalType": "uint32",
              "name": "fulfillmentFlatFeeKlayPPMTier5",
              "type": "uint32"
            },
            {
              "internalType": "uint24",
              "name": "reqsForTier2",
              "type": "uint24"
            },
            {
              "internalType": "uint24",
              "name": "reqsForTier3",
              "type": "uint24"
            },
            {
              "internalType": "uint24",
              "name": "reqsForTier4",
              "type": "uint24"
            },
            {
              "internalType": "uint24",
              "name": "reqsForTier5",
              "type": "uint24"
            }
          ],
          "indexed": false,
          "internalType": "struct VRFCoordinator.FeeConfig",
          "name": "feeConfig",
          "type": "tuple"
        }
      ],
      "name": "ConfigSet",
      "type": "event"
    },
    {
      "anonymous": false,
      "inputs": [
        {
          "indexed": false,
          "internalType": "uint256",
          "name": "fulfillmentFee",
          "type": "uint256"
        },
        {
          "indexed": false,
          "internalType": "uint256",
          "name": "baseFee",
          "type": "uint256"
        }
      ],
      "name": "DirectPaymentConfigSet",
      "type": "event"
    },
    {
      "anonymous": false,
      "inputs": [
        {
          "indexed": false,
          "internalType": "uint256",
          "name": "minBalance",
          "type": "uint256"
        }
      ],
      "name": "MinBalanceSet",
      "type": "event"
    },
    {
      "anonymous": false,
      "inputs": [
        {
          "indexed": true,
          "internalType": "address",
          "name": "previousOwner",
          "type": "address"
        },
        {
          "indexed": true,
          "internalType": "address",
          "name": "newOwner",
          "type": "address"
        }
      ],
      "name": "OwnershipTransferred",
      "type": "event"
    },
    {
      "anonymous": false,
      "inputs": [
        {
          "indexed": false,
          "internalType": "bytes32",
          "name": "keyHash",
          "type": "bytes32"
        },
        {
          "indexed": true,
          "internalType": "address",
          "name": "oracle",
          "type": "address"
        }
      ],
      "name": "ProvingKeyDeregistered",
      "type": "event"
    },
    {
      "anonymous": false,
      "inputs": [
        {
          "indexed": false,
          "internalType": "bytes32",
          "name": "keyHash",
          "type": "bytes32"
        },
        {
          "indexed": true,
          "internalType": "address",
          "name": "oracle",
          "type": "address"
        }
      ],
      "name": "ProvingKeyRegistered",
      "type": "event"
    },
    {
      "anonymous": false,
      "inputs": [
        {
          "indexed": true,
          "internalType": "uint256",
          "name": "requestId",
          "type": "uint256"
        },
        {
          "indexed": false,
          "internalType": "uint256",
          "name": "outputSeed",
          "type": "uint256"
        },
        {
          "indexed": false,
          "internalType": "uint256",
          "name": "payment",
          "type": "uint256"
        },
        {
          "indexed": false,
          "internalType": "bool",
          "name": "success",
          "type": "bool"
        }
      ],
      "name": "RandomWordsFulfilled",
      "type": "event"
    },
    {
      "anonymous": false,
      "inputs": [
        {
          "indexed": true,
          "internalType": "bytes32",
          "name": "keyHash",
          "type": "bytes32"
        },
        {
          "indexed": false,
          "internalType": "uint256",
          "name": "requestId",
          "type": "uint256"
        },
        {
          "indexed": false,
          "internalType": "uint256",
          "name": "preSeed",
          "type": "uint256"
        },
        {
          "indexed": true,
          "internalType": "uint64",
          "name": "accId",
          "type": "uint64"
        },
        {
          "indexed": false,
          "internalType": "uint32",
          "name": "callbackGasLimit",
          "type": "uint32"
        },
        {
          "indexed": false,
          "internalType": "uint32",
          "name": "numWords",
          "type": "uint32"
        },
        {
          "indexed": true,
          "internalType": "address",
          "name": "sender",
          "type": "address"
        },
        {
          "indexed": false,
          "internalType": "bool",
          "name": "isDirectPayment",
          "type": "bool"
        }
      ],
      "name": "RandomWordsRequested",
      "type": "event"
    },
    {
      "inputs": [],
      "name": "MAX_NUM_WORDS",
      "outputs": [
        {
          "internalType": "uint32",
          "name": "",
          "type": "uint32"
        }
      ],
      "stateMutability": "view",
      "type": "function"
    },
    {
      "inputs": [
        {
          "internalType": "uint256[2]",
          "name": "publicProvingKey",
          "type": "uint256[2]"
        }
      ],
      "name": "deregisterProvingKey",
      "outputs": [],
      "stateMutability": "nonpayable",
      "type": "function"
    },
    {
      "inputs": [],
      "name": "estimateDirectPaymentFee",
      "outputs": [
        {
          "internalType": "uint256",
          "name": "",
          "type": "uint256"
        }
      ],
      "stateMutability": "view",
      "type": "function"
    },
    {
      "inputs": [
        {
          "components": [
            {
              "internalType": "uint256[2]",
              "name": "pk",
              "type": "uint256[2]"
            },
            {
              "internalType": "uint256[4]",
              "name": "proof",
              "type": "uint256[4]"
            },
            {
              "internalType": "uint256",
              "name": "seed",
              "type": "uint256"
            },
            {
              "internalType": "uint256[2]",
              "name": "uPoint",
              "type": "uint256[2]"
            },
            {
              "internalType": "uint256[4]",
              "name": "vComponents",
              "type": "uint256[4]"
            }
          ],
          "internalType": "struct VRF.Proof",
          "name": "proof",
          "type": "tuple"
        },
        {
          "components": [
            {
              "internalType": "uint64",
              "name": "blockNum",
              "type": "uint64"
            },
            {
              "internalType": "uint64",
              "name": "accId",
              "type": "uint64"
            },
            {
              "internalType": "uint32",
              "name": "callbackGasLimit",
              "type": "uint32"
            },
            {
              "internalType": "uint32",
              "name": "numWords",
              "type": "uint32"
            },
            {
              "internalType": "address",
              "name": "sender",
              "type": "address"
            }
          ],
          "internalType": "struct VRFCoordinator.RequestCommitment",
          "name": "rc",
          "type": "tuple"
        },
        {
          "internalType": "bool",
          "name": "isDirectPayment",
          "type": "bool"
        }
      ],
      "name": "fulfillRandomWords",
      "outputs": [
        {
          "internalType": "uint256",
          "name": "",
          "type": "uint256"
        }
      ],
      "stateMutability": "nonpayable",
      "type": "function"
    },
    {
      "inputs": [
        {
          "internalType": "uint256",
          "name": "requestId",
          "type": "uint256"
        }
      ],
      "name": "getCommitment",
      "outputs": [
        {
          "internalType": "bytes32",
          "name": "",
          "type": "bytes32"
        }
      ],
      "stateMutability": "view",
      "type": "function"
    },
    {
      "inputs": [],
      "name": "getConfig",
      "outputs": [
        {
          "internalType": "uint32",
          "name": "maxGasLimit",
          "type": "uint32"
        },
        {
          "internalType": "uint32",
          "name": "gasAfterPaymentCalculation",
          "type": "uint32"
        }
      ],
      "stateMutability": "view",
      "type": "function"
    },
    {
      "inputs": [],
      "name": "getDirectPaymentConfig",
      "outputs": [
        {
          "internalType": "uint256",
          "name": "",
          "type": "uint256"
        },
        {
          "internalType": "uint256",
          "name": "",
          "type": "uint256"
        }
      ],
      "stateMutability": "view",
      "type": "function"
    },
    {
      "inputs": [],
      "name": "getFeeConfig",
      "outputs": [
        {
          "internalType": "uint32",
          "name": "fulfillmentFlatFeeKlayPPMTier1",
          "type": "uint32"
        },
        {
          "internalType": "uint32",
          "name": "fulfillmentFlatFeeKlayPPMTier2",
          "type": "uint32"
        },
        {
          "internalType": "uint32",
          "name": "fulfillmentFlatFeeKlayPPMTier3",
          "type": "uint32"
        },
        {
          "internalType": "uint32",
          "name": "fulfillmentFlatFeeKlayPPMTier4",
          "type": "uint32"
        },
        {
          "internalType": "uint32",
          "name": "fulfillmentFlatFeeKlayPPMTier5",
          "type": "uint32"
        },
        {
          "internalType": "uint24",
          "name": "reqsForTier2",
          "type": "uint24"
        },
        {
          "internalType": "uint24",
          "name": "reqsForTier3",
          "type": "uint24"
        },
        {
          "internalType": "uint24",
          "name": "reqsForTier4",
          "type": "uint24"
        },
        {
          "internalType": "uint24",
          "name": "reqsForTier5",
          "type": "uint24"
        }
      ],
      "stateMutability": "view",
      "type": "function"
    },
    {
      "inputs": [
        {
          "internalType": "uint64",
          "name": "reqCount",
          "type": "uint64"
        }
      ],
      "name": "getFeeTier",
      "outputs": [
        {
          "internalType": "uint32",
          "name": "",
          "type": "uint32"
        }
      ],
      "stateMutability": "view",
      "type": "function"
    },
    {
      "inputs": [],
      "name": "getPrepaymentAddress",
      "outputs": [
        {
          "internalType": "address",
          "name": "",
          "type": "address"
        }
      ],
      "stateMutability": "view",
      "type": "function"
    },
    {
      "inputs": [],
      "name": "getRequestConfig",
      "outputs": [
        {
          "internalType": "uint32",
          "name": "",
          "type": "uint32"
        },
        {
          "internalType": "bytes32[]",
          "name": "",
          "type": "bytes32[]"
        }
      ],
      "stateMutability": "view",
      "type": "function"
    },
    {
      "inputs": [
        {
          "internalType": "uint256[2]",
          "name": "publicKey",
          "type": "uint256[2]"
        }
      ],
      "name": "hashOfKey",
      "outputs": [
        {
          "internalType": "bytes32",
          "name": "",
          "type": "bytes32"
        }
      ],
      "stateMutability": "pure",
      "type": "function"
    },
    {
      "inputs": [],
      "name": "owner",
      "outputs": [
        {
          "internalType": "address",
          "name": "",
          "type": "address"
        }
      ],
      "stateMutability": "view",
      "type": "function"
    },
    {
      "inputs": [
        {
          "internalType": "address",
          "name": "consumer",
          "type": "address"
        },
        {
          "internalType": "uint64",
          "name": "accId",
          "type": "uint64"
        },
        {
          "internalType": "uint64",
          "name": "nonce",
          "type": "uint64"
        }
      ],
      "name": "pendingRequestExists",
      "outputs": [
        {
          "internalType": "bool",
          "name": "",
          "type": "bool"
        }
      ],
      "stateMutability": "view",
      "type": "function"
    },
    {
      "inputs": [
        {
          "internalType": "address",
          "name": "oracle",
          "type": "address"
        },
        {
          "internalType": "uint256[2]",
          "name": "publicProvingKey",
          "type": "uint256[2]"
        }
      ],
      "name": "registerProvingKey",
      "outputs": [],
      "stateMutability": "nonpayable",
      "type": "function"
    },
    {
      "inputs": [],
      "name": "renounceOwnership",
      "outputs": [],
      "stateMutability": "nonpayable",
      "type": "function"
    },
    {
      "inputs": [
        {
          "internalType": "bytes32",
          "name": "keyHash",
          "type": "bytes32"
        },
        {
          "internalType": "uint64",
          "name": "accId",
          "type": "uint64"
        },
        {
          "internalType": "uint32",
          "name": "callbackGasLimit",
          "type": "uint32"
        },
        {
          "internalType": "uint32",
          "name": "numWords",
          "type": "uint32"
        }
      ],
      "name": "requestRandomWords",
      "outputs": [
        {
          "internalType": "uint256",
          "name": "requestId",
          "type": "uint256"
        }
      ],
      "stateMutability": "nonpayable",
      "type": "function"
    },
    {
      "inputs": [
        {
          "internalType": "bytes32",
          "name": "keyHash",
          "type": "bytes32"
        },
        {
          "internalType": "uint32",
          "name": "callbackGasLimit",
          "type": "uint32"
        },
        {
          "internalType": "uint32",
          "name": "numWords",
          "type": "uint32"
        }
      ],
      "name": "requestRandomWordsPayment",
      "outputs": [
        {
          "internalType": "uint256",
          "name": "",
          "type": "uint256"
        }
      ],
      "stateMutability": "payable",
      "type": "function"
    },
    {
      "inputs": [],
      "name": "s_minBalance",
      "outputs": [
        {
          "internalType": "uint256",
          "name": "",
          "type": "uint256"
        }
      ],
      "stateMutability": "view",
      "type": "function"
    },
    {
      "inputs": [
        {
          "internalType": "uint32",
          "name": "maxGasLimit",
          "type": "uint32"
        },
        {
          "internalType": "uint32",
          "name": "gasAfterPaymentCalculation",
          "type": "uint32"
        },
        {
          "components": [
            {
              "internalType": "uint32",
              "name": "fulfillmentFlatFeeKlayPPMTier1",
              "type": "uint32"
            },
            {
              "internalType": "uint32",
              "name": "fulfillmentFlatFeeKlayPPMTier2",
              "type": "uint32"
            },
            {
              "internalType": "uint32",
              "name": "fulfillmentFlatFeeKlayPPMTier3",
              "type": "uint32"
            },
            {
              "internalType": "uint32",
              "name": "fulfillmentFlatFeeKlayPPMTier4",
              "type": "uint32"
            },
            {
              "internalType": "uint32",
              "name": "fulfillmentFlatFeeKlayPPMTier5",
              "type": "uint32"
            },
            {
              "internalType": "uint24",
              "name": "reqsForTier2",
              "type": "uint24"
            },
            {
              "internalType": "uint24",
              "name": "reqsForTier3",
              "type": "uint24"
            },
            {
              "internalType": "uint24",
              "name": "reqsForTier4",
              "type": "uint24"
            },
            {
              "internalType": "uint24",
              "name": "reqsForTier5",
              "type": "uint24"
            }
          ],
          "internalType": "struct VRFCoordinator.FeeConfig",
          "name": "feeConfig",
          "type": "tuple"
        }
      ],
      "name": "setConfig",
      "outputs": [],
      "stateMutability": "nonpayable",
      "type": "function"
    },
    {
      "inputs": [
        {
          "components": [
            {
              "internalType": "uint256",
              "name": "fulfillmentFee",
              "type": "uint256"
            },
            {
              "internalType": "uint256",
              "name": "baseFee",
              "type": "uint256"
            }
          ],
          "internalType": "struct VRFCoordinator.DirectPaymentConfig",
          "name": "directPaymentConfig",
          "type": "tuple"
        }
      ],
      "name": "setDirectPaymentConfig",
      "outputs": [],
      "stateMutability": "nonpayable",
      "type": "function"
    },
    {
      "inputs": [
        {
          "internalType": "uint256",
          "name": "minBalance",
          "type": "uint256"
        }
      ],
      "name": "setMinBalance",
      "outputs": [],
      "stateMutability": "nonpayable",
      "type": "function"
    },
    {
      "inputs": [
        {
          "internalType": "address",
          "name": "newOwner",
          "type": "address"
        }
      ],
      "name": "transferOwnership",
      "outputs": [],
      "stateMutability": "nonpayable",
      "type": "function"
    },
    {
      "inputs": [],
      "name": "typeAndVersion",
      "outputs": [
        {
          "internalType": "string",
          "name": "",
          "type": "string"
        }
      ],
      "stateMutability": "pure",
      "type": "function"
    }
  ],
  "transactionHash": "0x37850c78ed55ebd7857f463293b4f9c309d61f4fdeeac9eb0f195ca1e4b9b510",
  "args": [
    "0xE22e67F7ce4b6FA9E3ABCB6125Fb53Cb577B34Ef"
  ],
  "numDeployments": 1,
  "solcInputHash": "fa56e8cc296933aafbed3a3276231c2d",
  "bytecode": "0x60806040523480156200001157600080fd5b5060405162003b2938038062003b298339810160408190526200003491620000b5565b6200003f3362000065565b600780546001600160a01b0319166001600160a01b0392909216919091179055620000e7565b600080546001600160a01b038381166001600160a01b0319831681178455604051919092169283917f8be0079c531659141344cd1fd0a4f28419497f9722a3daafe3b4186f6b6457e09190a35050565b600060208284031215620000c857600080fd5b81516001600160a01b0381168114620000e057600080fd5b9392505050565b613a3280620000f76000396000f3fe60806040526004361061018a5760003560e01c80637d08430e116100d6578063c91d956c1161007f578063d2f9f9a711610059578063d2f9f9a71461053d578063f2fde38b1461055d578063fa1d85da1461057d57600080fd5b8063c91d956c146104e7578063c9feea4a14610507578063caf70c4a1461051d57600080fd5b8063a690d7ae116100b0578063a690d7ae14610473578063a812ea7214610491578063c3f909d4146104b157600080fd5b80637d08430e146103f957806388e75972146104195780638da5cb5b1461044157600080fd5b806340d6bb82116101385780636f64f03f116101125780636f64f03f146103a4578063715018a6146103c4578063786708e6146103d957600080fd5b806340d6bb821461029c5780635fbbc0d2146102c757806369bcdb7d1461037757600080fd5b8063181f5a7711610169578063181f5a77146102005780631a8928321461024c5780632f34077b1461027c57600080fd5b80620122911461018f57806306b5536c146101bb57806308821d58146101de575b600080fd5b34801561019b57600080fd5b506101a4610590565b6040516101b2929190612f15565b60405180910390f35b3480156101c757600080fd5b506101d06105fc565b6040519081526020016101b2565b3480156101ea57600080fd5b506101fe6101f9366004612f7a565b610613565b005b34801561020c57600080fd5b50604080518082018252601381527f565246436f6f7264696e61746f722076302e3100000000000000000000000000602082015290516101b29190612fba565b34801561025857600080fd5b5061026c610267366004613018565b6107bb565b60405190151581526020016101b2565b34801561028857600080fd5b506101d061029736600461307c565b6108a9565b3480156102a857600080fd5b506102b26101f481565b60405163ffffffff90911681526020016101b2565b3480156102d357600080fd5b506006546040805163ffffffff80841682526401000000008404811660208301526801000000000000000084048116928201929092526c01000000000000000000000000830482166060820152600160801b8304909116608082015262ffffff600160a01b8304811660a0830152600160b81b8304811660c0830152600160d01b8304811660e0830152600160e81b909204909116610100820152610120016101b2565b34801561038357600080fd5b506101d06103923660046130cb565b60009081526003602052604090205490565b3480156103b057600080fd5b506101fe6103bf3660046130e4565b6109db565b3480156103d057600080fd5b506101fe610aff565b3480156103e557600080fd5b506101fe6103f43660046131c1565b610b13565b34801561040557600080fd5b506101fe6104143660046132b3565b610d5f565b34801561042557600080fd5b50600854600954604080519283526020830191909152016101b2565b34801561044d57600080fd5b506000546001600160a01b03165b6040516001600160a01b0390911681526020016101b2565b34801561047f57600080fd5b506007546001600160a01b031661045b565b34801561049d57600080fd5b506101d06104ac3660046133c0565b610db3565b3480156104bd57600080fd5b506005546040805163ffffffff8084168252650100000000009093049092166020830152016101b2565b3480156104f357600080fd5b506101fe6105023660046130cb565b611189565b34801561051357600080fd5b506101d060045481565b34801561052957600080fd5b506101d06105383660046134cd565b6111c6565b34801561054957600080fd5b506102b26105583660046134e9565b6111f6565b34801561056957600080fd5b506101fe610578366004613506565b611388565b6101d061058b366004613523565b611418565b600554600180546040805160208084028201810190925282815260009460609463ffffffff9091169390928391908301828280156105ed57602002820191906000526020600020905b8154815260200190600101908083116105d9575b50505050509050915091509091565b60095460085460009161060e9161356c565b905090565b61061b611705565b60408051808201825260009161064a9190849060029083908390808284376000920191909152506111c6915050565b6000818152600260205260409020549091506001600160a01b03168061068b57604051631dfd6e1360e21b8152600481018390526024015b60405180910390fd5b6000828152600260205260408120805473ffffffffffffffffffffffffffffffffffffffff191690555b6001548110156107725782600182815481106106d3576106d361357f565b9060005260206000200154036107605760018054600091906106f6908290613595565b815481106107065761070661357f565b9060005260206000200154905080600183815481106107275761072761357f565b6000918252602090912001556001805480610744576107446135a8565b6001900381819060005260206000200160009055905550610772565b8061076a816135be565b9150506106b5565b50806001600160a01b03167f72be339577868f868798bac2c93e52d6f034fef4689a9848996c14ebb7416c0d836040516107ae91815260200190565b60405180910390a2505050565b6000805b60015481101561089c576000610866600183815481106107e1576107e161357f565b60009182526020918290200154604080518084018390526001600160a01b038b168183015267ffffffffffffffff808b16606083015289166080808301919091528251808303909101815260a08201835280519085012060c082019390935260e080820184905282518083039091018152610100909101909152805192019190912091565b5060008181526003602052604090205490915015610889576001925050506108a2565b5080610894816135be565b9150506107bf565b50600090505b9392505050565b600554600090640100000000900460ff16156108d85760405163769dd35360e11b815260040160405180910390fd5b60008581526002602052604090205485906001600160a01b03166109125760405163c954459d60e01b815260048101829052602401610682565b600754604051633bd7108d60e11b815267ffffffffffffffff871660048201526000916001600160a01b0316906377ae211a90602401600060405180830381865afa158015610965573d6000803e3d6000fd5b505050506040513d6000823e601f3d908101601f1916820160405261098d91908101906135d7565b50505090506004548110156109c0576004805460405163b99e2ab760e01b81529182018390526024820152604401610682565b60006109cf888888888561175f565b98975050505050505050565b6109e3611705565b604080518082018252600091610a129190849060029083908390808284376000920191909152506111c6915050565b6000818152600260205260409020549091506001600160a01b031615610a67576040517f4a0b8fa700000000000000000000000000000000000000000000000000000000815260048101829052602401610682565b6000818152600260209081526040808320805473ffffffffffffffffffffffffffffffffffffffff19166001600160a01b03881690811790915560018054808201825594527fb10e2d527612073b26eecdfd717e6a320cf44b4afac2b0732d9fcbe2b7fa0cf6909301849055518381527fe729ae16526293f74ade739043022254f1489f616295a25bf72dfb4511ed73b891016107ae565b610b07611705565b610b116000611bb8565b565b610b1b611705565b604080516060808201835263ffffffff86811680845260006020808601919091528783169486018590526005805468ffffffffffffffffff191690921765010000000000909502949094179055845160068054948701518787015194880151608089015160a08a015160c08b015160e08c01516101008d015197891667ffffffffffffffff19909b169a909a1764010000000095891695909502949094177fffffffffffffffffffffffffffffffff0000000000000000ffffffffffffffff1668010000000000000000988816989098027fffffffffffffffffffffffffffffffff00000000ffffffffffffffffffffffff16979097176c0100000000000000000000000092871692909202919091177fffffffffffffffffff00000000000000ffffffffffffffffffffffffffffffff16600160801b91909516027fffffffffffffffffff000000ffffffffffffffffffffffffffffffffffffffff1693909317600160a01b62ffffff95861602177fffffff000000000000ffffffffffffffffffffffffffffffffffffffffffffff16600160b81b938516939093027fffffff000000ffffffffffffffffffffffffffffffffffffffffffffffffffff1692909217600160d01b94841694909402939093177cffffffffffffffffffffffffffffffffffffffffffffffffffffffffff16600160e81b929093169190910291909117815590517f107fdd8d898f7a380d4a448bb9882a3e1bb767bd803a09721d828b4ce217b04391610d5291869186916136ba565b60405180910390a1505050565b610d67611705565b80516008819055602080830151600981905560408051938452918301527f6e080c19f3bdc7644116da0ba00746ad7b6452f89b6634457e4a41c331fd03dd91015b60405180910390a150565b600554600090640100000000900460ff1615610de25760405163769dd35360e11b815260040160405180910390fd5b60005a90506000806000610df68888611c15565b9250925092506000876060015163ffffffff1667ffffffffffffffff811115610e2157610e2161311a565b604051908082528060200260200182016040528015610e4a578160200160208202803683370190505b50905060005b886060015163ffffffff16811015610ebe5760408051602081018590529081018290526060016040516020818303038152906040528051906020012060001c828281518110610ea157610ea161357f565b602090810291909101015280610eb6816135be565b915050610e50565b506000838152600360205260408082208290555181907f1fe543e30000000000000000000000000000000000000000000000000000000090610f069087908690602401613777565b60408051601f198184030181529181526020820180517bffffffffffffffffffffffffffffffffffffffffffffffffffffffff167fffffffff00000000000000000000000000000000000000000000000000000000909416939093179092526005805464ff000000001916640100000000179055908b015160808c0151919250600091610f9a9163ffffffff169084611e0d565b6005805464ff000000001916905560075460208d0151604051633bd7108d60e11b815267ffffffffffffffff909116600482015291925060009182916001600160a01b0316906377ae211a90602401600060405180830381865afa158015611006573d6000803e3d6000fd5b505050506040513d6000823e601f3d908101601f1916820160405261102e91908101906135d7565b50509150915060008c1561104357508161106c565b600554611069908c9065010000000000900463ffffffff16611064856111f6565b611e59565b90505b600760009054906101000a90046001600160a01b03166001600160a01b031663ea74b84d8f6020015183600260008f815260200190815260200160002060009054906101000a90046001600160a01b03166040518463ffffffff1660e01b81526004016111019392919067ffffffffffffffff93909316835260208301919091526001600160a01b0316604082015260600190565b600060405180830381600087803b15801561111b57600080fd5b505af115801561112f573d6000803e3d6000fd5b5050604080518b8152602081018590528715158183015290518c93507f221ad2e5b871cead1dd7f75c2fb223c0cfa34bdc049a15f3f82a1f0e943e605a92509081900360600190a29e9d5050505050505050505050505050565b611191611705565b60048190556040518181527fc9ac0b9c6116d44b14ac8198e0802802d07cf6956054e7542f0460a4d3423b3a90602001610da8565b6000816040516020016111d991906137b4565b604051602081830303815290604052805190602001209050919050565b604080516101208101825260065463ffffffff80821683526401000000008204811660208401526801000000000000000082048116938301939093526c01000000000000000000000000810483166060830152600160801b8104909216608082015262ffffff600160a01b8304811660a08301819052600160b81b8404821660c0840152600160d01b8404821660e0840152600160e81b9093041661010082015260009167ffffffffffffffff8416116112b1575192915050565b8267ffffffffffffffff168160a0015162ffffff161080156112e657508060c0015162ffffff168367ffffffffffffffff1611155b156112f5576020015192915050565b8267ffffffffffffffff168160c0015162ffffff1610801561132a57508060e0015162ffffff168367ffffffffffffffff1611155b15611339576040015192915050565b8267ffffffffffffffff168160e0015162ffffff1610801561136f575080610100015162ffffff168367ffffffffffffffff1611155b1561137e576060015192915050565b6080015192915050565b611390611705565b6001600160a01b03811661140c5760405162461bcd60e51b815260206004820152602660248201527f4f776e61626c653a206e6577206f776e657220697320746865207a65726f206160448201527f64647265737300000000000000000000000000000000000000000000000000006064820152608401610682565b61141581611bb8565b50565b600554600090640100000000900460ff16156114475760405163769dd35360e11b815260040160405180910390fd5b60008481526002602052604090205484906001600160a01b03166114815760405163c954459d60e01b815260048101829052602401610682565b600061148b6105fc565b9050803410156114b75760405163b99e2ab760e01b815234600482015260248101829052604401610682565b600754604080517f9dca362f00000000000000000000000000000000000000000000000000000000815290516000926001600160a01b031691639dca362f916004808301926020929190829003018187875af115801561151b573d6000803e3d6000fd5b505050506040513d601f19601f8201168201806040525081019061153f91906137e5565b6007546040517f7341c10c00000000000000000000000000000000000000000000000000000000815267ffffffffffffffff831660048201523360248201529192506001600160a01b031690637341c10c90604401600060405180830381600087803b1580156115ae57600080fd5b505af11580156115c2573d6000803e3d6000fd5b5050505060006001905060006115db89848a8a8661175f565b6007546040517f1376583800000000000000000000000000000000000000000000000000000000815267ffffffffffffffff861660048201529192506001600160a01b03169063137658389086906024016000604051808303818588803b15801561164557600080fd5b505af1158015611659573d6000803e3d6000fd5b50505050506000843461166c9190613595565b905080156116f857604051600090339083908381818185875af1925050503d80600081146116b6576040519150601f19603f3d011682016040523d82523d6000602084013e6116bb565b606091505b50509050806116f6576040517fef7a4b6100000000000000000000000000000000000000000000000000000000815260040160405180910390fd5b505b5098975050505050505050565b6000546001600160a01b03163314610b115760405162461bcd60e51b815260206004820181905260248201527f4f776e61626c653a2063616c6c6572206973206e6f7420746865206f776e65726044820152606401610682565b6007546040517f4a41897300000000000000000000000000000000000000000000000000000000815267ffffffffffffffff8616600482015260009182916001600160a01b0390911690634a418973906024016020604051808303816000875af11580156117d1573d6000803e3d6000fd5b505050506040513d601f19601f820116820180604052508101906117f59190613802565b90506001600160a01b038116611837576040517f6d187b2800000000000000000000000000000000000000000000000000000000815260040160405180910390fd5b6007546040517f6d5e8a7900000000000000000000000000000000000000000000000000000000815233600482015267ffffffffffffffff881660248201526000916001600160a01b031690636d5e8a7990604401602060405180830381865afa1580156118a9573d6000803e3d6000fd5b505050506040513d601f19601f820116820180604052508101906118cd91906137e5565b90508067ffffffffffffffff16600003611925576040517ff0019fe600000000000000000000000000000000000000000000000000000000815267ffffffffffffffff88166004820152336024820152604401610682565b60055463ffffffff908116908716111561197f576005546040517ff5d7e01e00000000000000000000000000000000000000000000000000000000815263ffffffff80891660048301529091166024820152604401610682565b6101f463ffffffff861611156119d1576040517f47386bec00000000000000000000000000000000000000000000000000000000815263ffffffff861660048201526101f46024820152604401610682565b6007546040517f4000a00700000000000000000000000000000000000000000000000000000000815233600482015267ffffffffffffffff891660248201526000916001600160a01b031690634000a007906044016020604051808303816000875af1158015611a45573d6000803e3d6000fd5b505050506040513d601f19601f82011682018060405250810190611a6991906137e5565b6040805160208082018d9052338284015267ffffffffffffffff808d16606084015284166080808401919091528351808403909101815260a08301845280519082012060c083018e905260e080840182905284518085039091018152610100909301909352815191012091925060009182916040805160208101849052439181019190915267ffffffffffffffff8d16606082015263ffffffff808d1660808301528b1660a08201523360c0820152919350915060e00160408051601f19818403018152828252805160209182012060008681526003835283902055848352820183905263ffffffff808c1691830191909152891660608201528715156080820152339067ffffffffffffffff8c16908d907f88c0534cab9d18b5e2f8fb9a9d142426403b507f2343cfaafe6cfe45e9900e309060a00160405180910390a45093505050505b95945050505050565b600080546001600160a01b0383811673ffffffffffffffffffffffffffffffffffffffff19831681178455604051919092169283917f8be0079c531659141344cd1fd0a4f28419497f9722a3daafe3b4186f6b6457e09190a35050565b6000806000611c2785600001516111c6565b6000818152600260205260409020549093506001600160a01b031680611c6357604051631dfd6e1360e21b815260048101859052602401610682565b6040808701518151602081018790529182015260600160408051601f198184030181529181528151602092830120600081815260039093529082205490945090819003611cdc576040517f3688124a00000000000000000000000000000000000000000000000000000000815260040160405180910390fd5b85516020808801516040808a015160608b015160808c01519251611d48968b96909594910195865267ffffffffffffffff948516602087015292909316604085015263ffffffff90811660608501529190911660808301526001600160a01b031660a082015260c00190565b604051602081830303815290604052805190602001208114611d96576040517fd529142c00000000000000000000000000000000000000000000000000000000815260040160405180910390fd5b8551604080890151905167ffffffffffffffff9092164091600091611dc8918490602001918252602082015260400190565b60408051601f19818403018152828252805160209182012090830152016040516020818303038152906040529050611e008982611eaa565b9450505050509250925092565b60005a611388811015611e1f57600080fd5b611388810390508460408204820311611e3757600080fd5b50823b611e4357600080fd5b60008083516020850160008789f1949350505050565b6000805a611e67868661356c565b611e719190613595565b611e7b903a61381f565b90506000611e9463ffffffff851664e8d4a5100061381f565b9050611ea0818361356c565b9695505050505050565b6000611ec9836000015184602001518486606001518760800151611f02565b50505060209081015180519082015160408051808501939093528281019190915280518083038201815260609092019052805191012090565b6000806000611f11888761205b565b606089015160408a01518b5160208d8101518b51918c0151969850949650611f3f95939492939192916121c3565b1580611f66575060608701518451611f649190849084908860015b602002015161230b565b155b80611f8c5750604080880151885160208a015192870151611f8a9390886003611f5a565b155b15611f9c57600092505050611baf565b83516020850151604086015160608701516000938493611fc8939192909190856401000003d0196123e2565b8a516020808d01518b51918c0151949650929450600093611ff0938993899390928989612417565b60408b0151909150608082901c1461204a5760405162461bcd60e51b815260206004820152600d60248201527f696e76616c69642070726f6f66000000000000000000000000000000000000006044820152606401610682565b5060019a9950505050505050505050565b6000808060fe600161207a8784602002015188600160200201516124d6565b8660405160200161208e949392919061383e565b604051602081830303815290604052905060005b6101008160ff1610156121735760006002838360006040516020016120c993929190613895565b60408051601f19818403018152908290526120e3916138d1565b602060405180830381855afa158015612100573d6000803e3d6000fd5b5050506040513d601f19601f8201168201806040525081019061212391906138ed565b905080600061213360028361252d565b905061214a8282600060076401000003d019612544565b1561215d5790955093506121bc92505050565b505050808061216b90613906565b9150506120a2565b5060405162461bcd60e51b815260206004820152601860248201527f4e6f2076616c696420706f696e742077617320666f756e6400000000000000006044820152606401610682565b9250929050565b60008070014551231950b75fc4402da1732fc9bebe196121e38982613595565b6121ed919061393b565b905070014551231950b75fc4402da1732fc9bebe198682099050600070014551231950b75fc4402da1732fc9bebe196122268982613595565b612230919061393b565b9050600060018361224260028a61393b565b60000361225057601b612253565b601c5b8a70014551231950b75fc4402da1732fc9bebe198c87096040805160008152602081018083529590955260ff909316928401929092526060830152608082015260a0016020604051602081039080840390855afa1580156122b8573d6000803e3d6000fd5b505060408051601f1981015160208083019a909a5281830198909852815180820383018152606090910190915280519701969096206001600160a01b039081169516949094149998505050505050505050565b60008060018161231c60028861393b565b60000361232a57601b61232d565b601c5b8870014551231950b75fc4402da1732fc9bebe198a8c096040805160008152602081018083529590955260ff909316928401929092526060830152608082015260a0016020604051602081039080840390855afa158015612392573d6000803e3d6000fd5b505060408051601f1981015160208083019890985281830196909652815180820383018152606090910190915280519501949094206001600160a01b039081169316929092149695505050505050565b6000806000806123f38888876125fd565b915091506124058a8a84848a8a612622565b9350935050505b965096945050505050565b60008060fe60026124288c8c6124d6565b6124328b8b6124d6565b61243c8a8a6124d6565b61244689896124d6565b600060405160200161245e979695949392919061394f565b6040516020818303038152906040529050600060028260405161248191906138d1565b602060405180830381855afa15801561249e573d6000803e3d6000fd5b5050506040513d601f19601f820116820180604052508101906124c191906138ed565b6040518190529b9a5050505050505050505050565b606060006124e560028461393b565b6124f090600261356c565b6040516001600160f81b031960f883901b166020820152602181018690529091506041016040516020818303038152906040529150505b92915050565b60006108a28383600060076401000003d0196126a9565b60008515806125535750818610155b8061255c575084155b806125675750818510155b1561257457506000611baf565b6000828061258457612584613925565b86870990506000838061259957612599613925565b8885806125a8576125a8613925565b8a8b0909905085156125d85783806125c2576125c2613925565b84806125d0576125d0613925565b878a09820890505b84156125f25783806125ec576125ec613925565b85820890505b149695505050505050565b600080848361260c8682613595565b612616919061393b565b91509150935093915050565b6000806000806000888b0361267257858061263f5761263f613925565b888b08600003612658576000809450945050505061240c565b6126668b8b60018a8a6127e4565b9194509250905061268b565b6126838b8b60018c8c60018c612987565b919450925090505b61269783838389612cba565b94509450505050965096945050505050565b60008560ff16600214806126c057508560ff166003145b6127325760405162461bcd60e51b815260206004820152602260248201527f496e76616c696420636f6d7072657373656420454320706f696e74207072656660448201527f69780000000000000000000000000000000000000000000000000000000000006064820152608401610682565b6000828061274257612742613925565b838061275057612750613925565b85858061275f5761275f613925565b888a0908848061277157612771613925565b858061277f5761277f613925565b898a0989090890506127a881600461279886600161356c565b6127a291906139e8565b85612d29565b9050600060026127bb60ff8a168461356c565b6127c5919061393b565b156127d9576127d48285613595565b6109cf565b509695505050505050565b6000806000856000036127fe57508691508590508461297c565b6000848061280e5761280e613925565b898a0990506000858061282357612823613925565b898a0990506000868061283857612838613925565b898a0990506000878061284d5761284d613925565b888061285b5761285b613925565b848e0960040990506000888061287357612873613925565b898061288157612881613925565b8a8061288f5761288f613925565b8586098c098a806128a2576128a2613925565b8760030908905088806128b7576128b7613925565b89806128c5576128c5613925565b8384086128d2908b613595565b8a806128e0576128e0613925565b83840908945088806128f4576128f4613925565b898061290257612902613925565b8a8061291057612910613925565b868709600809612920908b613595565b8a8061292e5761292e613925565b8b8061293c5761293c613925565b612946898e613595565b86088409089350888061295b5761295b613925565b898061296957612969613925565b8c8e096002099497509295509293505050505b955095509592505050565b6000808089158015612997575088155b156129a9575085915084905083612cad565b861580156129b5575085155b156129c7575088915087905086612cad565b6129cf612ef7565b84806129dd576129dd613925565b898a09815284806129f0576129f0613925565b81518a0960208201528480612a0757612a07613925565b86870960408201528480612a1d57612a1d613925565b6040820151870960608201526040805160808101909152808680612a4357612a43613925565b60408401518e0981526020018680612a5d57612a5d613925565b60608401518d0981526020018680612a7757612a77613925565b83518b0981526020018680612a8e57612a8e613925565b60208401518a09905260408101518151919250141580612ab657506060810151602082015114155b612b025760405162461bcd60e51b815260206004820152601e60248201527f557365206a6163446f75626c652066756e6374696f6e20696e737465616400006044820152606401610682565b612b0a612ef7565b8580612b1857612b18613925565b8251612b249088613595565b60408401510881528580612b3a57612b3a613925565b6020830151612b499088613595565b60608401510860208201528580612b6257612b62613925565b8151800960408201528580612b7957612b79613925565b8151604083015109606082015260008680612b9657612b96613925565b6060830151612ba59089613595565b8880612bb357612bb3613925565b602085015180090890508680612bcb57612bcb613925565b8780612bd957612bd9613925565b8880612be757612be7613925565b6040850151865109600209612bfc9089613595565b8208905060008780612c1057612c10613925565b8880612c1e57612c1e613925565b612c28848b613595565b8a80612c3657612c36613925565b60408701518851090860208501510990508780612c5557612c55613925565b8880612c6357612c63613925565b6060850151602087015109612c78908a613595565b8208905060008880612c8c57612c8c613925565b8980612c9a57612c9a613925565b8b8f098551099297509095509093505050505b9750975097945050505050565b6000806000612cc98585612e1c565b905060008480612cdb57612cdb613925565b828309905060008580612cf057612cf0613925565b828a09905060008680612d0557612d05613925565b8780612d1357612d13613925565b8486098a09919a91995090975050505050505050565b600081600003612d7b5760405162461bcd60e51b815260206004820152600f60248201527f4d6f64756c7573206973207a65726f00000000000000000000000000000000006044820152606401610682565b83600003612d8b575060006108a2565b82600003612d9b575060016108a2565b60017f80000000000000000000000000000000000000000000000000000000000000005b8015612e1357838186161515870a85848509099150836002820486161515870a85848509099150836004820486161515870a85848509099150836008820486161515870a8584850909915060109004612dbf565b50949350505050565b60008215801590612e2d5750818314155b8015612e3857508115155b612e845760405162461bcd60e51b815260206004820152600e60248201527f496e76616c6964206e756d6265720000000000000000000000000000000000006044820152606401610682565b6000600183825b8615612eec57612e9b87836139e8565b9050828680612eac57612eac613925565b8780612eba57612eba613925565b858409612ec79089613595565b8608909450925086612ed9818361381f565b612ee39084613595565b97509150612e8b565b509195945050505050565b60405180608001604052806004906020820280368337509192915050565b60006040820163ffffffff851683526020604081850152818551808452606086019150828701935060005b81811015612f5c57845183529383019391830191600101612f40565b5090979650505050505050565b806040810183101561252757600080fd5b600060408284031215612f8c57600080fd5b6108a28383612f69565b60005b83811015612fb1578181015183820152602001612f99565b50506000910152565b6020815260008251806020840152612fd9816040850160208701612f96565b601f01601f19169190910160400192915050565b6001600160a01b038116811461141557600080fd5b67ffffffffffffffff8116811461141557600080fd5b60008060006060848603121561302d57600080fd5b833561303881612fed565b9250602084013561304881613002565b9150604084013561305881613002565b809150509250925092565b803563ffffffff8116811461307757600080fd5b919050565b6000806000806080858703121561309257600080fd5b8435935060208501356130a481613002565b92506130b260408601613063565b91506130c060608601613063565b905092959194509250565b6000602082840312156130dd57600080fd5b5035919050565b600080606083850312156130f757600080fd5b823561310281612fed565b91506131118460208501612f69565b90509250929050565b634e487b7160e01b600052604160045260246000fd5b604051610120810167ffffffffffffffff811182821017156131545761315461311a565b60405290565b60405160a0810167ffffffffffffffff811182821017156131545761315461311a565b604051601f8201601f1916810167ffffffffffffffff811182821017156131a6576131a661311a565b604052919050565b803562ffffff8116811461307757600080fd5b60008060008385036101608112156131d857600080fd5b6131e185613063565b93506131ef60208601613063565b925061012080603f198301121561320557600080fd5b61320d613130565b915061321b60408701613063565b825261322960608701613063565b602083015261323a60808701613063565b604083015261324b60a08701613063565b606083015261325c60c08701613063565b608083015261326d60e087016131ae565b60a08301526101006132808188016131ae565b60c08401526132908288016131ae565b60e08401526132a261014088016131ae565b818401525050809150509250925092565b6000604082840312156132c557600080fd5b6040516040810181811067ffffffffffffffff821117156132e8576132e861311a565b604052823581526020928301359281019290925250919050565b600082601f83011261331357600080fd5b6040516040810181811067ffffffffffffffff821117156133365761333661311a565b806040525080604084018581111561334d57600080fd5b845b81811015612eec57803583526020928301920161334f565b600082601f83011261337857600080fd5b6040516080810181811067ffffffffffffffff8211171561339b5761339b61311a565b60405280608084018581111561334d57600080fd5b8035801515811461307757600080fd5b60008060008385036102608112156133d757600080fd5b6101a0808212156133e757600080fd5b6133ef61315a565b6133f98888613302565b81526134088860408901613367565b602082015260c087013560408201526134248860e08901613302565b6060820152613437886101208901613367565b6080820152945060a061019f198301121561345157600080fd5b61345961315a565b915085013561346781613002565b81526101c085013561347881613002565b602082015261348a6101e08601613063565b604082015261349c6102008601613063565b60608201526102208501356134b081612fed565b608082015291506134c461024085016133b0565b90509250925092565b6000604082840312156134df57600080fd5b6108a28383613302565b6000602082840312156134fb57600080fd5b81356108a281613002565b60006020828403121561351857600080fd5b81356108a281612fed565b60008060006060848603121561353857600080fd5b8335925061354860208501613063565b91506134c460408501613063565b634e487b7160e01b600052601160045260246000fd5b8082018082111561252757612527613556565b634e487b7160e01b600052603260045260246000fd5b8181038181111561252757612527613556565b634e487b7160e01b600052603160045260246000fd5b6000600182016135d0576135d0613556565b5060010190565b600080600080608085870312156135ed57600080fd5b8451935060208086015161360081613002565b604087015190945061361181612fed565b606087015190935067ffffffffffffffff8082111561362f57600080fd5b818801915088601f83011261364357600080fd5b8151818111156136555761365561311a565b8060051b915061366684830161317d565b818152918301840191848101908b84111561368057600080fd5b938501935b838510156136aa578451925061369a83612fed565b8282529385019390850190613685565b989b979a50959850505050505050565b63ffffffff8481168252838116602083015282548082166040840152610160830191906136f460608501838360201c1663ffffffff169052565b61370b60808501838360401c1663ffffffff169052565b61372260a08501838360601c1663ffffffff169052565b61373960c08501838360801c1663ffffffff169052565b62ffffff60a082901c811660e086015260b882901c811661010086015260d082901c1661012085015260e81c61014090930192909252949350505050565b82815260406020808301829052835191830182905260009184820191906060850190848115612f5c57845183529383019391830191600101612f40565b60408101818360005b60028110156137dc5781518352602092830192909101906001016137bd565b50505092915050565b6000602082840312156137f757600080fd5b81516108a281613002565b60006020828403121561381457600080fd5b81516108a281612fed565b600081600019048311821515161561383957613839613556565b500290565b60006001600160f81b0319808760f81b168352808660f81b166001840152508351613870816002850160208801612f96565b835190830190613887816002840160208801612f96565b016002019695505050505050565b600084516138a7818460208901612f96565b6001600160f81b031960f895861b8116919093019081529290931b16600182015260020192915050565b600082516138e3818460208701612f96565b9190910192915050565b6000602082840312156138ff57600080fd5b5051919050565b600060ff821660ff810361391c5761391c613556565b60010192915050565b634e487b7160e01b600052601260045260246000fd5b60008261394a5761394a613925565b500690565b60006001600160f81b0319808a60f81b168352808960f81b1660018401528751613980816002860160208c01612f96565b875190840190613997816002840160208c01612f96565b87519101906139ad816002840160208b01612f96565b86519101906139c3816002840160208a01612f96565b808201915050818560f81b166002820152600381019250505098975050505050505050565b6000826139f7576139f7613925565b50049056fea2646970667358221220b87286b5500a5efbea0a76fd602e0a10d4ba4ae40c12a98f71fcfc4fc6d613c064736f6c63430008100033",
  "devdoc": {
    "kind": "dev",
    "methods": {
      "deregisterProvingKey(uint256[2])": {
        "params": {
          "publicProvingKey": "key that oracle can use to submit VRF fulfillments"
        }
      },
      "getCommitment(uint256)": {
        "details": "used to determine if a request is fulfilled or not",
        "params": {
          "requestId": "id of request"
        }
      },
      "getRequestConfig()": {
        "returns": {
          "_0": "maxGasLimit global max for request gas limit",
          "_1": "s_provingKeyHashes list of registered key hashes"
        }
      },
      "hashOfKey(uint256[2])": {
        "params": {
          "publicKey": "the key to return the hash of"
        }
      },
      "owner()": {
        "details": "Returns the address of the current owner."
      },
      "pendingRequestExists(address,uint64,uint64)": {
        "params": {
          "accId": "- ID of the account"
        },
        "returns": {
          "_0": "true if there exists at least one unfulfilled request for the account, false otherwise."
        }
      },
      "registerProvingKey(address,uint256[2])": {
        "params": {
          "oracle": "address of the oracle",
          "publicProvingKey": "key that oracle can use to submit VRF fulfillments"
        }
      },
      "renounceOwnership()": {
        "details": "Leaves the contract without owner. It will not be possible to call `onlyOwner` functions anymore. Can only be called by the current owner. NOTE: Renouncing ownership will leave the contract without an owner, thereby removing any functionality that is only available to the owner."
      },
      "requestRandomWords(bytes32,uint64,uint32,uint32)": {
        "params": {
          "accId": "- The ID of the account. Must be funded with the minimum account balance required for the selected keyHash.",
          "callbackGasLimit": "- How much gas you'd like to receive in your fulfillRandomWords callback. Note that gasleft() inside fulfillRandomWords may be slightly less than this amount because of gas used calling the function (argument decoding etc.), so you may need to request slightly more than you expect to have inside fulfillRandomWords. The acceptable range is [0, maxGasLimit]",
          "keyHash": "- Corresponds to a particular oracle job which uses that key for generating the VRF proof. Different keyHash's have different gas price ceilings, so you can select a specific one to bound your maximum per request cost.",
          "numWords": "- The number of uint256 random values you'd like to receive in your fulfillRandomWords callback. Note these numbers are expanded in a secure way by the VRFCoordinator from a single random value supplied by the oracle."
        },
        "returns": {
          "requestId": "- A unique identifier of the request. Can be used to match a request to a response in fulfillRandomWords."
        }
      },
      "setConfig(uint32,uint32,(uint32,uint32,uint32,uint32,uint32,uint24,uint24,uint24,uint24))": {
        "params": {
          "feeConfig": "fee tier configuration",
          "gasAfterPaymentCalculation": "gas used in doing accounting after completing the gas measurement",
          "maxGasLimit": "global max for request gas limit"
        }
      },
      "transferOwnership(address)": {
        "details": "Transfers ownership of the contract to a new account (`newOwner`). Can only be called by the current owner."
      },
      "typeAndVersion()": {
        "returns": {
          "_0": "Type and version string"
        }
      }
    },
    "version": 1
  },
  "userdoc": {
    "kind": "user",
    "methods": {
      "deregisterProvingKey(uint256[2])": {
        "notice": "Deregisters a proving key to an oracle."
      },
      "getCommitment(uint256)": {
        "notice": "Get request commitment"
      },
      "getRequestConfig()": {
        "notice": "Get configuration relevant for making requests"
      },
      "hashOfKey(uint256[2])": {
        "notice": "Returns the proving key hash key associated with this public key"
      },
      "pendingRequestExists(address,uint64,uint64)": {
        "notice": "Check to see if there exists a request commitment consumers for all consumers and keyhashes for a given acc."
      },
      "registerProvingKey(address,uint256[2])": {
        "notice": "Registers a proving key to an oracle."
      },
      "requestRandomWords(bytes32,uint64,uint32,uint32)": {
        "notice": "Request a set of random words."
      },
      "setConfig(uint32,uint32,(uint32,uint32,uint32,uint32,uint32,uint24,uint24,uint24,uint24))": {
        "notice": "Sets the configuration of the VRF coordinator"
      },
      "typeAndVersion()": {
        "notice": "The type and version of this contract"
      }
    },
    "version": 1
  },
  "storageLayout": {
    "storage": [
      {
        "astId": 546,
        "contract": "src/v0.1/VRFCoordinator.sol:VRFCoordinator",
        "label": "_owner",
        "offset": 0,
        "slot": "0",
        "type": "t_address"
      },
      {
        "astId": 8821,
        "contract": "src/v0.1/VRFCoordinator.sol:VRFCoordinator",
        "label": "s_provingKeyHashes",
        "offset": 0,
        "slot": "1",
        "type": "t_array(t_bytes32)dyn_storage"
      },
      {
        "astId": 8825,
        "contract": "src/v0.1/VRFCoordinator.sol:VRFCoordinator",
        "label": "s_provingKeys",
        "offset": 0,
        "slot": "2",
        "type": "t_mapping(t_bytes32,t_address)"
      },
      {
        "astId": 8829,
        "contract": "src/v0.1/VRFCoordinator.sol:VRFCoordinator",
        "label": "s_requestCommitments",
        "offset": 0,
        "slot": "3",
        "type": "t_mapping(t_uint256,t_bytes32)"
      },
      {
        "astId": 8831,
        "contract": "src/v0.1/VRFCoordinator.sol:VRFCoordinator",
        "label": "s_minBalance",
        "offset": 0,
        "slot": "4",
        "type": "t_uint256"
      },
      {
        "astId": 8852,
        "contract": "src/v0.1/VRFCoordinator.sol:VRFCoordinator",
        "label": "s_config",
        "offset": 0,
        "slot": "5",
        "type": "t_struct(Config)8849_storage"
      },
      {
        "astId": 8874,
        "contract": "src/v0.1/VRFCoordinator.sol:VRFCoordinator",
        "label": "s_feeConfig",
        "offset": 0,
        "slot": "6",
        "type": "t_struct(FeeConfig)8871_storage"
      },
      {
        "astId": 8877,
        "contract": "src/v0.1/VRFCoordinator.sol:VRFCoordinator",
        "label": "s_prepayment",
        "offset": 0,
        "slot": "7",
        "type": "t_contract(PrepaymentInterface)10560"
      },
      {
        "astId": 8885,
        "contract": "src/v0.1/VRFCoordinator.sol:VRFCoordinator",
        "label": "s_directPaymentConfig",
        "offset": 0,
        "slot": "8",
        "type": "t_struct(DirectPaymentConfig)8882_storage"
      }
    ],
    "types": {
      "t_address": {
        "encoding": "inplace",
        "label": "address",
        "numberOfBytes": "20"
      },
      "t_array(t_bytes32)dyn_storage": {
        "base": "t_bytes32",
        "encoding": "dynamic_array",
        "label": "bytes32[]",
        "numberOfBytes": "32"
      },
      "t_bool": {
        "encoding": "inplace",
        "label": "bool",
        "numberOfBytes": "1"
      },
      "t_bytes32": {
        "encoding": "inplace",
        "label": "bytes32",
        "numberOfBytes": "32"
      },
      "t_contract(PrepaymentInterface)10560": {
        "encoding": "inplace",
        "label": "contract PrepaymentInterface",
        "numberOfBytes": "20"
      },
      "t_mapping(t_bytes32,t_address)": {
        "encoding": "mapping",
        "key": "t_bytes32",
        "label": "mapping(bytes32 => address)",
        "numberOfBytes": "32",
        "value": "t_address"
      },
      "t_mapping(t_uint256,t_bytes32)": {
        "encoding": "mapping",
        "key": "t_uint256",
        "label": "mapping(uint256 => bytes32)",
        "numberOfBytes": "32",
        "value": "t_bytes32"
      },
      "t_struct(Config)8849_storage": {
        "encoding": "inplace",
        "label": "struct VRFCoordinator.Config",
        "members": [
          {
            "astId": 8844,
            "contract": "src/v0.1/VRFCoordinator.sol:VRFCoordinator",
            "label": "maxGasLimit",
            "offset": 0,
            "slot": "0",
            "type": "t_uint32"
          },
          {
            "astId": 8846,
            "contract": "src/v0.1/VRFCoordinator.sol:VRFCoordinator",
            "label": "reentrancyLock",
            "offset": 4,
            "slot": "0",
            "type": "t_bool"
          },
          {
            "astId": 8848,
            "contract": "src/v0.1/VRFCoordinator.sol:VRFCoordinator",
            "label": "gasAfterPaymentCalculation",
            "offset": 5,
            "slot": "0",
            "type": "t_uint32"
          }
        ],
        "numberOfBytes": "32"
      },
      "t_struct(DirectPaymentConfig)8882_storage": {
        "encoding": "inplace",
        "label": "struct VRFCoordinator.DirectPaymentConfig",
        "members": [
          {
            "astId": 8879,
            "contract": "src/v0.1/VRFCoordinator.sol:VRFCoordinator",
            "label": "fulfillmentFee",
            "offset": 0,
            "slot": "0",
            "type": "t_uint256"
          },
          {
            "astId": 8881,
            "contract": "src/v0.1/VRFCoordinator.sol:VRFCoordinator",
            "label": "baseFee",
            "offset": 0,
            "slot": "1",
            "type": "t_uint256"
          }
        ],
        "numberOfBytes": "64"
      },
      "t_struct(FeeConfig)8871_storage": {
        "encoding": "inplace",
        "label": "struct VRFCoordinator.FeeConfig",
        "members": [
          {
            "astId": 8854,
            "contract": "src/v0.1/VRFCoordinator.sol:VRFCoordinator",
            "label": "fulfillmentFlatFeeKlayPPMTier1",
            "offset": 0,
            "slot": "0",
            "type": "t_uint32"
          },
          {
            "astId": 8856,
            "contract": "src/v0.1/VRFCoordinator.sol:VRFCoordinator",
            "label": "fulfillmentFlatFeeKlayPPMTier2",
            "offset": 4,
            "slot": "0",
            "type": "t_uint32"
          },
          {
            "astId": 8858,
            "contract": "src/v0.1/VRFCoordinator.sol:VRFCoordinator",
            "label": "fulfillmentFlatFeeKlayPPMTier3",
            "offset": 8,
            "slot": "0",
            "type": "t_uint32"
          },
          {
            "astId": 8860,
            "contract": "src/v0.1/VRFCoordinator.sol:VRFCoordinator",
            "label": "fulfillmentFlatFeeKlayPPMTier4",
            "offset": 12,
            "slot": "0",
            "type": "t_uint32"
          },
          {
            "astId": 8862,
            "contract": "src/v0.1/VRFCoordinator.sol:VRFCoordinator",
            "label": "fulfillmentFlatFeeKlayPPMTier5",
            "offset": 16,
            "slot": "0",
            "type": "t_uint32"
          },
          {
            "astId": 8864,
            "contract": "src/v0.1/VRFCoordinator.sol:VRFCoordinator",
            "label": "reqsForTier2",
            "offset": 20,
            "slot": "0",
            "type": "t_uint24"
          },
          {
            "astId": 8866,
            "contract": "src/v0.1/VRFCoordinator.sol:VRFCoordinator",
            "label": "reqsForTier3",
            "offset": 23,
            "slot": "0",
            "type": "t_uint24"
          },
          {
            "astId": 8868,
            "contract": "src/v0.1/VRFCoordinator.sol:VRFCoordinator",
            "label": "reqsForTier4",
            "offset": 26,
            "slot": "0",
            "type": "t_uint24"
          },
          {
            "astId": 8870,
            "contract": "src/v0.1/VRFCoordinator.sol:VRFCoordinator",
            "label": "reqsForTier5",
            "offset": 29,
            "slot": "0",
            "type": "t_uint24"
          }
        ],
        "numberOfBytes": "32"
      },
      "t_uint24": {
        "encoding": "inplace",
        "label": "uint24",
        "numberOfBytes": "3"
      },
      "t_uint256": {
        "encoding": "inplace",
        "label": "uint256",
        "numberOfBytes": "32"
      },
      "t_uint32": {
        "encoding": "inplace",
        "label": "uint32",
        "numberOfBytes": "4"
      }
    }
  }
}