{
  "address": "0x6B4c0b11bd7fE1E9e9a69297347cFDccA416dF5F",
  "abi": [
    {
      "inputs": [
        {
          "internalType": "address",
          "name": "prepayment",
          "type": "address"
        }
      ],
      "stateMutability": "nonpayable",
      "type": "constructor"
    },
    {
      "inputs": [
        {
          "internalType": "uint32",
          "name": "have",
          "type": "uint32"
        },
        {
          "internalType": "uint32",
          "name": "want",
          "type": "uint32"
        }
      ],
      "name": "GasLimitTooBig",
      "type": "error"
    },
    {
      "inputs": [],
      "name": "IncorrectCommitment",
      "type": "error"
    },
    {
      "inputs": [
        {
          "internalType": "uint256",
          "name": "have",
          "type": "uint256"
        },
        {
          "internalType": "uint256",
          "name": "want",
          "type": "uint256"
        }
      ],
      "name": "InsufficientPayment",
      "type": "error"
    },
    {
      "inputs": [
        {
          "internalType": "uint64",
          "name": "accId",
          "type": "uint64"
        },
        {
          "internalType": "address",
          "name": "consumer",
          "type": "address"
        }
      ],
      "name": "InvalidConsumer",
      "type": "error"
    },
    {
      "inputs": [
        {
          "internalType": "bytes32",
          "name": "keyHash",
          "type": "bytes32"
        }
      ],
      "name": "InvalidKeyHash",
      "type": "error"
    },
    {
      "inputs": [],
      "name": "NoCorrespondingRequest",
      "type": "error"
    },
    {
      "inputs": [
        {
          "internalType": "address",
          "name": "oracle",
          "type": "address"
        }
      ],
      "name": "NoSuchOracle",
      "type": "error"
    },
    {
      "inputs": [
        {
          "internalType": "bytes32",
          "name": "keyHash",
          "type": "bytes32"
        }
      ],
      "name": "NoSuchProvingKey",
      "type": "error"
    },
    {
      "inputs": [],
      "name": "NotRequestOwner",
      "type": "error"
    },
    {
      "inputs": [
        {
          "internalType": "uint32",
          "name": "have",
          "type": "uint32"
        },
        {
          "internalType": "uint32",
          "name": "want",
          "type": "uint32"
        }
      ],
      "name": "NumWordsTooBig",
      "type": "error"
    },
    {
      "inputs": [
        {
          "internalType": "address",
          "name": "oracle",
          "type": "address"
        }
      ],
      "name": "OracleAlreadyRegistered",
      "type": "error"
    },
    {
      "inputs": [],
      "name": "Reentrant",
      "type": "error"
    },
    {
      "inputs": [],
      "name": "RefundFailure",
      "type": "error"
    },
    {
      "anonymous": false,
      "inputs": [
        {
          "indexed": false,
          "internalType": "uint32",
          "name": "maxGasLimit",
          "type": "uint32"
        },
        {
          "indexed": false,
          "internalType": "uint32",
          "name": "gasAfterPaymentCalculation",
          "type": "uint32"
        },
        {
          "components": [
            {
              "internalType": "uint32",
              "name": "fulfillmentFlatFeeKlayPPMTier1",
              "type": "uint32"
            },
            {
              "internalType": "uint32",
              "name": "fulfillmentFlatFeeKlayPPMTier2",
              "type": "uint32"
            },
            {
              "internalType": "uint32",
              "name": "fulfillmentFlatFeeKlayPPMTier3",
              "type": "uint32"
            },
            {
              "internalType": "uint32",
              "name": "fulfillmentFlatFeeKlayPPMTier4",
              "type": "uint32"
            },
            {
              "internalType": "uint32",
              "name": "fulfillmentFlatFeeKlayPPMTier5",
              "type": "uint32"
            },
            {
              "internalType": "uint24",
              "name": "reqsForTier2",
              "type": "uint24"
            },
            {
              "internalType": "uint24",
              "name": "reqsForTier3",
              "type": "uint24"
            },
            {
              "internalType": "uint24",
              "name": "reqsForTier4",
              "type": "uint24"
            },
            {
              "internalType": "uint24",
              "name": "reqsForTier5",
              "type": "uint24"
            }
          ],
          "indexed": false,
          "internalType": "struct ICoordinatorBase.FeeConfig",
          "name": "feeConfig",
          "type": "tuple"
        }
      ],
      "name": "ConfigSet",
      "type": "event"
    },
    {
      "anonymous": false,
      "inputs": [
        {
          "indexed": true,
          "internalType": "address",
          "name": "oracle",
          "type": "address"
        },
        {
          "indexed": false,
          "internalType": "bytes32",
          "name": "keyHash",
          "type": "bytes32"
        }
      ],
      "name": "OracleDeregistered",
      "type": "event"
    },
    {
      "anonymous": false,
      "inputs": [
        {
          "indexed": true,
          "internalType": "address",
          "name": "oracle",
          "type": "address"
        },
        {
          "indexed": false,
          "internalType": "bytes32",
          "name": "keyHash",
          "type": "bytes32"
        }
      ],
      "name": "OracleRegistered",
      "type": "event"
    },
    {
      "anonymous": false,
      "inputs": [
        {
          "indexed": true,
          "internalType": "address",
          "name": "previousOwner",
          "type": "address"
        },
        {
          "indexed": true,
          "internalType": "address",
          "name": "newOwner",
          "type": "address"
        }
      ],
      "name": "OwnershipTransferred",
      "type": "event"
    },
    {
      "anonymous": false,
      "inputs": [
        {
          "indexed": false,
          "internalType": "address",
          "name": "prepayment",
          "type": "address"
        }
      ],
      "name": "PrepaymentSet",
      "type": "event"
    },
    {
      "anonymous": false,
      "inputs": [
        {
          "indexed": true,
          "internalType": "uint256",
          "name": "requestId",
          "type": "uint256"
        },
        {
          "indexed": false,
          "internalType": "uint256",
          "name": "outputSeed",
          "type": "uint256"
        },
        {
          "indexed": false,
          "internalType": "uint256",
          "name": "payment",
          "type": "uint256"
        },
        {
          "indexed": false,
          "internalType": "bool",
          "name": "success",
          "type": "bool"
        }
      ],
      "name": "RandomWordsFulfilled",
      "type": "event"
    },
    {
      "anonymous": false,
      "inputs": [
        {
          "indexed": true,
          "internalType": "bytes32",
          "name": "keyHash",
          "type": "bytes32"
        },
        {
          "indexed": false,
          "internalType": "uint256",
          "name": "requestId",
          "type": "uint256"
        },
        {
          "indexed": false,
          "internalType": "uint256",
          "name": "preSeed",
          "type": "uint256"
        },
        {
          "indexed": true,
          "internalType": "uint64",
          "name": "accId",
          "type": "uint64"
        },
        {
          "indexed": false,
          "internalType": "uint32",
          "name": "callbackGasLimit",
          "type": "uint32"
        },
        {
          "indexed": false,
          "internalType": "uint32",
          "name": "numWords",
          "type": "uint32"
        },
        {
          "indexed": true,
          "internalType": "address",
          "name": "sender",
          "type": "address"
        },
        {
          "indexed": false,
          "internalType": "bool",
          "name": "isDirectPayment",
          "type": "bool"
        }
      ],
      "name": "RandomWordsRequested",
      "type": "event"
    },
    {
      "anonymous": false,
      "inputs": [
        {
          "indexed": true,
          "internalType": "uint256",
          "name": "requestId",
          "type": "uint256"
        }
      ],
      "name": "RequestCanceled",
      "type": "event"
    },
    {
      "inputs": [],
      "name": "MAX_NUM_WORDS",
      "outputs": [
        {
          "internalType": "uint32",
          "name": "",
          "type": "uint32"
        }
      ],
      "stateMutability": "view",
      "type": "function"
    },
    {
      "inputs": [
        {
          "internalType": "uint256",
          "name": "requestId",
          "type": "uint256"
        }
      ],
      "name": "cancelRequest",
      "outputs": [],
      "stateMutability": "nonpayable",
      "type": "function"
    },
    {
      "inputs": [
        {
          "internalType": "address",
          "name": "oracle",
          "type": "address"
        }
      ],
      "name": "deregisterOracle",
      "outputs": [],
      "stateMutability": "nonpayable",
      "type": "function"
    },
    {
      "inputs": [
        {
          "internalType": "uint64",
          "name": "reqCount",
          "type": "uint64"
        },
        {
          "internalType": "uint8",
          "name": "numSubmission",
          "type": "uint8"
        },
        {
          "internalType": "uint32",
          "name": "callbackGasLimit",
          "type": "uint32"
        }
      ],
      "name": "estimateFee",
      "outputs": [
        {
          "internalType": "uint256",
          "name": "",
          "type": "uint256"
        }
      ],
      "stateMutability": "view",
      "type": "function"
    },
    {
      "inputs": [
        {
          "components": [
            {
              "internalType": "uint256[2]",
              "name": "pk",
              "type": "uint256[2]"
            },
            {
              "internalType": "uint256[4]",
              "name": "proof",
              "type": "uint256[4]"
            },
            {
              "internalType": "uint256",
              "name": "seed",
              "type": "uint256"
            },
            {
              "internalType": "uint256[2]",
              "name": "uPoint",
              "type": "uint256[2]"
            },
            {
              "internalType": "uint256[4]",
              "name": "vComponents",
              "type": "uint256[4]"
            }
          ],
          "internalType": "struct VRF.Proof",
          "name": "proof",
          "type": "tuple"
        },
        {
          "components": [
            {
              "internalType": "uint256",
              "name": "blockNum",
              "type": "uint256"
            },
            {
              "internalType": "uint64",
              "name": "accId",
              "type": "uint64"
            },
            {
              "internalType": "uint32",
              "name": "callbackGasLimit",
              "type": "uint32"
            },
            {
              "internalType": "uint32",
              "name": "numWords",
              "type": "uint32"
            },
            {
              "internalType": "address",
              "name": "sender",
              "type": "address"
            }
          ],
          "internalType": "struct IVRFCoordinatorBase.RequestCommitment",
          "name": "rc",
          "type": "tuple"
        },
        {
          "internalType": "bool",
          "name": "isDirectPayment",
          "type": "bool"
        }
      ],
      "name": "fulfillRandomWords",
      "outputs": [],
      "stateMutability": "nonpayable",
      "type": "function"
    },
    {
      "inputs": [
        {
          "internalType": "uint256",
          "name": "requestId",
          "type": "uint256"
        }
      ],
      "name": "getCommitment",
      "outputs": [
        {
          "internalType": "bytes32",
          "name": "",
          "type": "bytes32"
        }
      ],
      "stateMutability": "view",
      "type": "function"
    },
    {
      "inputs": [],
      "name": "getConfig",
      "outputs": [
        {
          "internalType": "uint32",
          "name": "maxGasLimit",
          "type": "uint32"
        },
        {
          "internalType": "uint32",
          "name": "gasAfterPaymentCalculation",
          "type": "uint32"
        }
      ],
      "stateMutability": "view",
      "type": "function"
    },
    {
      "inputs": [],
      "name": "getFeeConfig",
      "outputs": [
        {
          "internalType": "uint32",
          "name": "fulfillmentFlatFeeKlayPPMTier1",
          "type": "uint32"
        },
        {
          "internalType": "uint32",
          "name": "fulfillmentFlatFeeKlayPPMTier2",
          "type": "uint32"
        },
        {
          "internalType": "uint32",
          "name": "fulfillmentFlatFeeKlayPPMTier3",
          "type": "uint32"
        },
        {
          "internalType": "uint32",
          "name": "fulfillmentFlatFeeKlayPPMTier4",
          "type": "uint32"
        },
        {
          "internalType": "uint32",
          "name": "fulfillmentFlatFeeKlayPPMTier5",
          "type": "uint32"
        },
        {
          "internalType": "uint24",
          "name": "reqsForTier2",
          "type": "uint24"
        },
        {
          "internalType": "uint24",
          "name": "reqsForTier3",
          "type": "uint24"
        },
        {
          "internalType": "uint24",
          "name": "reqsForTier4",
          "type": "uint24"
        },
        {
          "internalType": "uint24",
          "name": "reqsForTier5",
          "type": "uint24"
        }
      ],
      "stateMutability": "view",
      "type": "function"
    },
    {
      "inputs": [],
      "name": "getPrepaymentAddress",
      "outputs": [
        {
          "internalType": "address",
          "name": "",
          "type": "address"
        }
      ],
      "stateMutability": "view",
      "type": "function"
    },
    {
      "inputs": [],
      "name": "getRequestConfig",
      "outputs": [
        {
          "internalType": "uint32",
          "name": "",
          "type": "uint32"
        },
        {
          "internalType": "bytes32[]",
          "name": "",
          "type": "bytes32[]"
        }
      ],
      "stateMutability": "view",
      "type": "function"
    },
    {
      "inputs": [
        {
          "internalType": "uint256[2]",
          "name": "publicKey",
          "type": "uint256[2]"
        }
      ],
      "name": "hashOfKey",
      "outputs": [
        {
          "internalType": "bytes32",
          "name": "",
          "type": "bytes32"
        }
      ],
      "stateMutability": "pure",
      "type": "function"
    },
    {
      "inputs": [
        {
          "internalType": "bytes32",
          "name": "keyHash",
          "type": "bytes32"
        }
      ],
      "name": "keyHashToOracles",
      "outputs": [
        {
          "internalType": "address[]",
          "name": "",
          "type": "address[]"
        }
      ],
      "stateMutability": "view",
      "type": "function"
    },
    {
      "inputs": [
        {
          "internalType": "address",
          "name": "oracle",
          "type": "address"
        }
      ],
      "name": "oracleToKeyHash",
      "outputs": [
        {
          "internalType": "bytes32",
          "name": "",
          "type": "bytes32"
        }
      ],
      "stateMutability": "view",
      "type": "function"
    },
    {
      "inputs": [],
      "name": "owner",
      "outputs": [
        {
          "internalType": "address",
          "name": "",
          "type": "address"
        }
      ],
      "stateMutability": "view",
      "type": "function"
    },
    {
      "inputs": [
        {
          "internalType": "address",
          "name": "consumer",
          "type": "address"
        },
        {
          "internalType": "uint64",
          "name": "accId",
          "type": "uint64"
        },
        {
          "internalType": "uint64",
          "name": "nonce",
          "type": "uint64"
        }
      ],
      "name": "pendingRequestExists",
      "outputs": [
        {
          "internalType": "bool",
          "name": "",
          "type": "bool"
        }
      ],
      "stateMutability": "view",
      "type": "function"
    },
    {
      "inputs": [
        {
          "internalType": "address",
          "name": "oracle",
          "type": "address"
        },
        {
          "internalType": "uint256[2]",
          "name": "publicProvingKey",
          "type": "uint256[2]"
        }
      ],
      "name": "registerOracle",
      "outputs": [],
      "stateMutability": "nonpayable",
      "type": "function"
    },
    {
      "inputs": [],
      "name": "renounceOwnership",
      "outputs": [],
      "stateMutability": "nonpayable",
      "type": "function"
    },
    {
      "inputs": [
        {
          "internalType": "bytes32",
          "name": "keyHash",
          "type": "bytes32"
        },
        {
          "internalType": "uint32",
          "name": "callbackGasLimit",
          "type": "uint32"
        },
        {
          "internalType": "uint32",
          "name": "numWords",
          "type": "uint32"
        },
        {
          "internalType": "address",
          "name": "refundRecipient",
          "type": "address"
        }
      ],
      "name": "requestRandomWords",
      "outputs": [
        {
          "internalType": "uint256",
          "name": "",
          "type": "uint256"
        }
      ],
      "stateMutability": "payable",
      "type": "function"
    },
    {
      "inputs": [
        {
          "internalType": "bytes32",
          "name": "keyHash",
          "type": "bytes32"
        },
        {
          "internalType": "uint64",
          "name": "accId",
          "type": "uint64"
        },
        {
          "internalType": "uint32",
          "name": "callbackGasLimit",
          "type": "uint32"
        },
        {
          "internalType": "uint32",
          "name": "numWords",
          "type": "uint32"
        }
      ],
      "name": "requestRandomWords",
      "outputs": [
        {
          "internalType": "uint256",
          "name": "",
          "type": "uint256"
        }
      ],
      "stateMutability": "nonpayable",
      "type": "function"
    },
    {
      "inputs": [
        {
          "internalType": "uint256",
          "name": "",
          "type": "uint256"
        }
      ],
      "name": "sKeyHashes",
      "outputs": [
        {
          "internalType": "bytes32",
          "name": "",
          "type": "bytes32"
        }
      ],
      "stateMutability": "view",
      "type": "function"
    },
    {
      "inputs": [
        {
          "internalType": "uint256",
          "name": "",
          "type": "uint256"
        }
      ],
      "name": "sOracles",
      "outputs": [
        {
          "internalType": "address",
          "name": "",
          "type": "address"
        }
      ],
      "stateMutability": "view",
      "type": "function"
    },
    {
      "inputs": [
        {
          "internalType": "uint32",
          "name": "maxGasLimit",
          "type": "uint32"
        },
        {
          "internalType": "uint32",
          "name": "gasAfterPaymentCalculation",
          "type": "uint32"
        },
        {
          "components": [
            {
              "internalType": "uint32",
              "name": "fulfillmentFlatFeeKlayPPMTier1",
              "type": "uint32"
            },
            {
              "internalType": "uint32",
              "name": "fulfillmentFlatFeeKlayPPMTier2",
              "type": "uint32"
            },
            {
              "internalType": "uint32",
              "name": "fulfillmentFlatFeeKlayPPMTier3",
              "type": "uint32"
            },
            {
              "internalType": "uint32",
              "name": "fulfillmentFlatFeeKlayPPMTier4",
              "type": "uint32"
            },
            {
              "internalType": "uint32",
              "name": "fulfillmentFlatFeeKlayPPMTier5",
              "type": "uint32"
            },
            {
              "internalType": "uint24",
              "name": "reqsForTier2",
              "type": "uint24"
            },
            {
              "internalType": "uint24",
              "name": "reqsForTier3",
              "type": "uint24"
            },
            {
              "internalType": "uint24",
              "name": "reqsForTier4",
              "type": "uint24"
            },
            {
              "internalType": "uint24",
              "name": "reqsForTier5",
              "type": "uint24"
            }
          ],
          "internalType": "struct ICoordinatorBase.FeeConfig",
          "name": "feeConfig",
          "type": "tuple"
        }
      ],
      "name": "setConfig",
      "outputs": [],
      "stateMutability": "nonpayable",
      "type": "function"
    },
    {
      "inputs": [
        {
          "internalType": "address",
          "name": "newOwner",
          "type": "address"
        }
      ],
      "name": "transferOwnership",
      "outputs": [],
      "stateMutability": "nonpayable",
      "type": "function"
    },
    {
      "inputs": [],
      "name": "typeAndVersion",
      "outputs": [
        {
          "internalType": "string",
          "name": "",
          "type": "string"
        }
      ],
      "stateMutability": "pure",
      "type": "function"
    }
  ],
  "transactionHash": "0xf175e4e6bda8c157f8b271d6707127a2ebe1feb5a25dfef7fd60de6caacb9243",
  "args": [
    "0xf37a736b476fCEaB261371A3B3B330772630b0bF"
  ],
  "numDeployments": 1,
  "solcInputHash": "287924cdab12013ae3fe30e077f4a3d5",
  "bytecode": "0x60806040523480156200001157600080fd5b5060405162003f0238038062003f028339810160408190526200003491620000e7565b6200003f3362000097565b600480546001600160a01b0319166001600160a01b0383169081179091556040519081527f9401527b1b86caed93cfabfbb71d3a9b28c5e923529aa86ebd183664194b013d9060200160405180910390a15062000119565b600080546001600160a01b038381166001600160a01b0319831681178455604051919092169283917f8be0079c531659141344cd1fd0a4f28419497f9722a3daafe3b4186f6b6457e09190a35050565b600060208284031215620000fa57600080fd5b81516001600160a01b03811681146200011257600080fd5b9392505050565b613dd980620001296000396000f3fe60806040526004361061018a5760003560e01c806369bcdb7d116100d6578063a690d7ae1161007f578063caf70c4a11610059578063caf70c4a14610560578063d98196b314610580578063f2fde38b146105a057600080fd5b8063a690d7ae146104ec578063ab13d5851461050a578063c3f909d41461052a57600080fd5b80638da5cb5b116100b05780638da5cb5b1461047a5780638df4e3e2146104ac5780639ad6c347146104cc57600080fd5b806369bcdb7d14610418578063715018a614610445578063786708e61461045a57600080fd5b80633015394c1161013857806340d6bb821161011257806340d6bb821461031d5780634682fdc3146103485780635fbbc0d21461036857600080fd5b80633015394c1461029a57806330606753146102ba5780633daa3fa9146102e757600080fd5b80631a892832116101695780631a892832146102285780631c72d32a146102585780632f34077b1461027a57600080fd5b80620122911461018f5780630f52ffc6146101bb578063181f5a77146101dc575b600080fd5b34801561019b57600080fd5b506101a46105c0565b6040516101b2929190613282565b60405180910390f35b6101ce6101c93660046132ff565b61062c565b6040519081526020016101b2565b3480156101e857600080fd5b50604080518082018252601381527f565246436f6f7264696e61746f722076302e3100000000000000000000000000602082015290516101b29190613372565b34801561023457600080fd5b506102486102433660046133bb565b6108b2565b60405190151581526020016101b2565b34801561026457600080fd5b50610278610273366004613406565b61099b565b005b34801561028657600080fd5b506101ce610295366004613442565b610b15565b3480156102a657600080fd5b506102786102b5366004613491565b610c75565b3480156102c657600080fd5b506102da6102d5366004613491565b610d3e565b6040516101b291906134aa565b3480156102f357600080fd5b506101ce6103023660046134f7565b6001600160a01b031660009081526009602052604090205490565b34801561032957600080fd5b506103336101f481565b60405163ffffffff90911681526020016101b2565b34801561035457600080fd5b5061027861036336600461366f565b610dad565b34801561037457600080fd5b506006546040805163ffffffff80841682526401000000008404811660208301526801000000000000000084048116928201929092526c01000000000000000000000000830482166060820152600160801b8304909116608082015262ffffff600160a01b8304811660a0830152600160b81b8304811660c0830152600160d01b8304811660e0830152600160e81b909204909116610100820152610120016101b2565b34801561042457600080fd5b506101ce610433366004613491565b60009081526002602052604090205490565b34801561045157600080fd5b50610278611012565b34801561046657600080fd5b50610278610475366004613787565b611026565b34801561048657600080fd5b506000546001600160a01b03165b6040516001600160a01b0390911681526020016101b2565b3480156104b857600080fd5b506102786104c73660046134f7565b611272565b3480156104d857600080fd5b506101ce6104e7366004613879565b611516565b3480156104f857600080fd5b506004546001600160a01b0316610494565b34801561051657600080fd5b506101ce610525366004613491565b61155a565b34801561053657600080fd5b506005546040805163ffffffff8084168252650100000000009093049092166020830152016101b2565b34801561056c57600080fd5b506101ce61057b3660046138bd565b61157b565b34801561058c57600080fd5b5061049461059b366004613491565b6115ab565b3480156105ac57600080fd5b506102786105bb3660046134f7565b6115d5565b600554600780546040805160208084028201810190925282815260009460609463ffffffff90911693909283919083018282801561061d57602002820191906000526020600020905b815481526020019060010190808311610609575b50505050509050915091509091565b600554600090640100000000900460ff161561065b5760405163769dd35360e11b815260040160405180910390fd5b600085815260086020526040902054859060ff166106945760405163c954459d60e01b8152600481018290526024015b60405180910390fd5b60006001816106a481838a611516565b9050803410156106d05760405163b99e2ab760e01b81523460048201526024810182905260440161068b565b600480546040517f190118b700000000000000000000000000000000000000000000000000000000815233928101929092526000916001600160a01b039091169063190118b7906024016020604051808303816000875af1158015610739573d6000803e3d6000fd5b505050506040513d601f19601f8201168201806040525081019061075d91906138d9565b9050600160006107708c848d8d86611665565b600480546040517fc49910e40000000000000000000000000000000000000000000000000000000081529293506001600160a01b03169163c49910e49187916107cb9188910167ffffffffffffffff91909116815260200190565b6000604051808303818588803b1580156107e457600080fd5b505af11580156107f8573d6000803e3d6000fd5b50505050506000843461080b919061390c565b905080156108a25760008a6001600160a01b03168260405160006040518083038185875af1925050503d8060008114610860576040519150601f19603f3d011682016040523d82523d6000602084013e610865565b606091505b50509050806108a0576040517fef7a4b6100000000000000000000000000000000000000000000000000000000815260040160405180910390fd5b505b509b9a5050505050505050505050565b600754600090815b8181101561098d57600061095f600783815481106108da576108da61391f565b60009182526020918290200154604080518084018390526001600160a01b038c168183015267ffffffffffffffff808c1660608301528a166080808301919091528251808303909101815260a08201835280519085012060c082019390935260e080820184905282518083039091018152610100909101909152805192019190912091565b50905061096b816119e6565b1561097c5760019350505050610994565b5061098681613935565b90506108ba565b5060009150505b9392505050565b6109a3611a0f565b6001600160a01b038216600090815260096020526040902054156109fe576040517f6ff7406a0000000000000000000000000000000000000000000000000000000081526001600160a01b038316600482015260240161068b565b604080518082018252600091610a2d91908490600290839083908082843760009201919091525061157b915050565b60008181526008602052604090205490915060ff16610a94576000818152600860205260408120805460ff191660019081179091556007805491820181559091527fa66cc928b5edb82af9bd49922954155ab7b0942694bea4ce44661d9a8736c688018190555b600081815260086020908152604080832060019081018054918201815584528284200180546001600160a01b0319166001600160a01b0388169081179091558084526009835292819020849055518381527fce101eec32f4eac5c706f4787816f1ba1a22a255a40a8f425d339e0011b946ed910160405180910390a2505050565b600554600090640100000000900460ff1615610b445760405163769dd35360e11b815260040160405180910390fd5b600085815260086020526040902054859060ff16610b785760405163c954459d60e01b81526004810182905260240161068b565b600480546040517f77ae211a00000000000000000000000000000000000000000000000000000000815267ffffffffffffffff88169281019290925260009182916001600160a01b0316906377ae211a90602401600060405180830381865afa158015610be9573d6000803e3d6000fd5b505050506040513d6000823e601f3d908101601f19168201604052610c11919081019061394e565b509193509150600190506000610c2883838a611516565b905080841015610c555760405163b99e2ab760e01b8152600481018590526024810182905260440161068b565b600080610c658c8c8c8c86611665565b9c9b505050505050505050505050565b610c7e816119e6565b610c9b57604051631b44092560e11b815260040160405180910390fd5b6000818152600360205260409020546001600160a01b03163314610ceb576040517f517907dd00000000000000000000000000000000000000000000000000000000815260040160405180910390fd5b6000818152600260209081526040808320839055600390915280822080546001600160a01b03191690555182917f6187bf55f2675dbecee951f81c92ecac87f54ed5bf888d31b09e634749b848ef91a250565b600081815260086020908152604091829020600101805483518184028101840190945280845260609392830182828015610da157602002820191906000526020600020905b81546001600160a01b03168152600190910190602001808311610d83575b50505050509050919050565b600554640100000000900460ff1615610dd95760405163769dd35360e11b815260040160405180910390fd5b60005a9050600080610deb8686611a69565b915091506000856060015163ffffffff1667ffffffffffffffff811115610e1457610e14613514565b604051908082528060200260200182016040528015610e3d578160200160208202803683370190505b50905060005b866060015163ffffffff16811015610eb15760408051602081018590529081018290526060016040516020818303038152906040528051906020012060001c828281518110610e9457610e9461391f565b602090810291909101015280610ea981613935565b915050610e43565b506000838152600260209081526040808320839055600390915280822080546001600160a01b0319169055517f1fe543e30000000000000000000000000000000000000000000000000000000090610f0f9086908590602401613a31565b60408051601f198184030181529181526020820180517bffffffffffffffffffffffffffffffffffffffffffffffffffffffff167fffffffff00000000000000000000000000000000000000000000000000000000909416939093179092526005805464ff000000001916640100000000179055908801516080890151919250600091610fa39163ffffffff169084611c4f565b6005805464ff000000001916905590506000610fc0898989611c9b565b604080518781526020810183905284151581830152905191925087917f221ad2e5b871cead1dd7f75c2fb223c0cfa34bdc049a15f3f82a1f0e943e605a9181900360600190a250505050505050505050565b61101a611a0f565b6110246000611fed565b565b61102e611a0f565b604080516060808201835263ffffffff86811680845260006020808601919091528783169486018590526005805468ffffffffffffffffff191690921765010000000000909502949094179055845160068054948701518787015194880151608089015160a08a015160c08b015160e08c01516101008d015197891667ffffffffffffffff19909b169a909a1764010000000095891695909502949094177fffffffffffffffffffffffffffffffff0000000000000000ffffffffffffffff1668010000000000000000988816989098027fffffffffffffffffffffffffffffffff00000000ffffffffffffffffffffffff16979097176c0100000000000000000000000092871692909202919091177fffffffffffffffffff00000000000000ffffffffffffffffffffffffffffffff16600160801b91909516027fffffffffffffffffff000000ffffffffffffffffffffffffffffffffffffffff1693909317600160a01b62ffffff95861602177fffffff000000000000ffffffffffffffffffffffffffffffffffffffffffffff16600160b81b938516939093027fffffff000000ffffffffffffffffffffffffffffffffffffffffffffffffffff1692909217600160d01b94841694909402939093177cffffffffffffffffffffffffffffffffffffffffffffffffffffffffff16600160e81b929093169190910291909117815590517f107fdd8d898f7a380d4a448bb9882a3e1bb767bd803a09721d828b4ce217b043916112659186918691613a6e565b60405180910390a1505050565b61127a611a0f565b6001600160a01b0381166000908152600960205260409020548015806112af575060008181526008602052604090205460ff16155b156112f1576040517ff9a0ffdf0000000000000000000000000000000000000000000000000000000081526001600160a01b038316600482015260240161068b565b6001600160a01b038216600090815260096020908152604080832083905583835260089091528120600101805490915b818110156114cc57846001600160a01b03168382815481106113455761134561391f565b6000918252602090912001546001600160a01b0316036114bc5760008361136d60018561390c565b8154811061137d5761137d61391f565b9060005260206000200160009054906101000a90046001600160a01b03169050808483815481106113b0576113b061391f565b9060005260206000200160006101000a8154816001600160a01b0302191690836001600160a01b03160217905550838054806113ee576113ee613b2b565b600082815260209020810160001990810180546001600160a01b031916905501905560018390036114b6576000600761142860018661390c565b815481106114385761143861391f565b9060005260206000200154905080600784815481106114595761145961391f565b600091825260209091200155600780548061147657611476613b2b565b6000828152602080822083016000199081018390559092019092558782526008905260408120805460ff19168155906114b2600183018261322d565b5050505b506114cc565b6114c581613935565b9050611321565b50836001600160a01b03167f3e6c1c138f1fadbf95c3a196321f05d653b3a60d33ceccf1af9507321e087bbd8460405161150891815260200190565b60405180910390a250505050565b6000808360ff166115268661203d565b6115309190613b41565b9050600061154463ffffffff85163a613b41565b90506115508183613b60565b9695505050505050565b6007818154811061156a57600080fd5b600091825260209091200154905081565b60008160405160200161158e9190613b73565b604051602081830303815290604052805190602001209050919050565b600181815481106115bb57600080fd5b6000918252602090912001546001600160a01b0316905081565b6115dd611a0f565b6001600160a01b0381166116595760405162461bcd60e51b815260206004820152602660248201527f4f776e61626c653a206e6577206f776e657220697320746865207a65726f206160448201527f6464726573730000000000000000000000000000000000000000000000000000606482015260840161068b565b61166281611fed565b50565b600480546040517f734e892a00000000000000000000000000000000000000000000000000000000815267ffffffffffffffff8716928101929092523360248301526000916001600160a01b039091169063734e892a90604401602060405180830381865afa1580156116dc573d6000803e3d6000fd5b505050506040513d601f19601f820116820180604052508101906117009190613ba4565b611748576040517ff0019fe600000000000000000000000000000000000000000000000000000000815267ffffffffffffffff8616600482015233602482015260440161068b565b60055463ffffffff90811690851611156117a2576005546040517ff5d7e01e00000000000000000000000000000000000000000000000000000000815263ffffffff8087166004830152909116602482015260440161068b565b6101f463ffffffff841611156117f4576040517f47386bec00000000000000000000000000000000000000000000000000000000815263ffffffff841660048201526101f4602482015260440161068b565b600480546040517fa8329c0500000000000000000000000000000000000000000000000000000000815267ffffffffffffffff8816928101929092523360248301526000916001600160a01b039091169063a8329c05906044016020604051808303816000875af115801561186d573d6000803e3d6000fd5b505050506040513d601f19601f8201168201806040525081019061189191906138d9565b6040805160208082018b90523382840181905267ffffffffffffffff8b8116606085018190529086166080808601919091528551808603909101815260a08501865280519084012060c085018e905260e08086018290528651808703909101815261010086018752805190850120610120860181905243610140870152610160860183905263ffffffff8d81166101808801819052908d166101a088018190526101c08089018790528951808a0390910181526101e08901808b52815191890191909120600085815260028a528b81209190915560039098529689902080546001600160a01b031916871790559582905261020087018390526102208701526102408601949094528915156102608601529451959650919490928c917f88c0534cab9d18b5e2f8fb9a9d142426403b507f2343cfaafe6cfe45e9900e30918190036102800190a4509150505b95945050505050565b60008181526002602052604081205415611a0257506001919050565b506000919050565b919050565b6000546001600160a01b031633146110245760405162461bcd60e51b815260206004820181905260248201527f4f776e61626c653a2063616c6c6572206973206e6f7420746865206f776e6572604482015260640161068b565b6000806000611a7b856000015161157b565b336000908152600960205260409020549091508114611ac9576040517f77f5b84c0000000000000000000000000000000000000000000000000000000081526004810182905260240161068b565b6040808601518151602081018490529182015260600160408051601f198184030181529181528151602092830120600081815260029093529082205490945090819003611b2957604051631b44092560e11b815260040160405180910390fd5b611bab8486600001518760200151886040015189606001518a60800151604080516020808201989098528082019690965267ffffffffffffffff94909416606086015263ffffffff9283166080860152911660a08401526001600160a01b031660c0808401919091528151808403909101815260e09092019052805191012090565b8114611be3576040517fd529142c00000000000000000000000000000000000000000000000000000000815260040160405180910390fd5b84516040808801519051914091600091611c0a918490602001918252602082015260400190565b60408051601f19818403018152828252805160209182012090830152016040516020818303038152906040529050611c428882612060565b9450505050509250929050565b60005a611388811015611c6157600080fd5b611388810390508460408204820311611c7957600080fd5b50823b611c8557600080fd5b60008083516020850160008789f1949350505050565b60008215611dd2576004805460208601516040517fc9d2d7bf00000000000000000000000000000000000000000000000000000000815260009384936001600160a01b03169263c9d2d7bf92611d01920167ffffffffffffffff91909116815260200190565b60408051808303816000875af1158015611d1f573d6000803e3d6000fd5b505050506040513d601f19601f82011682018060405250810190611d439190613bc1565b90925090508015611dca57600480546040517f6b19a19d0000000000000000000000000000000000000000000000000000000081529182018390523360248301526001600160a01b031690636b19a19d90604401600060405180830381600087803b158015611db157600080fd5b505af1158015611dc5573d6000803e3d6000fd5b505050505b509050610994565b6004805460208601516040517f96ed7f4300000000000000000000000000000000000000000000000000000000815267ffffffffffffffff909116928101929092526000916001600160a01b03909116906396ed7f4390602401602060405180830381865afa158015611e49573d6000803e3d6000fd5b505050506040513d601f19601f82011682018060405250810190611e6d91906138d9565b90506000611e7a8261203d565b6004805460208901516040517f57f2eda700000000000000000000000000000000000000000000000000000000815267ffffffffffffffff90911692810192909252602482018390529192506000916001600160a01b0316906357f2eda7906044016020604051808303816000875af1158015611efb573d6000803e3d6000fd5b505050506040513d601f19601f82011682018060405250810190611f1f9190613be5565b90506000611f2c866120b8565b90506000611f3a8284613b60565b90508015611fd7576004805460208b01516040517f82e7b38c00000000000000000000000000000000000000000000000000000000815267ffffffffffffffff90911692810192909252602482018390523360448301526001600160a01b0316906382e7b38c90606401600060405180830381600087803b158015611fbe57600080fd5b505af1158015611fd2573d6000803e3d6000fd5b505050505b611fe18285613b60565b95505050505050610994565b600080546001600160a01b038381166001600160a01b0319831681178455604051919092169283917f8be0079c531659141344cd1fd0a4f28419497f9722a3daafe3b4186f6b6457e09190a35050565b600080612049836120f2565b905061099463ffffffff821664e8d4a51000613b41565b600061207f836000015184602001518486606001518760800151612284565b50505060209081015180519082015160408051808501939093528281019190915280518083038201815260609092019052805191012090565b60005a6005546120d890849065010000000000900463ffffffff16613b60565b6120e2919061390c565b6120ec903a613b41565b92915050565b604080516101208101825260065463ffffffff80821683526401000000008204811660208401526801000000000000000082048116938301939093526c01000000000000000000000000810483166060830152600160801b8104909216608082015262ffffff600160a01b8304811660a08301819052600160b81b8404821660c0840152600160d01b8404821660e0840152600160e81b9093041661010082015260009167ffffffffffffffff8416116121ad575192915050565b8267ffffffffffffffff168160a0015162ffffff161080156121e257508060c0015162ffffff168367ffffffffffffffff1611155b156121f1576020015192915050565b8267ffffffffffffffff168160c0015162ffffff1610801561222657508060e0015162ffffff168367ffffffffffffffff1611155b15612235576040015192915050565b8267ffffffffffffffff168160e0015162ffffff1610801561226b575080610100015162ffffff168367ffffffffffffffff1611155b1561227a576060015192915050565b6080015192915050565b6000806000612293888761238f565b606089015160408a01518b5160208d8101518b51918c01519698509496506122c195939492939192916124f7565b15806122e85750606087015184516122e69190849084908860015b602002015161263f565b155b8061230e5750604080880151885160208a01519287015161230c93908860036122dc565b155b1561231e576000925050506119dd565b8351602085015160408601516060870151600093849361234a939192909190856401000003d019612716565b8a516020808d01518b51918c015194965092945060009361237293899389939092898961274b565b6040909a015160809a909a1c9099149a9950505050505050505050565b6000808060fe60016123ae87846020020151886001602002015161280a565b866040516020016123c29493929190613bfe565b604051602081830303815290604052905060005b6101008160ff1610156124a75760006002838360006040516020016123fd93929190613c55565b60408051601f198184030181529082905261241791613c91565b602060405180830381855afa158015612434573d6000803e3d6000fd5b5050506040513d601f19601f820116820180604052508101906124579190613be5565b9050806000612467600283612860565b905061247e8282600060076401000003d019612877565b156124915790955093506124f092505050565b505050808061249f90613cad565b9150506123d6565b5060405162461bcd60e51b815260206004820152601860248201527f4e6f2076616c696420706f696e742077617320666f756e640000000000000000604482015260640161068b565b9250929050565b60008070014551231950b75fc4402da1732fc9bebe19612517898261390c565b6125219190613ce2565b905070014551231950b75fc4402da1732fc9bebe198682099050600070014551231950b75fc4402da1732fc9bebe1961255a898261390c565b6125649190613ce2565b9050600060018361257660028a613ce2565b60000361258457601b612587565b601c5b8a70014551231950b75fc4402da1732fc9bebe198c87096040805160008152602081018083529590955260ff909316928401929092526060830152608082015260a0016020604051602081039080840390855afa1580156125ec573d6000803e3d6000fd5b505060408051601f1981015160208083019a909a5281830198909852815180820383018152606090910190915280519701969096206001600160a01b039081169516949094149998505050505050505050565b600080600181612650600288613ce2565b60000361265e57601b612661565b601c5b8870014551231950b75fc4402da1732fc9bebe198a8c096040805160008152602081018083529590955260ff909316928401929092526060830152608082015260a0016020604051602081039080840390855afa1580156126c6573d6000803e3d6000fd5b505060408051601f1981015160208083019890985281830196909652815180820383018152606090910190915280519501949094206001600160a01b039081169316929092149695505050505050565b600080600080612727888887612930565b915091506127398a8a84848a8a612955565b9350935050505b965096945050505050565b60008060fe600261275c8c8c61280a565b6127668b8b61280a565b6127708a8a61280a565b61277a898961280a565b60006040516020016127929796959493929190613cf6565b604051602081830303815290604052905060006002826040516127b59190613c91565b602060405180830381855afa1580156127d2573d6000803e3d6000fd5b5050506040513d601f19601f820116820180604052508101906127f59190613be5565b6040518190529b9a5050505050505050505050565b60606000612819600284613ce2565b612824906002613b60565b6040516001600160f81b031960f883901b1660208201526021810186905290915060410160405160208183030381529060405291505092915050565b60006109948383600060076401000003d0196129dc565b60008515806128865750818610155b8061288f575084155b8061289a5750818510155b156128a7575060006119dd565b600082806128b7576128b7613ccc565b8687099050600083806128cc576128cc613ccc565b8885806128db576128db613ccc565b8a8b09099050851561290b5783806128f5576128f5613ccc565b848061290357612903613ccc565b878a09820890505b841561292557838061291f5761291f613ccc565b85820890505b149695505050505050565b600080848361293f868261390c565b6129499190613ce2565b91509150935093915050565b6000806000806000888b036129a557858061297257612972613ccc565b888b0860000361298b5760008094509450505050612740565b6129998b8b60018a8a612b1a565b919450925090506129be565b6129b68b8b60018c8c60018c612cbd565b919450925090505b6129ca83838389612ff0565b94509450505050965096945050505050565b60008560ff16600214806129f357508560ff166003145b612a655760405162461bcd60e51b815260206004820152602260248201527f496e76616c696420636f6d7072657373656420454320706f696e74207072656660448201527f6978000000000000000000000000000000000000000000000000000000000000606482015260840161068b565b60008280612a7557612a75613ccc565b8380612a8357612a83613ccc565b858580612a9257612a92613ccc565b888a09088480612aa457612aa4613ccc565b8580612ab257612ab2613ccc565b898a098909089050612adb816004612acb866001613b60565b612ad59190613d8f565b8561305f565b905060006002612aee60ff8a1684613b60565b612af89190613ce2565b15612b0c57612b07828561390c565b612b0e565b815b98975050505050505050565b600080600085600003612b34575086915085905084612cb2565b60008480612b4457612b44613ccc565b898a09905060008580612b5957612b59613ccc565b898a09905060008680612b6e57612b6e613ccc565b898a09905060008780612b8357612b83613ccc565b8880612b9157612b91613ccc565b848e09600409905060008880612ba957612ba9613ccc565b8980612bb757612bb7613ccc565b8a80612bc557612bc5613ccc565b8586098c098a80612bd857612bd8613ccc565b876003090890508880612bed57612bed613ccc565b8980612bfb57612bfb613ccc565b838408612c08908b61390c565b8a80612c1657612c16613ccc565b8384090894508880612c2a57612c2a613ccc565b8980612c3857612c38613ccc565b8a80612c4657612c46613ccc565b868709600809612c56908b61390c565b8a80612c6457612c64613ccc565b8b80612c7257612c72613ccc565b612c7c898e61390c565b860884090893508880612c9157612c91613ccc565b8980612c9f57612c9f613ccc565b8c8e096002099497509295509293505050505b955095509592505050565b6000808089158015612ccd575088155b15612cdf575085915084905083612fe3565b86158015612ceb575085155b15612cfd575088915087905086612fe3565b612d0561324b565b8480612d1357612d13613ccc565b898a0981528480612d2657612d26613ccc565b81518a0960208201528480612d3d57612d3d613ccc565b86870960408201528480612d5357612d53613ccc565b6040820151870960608201526040805160808101909152808680612d7957612d79613ccc565b60408401518e0981526020018680612d9357612d93613ccc565b60608401518d0981526020018680612dad57612dad613ccc565b83518b0981526020018680612dc457612dc4613ccc565b60208401518a09905260408101518151919250141580612dec57506060810151602082015114155b612e385760405162461bcd60e51b815260206004820152601e60248201527f557365206a6163446f75626c652066756e6374696f6e20696e73746561640000604482015260640161068b565b612e4061324b565b8580612e4e57612e4e613ccc565b8251612e5a908861390c565b60408401510881528580612e7057612e70613ccc565b6020830151612e7f908861390c565b60608401510860208201528580612e9857612e98613ccc565b8151800960408201528580612eaf57612eaf613ccc565b8151604083015109606082015260008680612ecc57612ecc613ccc565b6060830151612edb908961390c565b8880612ee957612ee9613ccc565b602085015180090890508680612f0157612f01613ccc565b8780612f0f57612f0f613ccc565b8880612f1d57612f1d613ccc565b6040850151865109600209612f32908961390c565b8208905060008780612f4657612f46613ccc565b8880612f5457612f54613ccc565b612f5e848b61390c565b8a80612f6c57612f6c613ccc565b60408701518851090860208501510990508780612f8b57612f8b613ccc565b8880612f9957612f99613ccc565b6060850151602087015109612fae908a61390c565b8208905060008880612fc257612fc2613ccc565b8980612fd057612fd0613ccc565b8b8f098551099297509095509093505050505b9750975097945050505050565b6000806000612fff8585613152565b90506000848061301157613011613ccc565b82830990506000858061302657613026613ccc565b828a0990506000868061303b5761303b613ccc565b878061304957613049613ccc565b8486098a09919a91995090975050505050505050565b6000816000036130b15760405162461bcd60e51b815260206004820152600f60248201527f4d6f64756c7573206973207a65726f0000000000000000000000000000000000604482015260640161068b565b836000036130c157506000610994565b826000036130d157506001610994565b60017f80000000000000000000000000000000000000000000000000000000000000005b801561314957838186161515870a85848509099150836002820486161515870a85848509099150836004820486161515870a85848509099150836008820486161515870a85848509099150601090046130f5565b50949350505050565b600082158015906131635750818314155b801561316e57508115155b6131ba5760405162461bcd60e51b815260206004820152600e60248201527f496e76616c6964206e756d626572000000000000000000000000000000000000604482015260640161068b565b6000600183825b8615613222576131d18783613d8f565b90508286806131e2576131e2613ccc565b87806131f0576131f0613ccc565b8584096131fd908961390c565b860890945092508661320f8183613b41565b613219908461390c565b975091506131c1565b509195945050505050565b50805460008255906000526020600020908101906116629190613269565b60405180608001604052806004906020820280368337509192915050565b5b8082111561327e576000815560010161326a565b5090565b60006040820163ffffffff851683526020604081850152818551808452606086019150828701935060005b818110156132c9578451835293830193918301916001016132ad565b5090979650505050505050565b803563ffffffff81168114611a0a57600080fd5b6001600160a01b038116811461166257600080fd5b6000806000806080858703121561331557600080fd5b84359350613325602086016132d6565b9250613333604086016132d6565b91506060850135613343816132ea565b939692955090935050565b60005b83811015613369578181015183820152602001613351565b50506000910152565b602081526000825180602084015261339181604085016020870161334e565b601f01601f19169190910160400192915050565b67ffffffffffffffff8116811461166257600080fd5b6000806000606084860312156133d057600080fd5b83356133db816132ea565b925060208401356133eb816133a5565b915060408401356133fb816133a5565b809150509250925092565b6000806060838503121561341957600080fd5b8235613424816132ea565b91506060830184101561343657600080fd5b50926020919091019150565b6000806000806080858703121561345857600080fd5b84359350602085013561346a816133a5565b9250613478604086016132d6565b9150613486606086016132d6565b905092959194509250565b6000602082840312156134a357600080fd5b5035919050565b6020808252825182820181905260009190848201906040850190845b818110156134eb5783516001600160a01b0316835292840192918401916001016134c6565b50909695505050505050565b60006020828403121561350957600080fd5b8135610994816132ea565b634e487b7160e01b600052604160045260246000fd5b60405160a0810167ffffffffffffffff8111828210171561354d5761354d613514565b60405290565b604051610120810167ffffffffffffffff8111828210171561354d5761354d613514565b604051601f8201601f1916810167ffffffffffffffff811182821017156135a0576135a0613514565b604052919050565b600082601f8301126135b957600080fd5b6040516040810181811067ffffffffffffffff821117156135dc576135dc613514565b80604052508060408401858111156135f357600080fd5b845b818110156132225780358352602092830192016135f5565b600082601f83011261361e57600080fd5b6040516080810181811067ffffffffffffffff8211171561364157613641613514565b6040528060808401858111156135f357600080fd5b801515811461166257600080fd5b8035611a0a81613656565b600080600083850361026081121561368657600080fd5b6101a08082121561369657600080fd5b61369e61352a565b6136a888886135a8565b81526136b7886040890161360d565b602082015260c087013560408201526136d38860e089016135a8565b60608201526136e688610120890161360d565b6080820152945060a061019f198301121561370057600080fd5b61370861352a565b90860135815290506101c085013561371f816133a5565b60208201526137316101e086016132d6565b604082015261374361020086016132d6565b6060820152610220850135613757816132ea565b6080820152915061376b6102408501613664565b90509250925092565b803562ffffff81168114611a0a57600080fd5b600080600083850361016081121561379e57600080fd5b6137a7856132d6565b93506137b5602086016132d6565b925061012080603f19830112156137cb57600080fd5b6137d3613553565b91506137e1604087016132d6565b82526137ef606087016132d6565b6020830152613800608087016132d6565b604083015261381160a087016132d6565b606083015261382260c087016132d6565b608083015261383360e08701613774565b60a0830152610100613846818801613774565b60c0840152613856828801613774565b60e08401526138686101408801613774565b818401525050809150509250925092565b60008060006060848603121561388e57600080fd5b8335613899816133a5565b9250602084013560ff811681146138af57600080fd5b915061376b604085016132d6565b6000604082840312156138cf57600080fd5b61099483836135a8565b6000602082840312156138eb57600080fd5b8151610994816133a5565b634e487b7160e01b600052601160045260246000fd5b818103818111156120ec576120ec6138f6565b634e487b7160e01b600052603260045260246000fd5b600060018201613947576139476138f6565b5060010190565b6000806000806080858703121561396457600080fd5b84519350602080860151613977816133a5565b6040870151909450613988816132ea565b606087015190935067ffffffffffffffff808211156139a657600080fd5b818801915088601f8301126139ba57600080fd5b8151818111156139cc576139cc613514565b8060051b91506139dd848301613577565b818152918301840191848101908b8411156139f757600080fd5b938501935b83851015613a215784519250613a11836132ea565b82825293850193908501906139fc565b989b979a50959850505050505050565b828152604060208083018290528351918301829052600091848201919060608501908481156132c9578451835293830193918301916001016132ad565b63ffffffff848116825283811660208301528254808216604084015261016083019190613aa860608501838360201c1663ffffffff169052565b613abf60808501838360401c1663ffffffff169052565b613ad660a08501838360601c1663ffffffff169052565b613aed60c08501838360801c1663ffffffff169052565b62ffffff60a082901c811660e086015260b882901c811661010086015260d082901c1661012085015260e81c61014090930192909252949350505050565b634e487b7160e01b600052603160045260246000fd5b6000816000190483118215151615613b5b57613b5b6138f6565b500290565b808201808211156120ec576120ec6138f6565b60408101818360005b6002811015613b9b578151835260209283019290910190600101613b7c565b50505092915050565b600060208284031215613bb657600080fd5b815161099481613656565b60008060408385031215613bd457600080fd5b505080516020909101519092909150565b600060208284031215613bf757600080fd5b5051919050565b60006001600160f81b0319808760f81b168352808660f81b166001840152508351613c3081600285016020880161334e565b835190830190613c4781600284016020880161334e565b016002019695505050505050565b60008451613c6781846020890161334e565b6001600160f81b031960f895861b8116919093019081529290931b16600182015260020192915050565b60008251613ca381846020870161334e565b9190910192915050565b600060ff821660ff8103613cc357613cc36138f6565b60010192915050565b634e487b7160e01b600052601260045260246000fd5b600082613cf157613cf1613ccc565b500690565b60006001600160f81b0319808a60f81b168352808960f81b1660018401528751613d27816002860160208c0161334e565b875190840190613d3e816002840160208c0161334e565b8751910190613d54816002840160208b0161334e565b8651910190613d6a816002840160208a0161334e565b808201915050818560f81b166002820152600381019250505098975050505050505050565b600082613d9e57613d9e613ccc565b50049056fea2646970667358221220c3be9ef16ecb7f41b55dcddca44a549c882e2ffa4229634c8b66110d090327c564736f6c63430008100033",
  "devdoc": {
    "author": "Bisonai",
    "kind": "dev",
    "methods": {
      "cancelRequest(uint256)": {
        "params": {
          "requestId": "- ID of the Oracle Request"
        }
      },
      "deregisterOracle(address)": {
        "params": {
          "oracle": "address representing oracle that can submit VRF fulfillments"
        }
      },
      "getCommitment(uint256)": {
        "params": {
          "requestId": "id of request"
        },
        "returns": {
          "_0": "commmitment value that can be used to determine whether a request is fulfilled or not. If `requestId` is valid and commitment equals to bytes32(0), the request was fulfilled."
        }
      },
      "getPrepaymentAddress()": {
        "returns": {
          "_0": "prepayment address"
        }
      },
      "getRequestConfig()": {
        "returns": {
          "_0": "maxGasLimit global max for request gas limit",
          "_1": "sKeyHashes list of registered key hashes"
        }
      },
      "hashOfKey(uint256[2])": {
        "params": {
          "publicKey": "the key to return the hash of"
        }
      },
      "keyHashToOracles(bytes32)": {
        "returns": {
          "_0": "oracle addresses"
        }
      },
      "oracleToKeyHash(address)": {
        "returns": {
          "_0": "keyhash"
        }
      },
      "owner()": {
        "details": "Returns the address of the current owner."
      },
      "pendingRequestExists(address,uint64,uint64)": {
        "params": {
          "accId": "- ID of the account"
        },
        "returns": {
          "_0": "true if there exists at least one unfulfilled request for the account, false otherwise."
        }
      },
      "registerOracle(address,uint256[2])": {
        "params": {
          "oracle": "address of the oracle",
          "publicProvingKey": "key that oracle can use to submit VRF fulfillments"
        }
      },
      "renounceOwnership()": {
        "details": "Leaves the contract without owner. It will not be possible to call `onlyOwner` functions anymore. Can only be called by the current owner. NOTE: Renouncing ownership will leave the contract without an owner, thereby removing any functionality that is only available to the owner."
      },
      "requestRandomWords(bytes32,uint32,uint32,address)": {
        "params": {
          "callbackGasLimit": "- How much gas you'd like to receive in your fulfillRandomWords callback. Note that gasleft() inside fulfillRandomWords may be slightly less than this amount because of gas used calling the function (argument decoding etc.), so you may need to request slightly more than you expect to have inside fulfillRandomWords. The acceptable range is [0, maxGasLimit]",
          "keyHash": "- Corresponds to a particular oracle job which uses that key for generating the VRF proof. Different keyHash's have different gas price ceilings, so you can select a specific one to bound your maximum per request cost.",
          "numWords": "- The number of uint256 random values you'd like to receive in your fulfillRandomWords callback. Note these numbers are expanded in a secure way by the VRFCoordinator from a single random value supplied by the oracle.",
          "refundRecipient": "recipient of an extra $KLAY amount that was sent together with service request"
        },
        "returns": {
          "_0": "- A unique identifier of the request. Can be used to match a request to a response in fulfillRandomWords."
        }
      },
      "requestRandomWords(bytes32,uint64,uint32,uint32)": {
        "params": {
          "accId": "- The ID of the account. Must be funded with the minimum account balance required for the selected keyHash.",
          "callbackGasLimit": "- How much gas you'd like to receive in your fulfillRandomWords callback. Note that gasleft() inside fulfillRandomWords may be slightly less than this amount because of gas used calling the function (argument decoding etc.), so you may need to request slightly more than you expect to have inside fulfillRandomWords. The acceptable range is [0, maxGasLimit]",
          "keyHash": "- Corresponds to a particular oracle job which uses that key for generating the VRF proof. Different keyHash's have different gas price ceilings, so you can select a specific one to bound your maximum per request cost.",
          "numWords": "- The number of uint256 random values you'd like to receive in your fulfillRandomWords callback. Note these numbers are expanded in a secure way by the VRFCoordinator from a single random value supplied by the oracle."
        },
        "returns": {
          "_0": "- A unique identifier of the request. Can be used to match a request to a response in fulfillRandomWords."
        }
      },
      "setConfig(uint32,uint32,(uint32,uint32,uint32,uint32,uint32,uint24,uint24,uint24,uint24))": {
        "params": {
          "feeConfig": "fee tier configuration",
          "gasAfterPaymentCalculation": "gas used in doing accounting after completing the gas measurement",
          "maxGasLimit": "global max for request gas limit"
        }
      },
      "transferOwnership(address)": {
        "details": "Transfers ownership of the contract to a new account (`newOwner`). Can only be called by the current owner."
      },
      "typeAndVersion()": {
        "returns": {
          "_0": "Type and version string"
        }
      }
    },
    "title": "Orakl Network VRFCoordinator",
    "version": 1
  },
  "userdoc": {
    "kind": "user",
    "methods": {
      "cancelRequest(uint256)": {
        "notice": "Canceling oracle request"
      },
      "deregisterOracle(address)": {
        "notice": "Deregisters an oracle."
      },
      "getCommitment(uint256)": {
        "notice": "Get request commitment."
      },
      "getPrepaymentAddress()": {
        "notice": "Access address for prepayment associated withcoordinator."
      },
      "getRequestConfig()": {
        "notice": "Get configuration relevant for making requests"
      },
      "hashOfKey(uint256[2])": {
        "notice": "Returns the proving key hash key associated with this public key"
      },
      "keyHashToOracles(bytes32)": {
        "notice": "Find oracles associated with given key hash."
      },
      "oracleToKeyHash(address)": {
        "notice": "Find key hash associated with given oracle address."
      },
      "pendingRequestExists(address,uint64,uint64)": {
        "notice": "Check to see if there exists a request commitment consumers for all consumers and keyhashes for a given acc."
      },
      "registerOracle(address,uint256[2])": {
        "notice": "Registers an oracle and its proving key."
      },
      "requestRandomWords(bytes32,uint32,uint32,address)": {
        "notice": "Request a set of random words using a [temporary] account."
      },
      "requestRandomWords(bytes32,uint64,uint32,uint32)": {
        "notice": "Request a set of random words using a [regular] account."
      },
      "setConfig(uint32,uint32,(uint32,uint32,uint32,uint32,uint32,uint24,uint24,uint24,uint24))": {
        "notice": "Sets the configuration of the VRF coordinator"
      },
      "typeAndVersion()": {
        "notice": "The type and version of this contract"
      }
    },
    "notice": "Accepts requests for random words either through [regular] or [temporary] account by calling `requestRandomWords` function. Consumers can choose which random words provider they want to request random number from by specifying a keyHash that is associated with such provider. Random words are partially generated using unique seed created during request transaction. The request for random words is concluded by emitting `RandomWordsRequested` event which includes all necessary metadata to provide requested random words. Off-chain oracle that was requested to provide random words generates a proof using seed and its private key, and submits it back to VRFCoordinator through `fulfillRandomWords` function. Proof is validated that it was generated by the requested oracle, and the requested number of random words are populated from it. Eventually, the random words are passed to consumer smart contract.",
    "version": 1
  },
  "storageLayout": {
    "storage": [
      {
        "astId": 7,
        "contract": "src/v0.1/VRFCoordinator.sol:VRFCoordinator",
        "label": "_owner",
        "offset": 0,
        "slot": "0",
        "type": "t_address"
      },
      {
        "astId": 714,
        "contract": "src/v0.1/VRFCoordinator.sol:VRFCoordinator",
        "label": "sOracles",
        "offset": 0,
        "slot": "1",
        "type": "t_array(t_address)dyn_storage"
      },
      {
        "astId": 718,
        "contract": "src/v0.1/VRFCoordinator.sol:VRFCoordinator",
        "label": "sRequestIdToCommitment",
        "offset": 0,
        "slot": "2",
        "type": "t_mapping(t_uint256,t_bytes32)"
      },
      {
        "astId": 722,
        "contract": "src/v0.1/VRFCoordinator.sol:VRFCoordinator",
        "label": "sRequestOwner",
        "offset": 0,
        "slot": "3",
        "type": "t_mapping(t_uint256,t_address)"
      },
      {
        "astId": 725,
        "contract": "src/v0.1/VRFCoordinator.sol:VRFCoordinator",
        "label": "sPrepayment",
        "offset": 0,
        "slot": "4",
        "type": "t_contract(IPrepayment)6667"
      },
      {
        "astId": 735,
        "contract": "src/v0.1/VRFCoordinator.sol:VRFCoordinator",
        "label": "sConfig",
        "offset": 0,
        "slot": "5",
        "type": "t_struct(Config)732_storage"
      },
      {
        "astId": 738,
        "contract": "src/v0.1/VRFCoordinator.sol:VRFCoordinator",
        "label": "sFeeConfig",
        "offset": 0,
        "slot": "6",
        "type": "t_struct(FeeConfig)6399_storage"
      },
      {
        "astId": 5125,
        "contract": "src/v0.1/VRFCoordinator.sol:VRFCoordinator",
        "label": "sKeyHashes",
        "offset": 0,
        "slot": "7",
        "type": "t_array(t_bytes32)dyn_storage"
      },
      {
        "astId": 5136,
        "contract": "src/v0.1/VRFCoordinator.sol:VRFCoordinator",
        "label": "sKeyHashToOracle",
        "offset": 0,
        "slot": "8",
        "type": "t_mapping(t_bytes32,t_struct(Oracle)5131_storage)"
      },
      {
        "astId": 5140,
        "contract": "src/v0.1/VRFCoordinator.sol:VRFCoordinator",
        "label": "sOracleToKeyHash",
        "offset": 0,
        "slot": "9",
        "type": "t_mapping(t_address,t_bytes32)"
      }
    ],
    "types": {
      "t_address": {
        "encoding": "inplace",
        "label": "address",
        "numberOfBytes": "20"
      },
      "t_array(t_address)dyn_storage": {
        "base": "t_address",
        "encoding": "dynamic_array",
        "label": "address[]",
        "numberOfBytes": "32"
      },
      "t_array(t_bytes32)dyn_storage": {
        "base": "t_bytes32",
        "encoding": "dynamic_array",
        "label": "bytes32[]",
        "numberOfBytes": "32"
      },
      "t_bool": {
        "encoding": "inplace",
        "label": "bool",
        "numberOfBytes": "1"
      },
      "t_bytes32": {
        "encoding": "inplace",
        "label": "bytes32",
        "numberOfBytes": "32"
      },
      "t_contract(IPrepayment)6667": {
        "encoding": "inplace",
        "label": "contract IPrepayment",
        "numberOfBytes": "20"
      },
      "t_mapping(t_address,t_bytes32)": {
        "encoding": "mapping",
        "key": "t_address",
        "label": "mapping(address => bytes32)",
        "numberOfBytes": "32",
        "value": "t_bytes32"
      },
      "t_mapping(t_bytes32,t_struct(Oracle)5131_storage)": {
        "encoding": "mapping",
        "key": "t_bytes32",
        "label": "mapping(bytes32 => struct VRFCoordinator.Oracle)",
        "numberOfBytes": "32",
        "value": "t_struct(Oracle)5131_storage"
      },
      "t_mapping(t_uint256,t_address)": {
        "encoding": "mapping",
        "key": "t_uint256",
        "label": "mapping(uint256 => address)",
        "numberOfBytes": "32",
        "value": "t_address"
      },
      "t_mapping(t_uint256,t_bytes32)": {
        "encoding": "mapping",
        "key": "t_uint256",
        "label": "mapping(uint256 => bytes32)",
        "numberOfBytes": "32",
        "value": "t_bytes32"
      },
      "t_struct(Config)732_storage": {
        "encoding": "inplace",
        "label": "struct CoordinatorBase.Config",
        "members": [
          {
            "astId": 727,
            "contract": "src/v0.1/VRFCoordinator.sol:VRFCoordinator",
            "label": "maxGasLimit",
            "offset": 0,
            "slot": "0",
            "type": "t_uint32"
          },
          {
            "astId": 729,
            "contract": "src/v0.1/VRFCoordinator.sol:VRFCoordinator",
            "label": "reentrancyLock",
            "offset": 4,
            "slot": "0",
            "type": "t_bool"
          },
          {
            "astId": 731,
            "contract": "src/v0.1/VRFCoordinator.sol:VRFCoordinator",
            "label": "gasAfterPaymentCalculation",
            "offset": 5,
            "slot": "0",
            "type": "t_uint32"
          }
        ],
        "numberOfBytes": "32"
      },
      "t_struct(FeeConfig)6399_storage": {
        "encoding": "inplace",
        "label": "struct ICoordinatorBase.FeeConfig",
        "members": [
          {
            "astId": 6382,
            "contract": "src/v0.1/VRFCoordinator.sol:VRFCoordinator",
            "label": "fulfillmentFlatFeeKlayPPMTier1",
            "offset": 0,
            "slot": "0",
            "type": "t_uint32"
          },
          {
            "astId": 6384,
            "contract": "src/v0.1/VRFCoordinator.sol:VRFCoordinator",
            "label": "fulfillmentFlatFeeKlayPPMTier2",
            "offset": 4,
            "slot": "0",
            "type": "t_uint32"
          },
          {
            "astId": 6386,
            "contract": "src/v0.1/VRFCoordinator.sol:VRFCoordinator",
            "label": "fulfillmentFlatFeeKlayPPMTier3",
            "offset": 8,
            "slot": "0",
            "type": "t_uint32"
          },
          {
            "astId": 6388,
            "contract": "src/v0.1/VRFCoordinator.sol:VRFCoordinator",
            "label": "fulfillmentFlatFeeKlayPPMTier4",
            "offset": 12,
            "slot": "0",
            "type": "t_uint32"
          },
          {
            "astId": 6390,
            "contract": "src/v0.1/VRFCoordinator.sol:VRFCoordinator",
            "label": "fulfillmentFlatFeeKlayPPMTier5",
            "offset": 16,
            "slot": "0",
            "type": "t_uint32"
          },
          {
            "astId": 6392,
            "contract": "src/v0.1/VRFCoordinator.sol:VRFCoordinator",
            "label": "reqsForTier2",
            "offset": 20,
            "slot": "0",
            "type": "t_uint24"
          },
          {
            "astId": 6394,
            "contract": "src/v0.1/VRFCoordinator.sol:VRFCoordinator",
            "label": "reqsForTier3",
            "offset": 23,
            "slot": "0",
            "type": "t_uint24"
          },
          {
            "astId": 6396,
            "contract": "src/v0.1/VRFCoordinator.sol:VRFCoordinator",
            "label": "reqsForTier4",
            "offset": 26,
            "slot": "0",
            "type": "t_uint24"
          },
          {
            "astId": 6398,
            "contract": "src/v0.1/VRFCoordinator.sol:VRFCoordinator",
            "label": "reqsForTier5",
            "offset": 29,
            "slot": "0",
            "type": "t_uint24"
          }
        ],
        "numberOfBytes": "32"
      },
      "t_struct(Oracle)5131_storage": {
        "encoding": "inplace",
        "label": "struct VRFCoordinator.Oracle",
        "members": [
          {
            "astId": 5127,
            "contract": "src/v0.1/VRFCoordinator.sol:VRFCoordinator",
            "label": "registered",
            "offset": 0,
            "slot": "0",
            "type": "t_bool"
          },
          {
            "astId": 5130,
            "contract": "src/v0.1/VRFCoordinator.sol:VRFCoordinator",
            "label": "oracles",
            "offset": 0,
            "slot": "1",
            "type": "t_array(t_address)dyn_storage"
          }
        ],
        "numberOfBytes": "64"
      },
      "t_uint24": {
        "encoding": "inplace",
        "label": "uint24",
        "numberOfBytes": "3"
      },
      "t_uint256": {
        "encoding": "inplace",
        "label": "uint256",
        "numberOfBytes": "32"
      },
      "t_uint32": {
        "encoding": "inplace",
        "label": "uint32",
        "numberOfBytes": "4"
      }
    }
  }
}