{
  "address": "0xE01d4D702B2326be0ACbAB90faA540e2DBCe3705",
  "abi": [
    {
      "inputs": [
        {
          "internalType": "address",
          "name": "aggregator",
          "type": "address"
        }
      ],
      "name": "InvalidAggregator",
      "type": "error"
    },
    {
      "inputs": [
        {
          "internalType": "address",
          "name": "submitter",
          "type": "address"
        }
      ],
      "name": "InvalidSubmitter",
      "type": "error"
    },
    {
      "inputs": [],
      "name": "Reentrant",
      "type": "error"
    },
    {
      "anonymous": false,
      "inputs": [
        {
          "indexed": false,
          "internalType": "address",
          "name": "newAggregator",
          "type": "address"
        }
      ],
      "name": "AggregatorAdded",
      "type": "event"
    },
    {
      "anonymous": false,
      "inputs": [
        {
          "indexed": false,
          "internalType": "address",
          "name": "newAggregator",
          "type": "address"
        }
      ],
      "name": "AggregatorRemoved",
      "type": "event"
    },
    {
      "anonymous": false,
      "inputs": [
        {
          "indexed": true,
          "internalType": "uint256",
          "name": "requestId",
          "type": "uint256"
        },
        {
          "indexed": false,
          "internalType": "bool",
          "name": "response",
          "type": "bool"
        },
        {
          "indexed": false,
          "internalType": "bool",
          "name": "success",
          "type": "bool"
        }
      ],
      "name": "DataRequestFulfilledBool",
      "type": "event"
    },
    {
      "anonymous": false,
      "inputs": [
        {
          "indexed": true,
          "internalType": "uint256",
          "name": "requestId",
          "type": "uint256"
        },
        {
          "indexed": false,
          "internalType": "bytes",
          "name": "response",
          "type": "bytes"
        },
        {
          "indexed": false,
          "internalType": "bool",
          "name": "success",
          "type": "bool"
        }
      ],
      "name": "DataRequestFulfilledBytes",
      "type": "event"
    },
    {
      "anonymous": false,
      "inputs": [
        {
          "indexed": true,
          "internalType": "uint256",
          "name": "requestId",
          "type": "uint256"
        },
        {
          "indexed": false,
          "internalType": "bytes32",
          "name": "response",
          "type": "bytes32"
        },
        {
          "indexed": false,
          "internalType": "bool",
          "name": "success",
          "type": "bool"
        }
      ],
      "name": "DataRequestFulfilledBytes32",
      "type": "event"
    },
    {
      "anonymous": false,
      "inputs": [
        {
          "indexed": true,
          "internalType": "uint256",
          "name": "requestId",
          "type": "uint256"
        },
        {
          "indexed": false,
          "internalType": "int256",
          "name": "response",
          "type": "int256"
        },
        {
          "indexed": false,
          "internalType": "bool",
          "name": "success",
          "type": "bool"
        }
      ],
      "name": "DataRequestFulfilledInt256",
      "type": "event"
    },
    {
      "anonymous": false,
      "inputs": [
        {
          "indexed": true,
          "internalType": "uint256",
          "name": "requestId",
          "type": "uint256"
        },
        {
          "indexed": false,
          "internalType": "string",
          "name": "response",
          "type": "string"
        },
        {
          "indexed": false,
          "internalType": "bool",
          "name": "success",
          "type": "bool"
        }
      ],
      "name": "DataRequestFulfilledString",
      "type": "event"
    },
    {
      "anonymous": false,
      "inputs": [
        {
          "indexed": true,
          "internalType": "uint256",
          "name": "requestId",
          "type": "uint256"
        },
        {
          "indexed": false,
          "internalType": "uint256",
          "name": "response",
          "type": "uint256"
        },
        {
          "indexed": false,
          "internalType": "bool",
          "name": "success",
          "type": "bool"
        }
      ],
      "name": "DataRequestFulfilledUint128",
      "type": "event"
    },
    {
      "anonymous": false,
      "inputs": [
        {
          "indexed": true,
          "internalType": "uint256",
          "name": "requestId",
          "type": "uint256"
        },
        {
          "indexed": false,
          "internalType": "bytes32",
          "name": "jobId",
          "type": "bytes32"
        },
        {
          "indexed": true,
          "internalType": "uint64",
          "name": "accId",
          "type": "uint64"
        },
        {
          "indexed": false,
          "internalType": "uint32",
          "name": "callbackGasLimit",
          "type": "uint32"
        },
        {
          "indexed": true,
          "internalType": "address",
          "name": "sender",
          "type": "address"
        },
        {
          "indexed": false,
          "internalType": "uint8",
          "name": "numSubmission",
          "type": "uint8"
        },
        {
          "components": [
            {
              "internalType": "bytes32",
              "name": "id",
              "type": "bytes32"
            },
            {
              "internalType": "address",
              "name": "callbackAddr",
              "type": "address"
            },
            {
              "internalType": "bytes4",
              "name": "callbackFunc",
              "type": "bytes4"
            },
            {
              "internalType": "uint256",
              "name": "nonce",
              "type": "uint256"
            },
            {
              "components": [
                {
                  "internalType": "bytes",
                  "name": "buf",
                  "type": "bytes"
                },
                {
                  "internalType": "uint256",
                  "name": "capacity",
                  "type": "uint256"
                }
              ],
              "internalType": "struct Buffer.buffer",
              "name": "buf",
              "type": "tuple"
            }
          ],
          "indexed": false,
          "internalType": "struct Orakl.Request",
          "name": "req",
          "type": "tuple"
        }
      ],
      "name": "DataRequested",
      "type": "event"
    },
    {
      "anonymous": false,
      "inputs": [
        {
          "indexed": true,
          "internalType": "address",
          "name": "previousOwner",
          "type": "address"
        },
        {
          "indexed": true,
          "internalType": "address",
          "name": "newOwner",
          "type": "address"
        }
      ],
      "name": "OwnershipTransferred",
      "type": "event"
    },
    {
      "anonymous": false,
      "inputs": [
        {
          "indexed": true,
          "internalType": "uint256",
          "name": "requestId",
          "type": "uint256"
        },
        {
          "indexed": false,
          "internalType": "uint256[]",
          "name": "randomWords",
          "type": "uint256[]"
        },
        {
          "indexed": false,
          "internalType": "bool",
          "name": "success",
          "type": "bool"
        }
      ],
      "name": "RandomWordsFulfilled",
      "type": "event"
    },
    {
      "anonymous": false,
      "inputs": [
        {
          "indexed": true,
          "internalType": "bytes32",
          "name": "keyHash",
          "type": "bytes32"
        },
        {
          "indexed": false,
          "internalType": "uint256",
          "name": "requestId",
          "type": "uint256"
        },
        {
          "indexed": false,
          "internalType": "uint256",
          "name": "preSeed",
          "type": "uint256"
        },
        {
          "indexed": true,
          "internalType": "uint64",
          "name": "accId",
          "type": "uint64"
        },
        {
          "indexed": false,
          "internalType": "uint32",
          "name": "callbackGasLimit",
          "type": "uint32"
        },
        {
          "indexed": false,
          "internalType": "uint32",
          "name": "numWords",
          "type": "uint32"
        },
        {
          "indexed": true,
          "internalType": "address",
          "name": "sender",
          "type": "address"
        }
      ],
      "name": "RandomWordsRequested",
      "type": "event"
    },
    {
      "anonymous": false,
      "inputs": [
        {
          "indexed": false,
          "internalType": "uint256",
          "name": "roundId",
          "type": "uint256"
        },
        {
          "indexed": false,
          "internalType": "int256",
          "name": "submission",
          "type": "int256"
        }
      ],
      "name": "Submitted",
      "type": "event"
    },
    {
      "anonymous": false,
      "inputs": [
        {
          "indexed": false,
          "internalType": "address",
          "name": "newSubmitter",
          "type": "address"
        }
      ],
      "name": "SubmitterAdded",
      "type": "event"
    },
    {
      "anonymous": false,
      "inputs": [
        {
          "indexed": false,
          "internalType": "address",
          "name": "newSubmitter",
          "type": "address"
        }
      ],
      "name": "SubmitterRemoved",
      "type": "event"
    },
    {
      "inputs": [
        {
          "internalType": "address",
          "name": "_newAggregator",
          "type": "address"
        }
      ],
      "name": "addAggregator",
      "outputs": [],
      "stateMutability": "nonpayable",
      "type": "function"
    },
    {
      "inputs": [
        {
          "internalType": "address",
          "name": "_newSubmitter",
          "type": "address"
        }
      ],
      "name": "addSubmitter",
      "outputs": [],
      "stateMutability": "nonpayable",
      "type": "function"
    },
    {
      "inputs": [
        {
          "internalType": "uint256",
          "name": "requestId",
          "type": "uint256"
        },
        {
          "internalType": "bool",
          "name": "response",
          "type": "bool"
        }
      ],
      "name": "fulfillDataRequestBool",
      "outputs": [],
      "stateMutability": "nonpayable",
      "type": "function"
    },
    {
      "inputs": [
        {
          "internalType": "uint256",
          "name": "requestId",
          "type": "uint256"
        },
        {
          "internalType": "bytes",
          "name": "response",
          "type": "bytes"
        }
      ],
      "name": "fulfillDataRequestBytes",
      "outputs": [],
      "stateMutability": "nonpayable",
      "type": "function"
    },
    {
      "inputs": [
        {
          "internalType": "uint256",
          "name": "requestId",
          "type": "uint256"
        },
        {
          "internalType": "bytes32",
          "name": "response",
          "type": "bytes32"
        }
      ],
      "name": "fulfillDataRequestBytes32",
      "outputs": [],
      "stateMutability": "nonpayable",
      "type": "function"
    },
    {
      "inputs": [
        {
          "internalType": "uint256",
          "name": "requestId",
          "type": "uint256"
        },
        {
          "internalType": "int256",
          "name": "response",
          "type": "int256"
        }
      ],
      "name": "fulfillDataRequestInt256",
      "outputs": [],
      "stateMutability": "nonpayable",
      "type": "function"
    },
    {
      "inputs": [
        {
          "internalType": "uint256",
          "name": "requestId",
          "type": "uint256"
        },
        {
          "internalType": "string",
          "name": "response",
          "type": "string"
        }
      ],
      "name": "fulfillDataRequestString",
      "outputs": [],
      "stateMutability": "nonpayable",
      "type": "function"
    },
    {
      "inputs": [
        {
          "internalType": "uint256",
          "name": "requestId",
          "type": "uint256"
        },
        {
          "internalType": "uint128",
          "name": "response",
          "type": "uint128"
        }
      ],
      "name": "fulfillDataRequestUint128",
      "outputs": [],
      "stateMutability": "nonpayable",
      "type": "function"
    },
    {
      "inputs": [
        {
          "internalType": "uint256",
          "name": "requestId",
          "type": "uint256"
        },
        {
          "internalType": "uint256[]",
          "name": "randomWords",
          "type": "uint256[]"
        }
      ],
      "name": "fulfillRandomWords",
      "outputs": [],
      "stateMutability": "nonpayable",
      "type": "function"
    },
    {
      "inputs": [],
      "name": "owner",
      "outputs": [
        {
          "internalType": "address",
          "name": "",
          "type": "address"
        }
      ],
      "stateMutability": "view",
      "type": "function"
    },
    {
      "inputs": [
        {
          "internalType": "address",
          "name": "_aggregator",
          "type": "address"
        }
      ],
      "name": "removeAggregator",
      "outputs": [],
      "stateMutability": "nonpayable",
      "type": "function"
    },
    {
      "inputs": [
        {
          "internalType": "address",
          "name": "_submitter",
          "type": "address"
        }
      ],
      "name": "removeSubmitter",
      "outputs": [],
      "stateMutability": "nonpayable",
      "type": "function"
    },
    {
      "inputs": [],
      "name": "renounceOwnership",
      "outputs": [],
      "stateMutability": "nonpayable",
      "type": "function"
    },
    {
      "inputs": [
        {
          "components": [
            {
              "internalType": "bytes32",
              "name": "id",
              "type": "bytes32"
            },
            {
              "internalType": "address",
              "name": "callbackAddr",
              "type": "address"
            },
            {
              "internalType": "bytes4",
              "name": "callbackFunc",
              "type": "bytes4"
            },
            {
              "internalType": "uint256",
              "name": "nonce",
              "type": "uint256"
            },
            {
              "components": [
                {
                  "internalType": "bytes",
                  "name": "buf",
                  "type": "bytes"
                },
                {
                  "internalType": "uint256",
                  "name": "capacity",
                  "type": "uint256"
                }
              ],
              "internalType": "struct Buffer.buffer",
              "name": "buf",
              "type": "tuple"
            }
          ],
          "internalType": "struct Orakl.Request",
          "name": "req",
          "type": "tuple"
        },
        {
          "internalType": "uint32",
          "name": "callbackGasLimit",
          "type": "uint32"
        },
        {
          "internalType": "uint64",
          "name": "accId",
          "type": "uint64"
        },
        {
          "internalType": "uint8",
          "name": "numSubmission",
          "type": "uint8"
        }
      ],
      "name": "requestData",
      "outputs": [
        {
          "internalType": "uint256",
          "name": "",
          "type": "uint256"
        }
      ],
      "stateMutability": "nonpayable",
      "type": "function"
    },
    {
      "inputs": [
        {
          "internalType": "bytes32",
          "name": "keyHash",
          "type": "bytes32"
        },
        {
          "internalType": "uint64",
          "name": "accId",
          "type": "uint64"
        },
        {
          "internalType": "uint32",
          "name": "callbackGasLimit",
          "type": "uint32"
        },
        {
          "internalType": "uint32",
          "name": "numWords",
          "type": "uint32"
        }
      ],
      "name": "requestRandomWords",
      "outputs": [
        {
          "internalType": "uint256",
          "name": "",
          "type": "uint256"
        }
      ],
      "stateMutability": "nonpayable",
      "type": "function"
    },
    {
      "inputs": [],
      "name": "sAggregatorCount",
      "outputs": [
        {
          "internalType": "uint256",
          "name": "",
          "type": "uint256"
        }
      ],
      "stateMutability": "view",
      "type": "function"
    },
    {
      "inputs": [],
      "name": "sSubmitterCount",
      "outputs": [
        {
          "internalType": "uint256",
          "name": "",
          "type": "uint256"
        }
      ],
      "stateMutability": "view",
      "type": "function"
    },
    {
      "inputs": [
        {
          "internalType": "uint256",
          "name": "_roundId",
          "type": "uint256"
        },
        {
          "internalType": "int256",
          "name": "_submission",
          "type": "int256"
        },
        {
          "internalType": "address",
          "name": "_aggregator",
          "type": "address"
        }
      ],
      "name": "submit",
      "outputs": [],
      "stateMutability": "nonpayable",
      "type": "function"
    },
    {
      "inputs": [
        {
          "internalType": "address",
          "name": "newOwner",
          "type": "address"
        }
      ],
      "name": "transferOwnership",
      "outputs": [],
      "stateMutability": "nonpayable",
      "type": "function"
    }
  ],
  "transactionHash": "0xcbcd9c2ef2f90da9ed4cb1a9b6589c10f8faf031f13398da2d197ae93ef9674f",
  "args": [],
  "numDeployments": 1,
  "solcInputHash": "b94241e4d3eb269d71a378a8da8748f4",
  "bytecode": "0x608060405234801561001057600080fd5b5061001a3361001f565b61006f565b600080546001600160a01b038381166001600160a01b0319831681178455604051919092169283917f8be0079c531659141344cd1fd0a4f28419497f9722a3daafe3b4186f6b6457e09190a35050565b611cd18061007e6000396000f3fe608060405234801561001057600080fd5b50600436106101515760003560e01c8063715018a6116100cd578063b02cffb211610081578063c36f41e211610066578063c36f41e214610284578063ead99ae714610297578063f2fde38b146102aa57600080fd5b8063b02cffb21461025e578063bf2a10cb1461027157600080fd5b80638c651f11116100b25780638c651f111461021d5780638da5cb5b1461023057806394cacc8f1461024b57600080fd5b8063715018a614610202578063752f8c141461020a57600080fd5b806338ba4614116101245780636520b009116101095780636520b009146101c957806365f82dd3146101dc57806369439e07146101ef57600080fd5b806338ba4614146101ad57806350ae9443146101c057600080fd5b8063072900f9146101565780631188c0b01461016b5780632f34077b1461017e5780633728e0e6146101a4575b600080fd5b6101696101643660046115d0565b6102bd565b005b6101696101793660046115f2565b61038b565b61019161018c366004611640565b6104ef565b6040519081526020015b60405180910390f35b61019160025481565b6101696101bb366004611720565b610694565b61019160055481565b6101696101d73660046115d0565b610807565b6101696101ea36600461184a565b6108cb565b6101696101fd366004611891565b610a3e565b610169610b6d565b6101916102183660046118d7565b610b81565b61016961022b3660046115d0565b610cf0565b6000546040516001600160a01b03909116815260200161019b565b6101696102593660046119e7565b610dad565b61016961026c366004611a1c565b610f0c565b61016961027f366004611a56565b61108b565b6101696102923660046115d0565b6111fe565b6101696102a53660046115f2565b6112bd565b6101696102b83660046115d0565b611416565b6102c56114a6565b6001600160a01b03811660009081526001602052604090205460ff161561030f57604051632ffe4f1760e21b81526001600160a01b03821660048201526024015b60405180910390fd5b6001600160a01b03811660009081526001602081905260408220805460ff1916821790556002805491929091610346908490611abd565b90915550506040516001600160a01b03821681527fb079bc2cbde1f186e0b351d4a87c4597e3ed098f571548617449e73506428d8b906020015b60405180910390a150565b600054600160a01b900460ff16156103b65760405163769dd35360e11b815260040160405180910390fd5b3360009081526001602052604090205460ff166103e857604051632ffe4f1760e21b8152336004820152602401610306565b60008281526003602090815260408083208151808301835290546001600160a01b038116825263ffffffff600160a01b9182900481168386019081528451602481018a905260448082018a905286518083039091018152606490910190955294840180516001600160e01b03167ff40b4def00000000000000000000000000000000000000000000000000000000179052855460ff60a01b19169091178555925181519194929361049c9291169084611500565b6000805460ff60a01b19169055905060408051858152821515602082015286917f68ab2090cae4446c41a4252a58251ac07f2ac3277747f0f2431ce7d80fdb643791015b60405180910390a25050505050565b60008054600160a01b900460ff161561051b5760405163769dd35360e11b815260040160405180910390fd5b6006805467ffffffffffffffff1690600061053583611ad6565b825467ffffffffffffffff91821661010093840a90810290830219909116179092556006546040805160208082018c905233828401528a86166060830152929094166080808601919091528151808603909101815260a08501825280519083012060c085018b905260e08086018290528251808703909101815294909301905282519201919091206000925082916040805180820182523380825263ffffffff8a811660208085018281526000898152600383528790209551865491518516600160a01b027fffffffffffffffff0000000000000000000000000000000000000000000000009092166001600160a01b03909116171790945584518781529384018690529383019390935291881660608201529294509092509067ffffffffffffffff88169089907f83435a10127d49580dea6415e92f6d97ce6dfed04f0e49a3ca3366a82716b8569060800160405180910390a45095945050505050565b600054600160a01b900460ff16156106bf5760405163769dd35360e11b815260040160405180910390fd5b3360009081526001602052604090205460ff166106f157604051632ffe4f1760e21b8152336004820152602401610306565b60008281526003602090815260408083208151808301835290546001600160a01b0381168252600160a01b900463ffffffff1692810192909252519091907f1fe543e300000000000000000000000000000000000000000000000000000000906107619086908690602401611b38565b60408051808303601f190181529190526020810180516001600160e01b0319939093166001600160e01b03909316929092179091526000805460ff60a01b1916600160a01b179055905060006107c6836020015163ffffffff16846000015184611500565b6000805460ff60a01b191690559050847f969e72fbacf24da85b4bce2a3cef3d8dc2497b1750c4cc5a06b52c104133833785836040516104e0929190611b59565b61080f6114a6565b6001600160a01b03811660009081526007602052604090205460ff161561085457604051635c8bf34d60e01b81526001600160a01b0382166004820152602401610306565b6001600160a01b0381166000908152600760205260408120805460ff19166001908117909155600580549192909161088d908490611abd565b90915550506040516001600160a01b03821681527f6fe83d3564912d267f3f85c4a548ac36ea86d2bb44c5881a8c7e841e5a439a4490602001610380565b600054600160a01b900460ff16156108f65760405163769dd35360e11b815260040160405180910390fd5b3360009081526001602052604090205460ff1661092857604051632ffe4f1760e21b8152336004820152602401610306565b60008281526003602090815260408083208151808301835290546001600160a01b0381168252600160a01b900463ffffffff1692810192909252519091907f19e2cd2f00000000000000000000000000000000000000000000000000000000906109989086908690602401611bc3565b60408051808303601f190181529190526020810180516001600160e01b0319939093166001600160e01b03909316929092179091526000805460ff60a01b1916600160a01b179055905060006109fd836020015163ffffffff16846000015184611500565b6000805460ff60a01b191690559050847fb6727cffbd4cbe4365522df08e3a8fbcf75662b5e1c5ffb1db39c936250abf7785836040516104e0929190611bdc565b3360009081526001602052604090205460ff16610a7057604051632ffe4f1760e21b8152336004820152602401610306565b6001600160a01b03811660009081526007602052604090205460ff16610ab457604051635c8bf34d60e01b81526001600160a01b0382166004820152602401610306565b6040517f202ee0ed00000000000000000000000000000000000000000000000000000000815260048101849052602481018390526001600160a01b0382169063202ee0ed90604401600060405180830381600087803b158015610b1657600080fd5b505af1158015610b2a573d6000803e3d6000fd5b505060408051868152602081018690527fa295ff9f7c0d4a3dc435d3ec6914c2c8dfd40c81683a4e8c1a48dfb8061c115e935001905060405180910390a1505050565b610b756114a6565b610b7f600061154c565b565b60008054600160a01b900460ff1615610bad5760405163769dd35360e11b815260040160405180910390fd5b6004805467ffffffffffffffff16906000610bc783611ad6565b82546101009290920a67ffffffffffffffff8181021990931691831602179091556004546040805133602080830191909152888516828401529290931660608085019190915281518085039091018152608090930190528151910120600091506040805180820182523380825263ffffffff808a16602080850191825260008781526003909152859020935184549151909216600160a01b027fffffffffffffffff0000000000000000000000000000000000000000000000009091166001600160a01b03929092169190911717909155885191519293509167ffffffffffffffff87169184917fbcd6102b5ed4bce45e33e55e881597584257ce8f3b613700c8966eaaa87d668f91610cdf918b908a908e90611bef565b60405180910390a495945050505050565b610cf86114a6565b6001600160a01b03811660009081526007602052604090205460ff16610d3c57604051635c8bf34d60e01b81526001600160a01b0382166004820152602401610306565b6001600160a01b0381166000908152600760205260408120805460ff191690556005805460019290610d6f908490611c88565b90915550506040516001600160a01b03821681527fe57df70929b1c62badc06b12770e8aceca66ffc8c10367bbedb6b894445dbcd490602001610380565b600054600160a01b900460ff1615610dd85760405163769dd35360e11b815260040160405180910390fd5b3360009081526001602052604090205460ff16610e0a57604051632ffe4f1760e21b8152336004820152602401610306565b60008281526003602090815260408083208151808301835290546001600160a01b038116825263ffffffff600160a01b9182900481168386019081528451602481018a905288151560448083019190915286518083039091018152606490910190955294840180516001600160e01b03167f90d95efc00000000000000000000000000000000000000000000000000000000179052855460ff60a01b191690911785559251815191949293610ec29291169084611500565b6000805460ff60a01b191690559050604080518515158152821515602082015286917f1642c1857f43a2e6a38067a7503bdbff46b114bdedb9684838fef1a2e830fbc191016104e0565b600054600160a01b900460ff1615610f375760405163769dd35360e11b815260040160405180910390fd5b3360009081526001602052604090205460ff16610f6957604051632ffe4f1760e21b8152336004820152602401610306565b60008281526003602090815260408083208151808301835290546001600160a01b038116825263ffffffff600160a01b9182900481168386019081528451602481018a90526fffffffffffffffffffffffffffffffff891660448083019190915286518083039091018152606490910190955294840180516001600160e01b03167f45b9b6fb00000000000000000000000000000000000000000000000000000000179052855460ff60a01b1916909117855592518151919492936110319291169084611500565b6000805460ff60a01b191690559050604080516fffffffffffffffffffffffffffffffff86168152821515602082015286917fe3202e5e3d6b36ed8405525d980bb3ad5ccf03672a9669fa20a89f98744ff27b91016104e0565b600054600160a01b900460ff16156110b65760405163769dd35360e11b815260040160405180910390fd5b3360009081526001602052604090205460ff166110e857604051632ffe4f1760e21b8152336004820152602401610306565b60008281526003602090815260408083208151808301835290546001600160a01b0381168252600160a01b900463ffffffff1692810192909252519091907f79b1500800000000000000000000000000000000000000000000000000000000906111589086908690602401611bc3565b60408051808303601f190181529190526020810180516001600160e01b0319939093166001600160e01b03909316929092179091526000805460ff60a01b1916600160a01b179055905060006111bd836020015163ffffffff16846000015184611500565b6000805460ff60a01b191690559050847f1f4cd35fbbff74b414788bedf414c823fba59b0c18e4fb0765fe6abf4973af4285836040516104e0929190611bdc565b6112066114a6565b6001600160a01b03811660009081526001602052604090205460ff1661124a57604051632ffe4f1760e21b81526001600160a01b0382166004820152602401610306565b6001600160a01b03811660009081526001602081905260408220805460ff19169055600280549192909161127f908490611c88565b90915550506040516001600160a01b03821681527ff84a004e1673d2f349a7c93c72b3794b8eba6d2f9338044d8c8cd260e51a57a190602001610380565b600054600160a01b900460ff16156112e85760405163769dd35360e11b815260040160405180910390fd5b3360009081526001602052604090205460ff1661131a57604051632ffe4f1760e21b8152336004820152602401610306565b60008281526003602090815260408083208151808301835290546001600160a01b038116825263ffffffff600160a01b9182900481168386019081528451602481018a905260448082018a905286518083039091018152606490910190955294840180516001600160e01b03167f6e2acda000000000000000000000000000000000000000000000000000000000179052855460ff60a01b1916909117855592518151919492936113ce9291169084611500565b6000805460ff60a01b19169055905060408051858152821515602082015286917f4be934158e70ea4fc348690c5a927fa7cef37f665b9f23b4f7719d1ac4d3c14b91016104e0565b61141e6114a6565b6001600160a01b03811661149a5760405162461bcd60e51b815260206004820152602660248201527f4f776e61626c653a206e6577206f776e657220697320746865207a65726f206160448201527f64647265737300000000000000000000000000000000000000000000000000006064820152608401610306565b6114a38161154c565b50565b6000546001600160a01b03163314610b7f5760405162461bcd60e51b815260206004820181905260248201527f4f776e61626c653a2063616c6c6572206973206e6f7420746865206f776e65726044820152606401610306565b60005a61138881101561151257600080fd5b61138881039050846040820482031161152a57600080fd5b50823b61153657600080fd5b60008083516020850160008789f1949350505050565b600080546001600160a01b038381167fffffffffffffffffffffffff0000000000000000000000000000000000000000831681178455604051919092169283917f8be0079c531659141344cd1fd0a4f28419497f9722a3daafe3b4186f6b6457e09190a35050565b80356001600160a01b03811681146115cb57600080fd5b919050565b6000602082840312156115e257600080fd5b6115eb826115b4565b9392505050565b6000806040838503121561160557600080fd5b50508035926020909101359150565b803567ffffffffffffffff811681146115cb57600080fd5b803563ffffffff811681146115cb57600080fd5b6000806000806080858703121561165657600080fd5b8435935061166660208601611614565b92506116746040860161162c565b91506116826060860161162c565b905092959194509250565b634e487b7160e01b600052604160045260246000fd5b60405160a0810167ffffffffffffffff811182821017156116c6576116c661168d565b60405290565b6040805190810167ffffffffffffffff811182821017156116c6576116c661168d565b604051601f8201601f1916810167ffffffffffffffff811182821017156117185761171861168d565b604052919050565b6000806040838503121561173357600080fd5b8235915060208084013567ffffffffffffffff8082111561175357600080fd5b818601915086601f83011261176757600080fd5b8135818111156117795761177961168d565b8060051b915061178a8483016116ef565b81815291830184019184810190898411156117a457600080fd5b938501935b838510156117c2578435825293850193908501906117a9565b8096505050505050509250929050565b600067ffffffffffffffff8311156117ec576117ec61168d565b6117ff601f8401601f19166020016116ef565b905082815283838301111561181357600080fd5b828260208301376000602084830101529392505050565b600082601f83011261183b57600080fd5b6115eb838335602085016117d2565b6000806040838503121561185d57600080fd5b82359150602083013567ffffffffffffffff81111561187b57600080fd5b6118878582860161182a565b9150509250929050565b6000806000606084860312156118a657600080fd5b83359250602084013591506118bd604085016115b4565b90509250925092565b803560ff811681146115cb57600080fd5b600080600080608085870312156118ed57600080fd5b843567ffffffffffffffff8082111561190557600080fd5b9086019060a0828903121561191957600080fd5b6119216116a3565b82358152611931602084016115b4565b602082015260408301356001600160e01b03198116811461195157600080fd5b60408201526060838101359082015260808301358281111561197257600080fd5b92909201916040838a03121561198757600080fd5b61198f6116cc565b83358381111561199e57600080fd5b6119aa8b82870161182a565b82525060209384013584820152608082015295506119cb918701905061162c565b92506119d960408601611614565b9150611682606086016118c6565b600080604083850312156119fa57600080fd5b8235915060208301358015158114611a1157600080fd5b809150509250929050565b60008060408385031215611a2f57600080fd5b8235915060208301356fffffffffffffffffffffffffffffffff81168114611a1157600080fd5b60008060408385031215611a6957600080fd5b82359150602083013567ffffffffffffffff811115611a8757600080fd5b8301601f81018513611a9857600080fd5b611887858235602084016117d2565b634e487b7160e01b600052601160045260246000fd5b80820180821115611ad057611ad0611aa7565b92915050565b600067ffffffffffffffff808316818103611af357611af3611aa7565b6001019392505050565b600081518084526020808501945080840160005b83811015611b2d57815187529582019590820190600101611b11565b509495945050505050565b828152604060208201526000611b516040830184611afd565b949350505050565b604081526000611b6c6040830185611afd565b905082151560208301529392505050565b6000815180845260005b81811015611ba357602081850181015186830182015201611b87565b506000602082860101526020601f19601f83011685010191505092915050565b828152604060208201526000611b516040830184611b7d565b604081526000611b6c6040830185611b7d565b84815263ffffffff8416602082015260ff8316604082015260806060820152815160808201526001600160a01b0360208301511660a08201526001600160e01b031960408301511660c0820152606082015160e08201526000608083015160a061010084015280516040610120850152611c6d610160850182611b7d565b90506020820151610140850152809250505095945050505050565b81810381811115611ad057611ad0611aa756fea2646970667358221220a6b2cc337572196184dbab00333c5dca29f85fe011edfd8dacb96ae42998960164736f6c63430008100033",
  "devdoc": {
    "kind": "dev",
    "methods": {
      "owner()": {
        "details": "Returns the address of the current owner."
      },
      "renounceOwnership()": {
        "details": "Leaves the contract without owner. It will not be possible to call `onlyOwner` functions. Can only be called by the current owner. NOTE: Renouncing ownership will leave the contract without an owner, thereby disabling any functionality that is only available to the owner."
      },
      "transferOwnership(address)": {
        "details": "Transfers ownership of the contract to a new account (`newOwner`). Can only be called by the current owner."
      }
    },
    "version": 1
  },
  "userdoc": {
    "kind": "user",
    "methods": {},
    "version": 1
  },
  "storageLayout": {
    "storage": [
      {
        "astId": 7,
        "contract": "src/v0.1/L2endpoint.sol:L2Endpoint",
        "label": "_owner",
        "offset": 0,
        "slot": "0",
        "type": "t_address"
      },
      {
        "astId": 4598,
        "contract": "src/v0.1/L2endpoint.sol:L2Endpoint",
        "label": "sReentrancyLock",
        "offset": 20,
        "slot": "0",
        "type": "t_bool"
      },
      {
        "astId": 4607,
        "contract": "src/v0.1/L2endpoint.sol:L2Endpoint",
        "label": "sSubmitters",
        "offset": 0,
        "slot": "1",
        "type": "t_mapping(t_address,t_bool)"
      },
      {
        "astId": 4609,
        "contract": "src/v0.1/L2endpoint.sol:L2Endpoint",
        "label": "sSubmitterCount",
        "offset": 0,
        "slot": "2",
        "type": "t_uint256"
      },
      {
        "astId": 4614,
        "contract": "src/v0.1/L2endpoint.sol:L2Endpoint",
        "label": "sRequestDetail",
        "offset": 0,
        "slot": "3",
        "type": "t_mapping(t_uint256,t_struct(RequestInfo)4603_storage)"
      },
      {
        "astId": 4674,
        "contract": "src/v0.1/L2endpoint.sol:L2Endpoint",
        "label": "sNonce",
        "offset": 0,
        "slot": "4",
        "type": "t_uint64"
      },
      {
        "astId": 5208,
        "contract": "src/v0.1/L2endpoint.sol:L2Endpoint",
        "label": "sAggregatorCount",
        "offset": 0,
        "slot": "5",
        "type": "t_uint256"
      },
      {
        "astId": 5210,
        "contract": "src/v0.1/L2endpoint.sol:L2Endpoint",
        "label": "sNonce",
        "offset": 0,
        "slot": "6",
        "type": "t_uint64"
      },
      {
        "astId": 5214,
        "contract": "src/v0.1/L2endpoint.sol:L2Endpoint",
        "label": "sAggregators",
        "offset": 0,
        "slot": "7",
        "type": "t_mapping(t_address,t_bool)"
      }
    ],
    "types": {
      "t_address": {
        "encoding": "inplace",
        "label": "address",
        "numberOfBytes": "20"
      },
      "t_bool": {
        "encoding": "inplace",
        "label": "bool",
        "numberOfBytes": "1"
      },
      "t_mapping(t_address,t_bool)": {
        "encoding": "mapping",
        "key": "t_address",
        "label": "mapping(address => bool)",
        "numberOfBytes": "32",
        "value": "t_bool"
      },
      "t_mapping(t_uint256,t_struct(RequestInfo)4603_storage)": {
        "encoding": "mapping",
        "key": "t_uint256",
        "label": "mapping(uint256 => struct L2EndpointBase.RequestInfo)",
        "numberOfBytes": "32",
        "value": "t_struct(RequestInfo)4603_storage"
      },
      "t_struct(RequestInfo)4603_storage": {
        "encoding": "inplace",
        "label": "struct L2EndpointBase.RequestInfo",
        "members": [
          {
            "astId": 4600,
            "contract": "src/v0.1/L2endpoint.sol:L2Endpoint",
            "label": "owner",
            "offset": 0,
            "slot": "0",
            "type": "t_address"
          },
          {
            "astId": 4602,
            "contract": "src/v0.1/L2endpoint.sol:L2Endpoint",
            "label": "callbackGasLimit",
            "offset": 20,
            "slot": "0",
            "type": "t_uint32"
          }
        ],
        "numberOfBytes": "32"
      },
      "t_uint256": {
        "encoding": "inplace",
        "label": "uint256",
        "numberOfBytes": "32"
      },
      "t_uint32": {
        "encoding": "inplace",
        "label": "uint32",
        "numberOfBytes": "4"
      },
      "t_uint64": {
        "encoding": "inplace",
        "label": "uint64",
        "numberOfBytes": "8"
      }
    }
  }
}