{
  "address": "0x3882Dd4ab0f70eEB5157C463dFE23214bCB2BB63",
  "abi": [
    {
      "inputs": [
        {
          "internalType": "address",
          "name": "l2Endpoint",
          "type": "address"
        }
      ],
      "stateMutability": "nonpayable",
      "type": "constructor"
    },
    {
      "inputs": [
        {
          "internalType": "address",
          "name": "have",
          "type": "address"
        },
        {
          "internalType": "address",
          "name": "want",
          "type": "address"
        }
      ],
      "name": "OnlyCoordinatorCanFulfill",
      "type": "error"
    },
    {
      "inputs": [
        {
          "internalType": "address",
          "name": "notOwner",
          "type": "address"
        }
      ],
      "name": "OnlyOwner",
      "type": "error"
    },
    {
      "inputs": [],
      "name": "COORDINATOR",
      "outputs": [
        {
          "internalType": "contract IRequestResponseCoordinator",
          "name": "",
          "type": "address"
        }
      ],
      "stateMutability": "view",
      "type": "function"
    },
    {
      "inputs": [
        {
          "internalType": "uint256",
          "name": "requestId",
          "type": "uint256"
        },
        {
          "internalType": "bytes",
          "name": "response",
          "type": "bytes"
        }
      ],
      "name": "rawFulfillDataRequest",
      "outputs": [],
      "stateMutability": "nonpayable",
      "type": "function"
    },
    {
      "inputs": [
        {
          "internalType": "uint256",
          "name": "requestId",
          "type": "uint256"
        },
        {
          "internalType": "uint128",
          "name": "response",
          "type": "uint128"
        }
      ],
      "name": "rawFulfillDataRequest",
      "outputs": [],
      "stateMutability": "nonpayable",
      "type": "function"
    },
    {
      "inputs": [
        {
          "internalType": "uint256",
          "name": "requestId",
          "type": "uint256"
        },
        {
          "internalType": "int256",
          "name": "response",
          "type": "int256"
        }
      ],
      "name": "rawFulfillDataRequest",
      "outputs": [],
      "stateMutability": "nonpayable",
      "type": "function"
    },
    {
      "inputs": [
        {
          "internalType": "uint256",
          "name": "requestId",
          "type": "uint256"
        },
        {
          "internalType": "string",
          "name": "response",
          "type": "string"
        }
      ],
      "name": "rawFulfillDataRequest",
      "outputs": [],
      "stateMutability": "nonpayable",
      "type": "function"
    },
    {
      "inputs": [
        {
          "internalType": "uint256",
          "name": "requestId",
          "type": "uint256"
        },
        {
          "internalType": "bool",
          "name": "response",
          "type": "bool"
        }
      ],
      "name": "rawFulfillDataRequest",
      "outputs": [],
      "stateMutability": "nonpayable",
      "type": "function"
    },
    {
      "inputs": [
        {
          "internalType": "uint256",
          "name": "requestId",
          "type": "uint256"
        },
        {
          "internalType": "bytes32",
          "name": "response",
          "type": "bytes32"
        }
      ],
      "name": "rawFulfillDataRequest",
      "outputs": [],
      "stateMutability": "nonpayable",
      "type": "function"
    },
    {
      "inputs": [
        {
          "internalType": "uint64",
          "name": "accId",
          "type": "uint64"
        },
        {
          "internalType": "uint32",
          "name": "callbackGasLimit",
          "type": "uint32"
        },
        {
          "internalType": "uint8",
          "name": "numSubmission",
          "type": "uint8"
        }
      ],
      "name": "requestDataBool",
      "outputs": [
        {
          "internalType": "uint256",
          "name": "requestId",
          "type": "uint256"
        }
      ],
      "stateMutability": "nonpayable",
      "type": "function"
    },
    {
      "inputs": [
        {
          "internalType": "uint64",
          "name": "accId",
          "type": "uint64"
        },
        {
          "internalType": "uint32",
          "name": "callbackGasLimit",
          "type": "uint32"
        },
        {
          "internalType": "uint8",
          "name": "numSubmission",
          "type": "uint8"
        }
      ],
      "name": "requestDataBytes",
      "outputs": [
        {
          "internalType": "uint256",
          "name": "requestId",
          "type": "uint256"
        }
      ],
      "stateMutability": "nonpayable",
      "type": "function"
    },
    {
      "inputs": [
        {
          "internalType": "uint64",
          "name": "accId",
          "type": "uint64"
        },
        {
          "internalType": "uint32",
          "name": "callbackGasLimit",
          "type": "uint32"
        },
        {
          "internalType": "uint8",
          "name": "numSubmission",
          "type": "uint8"
        }
      ],
      "name": "requestDataBytes32",
      "outputs": [
        {
          "internalType": "uint256",
          "name": "requestId",
          "type": "uint256"
        }
      ],
      "stateMutability": "nonpayable",
      "type": "function"
    },
    {
      "inputs": [
        {
          "internalType": "uint64",
          "name": "accId",
          "type": "uint64"
        },
        {
          "internalType": "uint32",
          "name": "callbackGasLimit",
          "type": "uint32"
        },
        {
          "internalType": "uint8",
          "name": "numSubmission",
          "type": "uint8"
        }
      ],
      "name": "requestDataInt256",
      "outputs": [
        {
          "internalType": "uint256",
          "name": "requestId",
          "type": "uint256"
        }
      ],
      "stateMutability": "nonpayable",
      "type": "function"
    },
    {
      "inputs": [
        {
          "internalType": "uint64",
          "name": "accId",
          "type": "uint64"
        },
        {
          "internalType": "uint32",
          "name": "callbackGasLimit",
          "type": "uint32"
        },
        {
          "internalType": "uint8",
          "name": "numSubmission",
          "type": "uint8"
        }
      ],
      "name": "requestDataString",
      "outputs": [
        {
          "internalType": "uint256",
          "name": "requestId",
          "type": "uint256"
        }
      ],
      "stateMutability": "nonpayable",
      "type": "function"
    },
    {
      "inputs": [
        {
          "internalType": "uint64",
          "name": "accId",
          "type": "uint64"
        },
        {
          "internalType": "uint32",
          "name": "callbackGasLimit",
          "type": "uint32"
        },
        {
          "internalType": "uint8",
          "name": "numSubmission",
          "type": "uint8"
        }
      ],
      "name": "requestDataUint128",
      "outputs": [
        {
          "internalType": "uint256",
          "name": "requestId",
          "type": "uint256"
        }
      ],
      "stateMutability": "nonpayable",
      "type": "function"
    },
    {
      "inputs": [],
      "name": "sResponseBool",
      "outputs": [
        {
          "internalType": "bool",
          "name": "",
          "type": "bool"
        }
      ],
      "stateMutability": "view",
      "type": "function"
    },
    {
      "inputs": [],
      "name": "sResponseBytes",
      "outputs": [
        {
          "internalType": "bytes",
          "name": "",
          "type": "bytes"
        }
      ],
      "stateMutability": "view",
      "type": "function"
    },
    {
      "inputs": [],
      "name": "sResponseBytes32",
      "outputs": [
        {
          "internalType": "bytes32",
          "name": "",
          "type": "bytes32"
        }
      ],
      "stateMutability": "view",
      "type": "function"
    },
    {
      "inputs": [],
      "name": "sResponseInt256",
      "outputs": [
        {
          "internalType": "int256",
          "name": "",
          "type": "int256"
        }
      ],
      "stateMutability": "view",
      "type": "function"
    },
    {
      "inputs": [],
      "name": "sResponseString",
      "outputs": [
        {
          "internalType": "string",
          "name": "",
          "type": "string"
        }
      ],
      "stateMutability": "view",
      "type": "function"
    },
    {
      "inputs": [],
      "name": "sResponseUint128",
      "outputs": [
        {
          "internalType": "uint128",
          "name": "",
          "type": "uint128"
        }
      ],
      "stateMutability": "view",
      "type": "function"
    },
    {
      "stateMutability": "payable",
      "type": "receive"
    }
  ],
  "transactionHash": "0xe805b47ee6838d4b8eaa092c97aeee13667170b50bf32a9e06ec5825c4354244",
  "args": [
    "0xf22Ad573cf6d8036975ca83f4E9Cda16d0C4583F"
  ],
  "numDeployments": 2,
  "solcInputHash": "8916b0a6296a8f1eff24721c6bc5a8c2",
  "bytecode": "0x60a060405234801561001057600080fd5b5060405161199438038061199483398101604081905261002f916101d4565b6001600160a01b0316608081905260408051660ead2dce86264760cb1b6020808301919091528251808303600790810182526027840185528151918301919091206000908152808352848120805463ffffffff1990811663a185c35f179091556534b73a191a9b60d11b60478601528551808603602d018152604d8601875280519085012082528184528582208054821663d1bf555c17905563189bdbdb60e21b606d86015285518086036051018152607186018752805190850120825281845285822080548216637961841717905565737472696e6760d01b60918601528551808603607701815260978601875280519085012082528184528582208054821663f30be55117905566313cba32b9999960c91b60b78601528551808603609e01815260be8601875280519085012082528184528582208054821663bf8542a917905564627974657360d81b60de860152855180860360c301815260e39095018652845194840194909420815291829052929020805490911663c6f340131790558054336001600160a01b031991821617909155600880549091169091179055610204565b6000602082840312156101e657600080fd5b81516001600160a01b03811681146101fd57600080fd5b9392505050565b608051611744610250600039600081816102170152818161071e015281816107f9015281816108f90152818161095b01528181610a8801528181610b5a0152610c1101526117446000f3fe6080604052600436106101485760003560e01c80635215b9d8116100c05780638708211111610074578063cd9a4e2911610059578063cd9a4e2914610386578063efcb1e79146103a6578063f40b4def146103f057600080fd5b8063870821111461034657806390d95efc1461036657600080fd5b806379b15008116100a557806379b15008146102f05780637b3d2ce91461031057806386314c7a1461033057600080fd5b80635215b9d8146102b05780636e2acda0146102d057600080fd5b806334ed9593116101175780633b68dad0116100fc5780633b68dad01461025157806343ff5be11461026657806345b9b6fb1461029057600080fd5b806334ed9593146101e55780633b2bcbf11461020557600080fd5b8063144eb1e81461015457806314f5c3831461017f5780631569e5d6146101a357806319e2cd2f146101c357600080fd5b3661014f57005b600080fd5b34801561016057600080fd5b50610169610410565b604051610176919061114c565b60405180910390f35b34801561018b57600080fd5b5061019560025481565b604051908152602001610176565b3480156101af57600080fd5b506101956101be36600461115f565b61049e565b3480156101cf57600080fd5b506101e36101de366004611252565b61071c565b005b3480156101f157600080fd5b5061019561020036600461115f565b610786565b34801561021157600080fd5b506102397f000000000000000000000000000000000000000000000000000000000000000081565b6040516001600160a01b039091168152602001610176565b34801561025d57600080fd5b506101696107ea565b34801561027257600080fd5b506003546102809060ff1681565b6040519015158152602001610176565b34801561029c57600080fd5b506101e36102ab3660046112ad565b6107f7565b3480156102bc57600080fd5b506101956102cb36600461115f565b610893565b3480156102dc57600080fd5b506101e36102eb3660046112f2565b6108f7565b3480156102fc57600080fd5b506101e361030b366004611252565b610959565b34801561031c57600080fd5b5061019561032b36600461115f565b6109be565b34801561033c57600080fd5b5061019560055481565b34801561035257600080fd5b5061019561036136600461115f565b610a22565b34801561037257600080fd5b506101e3610381366004611314565b610a86565b34801561039257600080fd5b506101956103a136600461115f565b610af4565b3480156103b257600080fd5b506001546103cf906fffffffffffffffffffffffffffffffff1681565b6040516fffffffffffffffffffffffffffffffff9091168152602001610176565b3480156103fc57600080fd5b506101e361040b3660046112f2565b610b58565b6006805461041d9061133e565b80601f01602080910402602001604051908101604052809291908181526020018280546104499061133e565b80156104965780601f1061046b57610100808354040283529160200191610496565b820191906000526020600020905b81548152906001019060200180831161047957829003601f168201915b505050505081565b6007546000906001600160a01b031633146104d357604051630543601560e11b81523360048201526024015b60405180910390fd5b6040517f696e74323536000000000000000000000000000000000000000000000000000060208201526000906026015b604051602081830303815290604052805190602001209050600061052682610bba565b90506105826040518060400160405280600381526020017f67657400000000000000000000000000000000000000000000000000000000008152506040518060800160405280604a81526020016116c5604a9139839190610c3f565b6106016040518060400160405280600481526020017f70617468000000000000000000000000000000000000000000000000000000008152506040518060400160405280601281526020017f5241572c4b4c41592c5553442c5052494345000000000000000000000000000081525083610c3f9092919063ffffffff16565b6106806040518060400160405280600581526020017f706f7731300000000000000000000000000000000000000000000000000000008152506040518060400160405280600181526020017f380000000000000000000000000000000000000000000000000000000000000081525083610c3f9092919063ffffffff16565b6008546040517f752f8c140000000000000000000000000000000000000000000000000000000081526001600160a01b039091169063752f8c14906106cf90849089908b908a90600401611372565b6020604051808303816000875af11580156106ee573d6000803e3d6000fd5b505050506040513d601f19601f820116820180604052508101906107129190611430565b9695505050505050565b7f0000000000000000000000000000000000000000000000000000000000000000336001600160a01b038216146107775760405163073e64fd60e21b81523360048201526001600160a01b03821660248201526044016104ca565b6107818383610c5d565b505050565b6007546000906001600160a01b031633146107b657604051630543601560e11b81523360048201526024016104ca565b6040517f75696e74313238000000000000000000000000000000000000000000000000006020820152600090602701610503565b6004805461041d9061133e565b7f0000000000000000000000000000000000000000000000000000000000000000336001600160a01b038216146108525760405163073e64fd60e21b81523360048201526001600160a01b03821660248201526044016104ca565b600180547fffffffffffffffffffffffffffffffff00000000000000000000000000000000166fffffffffffffffffffffffffffffffff8416179055505050565b6007546000906001600160a01b031633146108c357604051630543601560e11b81523360048201526024016104ca565b6040517f626f6f6c000000000000000000000000000000000000000000000000000000006020820152600090602401610503565b7f0000000000000000000000000000000000000000000000000000000000000000336001600160a01b038216146109525760405163073e64fd60e21b81523360048201526001600160a01b03821660248201526044016104ca565b5060025550565b7f0000000000000000000000000000000000000000000000000000000000000000336001600160a01b038216146109b45760405163073e64fd60e21b81523360048201526001600160a01b03821660248201526044016104ca565b6107818383610c69565b6007546000906001600160a01b031633146109ee57604051630543601560e11b81523360048201526024016104ca565b6040517f62797465730000000000000000000000000000000000000000000000000000006020820152600090602501610503565b6007546000906001600160a01b03163314610a5257604051630543601560e11b81523360048201526024016104ca565b6040517f62797465733332000000000000000000000000000000000000000000000000006020820152600090602701610503565b7f0000000000000000000000000000000000000000000000000000000000000000336001600160a01b03821614610ae15760405163073e64fd60e21b81523360048201526001600160a01b03821660248201526044016104ca565b6003805460ff1916831515179055505050565b6007546000906001600160a01b03163314610b2457604051630543601560e11b81523360048201526024016104ca565b6040517f737472696e6700000000000000000000000000000000000000000000000000006020820152600090602601610503565b7f0000000000000000000000000000000000000000000000000000000000000000336001600160a01b03821614610bb35760405163073e64fd60e21b81523360048201526001600160a01b03821660248201526044016104ca565b5060055550565b610bf86040805160a0810182526000808252602080830182905282840182905260608084018390528451808601909552845283015290608082015290565b600082815260208190526040902054610c3990829084907f00000000000000000000000000000000000000000000000000000000000000009060e01b610c75565b92915050565b6080830151610c4e9083610d00565b60808301516107819082610d00565b60066107818282611497565b60046107818282611497565b610cb36040805160a0810182526000808252602080830182905282840182905260608084018390528451808601909552845283015290608082015290565b610cc38560800151610100610d17565b50509183526001600160a01b031660208301527fffffffff0000000000000000000000000000000000000000000000000000000016604082015290565b610d0d8260038351610d7c565b6107818282610e91565b604080518082019091526060815260006020820152610d37602083611557565b15610d5f57610d47602083611557565b610d5290602061158f565b610d5c90836115a2565b91505b506020828101829052604080518085526000815290920101905290565b60178167ffffffffffffffff1611610da757610da18360e0600585901b168317610ebf565b50505050565b60ff8167ffffffffffffffff1611610de557610dce836018611fe0600586901b1617610ebf565b50610da18367ffffffffffffffff83166001610ee4565b61ffff8167ffffffffffffffff1611610e2457610e0d836019611fe0600586901b1617610ebf565b50610da18367ffffffffffffffff83166002610ee4565b63ffffffff8167ffffffffffffffff1611610e6557610e4e83601a611fe0600586901b1617610ebf565b50610da18367ffffffffffffffff83166004610ee4565b610e7a83601b611fe0600586901b1617610ebf565b50610da18367ffffffffffffffff83166008610ee4565b604080518082019091526060815260006020820152610eb883846000015151848551610f12565b9392505050565b604080518082019091526060815260006020820152610eb88384600001515184610ffc565b604080518082019091526060815260006020820152610f0a848560000151518585611057565b949350505050565b6040805180820190915260608152600060208201528251821115610f3557600080fd5b6020850151610f4483866115a2565b1115610f7757610f7785610f6787602001518786610f6291906115a2565b6110d8565b610f729060026115b5565b6110ef565b600080865180518760208301019350808887011115610f965787860182525b505050602084015b60208410610fd65780518252610fb56020836115a2565b9150610fc26020826115a2565b9050610fcf60208561158f565b9350610f9e565b51815160001960208690036101000a019081169019919091161790525083949350505050565b60408051808201909152606081526000602082015283602001518310611031576110318485602001516002610f7291906115b5565b835180516020858301018481535080850361104d576001810182525b5093949350505050565b604080518082019091526060815260006020820152602085015161107b85846115a2565b111561108f5761108f85610f6786856115a2565b6000600161109f846101006116b8565b6110a9919061158f565b90508551838682010185831982511617815250805184870111156110cd5783860181525b509495945050505050565b6000818311156110e9575081610c39565b50919050565b81516110fb8383610d17565b50610da18382610e91565b6000815180845260005b8181101561112c57602081850181015186830182015201611110565b506000602082860101526020601f19601f83011685010191505092915050565b602081526000610eb86020830184611106565b60008060006060848603121561117457600080fd5b833567ffffffffffffffff8116811461118c57600080fd5b9250602084013563ffffffff811681146111a557600080fd5b9150604084013560ff811681146111bb57600080fd5b809150509250925092565b634e487b7160e01b600052604160045260246000fd5b600067ffffffffffffffff808411156111f7576111f76111c6565b604051601f8501601f19908116603f0116810190828211818310171561121f5761121f6111c6565b8160405280935085815286868601111561123857600080fd5b858560208301376000602087830101525050509392505050565b6000806040838503121561126557600080fd5b82359150602083013567ffffffffffffffff81111561128357600080fd5b8301601f8101851361129457600080fd5b6112a3858235602084016111dc565b9150509250929050565b600080604083850312156112c057600080fd5b8235915060208301356fffffffffffffffffffffffffffffffff811681146112e757600080fd5b809150509250929050565b6000806040838503121561130557600080fd5b50508035926020909101359150565b6000806040838503121561132757600080fd5b82359150602083013580151581146112e757600080fd5b600181811c9082168061135257607f821691505b6020821081036110e957634e487b7160e01b600052602260045260246000fd5b60808152845160808201526001600160a01b0360208601511660a08201527fffffffff0000000000000000000000000000000000000000000000000000000060408601511660c0820152606085015160e08201526000608086015160a0610100840152805160406101208501526113ed610160850182611106565b602092830151610140860152925061140e91840190508663ffffffff169052565b67ffffffffffffffff8416604083015260ff8316606083015295945050505050565b60006020828403121561144257600080fd5b5051919050565b601f82111561078157600081815260208120601f850160051c810160208610156114705750805b601f850160051c820191505b8181101561148f5782815560010161147c565b505050505050565b815167ffffffffffffffff8111156114b1576114b16111c6565b6114c5816114bf845461133e565b84611449565b602080601f8311600181146114fa57600084156114e25750858301515b600019600386901b1c1916600185901b17855561148f565b600085815260208120601f198616915b828110156115295788860151825594840194600190910190840161150a565b50858210156115475787850151600019600388901b60f8161c191681555b5050505050600190811b01905550565b60008261157457634e487b7160e01b600052601260045260246000fd5b500690565b634e487b7160e01b600052601160045260246000fd5b81810381811115610c3957610c39611579565b80820180821115610c3957610c39611579565b60008160001904831182151516156115cf576115cf611579565b500290565b600181815b8085111561160f5781600019048211156115f5576115f5611579565b8085161561160257918102915b93841c93908002906115d9565b509250929050565b60008261162657506001610c39565b8161163357506000610c39565b816001811461164957600281146116535761166f565b6001915050610c39565b60ff84111561166457611664611579565b50506001821b610c39565b5060208310610133831016604e8410600b8410161715611692575081810a610c39565b61169c83836115d4565b80600019048211156116b0576116b0611579565b029392505050565b6000610eb8838361161756fe68747470733a2f2f6d696e2d6170692e63727970746f636f6d706172652e636f6d2f646174612f70726963656d756c746966756c6c3f6673796d733d4b4c4159267473796d733d555344a26469706673582212207b7942253db0e3022185fd95e53d63fc03c6e9dec4af1b095b866a8621bd45d264736f6c63430008100033",
  "devdoc": {
    "kind": "dev",
    "methods": {},
    "version": 1
  },
  "userdoc": {
    "kind": "user",
    "methods": {},
    "version": 1
  },
  "storageLayout": {
    "storage": [
      {
        "astId": 9225,
        "contract": "src/v0.1/mocks/L2RequestResponseConsumerMock.sol:L2RequestResponseConsumerMock",
        "label": "sJobIdToFunctionSelector",
        "offset": 0,
        "slot": "0",
        "type": "t_mapping(t_bytes32,t_bytes4)"
      },
      {
        "astId": 18435,
        "contract": "src/v0.1/mocks/L2RequestResponseConsumerMock.sol:L2RequestResponseConsumerMock",
        "label": "sResponseUint128",
        "offset": 0,
        "slot": "1",
        "type": "t_uint128"
      },
      {
        "astId": 18437,
        "contract": "src/v0.1/mocks/L2RequestResponseConsumerMock.sol:L2RequestResponseConsumerMock",
        "label": "sResponseInt256",
        "offset": 0,
        "slot": "2",
        "type": "t_int256"
      },
      {
        "astId": 18439,
        "contract": "src/v0.1/mocks/L2RequestResponseConsumerMock.sol:L2RequestResponseConsumerMock",
        "label": "sResponseBool",
        "offset": 0,
        "slot": "3",
        "type": "t_bool"
      },
      {
        "astId": 18441,
        "contract": "src/v0.1/mocks/L2RequestResponseConsumerMock.sol:L2RequestResponseConsumerMock",
        "label": "sResponseString",
        "offset": 0,
        "slot": "4",
        "type": "t_string_storage"
      },
      {
        "astId": 18443,
        "contract": "src/v0.1/mocks/L2RequestResponseConsumerMock.sol:L2RequestResponseConsumerMock",
        "label": "sResponseBytes32",
        "offset": 0,
        "slot": "5",
        "type": "t_bytes32"
      },
      {
        "astId": 18445,
        "contract": "src/v0.1/mocks/L2RequestResponseConsumerMock.sol:L2RequestResponseConsumerMock",
        "label": "sResponseBytes",
        "offset": 0,
        "slot": "6",
        "type": "t_bytes_storage"
      },
      {
        "astId": 18447,
        "contract": "src/v0.1/mocks/L2RequestResponseConsumerMock.sol:L2RequestResponseConsumerMock",
        "label": "sOwner",
        "offset": 0,
        "slot": "7",
        "type": "t_address"
      },
      {
        "astId": 18450,
        "contract": "src/v0.1/mocks/L2RequestResponseConsumerMock.sol:L2RequestResponseConsumerMock",
        "label": "L2ENDPOINT",
        "offset": 0,
        "slot": "8",
        "type": "t_contract(IL2Endpoint)13255"
      }
    ],
    "types": {
      "t_address": {
        "encoding": "inplace",
        "label": "address",
        "numberOfBytes": "20"
      },
      "t_bool": {
        "encoding": "inplace",
        "label": "bool",
        "numberOfBytes": "1"
      },
      "t_bytes32": {
        "encoding": "inplace",
        "label": "bytes32",
        "numberOfBytes": "32"
      },
      "t_bytes4": {
        "encoding": "inplace",
        "label": "bytes4",
        "numberOfBytes": "4"
      },
      "t_bytes_storage": {
        "encoding": "bytes",
        "label": "bytes",
        "numberOfBytes": "32"
      },
      "t_contract(IL2Endpoint)13255": {
        "encoding": "inplace",
        "label": "contract IL2Endpoint",
        "numberOfBytes": "20"
      },
      "t_int256": {
        "encoding": "inplace",
        "label": "int256",
        "numberOfBytes": "32"
      },
      "t_mapping(t_bytes32,t_bytes4)": {
        "encoding": "mapping",
        "key": "t_bytes32",
        "label": "mapping(bytes32 => bytes4)",
        "numberOfBytes": "32",
        "value": "t_bytes4"
      },
      "t_string_storage": {
        "encoding": "bytes",
        "label": "string",
        "numberOfBytes": "32"
      },
      "t_uint128": {
        "encoding": "inplace",
        "label": "uint128",
        "numberOfBytes": "16"
      }
    }
  }
}