{
  "address": "0xcb3b4fdA5AA3e9cAb0dADAEc166DF6cE32744985",
  "abi": [
    {
      "inputs": [
        {
          "internalType": "address",
          "name": "l2Endpoint",
          "type": "address"
        }
      ],
      "stateMutability": "nonpayable",
      "type": "constructor"
    },
    {
      "inputs": [
        {
          "internalType": "address",
          "name": "have",
          "type": "address"
        },
        {
          "internalType": "address",
          "name": "want",
          "type": "address"
        }
      ],
      "name": "OnlyCoordinatorCanFulfill",
      "type": "error"
    },
    {
      "inputs": [
        {
          "internalType": "address",
          "name": "notOwner",
          "type": "address"
        }
      ],
      "name": "OnlyOwner",
      "type": "error"
    },
    {
      "inputs": [
        {
          "internalType": "uint256",
          "name": "requestId",
          "type": "uint256"
        },
        {
          "internalType": "uint256[]",
          "name": "randomWords",
          "type": "uint256[]"
        }
      ],
      "name": "rawFulfillRandomWords",
      "outputs": [],
      "stateMutability": "nonpayable",
      "type": "function"
    },
    {
      "inputs": [
        {
          "internalType": "bytes32",
          "name": "keyHash",
          "type": "bytes32"
        },
        {
          "internalType": "uint64",
          "name": "accId",
          "type": "uint64"
        },
        {
          "internalType": "uint32",
          "name": "callbackGasLimit",
          "type": "uint32"
        },
        {
          "internalType": "uint32",
          "name": "numWords",
          "type": "uint32"
        }
      ],
      "name": "requestRandomWords",
      "outputs": [
        {
          "internalType": "uint256",
          "name": "requestId",
          "type": "uint256"
        }
      ],
      "stateMutability": "nonpayable",
      "type": "function"
    },
    {
      "inputs": [],
      "name": "sRandomWord",
      "outputs": [
        {
          "internalType": "uint256",
          "name": "",
          "type": "uint256"
        }
      ],
      "stateMutability": "view",
      "type": "function"
    },
    {
      "stateMutability": "payable",
      "type": "receive"
    }
  ],
  "transactionHash": "0x2ba2bb80b660f0bae3eee7c18060c2e2763dfad9cc75f95c7b79d2147de171de",
  "args": [
    "0xccD917Bb5312d42260CD77c8DFc105293a37F9B5"
  ],
  "numDeployments": 1,
  "solcInputHash": "9421958cbfcd39d8d02a58d162277796",
  "bytecode": "0x60a060405234801561001057600080fd5b5060405161057638038061057683398101604081905261002f91610063565b6001600160a01b03166080819052600180546001600160a01b03199081163317909155600280549091169091179055610093565b60006020828403121561007557600080fd5b81516001600160a01b038116811461008c57600080fd5b9392505050565b6080516104c26100b46000396000818160c6015261012e01526104c26000f3fe6080604052600436106100385760003560e01c80630e5ff996146100445780631fe543e31461006c5780632f34077b1461008e57600080fd5b3661003f57005b600080fd5b34801561005057600080fd5b5061005a60005481565b60405190815260200160405180910390f35b34801561007857600080fd5b5061008c6100873660046102d5565b6100ae565b005b34801561009a57600080fd5b5061005a6100a93660046103b8565b61016e565b3373ffffffffffffffffffffffffffffffffffffffff7f00000000000000000000000000000000000000000000000000000000000000001614610160576040517f1cf993f400000000000000000000000000000000000000000000000000000000815233600482015273ffffffffffffffffffffffffffffffffffffffff7f00000000000000000000000000000000000000000000000000000000000000001660248201526044015b60405180910390fd5b61016a8282610286565b5050565b60015460009073ffffffffffffffffffffffffffffffffffffffff1633146101c4576040517f0a86c02a000000000000000000000000000000000000000000000000000000008152336004820152602401610157565b6002546040517f2f34077b0000000000000000000000000000000000000000000000000000000081526004810187905267ffffffffffffffff8616602482015263ffffffff80861660448301528416606482015273ffffffffffffffffffffffffffffffffffffffff90911690632f34077b906084016020604051808303816000875af1158015610259573d6000803e3d6000fd5b505050506040513d601f19601f8201168201806040525081019061027d9190610414565b95945050505050565b60328160008151811061029b5761029b61042d565b60200260200101516102ad9190610443565b6102b8906001610465565b6000555050565b634e487b7160e01b600052604160045260246000fd5b600080604083850312156102e857600080fd5b8235915060208084013567ffffffffffffffff8082111561030857600080fd5b818601915086601f83011261031c57600080fd5b81358181111561032e5761032e6102bf565b8060051b604051601f19603f83011681018181108582111715610353576103536102bf565b60405291825284820192508381018501918983111561037157600080fd5b938501935b8285101561038f57843584529385019392850192610376565b8096505050505050509250929050565b803563ffffffff811681146103b357600080fd5b919050565b600080600080608085870312156103ce57600080fd5b84359350602085013567ffffffffffffffff811681146103ed57600080fd5b92506103fb6040860161039f565b91506104096060860161039f565b905092959194509250565b60006020828403121561042657600080fd5b5051919050565b634e487b7160e01b600052603260045260246000fd5b60008261046057634e487b7160e01b600052601260045260246000fd5b500690565b8082018082111561048657634e487b7160e01b600052601160045260246000fd5b9291505056fea2646970667358221220850c77274816e233074a3b3eae58a2ce6e9af76103a5ec77294f84ae8bdbc05c64736f6c63430008100033",
  "devdoc": {
    "kind": "dev",
    "methods": {
      "rawFulfillRandomWords(uint256,uint256[])": {
        "params": {
          "randomWords": "the VRF output expanded to the requested number of words",
          "requestId": "The Id initially returned by requestRandomWords"
        }
      }
    },
    "version": 1
  },
  "userdoc": {
    "kind": "user",
    "methods": {
      "rawFulfillRandomWords(uint256,uint256[])": {
        "notice": "rawFulfillRandomWords is called by VRFCoordinator when itreceives a valid VRF proof. rawFulfillRandomWords then callsfulfillRandomWords, after validating the origin of the call"
      }
    },
    "version": 1
  },
  "storageLayout": {
    "storage": [
      {
        "astId": 1171,
        "contract": "src/v0.1/mocks/L2VRFConsumerMock.sol:L2VRFConsumerMock",
        "label": "sRandomWord",
        "offset": 0,
        "slot": "0",
        "type": "t_uint256"
      },
      {
        "astId": 1173,
        "contract": "src/v0.1/mocks/L2VRFConsumerMock.sol:L2VRFConsumerMock",
        "label": "sOwner",
        "offset": 0,
        "slot": "1",
        "type": "t_address"
      },
      {
        "astId": 1176,
        "contract": "src/v0.1/mocks/L2VRFConsumerMock.sol:L2VRFConsumerMock",
        "label": "L2ENDPOINT",
        "offset": 0,
        "slot": "2",
        "type": "t_contract(IL2Endpoint)1033"
      }
    ],
    "types": {
      "t_address": {
        "encoding": "inplace",
        "label": "address",
        "numberOfBytes": "20"
      },
      "t_contract(IL2Endpoint)1033": {
        "encoding": "inplace",
        "label": "contract IL2Endpoint",
        "numberOfBytes": "20"
      },
      "t_uint256": {
        "encoding": "inplace",
        "label": "uint256",
        "numberOfBytes": "32"
      }
    }
  }
}