{
  "address": "0x43bCCfE69523c34FEE9a32ddc2B08ECD62B5cD8e",
  "abi": [
    {
      "inputs": [
        {
          "internalType": "address",
          "name": "prepayment",
          "type": "address"
        }
      ],
      "stateMutability": "nonpayable",
      "type": "constructor"
    },
    {
      "inputs": [
        {
          "internalType": "uint32",
          "name": "have",
          "type": "uint32"
        },
        {
          "internalType": "uint32",
          "name": "want",
          "type": "uint32"
        }
      ],
      "name": "GasLimitTooBig",
      "type": "error"
    },
    {
      "inputs": [],
      "name": "IncorrectCommitment",
      "type": "error"
    },
    {
      "inputs": [
        {
          "internalType": "uint256",
          "name": "have",
          "type": "uint256"
        },
        {
          "internalType": "uint256",
          "name": "want",
          "type": "uint256"
        }
      ],
      "name": "InsufficientPayment",
      "type": "error"
    },
    {
      "inputs": [],
      "name": "InvalidAccRequest",
      "type": "error"
    },
    {
      "inputs": [
        {
          "internalType": "uint64",
          "name": "accId",
          "type": "uint64"
        },
        {
          "internalType": "address",
          "name": "consumer",
          "type": "address"
        }
      ],
      "name": "InvalidConsumer",
      "type": "error"
    },
    {
      "inputs": [
        {
          "internalType": "bytes32",
          "name": "keyHash",
          "type": "bytes32"
        }
      ],
      "name": "InvalidKeyHash",
      "type": "error"
    },
    {
      "inputs": [],
      "name": "NoCorrespondingRequest",
      "type": "error"
    },
    {
      "inputs": [
        {
          "internalType": "address",
          "name": "oracle",
          "type": "address"
        }
      ],
      "name": "NoSuchOracle",
      "type": "error"
    },
    {
      "inputs": [
        {
          "internalType": "bytes32",
          "name": "keyHash",
          "type": "bytes32"
        }
      ],
      "name": "NoSuchProvingKey",
      "type": "error"
    },
    {
      "inputs": [],
      "name": "NotRequestOwner",
      "type": "error"
    },
    {
      "inputs": [
        {
          "internalType": "uint32",
          "name": "have",
          "type": "uint32"
        },
        {
          "internalType": "uint32",
          "name": "want",
          "type": "uint32"
        }
      ],
      "name": "NumWordsTooBig",
      "type": "error"
    },
    {
      "inputs": [
        {
          "internalType": "address",
          "name": "oracle",
          "type": "address"
        }
      ],
      "name": "OracleAlreadyRegistered",
      "type": "error"
    },
    {
      "inputs": [],
      "name": "Reentrant",
      "type": "error"
    },
    {
      "inputs": [],
      "name": "RefundFailure",
      "type": "error"
    },
    {
      "anonymous": false,
      "inputs": [
        {
          "indexed": false,
          "internalType": "uint32",
          "name": "maxGasLimit",
          "type": "uint32"
        },
        {
          "indexed": false,
          "internalType": "uint32",
          "name": "gasAfterPaymentCalculation",
          "type": "uint32"
        },
        {
          "components": [
            {
              "internalType": "uint32",
              "name": "fulfillmentFlatFeeKlayPPMTier1",
              "type": "uint32"
            },
            {
              "internalType": "uint32",
              "name": "fulfillmentFlatFeeKlayPPMTier2",
              "type": "uint32"
            },
            {
              "internalType": "uint32",
              "name": "fulfillmentFlatFeeKlayPPMTier3",
              "type": "uint32"
            },
            {
              "internalType": "uint32",
              "name": "fulfillmentFlatFeeKlayPPMTier4",
              "type": "uint32"
            },
            {
              "internalType": "uint32",
              "name": "fulfillmentFlatFeeKlayPPMTier5",
              "type": "uint32"
            },
            {
              "internalType": "uint24",
              "name": "reqsForTier2",
              "type": "uint24"
            },
            {
              "internalType": "uint24",
              "name": "reqsForTier3",
              "type": "uint24"
            },
            {
              "internalType": "uint24",
              "name": "reqsForTier4",
              "type": "uint24"
            },
            {
              "internalType": "uint24",
              "name": "reqsForTier5",
              "type": "uint24"
            }
          ],
          "indexed": false,
          "internalType": "struct ICoordinatorBase.FeeConfig",
          "name": "feeConfig",
          "type": "tuple"
        }
      ],
      "name": "ConfigSet",
      "type": "event"
    },
    {
      "anonymous": false,
      "inputs": [
        {
          "indexed": true,
          "internalType": "address",
          "name": "oracle",
          "type": "address"
        },
        {
          "indexed": false,
          "internalType": "bytes32",
          "name": "keyHash",
          "type": "bytes32"
        }
      ],
      "name": "OracleDeregistered",
      "type": "event"
    },
    {
      "anonymous": false,
      "inputs": [
        {
          "indexed": true,
          "internalType": "address",
          "name": "oracle",
          "type": "address"
        },
        {
          "indexed": false,
          "internalType": "bytes32",
          "name": "keyHash",
          "type": "bytes32"
        }
      ],
      "name": "OracleRegistered",
      "type": "event"
    },
    {
      "anonymous": false,
      "inputs": [
        {
          "indexed": true,
          "internalType": "address",
          "name": "previousOwner",
          "type": "address"
        },
        {
          "indexed": true,
          "internalType": "address",
          "name": "newOwner",
          "type": "address"
        }
      ],
      "name": "OwnershipTransferred",
      "type": "event"
    },
    {
      "anonymous": false,
      "inputs": [
        {
          "indexed": false,
          "internalType": "address",
          "name": "prepayment",
          "type": "address"
        }
      ],
      "name": "PrepaymentSet",
      "type": "event"
    },
    {
      "anonymous": false,
      "inputs": [
        {
          "indexed": true,
          "internalType": "uint256",
          "name": "requestId",
          "type": "uint256"
        },
        {
          "indexed": false,
          "internalType": "uint256",
          "name": "outputSeed",
          "type": "uint256"
        },
        {
          "indexed": false,
          "internalType": "uint256",
          "name": "payment",
          "type": "uint256"
        },
        {
          "indexed": false,
          "internalType": "bool",
          "name": "success",
          "type": "bool"
        }
      ],
      "name": "RandomWordsFulfilled",
      "type": "event"
    },
    {
      "anonymous": false,
      "inputs": [
        {
          "indexed": true,
          "internalType": "bytes32",
          "name": "keyHash",
          "type": "bytes32"
        },
        {
          "indexed": false,
          "internalType": "uint256",
          "name": "requestId",
          "type": "uint256"
        },
        {
          "indexed": false,
          "internalType": "uint256",
          "name": "preSeed",
          "type": "uint256"
        },
        {
          "indexed": true,
          "internalType": "uint64",
          "name": "accId",
          "type": "uint64"
        },
        {
          "indexed": false,
          "internalType": "uint32",
          "name": "callbackGasLimit",
          "type": "uint32"
        },
        {
          "indexed": false,
          "internalType": "uint32",
          "name": "numWords",
          "type": "uint32"
        },
        {
          "indexed": true,
          "internalType": "address",
          "name": "sender",
          "type": "address"
        },
        {
          "indexed": false,
          "internalType": "bool",
          "name": "isDirectPayment",
          "type": "bool"
        }
      ],
      "name": "RandomWordsRequested",
      "type": "event"
    },
    {
      "anonymous": false,
      "inputs": [
        {
          "indexed": true,
          "internalType": "uint256",
          "name": "requestId",
          "type": "uint256"
        }
      ],
      "name": "RequestCanceled",
      "type": "event"
    },
    {
      "inputs": [],
      "name": "MAX_NUM_WORDS",
      "outputs": [
        {
          "internalType": "uint32",
          "name": "",
          "type": "uint32"
        }
      ],
      "stateMutability": "view",
      "type": "function"
    },
    {
      "inputs": [
        {
          "internalType": "uint256",
          "name": "requestId",
          "type": "uint256"
        }
      ],
      "name": "cancelRequest",
      "outputs": [],
      "stateMutability": "nonpayable",
      "type": "function"
    },
    {
      "inputs": [
        {
          "internalType": "address",
          "name": "oracle",
          "type": "address"
        }
      ],
      "name": "deregisterOracle",
      "outputs": [],
      "stateMutability": "nonpayable",
      "type": "function"
    },
    {
      "inputs": [
        {
          "internalType": "uint64",
          "name": "reqCount",
          "type": "uint64"
        },
        {
          "internalType": "uint8",
          "name": "numSubmission",
          "type": "uint8"
        },
        {
          "internalType": "uint32",
          "name": "callbackGasLimit",
          "type": "uint32"
        }
      ],
      "name": "estimateFee",
      "outputs": [
        {
          "internalType": "uint256",
          "name": "",
          "type": "uint256"
        }
      ],
      "stateMutability": "view",
      "type": "function"
    },
    {
      "inputs": [
        {
          "internalType": "uint64",
          "name": "reqCount",
          "type": "uint64"
        },
        {
          "internalType": "uint8",
          "name": "numSubmission",
          "type": "uint8"
        },
        {
          "internalType": "uint32",
          "name": "callbackGasLimit",
          "type": "uint32"
        },
        {
          "internalType": "uint64",
          "name": "accId",
          "type": "uint64"
        },
        {
          "internalType": "enum IAccount.AccountType",
          "name": "accType",
          "type": "uint8"
        }
      ],
      "name": "estimateFeeByAcc",
      "outputs": [
        {
          "internalType": "uint256",
          "name": "",
          "type": "uint256"
        }
      ],
      "stateMutability": "view",
      "type": "function"
    },
    {
      "inputs": [
        {
          "components": [
            {
              "internalType": "uint256[2]",
              "name": "pk",
              "type": "uint256[2]"
            },
            {
              "internalType": "uint256[4]",
              "name": "proof",
              "type": "uint256[4]"
            },
            {
              "internalType": "uint256",
              "name": "seed",
              "type": "uint256"
            },
            {
              "internalType": "uint256[2]",
              "name": "uPoint",
              "type": "uint256[2]"
            },
            {
              "internalType": "uint256[4]",
              "name": "vComponents",
              "type": "uint256[4]"
            }
          ],
          "internalType": "struct VRF.Proof",
          "name": "proof",
          "type": "tuple"
        },
        {
          "components": [
            {
              "internalType": "uint256",
              "name": "blockNum",
              "type": "uint256"
            },
            {
              "internalType": "uint64",
              "name": "accId",
              "type": "uint64"
            },
            {
              "internalType": "uint32",
              "name": "callbackGasLimit",
              "type": "uint32"
            },
            {
              "internalType": "uint32",
              "name": "numWords",
              "type": "uint32"
            },
            {
              "internalType": "address",
              "name": "sender",
              "type": "address"
            }
          ],
          "internalType": "struct IVRFCoordinatorBase.RequestCommitment",
          "name": "rc",
          "type": "tuple"
        },
        {
          "internalType": "bool",
          "name": "isDirectPayment",
          "type": "bool"
        }
      ],
      "name": "fulfillRandomWords",
      "outputs": [],
      "stateMutability": "nonpayable",
      "type": "function"
    },
    {
      "inputs": [
        {
          "internalType": "uint256",
          "name": "requestId",
          "type": "uint256"
        }
      ],
      "name": "getCommitment",
      "outputs": [
        {
          "internalType": "bytes32",
          "name": "",
          "type": "bytes32"
        }
      ],
      "stateMutability": "view",
      "type": "function"
    },
    {
      "inputs": [],
      "name": "getConfig",
      "outputs": [
        {
          "internalType": "uint32",
          "name": "maxGasLimit",
          "type": "uint32"
        },
        {
          "internalType": "uint32",
          "name": "gasAfterPaymentCalculation",
          "type": "uint32"
        }
      ],
      "stateMutability": "view",
      "type": "function"
    },
    {
      "inputs": [],
      "name": "getFeeConfig",
      "outputs": [
        {
          "internalType": "uint32",
          "name": "fulfillmentFlatFeeKlayPPMTier1",
          "type": "uint32"
        },
        {
          "internalType": "uint32",
          "name": "fulfillmentFlatFeeKlayPPMTier2",
          "type": "uint32"
        },
        {
          "internalType": "uint32",
          "name": "fulfillmentFlatFeeKlayPPMTier3",
          "type": "uint32"
        },
        {
          "internalType": "uint32",
          "name": "fulfillmentFlatFeeKlayPPMTier4",
          "type": "uint32"
        },
        {
          "internalType": "uint32",
          "name": "fulfillmentFlatFeeKlayPPMTier5",
          "type": "uint32"
        },
        {
          "internalType": "uint24",
          "name": "reqsForTier2",
          "type": "uint24"
        },
        {
          "internalType": "uint24",
          "name": "reqsForTier3",
          "type": "uint24"
        },
        {
          "internalType": "uint24",
          "name": "reqsForTier4",
          "type": "uint24"
        },
        {
          "internalType": "uint24",
          "name": "reqsForTier5",
          "type": "uint24"
        }
      ],
      "stateMutability": "view",
      "type": "function"
    },
    {
      "inputs": [],
      "name": "getPrepaymentAddress",
      "outputs": [
        {
          "internalType": "address",
          "name": "",
          "type": "address"
        }
      ],
      "stateMutability": "view",
      "type": "function"
    },
    {
      "inputs": [],
      "name": "getRequestConfig",
      "outputs": [
        {
          "internalType": "uint32",
          "name": "",
          "type": "uint32"
        },
        {
          "internalType": "bytes32[]",
          "name": "",
          "type": "bytes32[]"
        }
      ],
      "stateMutability": "view",
      "type": "function"
    },
    {
      "inputs": [
        {
          "internalType": "uint256[2]",
          "name": "publicKey",
          "type": "uint256[2]"
        }
      ],
      "name": "hashOfKey",
      "outputs": [
        {
          "internalType": "bytes32",
          "name": "",
          "type": "bytes32"
        }
      ],
      "stateMutability": "pure",
      "type": "function"
    },
    {
      "inputs": [
        {
          "internalType": "bytes32",
          "name": "keyHash",
          "type": "bytes32"
        }
      ],
      "name": "keyHashToOracles",
      "outputs": [
        {
          "internalType": "address[]",
          "name": "",
          "type": "address[]"
        }
      ],
      "stateMutability": "view",
      "type": "function"
    },
    {
      "inputs": [
        {
          "internalType": "address",
          "name": "oracle",
          "type": "address"
        }
      ],
      "name": "oracleToKeyHash",
      "outputs": [
        {
          "internalType": "bytes32",
          "name": "",
          "type": "bytes32"
        }
      ],
      "stateMutability": "view",
      "type": "function"
    },
    {
      "inputs": [],
      "name": "owner",
      "outputs": [
        {
          "internalType": "address",
          "name": "",
          "type": "address"
        }
      ],
      "stateMutability": "view",
      "type": "function"
    },
    {
      "inputs": [
        {
          "internalType": "address",
          "name": "consumer",
          "type": "address"
        },
        {
          "internalType": "uint64",
          "name": "accId",
          "type": "uint64"
        },
        {
          "internalType": "uint64",
          "name": "nonce",
          "type": "uint64"
        }
      ],
      "name": "pendingRequestExists",
      "outputs": [
        {
          "internalType": "bool",
          "name": "",
          "type": "bool"
        }
      ],
      "stateMutability": "view",
      "type": "function"
    },
    {
      "inputs": [
        {
          "internalType": "address",
          "name": "oracle",
          "type": "address"
        },
        {
          "internalType": "uint256[2]",
          "name": "publicProvingKey",
          "type": "uint256[2]"
        }
      ],
      "name": "registerOracle",
      "outputs": [],
      "stateMutability": "nonpayable",
      "type": "function"
    },
    {
      "inputs": [],
      "name": "renounceOwnership",
      "outputs": [],
      "stateMutability": "nonpayable",
      "type": "function"
    },
    {
      "inputs": [
        {
          "internalType": "bytes32",
          "name": "keyHash",
          "type": "bytes32"
        },
        {
          "internalType": "uint32",
          "name": "callbackGasLimit",
          "type": "uint32"
        },
        {
          "internalType": "uint32",
          "name": "numWords",
          "type": "uint32"
        },
        {
          "internalType": "address",
          "name": "refundRecipient",
          "type": "address"
        }
      ],
      "name": "requestRandomWords",
      "outputs": [
        {
          "internalType": "uint256",
          "name": "",
          "type": "uint256"
        }
      ],
      "stateMutability": "payable",
      "type": "function"
    },
    {
      "inputs": [
        {
          "internalType": "bytes32",
          "name": "keyHash",
          "type": "bytes32"
        },
        {
          "internalType": "uint64",
          "name": "accId",
          "type": "uint64"
        },
        {
          "internalType": "uint32",
          "name": "callbackGasLimit",
          "type": "uint32"
        },
        {
          "internalType": "uint32",
          "name": "numWords",
          "type": "uint32"
        }
      ],
      "name": "requestRandomWords",
      "outputs": [
        {
          "internalType": "uint256",
          "name": "",
          "type": "uint256"
        }
      ],
      "stateMutability": "nonpayable",
      "type": "function"
    },
    {
      "inputs": [
        {
          "internalType": "uint256",
          "name": "",
          "type": "uint256"
        }
      ],
      "name": "sKeyHashes",
      "outputs": [
        {
          "internalType": "bytes32",
          "name": "",
          "type": "bytes32"
        }
      ],
      "stateMutability": "view",
      "type": "function"
    },
    {
      "inputs": [
        {
          "internalType": "uint256",
          "name": "",
          "type": "uint256"
        }
      ],
      "name": "sOracles",
      "outputs": [
        {
          "internalType": "address",
          "name": "",
          "type": "address"
        }
      ],
      "stateMutability": "view",
      "type": "function"
    },
    {
      "inputs": [
        {
          "internalType": "uint32",
          "name": "maxGasLimit",
          "type": "uint32"
        },
        {
          "internalType": "uint32",
          "name": "gasAfterPaymentCalculation",
          "type": "uint32"
        },
        {
          "components": [
            {
              "internalType": "uint32",
              "name": "fulfillmentFlatFeeKlayPPMTier1",
              "type": "uint32"
            },
            {
              "internalType": "uint32",
              "name": "fulfillmentFlatFeeKlayPPMTier2",
              "type": "uint32"
            },
            {
              "internalType": "uint32",
              "name": "fulfillmentFlatFeeKlayPPMTier3",
              "type": "uint32"
            },
            {
              "internalType": "uint32",
              "name": "fulfillmentFlatFeeKlayPPMTier4",
              "type": "uint32"
            },
            {
              "internalType": "uint32",
              "name": "fulfillmentFlatFeeKlayPPMTier5",
              "type": "uint32"
            },
            {
              "internalType": "uint24",
              "name": "reqsForTier2",
              "type": "uint24"
            },
            {
              "internalType": "uint24",
              "name": "reqsForTier3",
              "type": "uint24"
            },
            {
              "internalType": "uint24",
              "name": "reqsForTier4",
              "type": "uint24"
            },
            {
              "internalType": "uint24",
              "name": "reqsForTier5",
              "type": "uint24"
            }
          ],
          "internalType": "struct ICoordinatorBase.FeeConfig",
          "name": "feeConfig",
          "type": "tuple"
        }
      ],
      "name": "setConfig",
      "outputs": [],
      "stateMutability": "nonpayable",
      "type": "function"
    },
    {
      "inputs": [
        {
          "internalType": "address",
          "name": "newOwner",
          "type": "address"
        }
      ],
      "name": "transferOwnership",
      "outputs": [],
      "stateMutability": "nonpayable",
      "type": "function"
    },
    {
      "inputs": [],
      "name": "typeAndVersion",
      "outputs": [
        {
          "internalType": "string",
          "name": "",
          "type": "string"
        }
      ],
      "stateMutability": "pure",
      "type": "function"
    }
  ],
  "transactionHash": "0x3499ada7f2e7a45dce5bb2bb3b3637aa67c5ab6967d318ff6dfa54cd6e9083df",
  "args": [
    "0xc2C88492Cf7e5240C3EB49353539E75336960600"
  ],
  "numDeployments": 3,
  "solcInputHash": "d643dfb4fd9af2eba004075813929e9c",
  "bytecode": "0x60806040523480156200001157600080fd5b506040516200469b3803806200469b8339810160408190526200003491620000e7565b6200003f3362000097565b600480546001600160a01b0319166001600160a01b0383169081179091556040519081527f9401527b1b86caed93cfabfbb71d3a9b28c5e923529aa86ebd183664194b013d9060200160405180910390a15062000119565b600080546001600160a01b038381166001600160a01b0319831681178455604051919092169283917f8be0079c531659141344cd1fd0a4f28419497f9722a3daafe3b4186f6b6457e09190a35050565b600060208284031215620000fa57600080fd5b81516001600160a01b03811681146200011257600080fd5b9392505050565b61457280620001296000396000f3fe6080604052600436106101955760003560e01c80635fbbc0d2116100e15780639ad6c3471161008a578063c3f909d411610064578063c3f909d414610555578063caf70c4a1461058b578063d98196b3146105ab578063f2fde38b146105cb57600080fd5b80639ad6c347146104f7578063a690d7ae14610517578063ab13d5851461053557600080fd5b8063786708e6116100bb578063786708e6146104855780638da5cb5b146104a55780638df4e3e2146104d757600080fd5b80635fbbc0d21461039357806369bcdb7d14610443578063715018a61461047057600080fd5b80633015394c116101435780633f1eef591161011d5780633f1eef591461032857806340d6bb82146103485780634682fdc31461037357600080fd5b80633015394c146102a557806330606753146102c55780633daa3fa9146102f257600080fd5b80631a892832116101745780631a892832146102335780631c72d32a146102635780632f34077b1461028557600080fd5b80620122911461019a5780630f52ffc6146101c6578063181f5a77146101e7575b600080fd5b3480156101a657600080fd5b506101af6105eb565b6040516101bd929190613937565b60405180910390f35b6101d96101d43660046139b4565b610657565b6040519081526020016101bd565b3480156101f357600080fd5b50604080518082018252601381527f565246436f6f7264696e61746f722076302e3100000000000000000000000000602082015290516101bd9190613a27565b34801561023f57600080fd5b5061025361024e366004613a70565b6108dd565b60405190151581526020016101bd565b34801561026f57600080fd5b5061028361027e366004613abb565b6109c6565b005b34801561029157600080fd5b506101d96102a0366004613af7565b610b40565b3480156102b157600080fd5b506102836102c0366004613b46565b610d67565b3480156102d157600080fd5b506102e56102e0366004613b46565b610e30565b6040516101bd9190613b5f565b3480156102fe57600080fd5b506101d961030d366004613bac565b6001600160a01b031660009081526009602052604090205490565b34801561033457600080fd5b506101d9610343366004613be7565b610e9f565b34801561035457600080fd5b5061035e6101f481565b60405163ffffffff90911681526020016101bd565b34801561037f57600080fd5b5061028361038e366004613daf565b6110c0565b34801561039f57600080fd5b506006546040805163ffffffff80841682526401000000008404811660208301526801000000000000000084048116928201929092526c01000000000000000000000000830482166060820152600160801b8304909116608082015262ffffff600160a01b8304811660a0830152600160b81b8304811660c0830152600160d01b8304811660e0830152600160e81b909204909116610100820152610120016101bd565b34801561044f57600080fd5b506101d961045e366004613b46565b60009081526002602052604090205490565b34801561047c57600080fd5b50610283611325565b34801561049157600080fd5b506102836104a0366004613ec7565b611339565b3480156104b157600080fd5b506000546001600160a01b03165b6040516001600160a01b0390911681526020016101bd565b3480156104e357600080fd5b506102836104f2366004613bac565b611585565b34801561050357600080fd5b506101d9610512366004613fb9565b611829565b34801561052357600080fd5b506004546001600160a01b03166104bf565b34801561054157600080fd5b506101d9610550366004613b46565b61186d565b34801561056157600080fd5b506005546040805163ffffffff8084168252650100000000009093049092166020830152016101bd565b34801561059757600080fd5b506101d96105a6366004613ff5565b61188e565b3480156105b757600080fd5b506104bf6105c6366004613b46565b6118be565b3480156105d757600080fd5b506102836105e6366004613bac565b6118e8565b600554600780546040805160208084028201810190925282815260009460609463ffffffff90911693909283919083018282801561064857602002820191906000526020600020905b815481526020019060010190808311610634575b50505050509050915091509091565b600554600090640100000000900460ff16156106865760405163769dd35360e11b815260040160405180910390fd5b600085815260086020526040902054859060ff166106bf5760405163c954459d60e01b8152600481018290526024015b60405180910390fd5b60006001816106cf81838a611829565b9050803410156106fb5760405163b99e2ab760e01b8152346004820152602481018290526044016106b6565b600480546040517f190118b700000000000000000000000000000000000000000000000000000000815233928101929092526000916001600160a01b039091169063190118b7906024016020604051808303816000875af1158015610764573d6000803e3d6000fd5b505050506040513d601f19601f820116820180604052508101906107889190614011565b90506001600061079b8c848d8d86611978565b600480546040517fc49910e40000000000000000000000000000000000000000000000000000000081529293506001600160a01b03169163c49910e49187916107f69188910167ffffffffffffffff91909116815260200190565b6000604051808303818588803b15801561080f57600080fd5b505af1158015610823573d6000803e3d6000fd5b5050505050600084346108369190614044565b905080156108cd5760008a6001600160a01b03168260405160006040518083038185875af1925050503d806000811461088b576040519150601f19603f3d011682016040523d82523d6000602084013e610890565b606091505b50509050806108cb576040517fef7a4b6100000000000000000000000000000000000000000000000000000000815260040160405180910390fd5b505b509b9a5050505050505050505050565b600754600090815b818110156109b857600061098a6007838154811061090557610905614057565b60009182526020918290200154604080518084018390526001600160a01b038c168183015267ffffffffffffffff808c1660608301528a166080808301919091528251808303909101815260a08201835280519085012060c082019390935260e080820184905282518083039091018152610100909101909152805192019190912091565b50905061099681611cf7565b156109a757600193505050506109bf565b506109b18161406d565b90506108e5565b5060009150505b9392505050565b6109ce611d20565b6001600160a01b03821660009081526009602052604090205415610a29576040517f6ff7406a0000000000000000000000000000000000000000000000000000000081526001600160a01b03831660048201526024016106b6565b604080518082018252600091610a5891908490600290839083908082843760009201919091525061188e915050565b60008181526008602052604090205490915060ff16610abf576000818152600860205260408120805460ff191660019081179091556007805491820181559091527fa66cc928b5edb82af9bd49922954155ab7b0942694bea4ce44661d9a8736c688018190555b600081815260086020908152604080832060019081018054918201815584528284200180546001600160a01b0319166001600160a01b0388169081179091558084526009835292819020849055518381527fce101eec32f4eac5c706f4787816f1ba1a22a255a40a8f425d339e0011b946ed910160405180910390a2505050565b600554600090640100000000900460ff1615610b6f5760405163769dd35360e11b815260040160405180910390fd5b600085815260086020526040902054859060ff16610ba35760405163c954459d60e01b8152600481018290526024016106b6565b60048054604051633bd7108d60e11b815267ffffffffffffffff881692810192909252600091829182916001600160a01b03909116906377ae211a90602401600060405180830381865afa158015610bff573d6000803e3d6000fd5b505050506040513d6000823e601f3d908101601f19168201604052610c279190810190614091565b600480546040517f5e42205c0000000000000000000000000000000000000000000000000000000081529699509497509095506000946001600160a01b0390941693635e42205c9350610c8d92508d910167ffffffffffffffff91909116815260200190565b602060405180830381865afa158015610caa573d6000803e3d6000fd5b505050506040513d601f19601f82011682018060405250810190610cce9190614187565b905080610d07576040517fb3c2774700000000000000000000000000000000000000000000000000000000815260040160405180910390fd5b60016000610d1885838c8e88610e9f565b905080861015610d455760405163b99e2ab760e01b815260048101879052602481018290526044016106b6565b600080610d558e8e8e8e86611978565b9e9d5050505050505050505050505050565b610d7081611cf7565b610d8d57604051631b44092560e11b815260040160405180910390fd5b6000818152600360205260409020546001600160a01b03163314610ddd576040517f517907dd00000000000000000000000000000000000000000000000000000000815260040160405180910390fd5b6000818152600260209081526040808320839055600390915280822080546001600160a01b03191690555182917f6187bf55f2675dbecee951f81c92ecac87f54ed5bf888d31b09e634749b848ef91a250565b600081815260086020908152604091829020600101805483518184028101840190945280845260609392830182828015610e9357602002820191906000526020600020905b81546001600160a01b03168152600190910190602001808311610e75575b50505050509050919050565b60048054604051638a522dbb60e01b815267ffffffffffffffff85169281019290925260009182916001600160a01b031690638a522dbb90602401608060405180830381865afa158015610ef7573d6000803e3d6000fd5b505050506040513d601f19601f82011682018060405250810190610f1b91906141a4565b93506000925060039150610f2c9050565b846004811115610f3e57610f3e6141da565b03610ff057600480546040516312e7400160e11b815267ffffffffffffffff8816928101929092526000916001600160a01b03909116906325ce800290602401602060405180830381865afa158015610f9b573d6000803e3d6000fd5b505050506040513d601f19601f82011682018060405250810190610fbf91906141f0565b90506000610fce8a8a8a611829565b9050612710610fdd8383614209565b610fe7919061423e565b925050506110b3565b6002846004811115611004576110046141da565b0361108c576004805460405163f1b04d2b60e01b815267ffffffffffffffff8816928101929092526001600160a01b03169063f1b04d2b90602401602060405180830381865afa15801561105c573d6000803e3d6000fd5b505050506040513d601f19601f820116820180604052508101906110809190614187565b6110875750805b6110b3565b60048460048111156110a0576110a06141da565b036110b3576110b0888888611829565b90505b9150505b95945050505050565b600554640100000000900460ff16156110ec5760405163769dd35360e11b815260040160405180910390fd5b60005a90506000806110fe8686611d7a565b915091506000856060015163ffffffff1667ffffffffffffffff81111561112757611127613c54565b604051908082528060200260200182016040528015611150578160200160208202803683370190505b50905060005b866060015163ffffffff168110156111c45760408051602081018590529081018290526060016040516020818303038152906040528051906020012060001c8282815181106111a7576111a7614057565b6020908102919091010152806111bc8161406d565b915050611156565b506000838152600260209081526040808320839055600390915280822080546001600160a01b0319169055517f1fe543e300000000000000000000000000000000000000000000000000000000906112229086908590602401614252565b60408051601f198184030181529181526020820180517bffffffffffffffffffffffffffffffffffffffffffffffffffffffff167fffffffff00000000000000000000000000000000000000000000000000000000909416939093179092526005805464ff0000000019166401000000001790559088015160808901519192506000916112b69163ffffffff169084611f60565b6005805464ff0000000019169055905060006112d3898989611fac565b604080518781526020810183905284151581830152905191925087917f221ad2e5b871cead1dd7f75c2fb223c0cfa34bdc049a15f3f82a1f0e943e605a9181900360600190a250505050505050505050565b61132d611d20565b611337600061227a565b565b611341611d20565b604080516060808201835263ffffffff86811680845260006020808601919091528783169486018590526005805468ffffffffffffffffff191690921765010000000000909502949094179055845160068054948701518787015194880151608089015160a08a015160c08b015160e08c01516101008d015197891667ffffffffffffffff19909b169a909a1764010000000095891695909502949094177fffffffffffffffffffffffffffffffff0000000000000000ffffffffffffffff1668010000000000000000988816989098027fffffffffffffffffffffffffffffffff00000000ffffffffffffffffffffffff16979097176c0100000000000000000000000092871692909202919091177fffffffffffffffffff00000000000000ffffffffffffffffffffffffffffffff16600160801b91909516027fffffffffffffffffff000000ffffffffffffffffffffffffffffffffffffffff1693909317600160a01b62ffffff95861602177fffffff000000000000ffffffffffffffffffffffffffffffffffffffffffffff16600160b81b938516939093027fffffff000000ffffffffffffffffffffffffffffffffffffffffffffffffffff1692909217600160d01b94841694909402939093177cffffffffffffffffffffffffffffffffffffffffffffffffffffffffff16600160e81b929093169190910291909117815590517f107fdd8d898f7a380d4a448bb9882a3e1bb767bd803a09721d828b4ce217b04391611578918691869161428f565b60405180910390a1505050565b61158d611d20565b6001600160a01b0381166000908152600960205260409020548015806115c2575060008181526008602052604090205460ff16155b15611604576040517ff9a0ffdf0000000000000000000000000000000000000000000000000000000081526001600160a01b03831660048201526024016106b6565b6001600160a01b038216600090815260096020908152604080832083905583835260089091528120600101805490915b818110156117df57846001600160a01b031683828154811061165857611658614057565b6000918252602090912001546001600160a01b0316036117cf57600083611680600185614044565b8154811061169057611690614057565b9060005260206000200160009054906101000a90046001600160a01b03169050808483815481106116c3576116c3614057565b9060005260206000200160006101000a8154816001600160a01b0302191690836001600160a01b03160217905550838054806117015761170161434c565b600082815260209020810160001990810180546001600160a01b031916905501905560018390036117c9576000600761173b600186614044565b8154811061174b5761174b614057565b90600052602060002001549050806007848154811061176c5761176c614057565b60009182526020909120015560078054806117895761178961434c565b6000828152602080822083016000199081018390559092019092558782526008905260408120805460ff19168155906117c560018301826138e2565b5050505b506117df565b6117d88161406d565b9050611634565b50836001600160a01b03167f3e6c1c138f1fadbf95c3a196321f05d653b3a60d33ceccf1af9507321e087bbd8460405161181b91815260200190565b60405180910390a250505050565b6000808360ff16611839866122ca565b6118439190614209565b9050600061185763ffffffff85163a614209565b90506118638183614362565b9695505050505050565b6007818154811061187d57600080fd5b600091825260209091200154905081565b6000816040516020016118a19190614375565b604051602081830303815290604052805190602001209050919050565b600181815481106118ce57600080fd5b6000918252602090912001546001600160a01b0316905081565b6118f0611d20565b6001600160a01b03811661196c5760405162461bcd60e51b815260206004820152602660248201527f4f776e61626c653a206e6577206f776e657220697320746865207a65726f206160448201527f646472657373000000000000000000000000000000000000000000000000000060648201526084016106b6565b6119758161227a565b50565b600480546040517f734e892a00000000000000000000000000000000000000000000000000000000815267ffffffffffffffff8716928101929092523360248301526000916001600160a01b039091169063734e892a90604401602060405180830381865afa1580156119ef573d6000803e3d6000fd5b505050506040513d601f19601f82011682018060405250810190611a139190614187565b611a5b576040517ff0019fe600000000000000000000000000000000000000000000000000000000815267ffffffffffffffff861660048201523360248201526044016106b6565b60055463ffffffff9081169085161115611ab5576005546040517ff5d7e01e00000000000000000000000000000000000000000000000000000000815263ffffffff808716600483015290911660248201526044016106b6565b6101f463ffffffff84161115611b07576040517f47386bec00000000000000000000000000000000000000000000000000000000815263ffffffff841660048201526101f460248201526044016106b6565b600480546040517fa8329c0500000000000000000000000000000000000000000000000000000000815267ffffffffffffffff8816928101929092523360248301526000916001600160a01b039091169063a8329c05906044016020604051808303816000875af1158015611b80573d6000803e3d6000fd5b505050506040513d601f19601f82011682018060405250810190611ba49190614011565b6040805160208082018b90523382840181905267ffffffffffffffff8b8116606085018190529086166080808601919091528551808603909101815260a08501865280519084012060c085018e905260e08086018290528651808703909101815261010086018752805190850120610120860181905243610140870152610160860183905263ffffffff8d81166101808801819052908d166101a088018190526101c08089018790528951808a0390910181526101e08901808b52815191890191909120600085815260028a528b81209190915560039098529689902080546001600160a01b031916871790559582905261020087018390526102208701526102408601949094528915156102608601529451959650919490928c917f88c0534cab9d18b5e2f8fb9a9d142426403b507f2343cfaafe6cfe45e9900e30918190036102800190a450979650505050505050565b60008181526002602052604081205415611d1357506001919050565b506000919050565b919050565b6000546001600160a01b031633146113375760405162461bcd60e51b815260206004820181905260248201527f4f776e61626c653a2063616c6c6572206973206e6f7420746865206f776e657260448201526064016106b6565b6000806000611d8c856000015161188e565b336000908152600960205260409020549091508114611dda576040517f77f5b84c000000000000000000000000000000000000000000000000000000008152600481018290526024016106b6565b6040808601518151602081018490529182015260600160408051601f198184030181529181528151602092830120600081815260029093529082205490945090819003611e3a57604051631b44092560e11b815260040160405180910390fd5b611ebc8486600001518760200151886040015189606001518a60800151604080516020808201989098528082019690965267ffffffffffffffff94909416606086015263ffffffff9283166080860152911660a08401526001600160a01b031660c0808401919091528151808403909101815260e09092019052805191012090565b8114611ef4576040517fd529142c00000000000000000000000000000000000000000000000000000000815260040160405180910390fd5b84516040808801519051914091600091611f1b918490602001918252602082015260400190565b60408051601f19818403018152828252805160209182012090830152016040516020818303038152906040529050611f5388826122ed565b9450505050509250929050565b60005a611388811015611f7257600080fd5b611388810390508460408204820311611f8a57600080fd5b50823b611f9657600080fd5b60008083516020850160008789f1949350505050565b600082156120e3576004805460208601516040517fc9d2d7bf00000000000000000000000000000000000000000000000000000000815260009384936001600160a01b03169263c9d2d7bf92612012920167ffffffffffffffff91909116815260200190565b60408051808303816000875af1158015612030573d6000803e3d6000fd5b505050506040513d601f19601f82011682018060405250810190612054919061439d565b909250905080156120db57600480546040517f6b19a19d0000000000000000000000000000000000000000000000000000000081529182018390523360248301526001600160a01b031690636b19a19d90604401600060405180830381600087803b1580156120c257600080fd5b505af11580156120d6573d6000803e3d6000fd5b505050505b5090506109bf565b60006120f785602001518660600151612345565b90508015612270576004805460208701516040517f57f2eda700000000000000000000000000000000000000000000000000000000815267ffffffffffffffff90911692810192909252602482018390526000916001600160a01b03909116906357f2eda7906044016020604051808303816000875af115801561217f573d6000803e3d6000fd5b505050506040513d601f19601f820116820180604052508101906121a391906141f0565b905060006121b085612776565b905060006121be8284614362565b9050801561225b576004805460208a01516040517f82e7b38c00000000000000000000000000000000000000000000000000000000815267ffffffffffffffff90911692810192909252602482018390523360448301526001600160a01b0316906382e7b38c90606401600060405180830381600087803b15801561224257600080fd5b505af1158015612256573d6000803e3d6000fd5b505050505b6122658285614362565b9450505050506109bf565b60009150506109bf565b600080546001600160a01b038381166001600160a01b0319831681178455604051919092169283917f8be0079c531659141344cd1fd0a4f28419497f9722a3daafe3b4186f6b6457e09190a35050565b6000806122d6836127aa565b90506109bf63ffffffff821664e8d4a51000614209565b600061230c83600001518460200151848660600151876080015161293c565b50505060209081015180519082015160408051808501939093528281019190915280518083038201815260609092019052805191012090565b60048054604051633bd7108d60e11b815267ffffffffffffffff851692810192909252600091829182916001600160a01b03909116906377ae211a90602401600060405180830381865afa1580156123a1573d6000803e3d6000fd5b505050506040513d6000823e601f3d908101601f191682016040526123c99190810190614091565b60048054604051638a522dbb60e01b815267ffffffffffffffff8d1692810192909252949750909550600094506001600160a01b0390931692638a522dbb92506024019050608060405180830381865afa15801561242b573d6000803e3d6000fd5b505050506040513d601f19601f8201168201806040525081019061244f91906141a4565b93506001925061245d915050565b82600481111561246f5761246f6141da565b036124e85760048054604051631e4c2cb760e11b815267ffffffffffffffff8916928101929092526001600160a01b031690633c98596e90602401600060405180830381600087803b1580156124c457600080fd5b505af11580156124d8573d6000803e3d6000fd5b5050505060009350505050612770565b60028260048111156124fc576124fc6141da565b0361256a5760048054604051631e4c2cb760e11b815267ffffffffffffffff8916928101929092526001600160a01b031690633c98596e90602401600060405180830381600087803b15801561255157600080fd5b505af1158015612565573d6000803e3d6000fd5b505050505b60008563ffffffff1661257c856122ca565b6125869190614209565b9050600283600481111561259c5761259c6141da565b036126b4576004805460405163f1b04d2b60e01b815267ffffffffffffffff8a16928101929092526001600160a01b03169063f1b04d2b90602401602060405180830381865afa1580156125f4573d6000803e3d6000fd5b505050506040513d601f19601f820116820180604052508101906126189190614187565b6126a75750600480546040517f7b3d789500000000000000000000000000000000000000000000000000000000815267ffffffffffffffff89169281019290925282916001600160a01b0390911690637b3d789590602401600060405180830381600087803b15801561268a57600080fd5b505af115801561269e573d6000803e3d6000fd5b50505050612761565b6000945050505050612770565b60038360048111156126c8576126c86141da565b0361276157600480546040516312e7400160e11b815267ffffffffffffffff8a1692810192909252612710916001600160a01b03909116906325ce800290602401602060405180830381865afa158015612726573d6000803e3d6000fd5b505050506040513d601f19601f8201168201806040525081019061274a91906141f0565b6127549083614209565b61275e919061423e565b90505b935061277092505050565b5050505b92915050565b60005a60055461279690849065010000000000900463ffffffff16614362565b6127a09190614044565b612770903a614209565b604080516101208101825260065463ffffffff80821683526401000000008204811660208401526801000000000000000082048116938301939093526c01000000000000000000000000810483166060830152600160801b8104909216608082015262ffffff600160a01b8304811660a08301819052600160b81b8404821660c0840152600160d01b8404821660e0840152600160e81b9093041661010082015260009167ffffffffffffffff841611612865575192915050565b8267ffffffffffffffff168160a0015162ffffff1610801561289a57508060c0015162ffffff168367ffffffffffffffff1611155b156128a9576020015192915050565b8267ffffffffffffffff168160c0015162ffffff161080156128de57508060e0015162ffffff168367ffffffffffffffff1611155b156128ed576040015192915050565b8267ffffffffffffffff168160e0015162ffffff16108015612923575080610100015162ffffff168367ffffffffffffffff1611155b15612932576060015192915050565b6080015192915050565b600080600061294b8887612a47565b606089015160408a01518b5160208d8101518b51918c01519698509496506129799593949293919291612baf565b15806129a057506060870151845161299e9190849084908860015b6020020151612cf7565b155b806129c65750604080880151885160208a0151928701516129c49390886003612994565b155b156129d6576000925050506110b7565b83516020850151604086015160608701516000938493612a02939192909190856401000003d019612dce565b8a516020808d01518b51918c0151949650929450600093612a2a938993899390928989612e03565b6040909a015160809a909a1c9099149a9950505050505050505050565b6000808060fe6001612a66878460200201518860016020020151612ec2565b86604051602001612a7a94939291906143c1565b604051602081830303815290604052905060005b6101008160ff161015612b5f576000600283836000604051602001612ab593929190614418565b60408051601f1981840301815290829052612acf91614454565b602060405180830381855afa158015612aec573d6000803e3d6000fd5b5050506040513d601f19601f82011682018060405250810190612b0f91906141f0565b9050806000612b1f600283612f18565b9050612b368282600060076401000003d019612f2f565b15612b49579095509350612ba892505050565b5050508080612b5790614470565b915050612a8e565b5060405162461bcd60e51b815260206004820152601860248201527f4e6f2076616c696420706f696e742077617320666f756e64000000000000000060448201526064016106b6565b9250929050565b60008070014551231950b75fc4402da1732fc9bebe19612bcf8982614044565b612bd9919061448f565b905070014551231950b75fc4402da1732fc9bebe198682099050600070014551231950b75fc4402da1732fc9bebe19612c128982614044565b612c1c919061448f565b90506000600183612c2e60028a61448f565b600003612c3c57601b612c3f565b601c5b8a70014551231950b75fc4402da1732fc9bebe198c87096040805160008152602081018083529590955260ff909316928401929092526060830152608082015260a0016020604051602081039080840390855afa158015612ca4573d6000803e3d6000fd5b505060408051601f1981015160208083019a909a5281830198909852815180820383018152606090910190915280519701969096206001600160a01b039081169516949094149998505050505050505050565b600080600181612d0860028861448f565b600003612d1657601b612d19565b601c5b8870014551231950b75fc4402da1732fc9bebe198a8c096040805160008152602081018083529590955260ff909316928401929092526060830152608082015260a0016020604051602081039080840390855afa158015612d7e573d6000803e3d6000fd5b505060408051601f1981015160208083019890985281830196909652815180820383018152606090910190915280519501949094206001600160a01b039081169316929092149695505050505050565b600080600080612ddf888887612fe8565b91509150612df18a8a84848a8a61300d565b9350935050505b965096945050505050565b60008060fe6002612e148c8c612ec2565b612e1e8b8b612ec2565b612e288a8a612ec2565b612e328989612ec2565b6000604051602001612e4a97969594939291906144a3565b60405160208183030381529060405290506000600282604051612e6d9190614454565b602060405180830381855afa158015612e8a573d6000803e3d6000fd5b5050506040513d601f19601f82011682018060405250810190612ead91906141f0565b6040518190529b9a5050505050505050505050565b60606000612ed160028461448f565b612edc906002614362565b6040516001600160f81b031960f883901b1660208201526021810186905290915060410160405160208183030381529060405291505092915050565b60006109bf8383600060076401000003d019613094565b6000851580612f3e5750818610155b80612f47575084155b80612f525750818510155b15612f5f575060006110b7565b60008280612f6f57612f6f614228565b868709905060008380612f8457612f84614228565b888580612f9357612f93614228565b8a8b090990508515612fc3578380612fad57612fad614228565b8480612fbb57612fbb614228565b878a09820890505b8415612fdd578380612fd757612fd7614228565b85820890505b149695505050505050565b6000808483612ff78682614044565b613001919061448f565b91509150935093915050565b6000806000806000888b0361305d57858061302a5761302a614228565b888b086000036130435760008094509450505050612df8565b6130518b8b60018a8a6131cf565b91945092509050613076565b61306e8b8b60018c8c60018c613372565b919450925090505b613082838383896136a5565b94509450505050965096945050505050565b60008560ff16600214806130ab57508560ff166003145b61311d5760405162461bcd60e51b815260206004820152602260248201527f496e76616c696420636f6d7072657373656420454320706f696e74207072656660448201527f697800000000000000000000000000000000000000000000000000000000000060648201526084016106b6565b6000828061312d5761312d614228565b838061313b5761313b614228565b85858061314a5761314a614228565b888a0908848061315c5761315c614228565b858061316a5761316a614228565b898a098909089050613193816004613183866001614362565b61318d919061423e565b85613714565b9050600060026131a660ff8a1684614362565b6131b0919061448f565b156131c4576131bf8285614044565b6110b0565b509695505050505050565b6000806000856000036131e9575086915085905084613367565b600084806131f9576131f9614228565b898a0990506000858061320e5761320e614228565b898a0990506000868061322357613223614228565b898a0990506000878061323857613238614228565b888061324657613246614228565b848e0960040990506000888061325e5761325e614228565b898061326c5761326c614228565b8a8061327a5761327a614228565b8586098c098a8061328d5761328d614228565b8760030908905088806132a2576132a2614228565b89806132b0576132b0614228565b8384086132bd908b614044565b8a806132cb576132cb614228565b83840908945088806132df576132df614228565b89806132ed576132ed614228565b8a806132fb576132fb614228565b86870960080961330b908b614044565b8a8061331957613319614228565b8b8061332757613327614228565b613331898e614044565b86088409089350888061334657613346614228565b898061335457613354614228565b8c8e096002099497509295509293505050505b955095509592505050565b6000808089158015613382575088155b15613394575085915084905083613698565b861580156133a0575085155b156133b2575088915087905086613698565b6133ba613900565b84806133c8576133c8614228565b898a09815284806133db576133db614228565b81518a09602082015284806133f2576133f2614228565b8687096040820152848061340857613408614228565b604082015187096060820152604080516080810190915280868061342e5761342e614228565b60408401518e098152602001868061344857613448614228565b60608401518d098152602001868061346257613462614228565b83518b098152602001868061347957613479614228565b60208401518a099052604081015181519192501415806134a157506060810151602082015114155b6134ed5760405162461bcd60e51b815260206004820152601e60248201527f557365206a6163446f75626c652066756e6374696f6e20696e7374656164000060448201526064016106b6565b6134f5613900565b858061350357613503614228565b825161350f9088614044565b6040840151088152858061352557613525614228565b60208301516135349088614044565b6060840151086020820152858061354d5761354d614228565b815180096040820152858061356457613564614228565b815160408301510960608201526000868061358157613581614228565b60608301516135909089614044565b888061359e5761359e614228565b6020850151800908905086806135b6576135b6614228565b87806135c4576135c4614228565b88806135d2576135d2614228565b60408501518651096002096135e79089614044565b82089050600087806135fb576135fb614228565b888061360957613609614228565b613613848b614044565b8a8061362157613621614228565b6040870151885109086020850151099050878061364057613640614228565b888061364e5761364e614228565b6060850151602087015109613663908a614044565b820890506000888061367757613677614228565b898061368557613685614228565b8b8f098551099297509095509093505050505b9750975097945050505050565b60008060006136b48585613807565b9050600084806136c6576136c6614228565b8283099050600085806136db576136db614228565b828a099050600086806136f0576136f0614228565b87806136fe576136fe614228565b8486098a09919a91995090975050505050505050565b6000816000036137665760405162461bcd60e51b815260206004820152600f60248201527f4d6f64756c7573206973207a65726f000000000000000000000000000000000060448201526064016106b6565b83600003613776575060006109bf565b82600003613786575060016109bf565b60017f80000000000000000000000000000000000000000000000000000000000000005b80156137fe57838186161515870a85848509099150836002820486161515870a85848509099150836004820486161515870a85848509099150836008820486161515870a85848509099150601090046137aa565b50949350505050565b600082158015906138185750818314155b801561382357508115155b61386f5760405162461bcd60e51b815260206004820152600e60248201527f496e76616c6964206e756d62657200000000000000000000000000000000000060448201526064016106b6565b6000600183825b86156138d757613886878361423e565b905082868061389757613897614228565b87806138a5576138a5614228565b8584096138b29089614044565b86089094509250866138c48183614209565b6138ce9084614044565b97509150613876565b509195945050505050565b5080546000825590600052602060002090810190611975919061391e565b60405180608001604052806004906020820280368337509192915050565b5b80821115613933576000815560010161391f565b5090565b60006040820163ffffffff851683526020604081850152818551808452606086019150828701935060005b8181101561397e57845183529383019391830191600101613962565b5090979650505050505050565b803563ffffffff81168114611d1b57600080fd5b6001600160a01b038116811461197557600080fd5b600080600080608085870312156139ca57600080fd5b843593506139da6020860161398b565b92506139e86040860161398b565b915060608501356139f88161399f565b939692955090935050565b60005b83811015613a1e578181015183820152602001613a06565b50506000910152565b6020815260008251806020840152613a46816040850160208701613a03565b601f01601f19169190910160400192915050565b67ffffffffffffffff8116811461197557600080fd5b600080600060608486031215613a8557600080fd5b8335613a908161399f565b92506020840135613aa081613a5a565b91506040840135613ab081613a5a565b809150509250925092565b60008060608385031215613ace57600080fd5b8235613ad98161399f565b915060608301841015613aeb57600080fd5b50926020919091019150565b60008060008060808587031215613b0d57600080fd5b843593506020850135613b1f81613a5a565b9250613b2d6040860161398b565b9150613b3b6060860161398b565b905092959194509250565b600060208284031215613b5857600080fd5b5035919050565b6020808252825182820181905260009190848201906040850190845b81811015613ba05783516001600160a01b031683529284019291840191600101613b7b565b50909695505050505050565b600060208284031215613bbe57600080fd5b81356109bf8161399f565b803560ff81168114611d1b57600080fd5b6005811061197557600080fd5b600080600080600060a08688031215613bff57600080fd5b8535613c0a81613a5a565b9450613c1860208701613bc9565b9350613c266040870161398b565b92506060860135613c3681613a5a565b91506080860135613c4681613bda565b809150509295509295909350565b634e487b7160e01b600052604160045260246000fd5b60405160a0810167ffffffffffffffff81118282101715613c8d57613c8d613c54565b60405290565b604051610120810167ffffffffffffffff81118282101715613c8d57613c8d613c54565b604051601f8201601f1916810167ffffffffffffffff81118282101715613ce057613ce0613c54565b604052919050565b600082601f830112613cf957600080fd5b6040516040810181811067ffffffffffffffff82111715613d1c57613d1c613c54565b8060405250806040840185811115613d3357600080fd5b845b818110156138d7578035835260209283019201613d35565b600082601f830112613d5e57600080fd5b6040516080810181811067ffffffffffffffff82111715613d8157613d81613c54565b604052806080840185811115613d3357600080fd5b801515811461197557600080fd5b8035611d1b81613d96565b6000806000838503610260811215613dc657600080fd5b6101a080821215613dd657600080fd5b613dde613c6a565b613de88888613ce8565b8152613df78860408901613d4d565b602082015260c08701356040820152613e138860e08901613ce8565b6060820152613e26886101208901613d4d565b6080820152945060a061019f1983011215613e4057600080fd5b613e48613c6a565b90860135815290506101c0850135613e5f81613a5a565b6020820152613e716101e0860161398b565b6040820152613e83610200860161398b565b6060820152610220850135613e978161399f565b60808201529150613eab6102408501613da4565b90509250925092565b803562ffffff81168114611d1b57600080fd5b6000806000838503610160811215613ede57600080fd5b613ee78561398b565b9350613ef56020860161398b565b925061012080603f1983011215613f0b57600080fd5b613f13613c93565b9150613f216040870161398b565b8252613f2f6060870161398b565b6020830152613f406080870161398b565b6040830152613f5160a0870161398b565b6060830152613f6260c0870161398b565b6080830152613f7360e08701613eb4565b60a0830152610100613f86818801613eb4565b60c0840152613f96828801613eb4565b60e0840152613fa86101408801613eb4565b818401525050809150509250925092565b600080600060608486031215613fce57600080fd5b8335613fd981613a5a565b9250613fe760208501613bc9565b9150613eab6040850161398b565b60006040828403121561400757600080fd5b6109bf8383613ce8565b60006020828403121561402357600080fd5b81516109bf81613a5a565b634e487b7160e01b600052601160045260246000fd5b818103818111156127705761277061402e565b634e487b7160e01b600052603260045260246000fd5b60006001820161407f5761407f61402e565b5060010190565b8051611d1b81613bda565b600080600080600060a086880312156140a957600080fd5b855194506020808701516140bc81613a5a565b60408801519095506140cd8161399f565b606088015190945067ffffffffffffffff808211156140eb57600080fd5b818901915089601f8301126140ff57600080fd5b81518181111561411157614111613c54565b8060051b9150614122848301613cb7565b818152918301840191848101908c84111561413c57600080fd5b938501935b8385101561416657845192506141568361399f565b8282529385019390850190614141565b80975050505050505061417b60808701614086565b90509295509295909350565b60006020828403121561419957600080fd5b81516109bf81613d96565b600080600080608085870312156141ba57600080fd5b505082516020840151604085015160609095015191969095509092509050565b634e487b7160e01b600052602160045260246000fd5b60006020828403121561420257600080fd5b5051919050565b60008160001904831182151516156142235761422361402e565b500290565b634e487b7160e01b600052601260045260246000fd5b60008261424d5761424d614228565b500490565b8281526040602080830182905283519183018290526000918482019190606085019084811561397e57845183529383019391830191600101613962565b63ffffffff8481168252838116602083015282548082166040840152610160830191906142c960608501838360201c1663ffffffff169052565b6142e060808501838360401c1663ffffffff169052565b6142f760a08501838360601c1663ffffffff169052565b61430e60c08501838360801c1663ffffffff169052565b62ffffff60a082901c811660e086015260b882901c811661010086015260d082901c1661012085015260e81c61014090930192909252949350505050565b634e487b7160e01b600052603160045260246000fd5b808201808211156127705761277061402e565b60408101818360005b600281101561276c57815183526020928301929091019060010161437e565b600080604083850312156143b057600080fd5b505080516020909101519092909150565b60006001600160f81b0319808760f81b168352808660f81b1660018401525083516143f3816002850160208801613a03565b83519083019061440a816002840160208801613a03565b016002019695505050505050565b6000845161442a818460208901613a03565b6001600160f81b031960f895861b8116919093019081529290931b16600182015260020192915050565b60008251614466818460208701613a03565b9190910192915050565b600060ff821660ff81036144865761448661402e565b60010192915050565b60008261449e5761449e614228565b500690565b60006001600160f81b0319808a60f81b168352808960f81b16600184015287516144d4816002860160208c01613a03565b8751908401906144eb816002840160208c01613a03565b8751910190614501816002840160208b01613a03565b8651910190614517816002840160208a01613a03565b808201915050818560f81b16600282015260038101925050509897505050505050505056fea2646970667358221220ad87999c9b0092580ee92225bfcde4b5d5b3457a7941468ddf444fc1b0f63e3364736f6c63430008100033",
  "devdoc": {
    "author": "Bisonai",
    "kind": "dev",
    "methods": {
      "cancelRequest(uint256)": {
        "params": {
          "requestId": "- ID of the Oracle Request"
        }
      },
      "deregisterOracle(address)": {
        "params": {
          "oracle": "address representing oracle that can submit VRF fulfillments"
        }
      },
      "getCommitment(uint256)": {
        "params": {
          "requestId": "id of request"
        },
        "returns": {
          "_0": "commmitment value that can be used to determine whether a request is fulfilled or not. If `requestId` is valid and commitment equals to bytes32(0), the request was fulfilled."
        }
      },
      "getPrepaymentAddress()": {
        "returns": {
          "_0": "prepayment address"
        }
      },
      "getRequestConfig()": {
        "returns": {
          "_0": "maxGasLimit global max for request gas limit",
          "_1": "sKeyHashes list of registered key hashes"
        }
      },
      "hashOfKey(uint256[2])": {
        "params": {
          "publicKey": "the key to return the hash of"
        }
      },
      "keyHashToOracles(bytes32)": {
        "returns": {
          "_0": "oracle addresses"
        }
      },
      "oracleToKeyHash(address)": {
        "returns": {
          "_0": "keyhash"
        }
      },
      "owner()": {
        "details": "Returns the address of the current owner."
      },
      "pendingRequestExists(address,uint64,uint64)": {
        "params": {
          "accId": "- ID of the account"
        },
        "returns": {
          "_0": "true if there exists at least one unfulfilled request for the account, false otherwise."
        }
      },
      "registerOracle(address,uint256[2])": {
        "params": {
          "oracle": "address of the oracle",
          "publicProvingKey": "key that oracle can use to submit VRF fulfillments"
        }
      },
      "renounceOwnership()": {
        "details": "Leaves the contract without owner. It will not be possible to call `onlyOwner` functions anymore. Can only be called by the current owner. NOTE: Renouncing ownership will leave the contract without an owner, thereby removing any functionality that is only available to the owner."
      },
      "requestRandomWords(bytes32,uint32,uint32,address)": {
        "params": {
          "callbackGasLimit": "- How much gas you'd like to receive in your fulfillRandomWords callback. Note that gasleft() inside fulfillRandomWords may be slightly less than this amount because of gas used calling the function (argument decoding etc.), so you may need to request slightly more than you expect to have inside fulfillRandomWords. The acceptable range is [0, maxGasLimit]",
          "keyHash": "- Corresponds to a particular oracle job which uses that key for generating the VRF proof. Different keyHash's have different gas price ceilings, so you can select a specific one to bound your maximum per request cost.",
          "numWords": "- The number of uint256 random values you'd like to receive in your fulfillRandomWords callback. Note these numbers are expanded in a secure way by the VRFCoordinator from a single random value supplied by the oracle.",
          "refundRecipient": "recipient of an extra $KLAY amount that was sent together with service request"
        },
        "returns": {
          "_0": "- A unique identifier of the request. Can be used to match a request to a response in fulfillRandomWords."
        }
      },
      "requestRandomWords(bytes32,uint64,uint32,uint32)": {
        "params": {
          "accId": "- The ID of the account. Must be funded with the minimum account balance required for the selected keyHash.",
          "callbackGasLimit": "- How much gas you'd like to receive in your fulfillRandomWords callback. Note that gasleft() inside fulfillRandomWords may be slightly less than this amount because of gas used calling the function (argument decoding etc.), so you may need to request slightly more than you expect to have inside fulfillRandomWords. The acceptable range is [0, maxGasLimit]",
          "keyHash": "- Corresponds to a particular oracle job which uses that key for generating the VRF proof. Different keyHash's have different gas price ceilings, so you can select a specific one to bound your maximum per request cost.",
          "numWords": "- The number of uint256 random values you'd like to receive in your fulfillRandomWords callback. Note these numbers are expanded in a secure way by the VRFCoordinator from a single random value supplied by the oracle."
        },
        "returns": {
          "_0": "- A unique identifier of the request. Can be used to match a request to a response in fulfillRandomWords."
        }
      },
      "setConfig(uint32,uint32,(uint32,uint32,uint32,uint32,uint32,uint24,uint24,uint24,uint24))": {
        "params": {
          "feeConfig": "fee tier configuration",
          "gasAfterPaymentCalculation": "gas used in doing accounting after completing the gas measurement",
          "maxGasLimit": "global max for request gas limit"
        }
      },
      "transferOwnership(address)": {
        "details": "Transfers ownership of the contract to a new account (`newOwner`). Can only be called by the current owner."
      },
      "typeAndVersion()": {
        "returns": {
          "_0": "Type and version string"
        }
      }
    },
    "title": "Orakl Network VRFCoordinator",
    "version": 1
  },
  "userdoc": {
    "kind": "user",
    "methods": {
      "cancelRequest(uint256)": {
        "notice": "Canceling oracle request"
      },
      "deregisterOracle(address)": {
        "notice": "Deregisters an oracle."
      },
      "getCommitment(uint256)": {
        "notice": "Get request commitment."
      },
      "getPrepaymentAddress()": {
        "notice": "Access address for prepayment associated withcoordinator."
      },
      "getRequestConfig()": {
        "notice": "Get configuration relevant for making requests"
      },
      "hashOfKey(uint256[2])": {
        "notice": "Returns the proving key hash key associated with this public key"
      },
      "keyHashToOracles(bytes32)": {
        "notice": "Find oracles associated with given key hash."
      },
      "oracleToKeyHash(address)": {
        "notice": "Find key hash associated with given oracle address."
      },
      "pendingRequestExists(address,uint64,uint64)": {
        "notice": "Check to see if there exists a request commitment consumers for all consumers and keyhashes for a given acc."
      },
      "registerOracle(address,uint256[2])": {
        "notice": "Registers an oracle and its proving key."
      },
      "requestRandomWords(bytes32,uint32,uint32,address)": {
        "notice": "Request a set of random words using a [temporary] account."
      },
      "requestRandomWords(bytes32,uint64,uint32,uint32)": {
        "notice": "Request a set of random words using a [regular] account."
      },
      "setConfig(uint32,uint32,(uint32,uint32,uint32,uint32,uint32,uint24,uint24,uint24,uint24))": {
        "notice": "Sets the configuration of the VRF coordinator"
      },
      "typeAndVersion()": {
        "notice": "The type and version of this contract"
      }
    },
    "notice": "Accepts requests for random words either through [regular] or [temporary] account by calling `requestRandomWords` function. Consumers can choose which random words provider they want to request random number from by specifying a keyHash that is associated with such provider. Random words are partially generated using unique seed created during request transaction. The request for random words is concluded by emitting `RandomWordsRequested` event which includes all necessary metadata to provide requested random words. Off-chain oracle that was requested to provide random words generates a proof using seed and its private key, and submits it back to VRFCoordinator through `fulfillRandomWords` function. Proof is validated that it was generated by the requested oracle, and the requested number of random words are populated from it. Eventually, the random words are passed to consumer smart contract.",
    "version": 1
  },
  "storageLayout": {
    "storage": [
      {
        "astId": 7,
        "contract": "src/v0.1/VRFCoordinator.sol:VRFCoordinator",
        "label": "_owner",
        "offset": 0,
        "slot": "0",
        "type": "t_address"
      },
      {
        "astId": 912,
        "contract": "src/v0.1/VRFCoordinator.sol:VRFCoordinator",
        "label": "sOracles",
        "offset": 0,
        "slot": "1",
        "type": "t_array(t_address)dyn_storage"
      },
      {
        "astId": 916,
        "contract": "src/v0.1/VRFCoordinator.sol:VRFCoordinator",
        "label": "sRequestIdToCommitment",
        "offset": 0,
        "slot": "2",
        "type": "t_mapping(t_uint256,t_bytes32)"
      },
      {
        "astId": 920,
        "contract": "src/v0.1/VRFCoordinator.sol:VRFCoordinator",
        "label": "sRequestOwner",
        "offset": 0,
        "slot": "3",
        "type": "t_mapping(t_uint256,t_address)"
      },
      {
        "astId": 923,
        "contract": "src/v0.1/VRFCoordinator.sol:VRFCoordinator",
        "label": "sPrepayment",
        "offset": 0,
        "slot": "4",
        "type": "t_contract(IPrepayment)7831"
      },
      {
        "astId": 933,
        "contract": "src/v0.1/VRFCoordinator.sol:VRFCoordinator",
        "label": "sConfig",
        "offset": 0,
        "slot": "5",
        "type": "t_struct(Config)930_storage"
      },
      {
        "astId": 936,
        "contract": "src/v0.1/VRFCoordinator.sol:VRFCoordinator",
        "label": "sFeeConfig",
        "offset": 0,
        "slot": "6",
        "type": "t_struct(FeeConfig)7458_storage"
      },
      {
        "astId": 6104,
        "contract": "src/v0.1/VRFCoordinator.sol:VRFCoordinator",
        "label": "sKeyHashes",
        "offset": 0,
        "slot": "7",
        "type": "t_array(t_bytes32)dyn_storage"
      },
      {
        "astId": 6115,
        "contract": "src/v0.1/VRFCoordinator.sol:VRFCoordinator",
        "label": "sKeyHashToOracle",
        "offset": 0,
        "slot": "8",
        "type": "t_mapping(t_bytes32,t_struct(Oracle)6110_storage)"
      },
      {
        "astId": 6119,
        "contract": "src/v0.1/VRFCoordinator.sol:VRFCoordinator",
        "label": "sOracleToKeyHash",
        "offset": 0,
        "slot": "9",
        "type": "t_mapping(t_address,t_bytes32)"
      }
    ],
    "types": {
      "t_address": {
        "encoding": "inplace",
        "label": "address",
        "numberOfBytes": "20"
      },
      "t_array(t_address)dyn_storage": {
        "base": "t_address",
        "encoding": "dynamic_array",
        "label": "address[]",
        "numberOfBytes": "32"
      },
      "t_array(t_bytes32)dyn_storage": {
        "base": "t_bytes32",
        "encoding": "dynamic_array",
        "label": "bytes32[]",
        "numberOfBytes": "32"
      },
      "t_bool": {
        "encoding": "inplace",
        "label": "bool",
        "numberOfBytes": "1"
      },
      "t_bytes32": {
        "encoding": "inplace",
        "label": "bytes32",
        "numberOfBytes": "32"
      },
      "t_contract(IPrepayment)7831": {
        "encoding": "inplace",
        "label": "contract IPrepayment",
        "numberOfBytes": "20"
      },
      "t_mapping(t_address,t_bytes32)": {
        "encoding": "mapping",
        "key": "t_address",
        "label": "mapping(address => bytes32)",
        "numberOfBytes": "32",
        "value": "t_bytes32"
      },
      "t_mapping(t_bytes32,t_struct(Oracle)6110_storage)": {
        "encoding": "mapping",
        "key": "t_bytes32",
        "label": "mapping(bytes32 => struct VRFCoordinator.Oracle)",
        "numberOfBytes": "32",
        "value": "t_struct(Oracle)6110_storage"
      },
      "t_mapping(t_uint256,t_address)": {
        "encoding": "mapping",
        "key": "t_uint256",
        "label": "mapping(uint256 => address)",
        "numberOfBytes": "32",
        "value": "t_address"
      },
      "t_mapping(t_uint256,t_bytes32)": {
        "encoding": "mapping",
        "key": "t_uint256",
        "label": "mapping(uint256 => bytes32)",
        "numberOfBytes": "32",
        "value": "t_bytes32"
      },
      "t_struct(Config)930_storage": {
        "encoding": "inplace",
        "label": "struct CoordinatorBase.Config",
        "members": [
          {
            "astId": 925,
            "contract": "src/v0.1/VRFCoordinator.sol:VRFCoordinator",
            "label": "maxGasLimit",
            "offset": 0,
            "slot": "0",
            "type": "t_uint32"
          },
          {
            "astId": 927,
            "contract": "src/v0.1/VRFCoordinator.sol:VRFCoordinator",
            "label": "reentrancyLock",
            "offset": 4,
            "slot": "0",
            "type": "t_bool"
          },
          {
            "astId": 929,
            "contract": "src/v0.1/VRFCoordinator.sol:VRFCoordinator",
            "label": "gasAfterPaymentCalculation",
            "offset": 5,
            "slot": "0",
            "type": "t_uint32"
          }
        ],
        "numberOfBytes": "32"
      },
      "t_struct(FeeConfig)7458_storage": {
        "encoding": "inplace",
        "label": "struct ICoordinatorBase.FeeConfig",
        "members": [
          {
            "astId": 7441,
            "contract": "src/v0.1/VRFCoordinator.sol:VRFCoordinator",
            "label": "fulfillmentFlatFeeKlayPPMTier1",
            "offset": 0,
            "slot": "0",
            "type": "t_uint32"
          },
          {
            "astId": 7443,
            "contract": "src/v0.1/VRFCoordinator.sol:VRFCoordinator",
            "label": "fulfillmentFlatFeeKlayPPMTier2",
            "offset": 4,
            "slot": "0",
            "type": "t_uint32"
          },
          {
            "astId": 7445,
            "contract": "src/v0.1/VRFCoordinator.sol:VRFCoordinator",
            "label": "fulfillmentFlatFeeKlayPPMTier3",
            "offset": 8,
            "slot": "0",
            "type": "t_uint32"
          },
          {
            "astId": 7447,
            "contract": "src/v0.1/VRFCoordinator.sol:VRFCoordinator",
            "label": "fulfillmentFlatFeeKlayPPMTier4",
            "offset": 12,
            "slot": "0",
            "type": "t_uint32"
          },
          {
            "astId": 7449,
            "contract": "src/v0.1/VRFCoordinator.sol:VRFCoordinator",
            "label": "fulfillmentFlatFeeKlayPPMTier5",
            "offset": 16,
            "slot": "0",
            "type": "t_uint32"
          },
          {
            "astId": 7451,
            "contract": "src/v0.1/VRFCoordinator.sol:VRFCoordinator",
            "label": "reqsForTier2",
            "offset": 20,
            "slot": "0",
            "type": "t_uint24"
          },
          {
            "astId": 7453,
            "contract": "src/v0.1/VRFCoordinator.sol:VRFCoordinator",
            "label": "reqsForTier3",
            "offset": 23,
            "slot": "0",
            "type": "t_uint24"
          },
          {
            "astId": 7455,
            "contract": "src/v0.1/VRFCoordinator.sol:VRFCoordinator",
            "label": "reqsForTier4",
            "offset": 26,
            "slot": "0",
            "type": "t_uint24"
          },
          {
            "astId": 7457,
            "contract": "src/v0.1/VRFCoordinator.sol:VRFCoordinator",
            "label": "reqsForTier5",
            "offset": 29,
            "slot": "0",
            "type": "t_uint24"
          }
        ],
        "numberOfBytes": "32"
      },
      "t_struct(Oracle)6110_storage": {
        "encoding": "inplace",
        "label": "struct VRFCoordinator.Oracle",
        "members": [
          {
            "astId": 6106,
            "contract": "src/v0.1/VRFCoordinator.sol:VRFCoordinator",
            "label": "registered",
            "offset": 0,
            "slot": "0",
            "type": "t_bool"
          },
          {
            "astId": 6109,
            "contract": "src/v0.1/VRFCoordinator.sol:VRFCoordinator",
            "label": "oracles",
            "offset": 0,
            "slot": "1",
            "type": "t_array(t_address)dyn_storage"
          }
        ],
        "numberOfBytes": "64"
      },
      "t_uint24": {
        "encoding": "inplace",
        "label": "uint24",
        "numberOfBytes": "3"
      },
      "t_uint256": {
        "encoding": "inplace",
        "label": "uint256",
        "numberOfBytes": "32"
      },
      "t_uint32": {
        "encoding": "inplace",
        "label": "uint32",
        "numberOfBytes": "4"
      }
    }
  }
}